:020000040800F2
:10000000D00F0020A101000865290008B5240008D0
:100010003328000861030008AD3800080000000024
:10002000000000000000000000000000293100086E
:1000300071030008000000008F2F00082B3100081A
:10004000BB010008BB010008BB010008BB010008A0
:10005000BB010008BB010008BB010008BB01000890
:10006000BB010008BB010008BB010008BB01000880
:10007000BB010008BB010008BB010008BB01000870
:10008000BB01000865030008BB010008BB010008B4
:10009000BB010008BB010008BB0100087303000896
:1000A000BB010008BB010008BB010008BB01000840
:1000B000BB0100080000000000000000BB010008B8
:1000C000BB0100080000000000000000BB010008A8
:1000D00000000000BB010008A53800080000000077
:1000E000BB010008BB010008000000000000000088
:1000F0000000000000000000000000000000000000
:10010000000000000000000000000000BB0100082B
:100110000000000000000000BB010008BB01000857
:10012000BB010008BB010008BB010008BB010008BF
:10013000BB010008000000000000000000000000FB
:10014000BB010008BB010008BB010008BB0100089F
:10015000BB010008BB010008BB010008BB0100088F
:10016000BB010008BB010008BB0100080000000043
:10017000BB010008BB0100080000000000000000F7
:10018000BB010008BB010008BB010008DFF80CD070
:1001900000F090F800480047593B0008D00F0020BD
:1001A0000648804706480047FEE7FEE7FEE7FEE711
:1001B000FEE7FEE7FEE7FEE7FEE7FEE7C9310008DF
:1001C0008D0100082DE9F05F0546002092469B4610
:1001D00088460646814640241BE02846414647465D
:1001E000224600F056F853465A46C01A914110D3A1
:1001F00011461846224600F03DF82D1A67EB01081B
:100200004F4622460120002100F034F817EB000988
:100210004E41201EA4F10104DFDC484631462A4647
:10022000434600F000B830BCBDE8C09F40EA01037F
:100230009B0703D009E008C9121F08C0042AFAD29C
:1002400003E011F8013B00F8013B521EF9D2704760
:10025000D2B201E000F8012B491EFBD27047002208
:10026000F6E710B513460A4604461946FFF7F0FFB5
:10027000204610BD202A04DB203A00FA02F10020BB
:1002800070479140C2F1200320FA03F319439040D4
:100290007047202A04DB203A21FA02F0002170473F
:1002A00021FA02F3D040C2F12002914008431946DE
:1002B000704700001CB509480090094801900546A8
:1002C000009C06E0E06840F0010394E807009847CE
:1002D0001034AC42F6D3FFF75DFF00004C6A000813
:1002E0006C6A0008452906D81C48082101701A4884
:1002F00000214170704718494A78032A2BD8DFE85B
:1003000002F00205131B012248614A70134A137858
:10031000172B9CBF013313704A69821AB2F57A6FAA
:1003200019D34861022015E04A69821AB2F5FA6FC2
:1003300011D3486103200DE0084A1378092B24BF2C
:10034000013B13704A6941F27073821A9A4202D3D8
:100350004861012048707047300000200C000020E8
:10036000FEE70000014800F05BB800BF700000200D
:1003700070474FF4807000F011B9EFF3108072B63F
:10038000FEE7D8B190F82510022919D110B50168FF
:10039000D0E910230C6824F001040C600C6824F0F0
:1003A0000E040C6003F01C01012303FA01F15160FB
:1003B000002180F82530BDE8104004E0012105E06F
:1003C0000421C1630121002280F8242008467047DF
:1003D00090F8251002291DD1B0B50168826BD0E9D3
:1003E00010340D6825F001050D600D6825F00E052F
:1003F0000D6004F01C01012404FA01F15960002190
:1004000080F8241080F825400AB190470021BDE80B
:10041000B04002E00421C16301210846704700009A
:10042000F0B5D0E910230168042403F01C0316681A
:100430000D689C40344201D06F071BD402249C40BD
:10044000344201D0AF071FD426FA03F4240735D570
:100450002C0733D50C6824F00E040C60012101FA3E
:1004600003F353600022C16380F8242080F8251034
:10047000416B1FE00B689B0603D40B6823F0040359
:100480000B605460016B15E00A68920606D40A6896
:1004900022F00A020A60012280F82520002280F85A
:1004A0002420074A02F17C03994288BF02F580624A
:1004B0001460C16A11B1BDE8F0400847F0BD00BF4B
:1004C0000400024000284DD0F0B5022100F10807D9
:1004D000274D80F8251025490368D0CF01F1080C7D
:1004E0008E46634538BFA1F5806138BF05F580654C
:1004F0001D441422B5FBF2F2950047F6F072C0E9F4
:1005000010151968914346EA0702196041691143C1
:1005100082691143C2691143026A11431A68114387
:100520002143B4F5804F196012D063450EF1A80144
:1005300005F01C0338BFAEF556710F240A689C40C5
:10054000A2430A600A68446804FA03F31A430A6083
:1005500000210122C16380F8241080F82520BDE825
:10056000F04000E001210846704700BF000402404F
:10057000F8FBFDBFB0B5044600F0F8F805460548A5
:10058000611C007818BF044400F0F0F8401BA04242
:10059000FAD3B0BD000000207047000003490A688C
:1005A000024208BF70470860FFF7F6BF140401401D
:1005B0002DE9FE4F5F4A07234FF0000A4FF0000C71
:1005C000904208BF0223019300F120020023009211
:1005D0000A6832FA03F508BF00F0B6B8012404FA3D
:1005E00003F712EA070B00F09F80D1F804E0032222
:1005F00002FA0AF50EF003086FEA0509A8F10105F1
:10060000012D0FD88568CE6805EA090506FA0AF6B5
:1006100035438560CEF3001546689D40BE433543A3
:10062000456005E0B8F1030F02D14FF0030821E067
:10063000C5688E6805EA090506FA0AF63543B8F179
:10064000020FC56016D10CF01C050F22009C02FAA7
:1006500005FE6FF0030202EA5307E65926EA0E0E82
:100660000E6906FA05F545EA0E05E551D1F804E0F4
:100670000EF00308066808FA0AF506EA090635438B
:100680001EF4403F05604FD02D4A2B4CB0F1904FE7
:100690001568A4F57E7745F001051560156805F02D
:1006A00001050295029D23F0030557F805E007D0E8
:1006B000244ADDF80480904208BF4FF0010801E0B1
:1006C0004FF000080CF00C050F229E0802FA05F40A
:1006D00008FA05F5184A2EEA04042C4347F8264088
:1006E00094684E6844EA0B05F70258BF24EA0B05EC
:1006F000124C9560B702A646246844EA0B0558BF21
:1007000024EA0B05CEF80050B703546844EA0B0501
:1007100058BF24EA0B055560F603146844EA0B053C
:1007200058BF24EA0B0515600AF1020A0CF1040C0B
:1007300001334DE700080048000401400C0401406B
:1007400060100240000400481EBCBDE8E08F426912
:1007500002EA0103914341EA034181617047182392
:10076000002A08BF2823C1507047000001480068D4
:10077000704700BFCC09002090F84120202A03D107
:1007800090F84020012A01D1022111E0242280F8B2
:1007900041200268136823F001031360136823F4F7
:1007A0008053136013681943734602F0EEF89E46B7
:1007B0000846704790F84120202A03D190F8402045
:1007C000012A01D1022110E0242280F84120026890
:1007D000136823F001031360136823F4706343EA82
:1007E0000121734602F0D1F89E460846704700008A
:1007F00008B3B0B5044690F8410020B902F0ACFA55
:10080000204600F087FA242084F84100D4E9000350
:10081000D4E90212056823F07063012A25F001056E
:1008200005600361836823F40043836005D141F4CC
:10083000004181600AE00120704741F40441022A2E
:10084000816003D1416841F4006102E0416821F414
:10085000006141600F4A04F1100541681143416095
:10086000C16821F40041C1602ECD114341EA03214A
:10087000C160216A29430160016841F00101016002
:1008800000202021606484F84110206384F8420035
:10089000B0BD00BF008000022DE9FE4F04460020DD
:1008A000029094F84100202806D120688069000455
:1008B00002D402F017FA02D1022000F06FB88A4683
:1008C00090462420344A1D464FF000095F1C84F8EE
:1008D000410001206FF39F2A84F84000C4F844903F
:1008E000E168206893460129114618BF01F50061AF
:1008F00041EA0A014160FFF739FF06462068816935
:10090000826901F0200102F01002891809D1002F3C
:10091000F4D0FFF72BFF801BA8422AD8002DEDD181
:1009200027E08169C90610D42046202100222B46E9
:10093000009601F057FE40B3606C042812D1206885
:100940002021C161C4F844900CE0102100222B4604
:10095000C16120462021009601F044FE10B92068B4
:100960002021C16102985A46013002900298404508
:10097000B6D302F0BBF9606C40F020006064012047
:10098000002184F8401000F009B820682021C161DE
:1009900084F841100020F3E7002000021EBCBDE8EF
:1009A000E08F00002DE9F84302F0DEFA02D102F0F8
:1009B00099F903D102252846BDE8F88301251E4692
:1009C0001746884684F84050FFF7D0FE02F073F9CE
:1009D0000028F0D1212002F001F96685606367628A
:1009E000C848618DB1F5807F04D3FF214FF080733B
:1009F000218505E0618D0029218549D04FF00073E4
:100A000017F8012B2568AA624A1E67622285628D4B
:100A1000013A62850090CAB22046414601F0CAFD03
:100A2000089F0025FF26608D68B3204639464A4658
:100A300001F023FE50BB02F06AF802F089F902F0DF
:100A400033FAF0D00004EED12046802100223B464C
:100A500002F087F8D0B902F08BF921BF2685009506
:100A60002046414627BFFF224FF08073608D2085CE
:100A70003FBF0095C2B22046414638BF4FF00073D9
:100A800001F098FDCFE702F00AFA40B1012592E7A4
:100A900000902046414600224FF00073BEE72068D8
:100AA0002021994B02F015FA85E700BF2DE9F84F98
:100AB00002F05AFA0CD1DDF828B0BBF1000F09D0D2
:100AC000DDF82C80B8F1000F04D002F00BF907D14B
:100AD000022502E002F037FA0125284600F07AB834
:100AE00002F010F902F0E7F80028F6D122200C9964
:100AF0000025F2B2002384F84100402084F842002F
:100B0000324802F05BF98346A0F5806001F0EEFF09
:100B100002F0F0F878B92068012E03D002F030F925
:100B200048B92068F9B2002243468162204640213C
:100B300002F017F810B184F84050CDE702F018F930
:100B400009D30120514601224FF080732085CDF852
:100B500000B0204603E002F066F8CDF800B001F0E6
:100B600029FD00250126204604210022434601F0EC
:100B7000F8FF0028B0D102F064F819D0000417D1B2
:100B8000204680210022434601F0EBFF0028A3D13C
:100B900002F0EEF807D32685009520465146012243
:100BA0004FF0807302E002F03EF8009501F002FD84
:100BB000608D0028D7D102F050F900287FF48CAF67
:100BC00020682021024B02F084F986E7002400808F
:100BD00000E800FE18BCBDE8E08F00002DE9F84FEA
:100BE00002F0C2F90CD1DDF828B0BBF1000F09D03A
:100BF000DDF82C80B8F1000F04D002F073F807D1B3
:100C0000022502E002F09FF90125284600F07EB897
:100C100002F078F802F04FF80028F6D121200C9964
:100C20000025F2B24FF0807384F84100402084F830
:100C30004200344802F0C2F801F058FF02F05AF8BE
:100C400078B92068012E03D002F09AF848B92068DC
:100C5000F9B20022434681622046802101F081FFE3
:100C600010B184F84050CFE702F082F809D3FF209A
:100C70005146FF224FF080732085002000902046CF
:100C800008E0608D00214FF0007320850091C2B212
:100C90002046514601F08EFC0025FF2602F02AF87E
:100CA0000028B1D101F033FF02F052F802F0FCF855
:100CB00019D0000417D1204680210022434601F0BC
:100CC00050FF0028A0D102F053F807D326850095E5
:100CD00020465146FF224FF0807302E001F0A3FF4F
:100CE000009501F067FC608D0028D7D102F0B5F8BF
:100CF00000287FF489AF20682021034B02F0E9F837
:100D000083E700BF0020008000E800FE18BCBDE8BB
:100D1000E08F00002DE9F0439BB0044616A8142193
:100D2000FFF79DFA01A85421FFF799FA2068454979
:100D3000884243D04449884240F08080402001905E
:100D400001A800F06DF908B1FFF717FB3F4E4FF017
:100D500003080027306840F001003060306800F080
:100D6000010000900420CDF8648018971A9012209A
:100D700017904FF4C0601690009816A901F001FE7C
:100D8000F068344D40F40010F0608020C5E9018720
:100D9000C5E9037030482860F068C5E90577C5E902
:100DA000077700F40010009000982846FFF78AFBB0
:100DB00008B1FFF7E2FAAC62E5633FE04FF4807000
:100DC000019001A800F02CF908B1FFF7D6FA1F4DE9
:100DD0004FF004084FF0030900261227286840F05E
:100DE00001002860286800F0010000900098286841
:100DF00040F002002860286800F002000090802087
:100E0000CDF86880CDF864901896179716900098E2
:100E100016AC01F010FE10202146CDE91998CDE95D
:100E2000177616900A48FFF7C3FBE86840F4000005
:100E3000E860E86800F40000009000981BB0BDE88E
:100E4000F08300BF005C0040005400404C100240A2
:100E50000004004870000020800002401B48034945
:100E600000780A6810440860704700BFCC09002071
:100E700080B5032000F07AF8002000F007F808B1F0
:100E8000012080BD00F024F8002080BD70B50F4E19
:100E900004463078B0B14FF47A71B1FBF0F05449A8
:100EA0000968B1FBF0F000F06FFD01250F2C0AD8A6
:100EB00048B94FF0FF3021460022002500F030F8FD
:100EC000746000E00125284670BD00BF00000020CE
:100ED00082B00A48816841F001018160816801F0B7
:100EE000010101910199016841F0805101600068A0
:100EF00000F080500090009802B0704758100240F7
:100F0000002809D41C21012201EAD00100F01F00B1
:100F100002FA00F0014A8850704700BF00E100E08B
:100F2000F0B5184B4FF0FF361C68C4F30224E51EE1
:100F300084F0070438BF002506FA05F7BA43042CED
:100F400028BF042406FA04F4A14300F00F04A940CA
:100F5000043C1143044A234409010244002848BFC9
:100F600003F10C021170F0BD00E400E005494FF6FA
:100F7000FF030A681A4060F30A220348104308601E
:100F8000704700BF0CED00E00000FA0510B5AE4957
:100F9000B0F5007F0A6802F4C0621ED1B2F5007F8E
:100FA00023D00868012262F34A2032220860F64802
:100FB000006850430F4AB0FBF2F0002201304C6948
:100FC000013842F10003640501D5002BF7D14869CF
:100FD000400544BF032010BD07E0B2F5806F04D088
:100FE0000868022262F34A200860002010BD00BF9A
:100FF0000800002040420F009348006800F4C060E1
:10100000704700BF9048016841F4807101607047EB
:101010000248016841F0040101607047001002407D
:101020002DE9F84304464078864F00071BD5E06B56
:1010300068B1B0F5400F11D0B0F5000F40F0EC8072
:10104000386840F4803038604FF4000006E0201D1E
:10105000002101F09DFF814638B9E06BF96F21F462
:1010600040010843F8674FF00009A078800750D589
:10107000F86C5FEAC00808D4F86C40F08050F8645F
:10108000F86C00F08050009000986F4D286840F494
:1010900080702860FFF76AFB06462868C00507D401
:1010A000FFF764FB801B0228F7D94FF0030929E002
:1010B000B9F1000F26D1D7F8840010F4407017D092
:1010C000216D884211D0D7F88400D7F8841041F4FC
:1010D000803120F44070C7F88410D7F8841021F4D0
:1010E0008031C7F88410C7F88400C00740F09780AB
:1010F000206DD7F884104FF0000921F440710843A7
:10110000C7F88400B8F1000F03D4F86C20F08050C9
:10111000F8642068C10705D0216AFA6F22F0030243
:101120001143F967810705D5616AFA6F22F00C0255
:101130001143F967810605D5A16AFA6F22F440626E
:101140001143F967810505D5616BFA6F22F44022DE
:101150001143F967410505D5A16BFA6F22F44012DE
:101160001143F967410605D5E16AFA6F22F440524E
:101170001143F967C10505D5216BFA6F22F440329E
:101180001143F967810413D5216C01F063FC07D08A
:10119000B1F1006F0CD1396841F48011396007E07A
:1011A000201D012101F0F4FE002818BF81462068AF
:1011B000410313D5616C01F04DFC07D0B1F1006F14
:1011C0000CD1396841F48011396007E0201D0121FC
:1011D00001F0DEFE002818BF81462068410410D5CA
:1011E000A16CFA6F22F040520A43B1F1805FFA67B6
:1011F00007D1201D022101F0CBFE002818BF814637
:101200002068000405D5E06CF96F21F080410843A7
:10121000F8674846BDE8F8834FF0010925E7FFF776
:10122000A5FA064641F288354FF00309D7F8840045
:1012300080073FF55DAFFFF799FA801BA842F5D90B
:1012400060E700BF0C100240007000402DE9F84339
:10125000002800F092804A4D04468846286800F035
:10126000070081420AD9286820F0070040EA0800F8
:101270002860286800F0070040457ED120684F4E66
:1012800010F002010AD0A268336803F0F0039A421A
:1012900004D9336823F0F0031A433260C20731D017
:1012A00056F8081C606848B1022804D0032808D109
:1012B000890108D461E0890305D45EE0890702D47E
:1012C0005BE0490559D53168A946354621F003014F
:1012D000084301F08BFC064641F2883760682968B4
:1012E00001F00C01B1EB800F07D0FFF73FFA801B34
:1012F000B842F3D90320BDE8F88320682E464D4656
:1013000000F0020151B1A168326802F0F00291428E
:1013100004D2326822F0F00211433160296801F0F2
:10132000070188450AD2296821F0070141EA08012E
:101330002960296801F0070141451ED1410705D503
:10134000E168326822F4E06211433160000706D59B
:101350002069316821F4605141EAC000306000F03A
:1013600031F83168074A01F046FD13490860074823
:101370000068BDE8F843FFF789BD0120BDE8F883A8
:1013800000200240F65C0008080000200400002055
:1013900009480A490A4A00680968C1F3022101F0B4
:1013A000BFBC00BF04480549054A00680968C1F38D
:1013B000C22101F0B5BC00BF0800002008100240A7
:1013C000065D000810B526488168C36811F00C025C
:1013D000014605D00C2A24D103F00303012B20D1B0
:1013E0000B4653F8944B14F0080408BF18464FF00E
:1013F0000403006808BF0823D8401C4B00F00F000E
:10140000002A53F82030184618BF00200C2A21D19A
:10141000C86800F00300022809D0032808BF124B57
:1014200006E0042A17D0082A17D10F4810BD0D4B2B
:10143000C868CA68C9680224C2F30622C0F3021051
:10144000C1F341615A43013004EB4101B2FBF0F0BA
:10145000B0FBF1F010BD034810BD00200023D5E71C
:10146000001002400024F40000127A00105D000811
:1014700040B32DE9F843E14E0446B06800F00C0893
:10148000F06800F003072078C0061DD42078C0075C
:101490005AD0B8F1080F50D0B8F10C0F08BF032F85
:1014A0004BD030686168B1F5803F07D0B1F5A02F0F
:1014B00040F0DC8140F480203060306840F48030BF
:1014C0003060DBE101207047B8F1000F19D0B8F1AE
:1014D0000C0F08BF012F14D03068A169002900F05B
:1014E000518140F0010001F081FB05463068800722
:1014F00000F15781FFF73AF901F0E6FBF6D9BDE8B4
:10150000F8833068800703D5A069002800F0AB811C
:10151000206A316809075ABFD6F894100909316862
:1015200001F0F001884240F2F78001F0BBFD002895
:1015300040F0998101F035FA02E13068800303D56B
:101540006068002800F08F812078800728D5B8F1E6
:10155000040F17D0B8F10C0F08BF022F12D030685B
:10156000E168002900F0988140F4807001F03EFBB2
:101570000546306840050CD4FFF7F8F801F0A4FBED
:10158000F7D9BCE73068400503D5E068002800F0D3
:101590006A812069716821F0F85141EA0060706049
:1015A0002078000755D42078400769D42078800639
:1015B00000F19A80A06A002800F09A81022840F089
:1015C000F380E16AF06800F003028A4240F0008193
:1015D000216B6FF00F0202EB011100F070028A42E2
:1015E00040F0F680616B00F4FE42B2EB012F40F058
:1015F000EF80A16B00F07842B2EBC16F40F0E88061
:10160000E16BDE4A02EA015100F4C002A1F50011CB
:101610008A4240F0DD80216C4FF07E4200F0C060D5
:1016200002EA016101F17E41884240F0D1803068D8
:10163000800100F15D8101F003FA04463068800109
:1016400000F15681FFF792F8011B03200229F5D91A
:1016500055E7D6F894006169002900F0818040F0D8
:101660000100C6F89400FFF781F80546D6F894000B
:10167000800798D4FFF77AF8401B0228F6D9EAE0F1
:10168000B06D5FEAC00908D4B06D40F08050B0651D
:10169000B06D00F0805000900098B74F3868C005DA
:1016A0000FD4386840F480703860FFF75FF8054663
:1016B0003868C00505D4FFF759F801F005FBF7D9E4
:1016C0001DE7D6F89000A168012908D0052940F04F
:1016D000A98040F00400C6F89000D6F8900040F0D1
:1016E0000100C6F89000A8E0D6F89800616A0029C9
:1016F00000F0868040F00100C6F89800FFF736F849
:101700000546D6F8980080073FF554AFFFF72EF84E
:1017100001F0DAFAF5D9F2E6316841F008013160FA
:10172000316821F0F00101433160B8F1000FE16947
:10173000726822F47F4242EA0121716000F08E80DB
:10174000FFF740FEB168894A01F055FB88490860FF
:1017500088480068FFF79AFB00287FF4D0AE95E632
:1017600020F00100C6F89400FFF700F80546D6F80F
:10177000940080077FF517AFFEF7F8FF01F0A4FA99
:10178000F5D9BCE620F0010001F030FA05463068DA
:1017900080077FF57BAEFEF7E9FF01F095FAF6D9F9
:1017A000ADE601F0FEF871E6B8F10C0F5BD03068E1
:1017B00020F0807001F01AFA04463068800140F190
:1017C0009380FEF7D3FF011B03200229F5D996E68B
:1017D000B8F10C0F47D03068400144D4306820F095
:1017E000807001F003FA05463068800140F1918075
:1017F000FEF7BCFF01F068FAF6D980E6001002405F
:1018000020F00100C6F89800FEF7B0FF0546D6F8B4
:10181000980080077FF5CEAEFEF7A8FF01F054FADE
:10182000F5D96CE620F00100C6F89000D6F89000DB
:1018300020F00400C6F89000E9B3FEF797FF0546D4
:1018400041F28837D6F89000800744D4FEF78EFF27
:10185000401BB842F6D90320BDE8F88301F022FC12
:1018600000283FF46DAF0120BDE8F88320F48030FC
:101870003060306820F480203060E1B3FEF776FFFE
:101880000546306880033FF55FAEFEF76FFF411BF2
:1018900003206429F5D932E620F4807001F0A6F91E
:1018A0000546306840057FF57BAEFEF75FFF01F02F
:1018B0000BFAF6D923E6FEF759FF054641F28837C1
:1018C000D6F89000800706D5FEF750FF411B032095
:1018D000B942F5D913E6B9F1000F3FF567AEB06D27
:1018E00020F08050B06561E6F06826490840F0605D
:1018F0000020BDE8F883FEF739FF05463068800315
:101900007FF522AEFEF732FF411B03206429F5D993
:10191000F5E504F12C036FF00F05194F0FCB05EB24
:101920000111F5683D4028430843E16B40EA02207D
:10193000124A02EA01514FF07E42A1F5001108431C
:10194000216C40EAC36002EA016101F17E41084373
:10195000F06001F075F8044630688001C8D4FEF7E5
:1019600005FF011B03200229F6D9C8E5F65C000833
:101970000800002004000020007000400000E0FF8C
:101980008C809D01FCFFEEFE411E0020B0EB116F2C
:101990001CBF01207047044AF023516003490B70BB
:1019A000072190601160704710E000E023ED00E037
:1019B00090F83C20012A01D1022134E070B591E871
:1019C0003C001A4E25F47C5524F4705433402C43CB
:1019D00022F477222343654C1A430B6923F47623C0
:1019E0001A434B691A438B6A22F4742223F470233E
:1019F0001A438B6942EA03430268A2420DD1D1E93E
:101A00000745496A0A4E23F07C7306EA01511943DF
:101A100024F00073194341EA0503002180F83C10CB
:101A20005364BDE870400846704700BFFF87F0FF71
:101A30000000F0FC90F83C300222012B26D070B55B
:101A400080F83D20F14C026855689368A24203D1AA
:101A50004E6825F4700535430E6825F07005354352
:101A6000B2F1804F556004D0E94DAA4201D0A242A4
:101A700004D1896823F08003194391600022012179
:101A800080F83C2080F83D10BDE87040104670475B
:101A900070B110B501F0C8F903D101F0F7F800F00A
:101AA00009F801F015F9012000F08DFF01F0DEB812
:101AB0000120704781B00068B0F1804F23D01849F1
:101AC00088420ED0F349884214D0F149884224D18B
:101AD0001448816841F400618160806800F400600E
:101AE00019E01048016841F010010160006800F041
:101AF000100010E00B48816841F40031816080687B
:101B000000F4003007E00748724601F0CFF896462F
:101B1000006800F001000090009801B0704700BF1D
:101B2000001000405810024090F83D1001291BD1D0
:101B3000022180F83D100168B1F1804F05D0D648F0
:101B4000814202D0D248814209D18868B14A7346A5
:101B500001F0B6F99E4608D0B2F5803F05D0724636
:101B600001F007FA9646704701207047002C0140AB
:101B700010B501F01DF960D084F83D0001202F4B15
:101B800084F83C00206882681A4082600A68EAB1E2
:101B9000102A1BD0202A19D0302A17D0402A3DD035
:101BA000502A32D0602A18D0B2F5005F21D0B2F5A9
:101BB000805F3CD0702A26D1D1E90123C96800F0AA
:101BC000EAFF8160816841F077012FE0816821F0B0
:101BD0007001114341F0070128E04B68CA681946BB
:101BE00001F06EFC2068816841F0670121F010016E
:101BF0001CE0D1E90123C96800F0CDFF8160816854
:101C000041F4804112E0012012E001F054F9206813
:101C1000816841F0570121F0200107E001F04BF904
:101C20002068816841F0470121F030018160002087
:101C300001F01DF9012184F83D1010BD8800FEFF60
:101C400010B586B0044601A81421FEF708FB2068F1
:101C5000904988420BD0B0F1804F1AD10E4801F064
:101C600025F8012100F0B5FF0098202007E00A4880
:101C700001F01CF80E2100F0ACFF00984020059107
:101C80000021CDE903110221CDE9010101A900F0F4
:101C900078FE06B010BD00BF4C100240B0B501F098
:101CA00045F904BF0220B0BD0D4601204FEAB20144
:101CB000052984F83C0048D8DFE801F0032B132302
:101CC0000B332068294601F0CFFA206850F8181F1E
:101CD0000EE02068294601F087FB206850F8541F69
:101CE00006E02068294601F027FB206850F81C1FF9
:101CF00041F008010160016821F0040101602969D7
:101D00001FE02068294601F049FB206850F81C1F9D
:101D10000EE02068294601F0DDFA206850F8181F0F
:101D200006E02068294601F083FB206850F8541F24
:101D300041F400610160016821F48061016029695A
:101D40000902026811430160002001F090F8B0BD63
:101D500070B110B501F068F803D100F097FF00F002
:101D600009F800F0B5FF012000F02DFE00F07EBF65
:101D70000120704770470000B0B5044681B100F003
:101D8000D6FE38BF03EBB205625D012A0FD10328EE
:101D900018D8DFE800F002140E1101F01EF813E06D
:101DA00094F83E00012802D100F0F5FF0CE001207C
:101DB000B0BD01F042F807E001F043F804E001F0A3
:101DC00044F801E001F035F8206800F0A3FF01F0CD
:101DD00040F80FD02E48814205D02E4A914202D0C1
:101DE0002D4A91420ED100F045FF2B4A914201D07D
:101DF000814207D18868074A01F062F804D0B2F541
:101E0000803F01D001F0B5F8B0BD00BF002C01400B
:101E10000040014007000100B0B500F04DFE206811
:101E20001B4A1A49904205D01A4A904202D01A4AD7
:101E3000904207D1026A0A4204D100F096FE01D115
:101E400000F080FE026A0A4204D100F0DBFF01D1FB
:101E500001F011F84FEAB500042813D8DFE800F0CC
:101E6000030F090C060000F092FF0DE001F067F887
:101E70000AE000F081FF07E000F072FF04E000F0EC
:101E800073FF01E001F057F80020B0BD11111100FF
:101E9000002C014000440140004001407047704761
:101EA00070470000F8B50446006840F60F03C269A9
:101EB000016886681A424FEA826361D0934D01EA55
:101EC000050706F001057F195ED0D60709D0CE05BB
:101ED00007D501260662D4F8846046F00106C4F8EE
:101EE0008460960708D53DB102260662D4F8846066
:101EF00046F00406C4F88460560708D53DB10426B0
:101F00000662D4F8846046F00206C4F884601607BE
:101F10000BD501F02006AD1907D008250562D4F8CD
:101F2000845045F00805C4F8845012050AD54A01CA
:101F300008D54FF400620262D4F8842042F02002F7
:101F4000C4F88420D4F88420002A00F0DB80002B21
:101F500006D5890604D5A16E11B1204688472068B0
:101F6000D4F88410806801F0280100F04000401887
:101F700037D12046FFF794FF0020C4F88400F8BD55
:101F8000002B01D58B0644D4236E012B03D1D3063D
:101F900001D5CB0644D4D30201D5730219D410065F
:101FA00001D5080633D4500640F1AC80480640F114
:101FB000A98000F065FF20F0400000F090FDF8D10E
:101FC0000020E0662020E0672046BDE8F84000F0F1
:101FD00091B94FF4801101622046BDE8F840FFF747
:101FE0005EBF204601F023FB2068806840064ED586
:101FF00000F000FDFCD1606F002848D044498163A7
:10200000FEF7E6F900287DD0606F816B05E0E16E98
:1020100000E0A16E002975D02046BDE8F8400847D1
:10202000102101628068400636D4B4F85A00B4F832
:102030005810B4F85A20002A64D0814262D0081A9D
:10204000216851E8001F226821F4907142E80013D2
:10205000002BF5D1216851E8021F226821F001010F
:1020600042E80213002BF5D12021C4F88010002192
:10207000A1662166216851E8001F226821F0100145
:1020800042E80013002BF5D1022161662FE02046C3
:10209000BDE8F840FFF704BF606FB4F8582000684F
:1020A000436899B249B3914227D2A4F85A300068E4
:1020B000800615D400F0E4FE20F4807000F00FFDDF
:1020C000F8D100F0CFFCFCD100F094FCFCD100F082
:1020D000C8FD206600F08DFDFCD1606FFEF751F960
:1020E00002206066B4F85800B4F85A10401A81B261
:1020F0002046BDE8F840FFF7D1BE8A4202D1006811
:10210000800600D4F8BD02206066F1E720010004DB
:102110002936000810B560B10446C06F08B900F058
:10212000E4FE00F002FE01D000F0B5FD00F0B6FDC7
:1021300008B1012010BD00F0A2FD21F02A0181604C
:1021400000F0C0FCBDE8104001F02ABAF0B59BB029
:10215000044616A81421FEF782F801A85421FEF7C0
:102160007EF82068334988422CD0334988425ED1BA
:102170000120019001A8FEF753FF08B1FEF7FDF81A
:102180002E48416941F480414161416901F4804137
:1021900000910099016841F002010160006800F0BF
:1021A0000200009007201A90032019900020189038
:1021B00002201790C0201690009816A92048FEF71C
:1021C000F7F934E00225019501A8FEF729FF08B1CF
:1021D000FEF7D3F8194803260027C16841F40031FF
:1021E000C160C16801F400310091009900F05EFD0A
:1021F00000F0EFFC07201996CDE917571A9004203C
:102200001690009816AC00F016FC4FF400402146E2
:10221000CDE91966CDE91757169000F0B2FB2620DC
:1022200000210022FEF77CFE2620FEF769FE1BB08F
:10223000F0BD00BF00440040003801404C10024097
:10224000000400482DE9F8430446C06F20281CBF55
:102250000220BDE8F8830D46B1B31646A2B30020B4
:102260009946C4F884002120E067FEF77FFAA4F8BD
:1022700052608046A4F85060A068B0F5805F01D13C
:102280002069A0B300262F46B4F85200F8B12046CA
:10229000802100F088FC28BB27B117F8010B2168CA
:1022A000886206E036F8021B206800276FF35F2182
:1022B0008162E06F00F02100212805D1B4F85200BE
:1022C0000138A4F85200DFE70120BDE8F88320467A
:1022D000402100F068FC2021E167002818BF03209E
:1022E000BDE8F8832020E0670320BDE8F8830027DD
:1022F0002E46C9E770472DE9F0478146007D012849
:1023000073D199F8908009F1180AB8F11E0F46466A
:1023100028BF1E260021304600228E4205D009EB40
:10232000810301319B691A44F7E7B2FBF6F1B2422F
:1023300005D34EF66022B2FBF1F289F800200022AC
:10234000534628B180CB01387F1A07FB0722F8E7F4
:10235000B2FBF6F001F0F4FB4FF01E0CB8F11E0FCB
:10236000C9F80800B8FBFCF1C1EB0111A8EB410171
:1023700038BF00214F1C013E002200239E4216DD83
:102380005C18B4FBFCF0C0EB0010A4EB4000FC18A0
:102390000133B4FBFCF55AF82000C5EB0515A4EB9E
:1023A00045045AF82440201A00FB0022E6E74BB10E
:1023B000B2FBF3F001F0C4FB4F28C9F8040006D9C2
:1023C000002110E000206421C9F804000BE0642122
:1023D0000B2808D348434621A0F57A7080B2B0FBA1
:1023E000F1F0C0F1640189F80110BDE8F087000048
:1023F0000269002A57D08A1AB2F57A7F53D32DE9A1
:10240000F0432A4B2A4C1344A3424AD890F89090A8
:102410004FF47A73B2FBF3FEB9F1030FCC462FD31E
:102420001E254FF01E08B9FBF5F2B9F11E0F38BF9B
:10243000C8464646C2EB0212A9EB420C674638BFBB
:10244000002700EB87020024183256B1B7FBF5F3E2
:10245000013E0137A3EB0313DB00D35804321C44C5
:10246000F3E7B4FBF8F24B2364245343B3FBF4F3D8
:102470009E4516D37D235A43B2FBF4F2964510D8FD
:102480005FFA8CF309F10102C0F80CE080F89020AB
:1024900000EB8303D2B2C3F818E0022A24BF012262
:1024A0000275BDE8F0430161704700BF80E5F9FFA8
:1024B000E76D1800FEE700688169890744BF0021C5
:1024C00081628169C90703D1816941F0010181619C
:1024D00070470000F8B5044600680D468169C906DA
:1024E00002D40027002139E0102116460427C161DB
:1024F00001218269C90792062CD459B3691C4FF097
:102500000101F6D0FEF732F9811B2068A94202D8FA
:102510000121002DEDD1426894F8421083691B041B
:1025200009D512F4804206D1202904D000F0CCFC59
:10253000FEF71CF9064620688169890608D4FEF773
:1025400015F9801B1A28F6D3206800212427D0E72C
:102550000121CEE709B12021C16101218269D305A2
:1025600005D54FF4807147F00107C1610121530582
:1025700004D4920509D469B90020F8BD4FF48061F4
:1025800047F00807C161910504D54FF4007147F089
:102590000207C16100F0B3FB2068054A41681140A1
:1025A0004160606C384300F01CFC0120F8BD00BFA6
:1025B00000E800FE70B5049C4FF480656FF39F2126
:1025C000074E006841EA024105EA54551943754037
:1025D0004668214321F0004135402943416070BDE8
:1025E000009C00FC2DE9F843DDF820801D461646CE
:1025F0000F46044603F1010900F0D1FB1BD1204630
:1026000029464246FFF766FF90B9B9F1000FF3D0B3
:10261000FEF7ACF8A0EB0800A84201D8002DEBD1E2
:1026200000F0BDFBE8D1606C40F0200000F0D9FB69
:102630000120BDE8F8830020BDE8F88370B5154699
:102640000E46044620688069800644BF002070BDA5
:1026500000F008FC78B9FEF789F8401BB04201D8B9
:10266000002EEFD1206880698006EBD4606C40F0CA
:10267000200000F0B6FB012070BDF8B515460E46EF
:1026800004464F1C20688069800744BF0020F8BDC5
:1026900000F0E8FB88B9002FF4D0FEF767F8401B84
:1026A000B04201D8002EEDD1206880698007E9D4BE
:1026B000606C40F0200000F094FB0120F8BDBCB538
:1026C00009214022044602F011F9C8BB4FF496706C
:1026D000FDF750FF204608211F2202F007F978BBC2
:1026E00020460921032202F001F948BB20460A21B5
:1026F000272202F0FBF818BB20460C21242202F00E
:10270000F5F8E8B920460D21242202F0EFF8B8B917
:1027100020460221802202F0E9F888B920460421EF
:10272000002202F0E3F858B920460621002202F008
:10273000DDF828B920460521002202F0D7F810B1B3
:1027400005462846BCBD0DF10702204600210025A4
:1027500002F0BEF8F5E7F0B587B015460E460DF16C
:102760001B020421044602F0B3F860B90DF11A020D
:102770002046062102F0ACF828B99DF81A009DF811
:102780001B10814203D10127384607B0F0BD32202B
:1027900005AA062101230127CDE900210290204648
:1027A000AE210722FEF782F90028EDD19DF8140032
:1027B0009DF815109DF816209DF81730002700F0A1
:1027C0000300000440EA01209DF8181010440DF1A8
:1027D0001302306003F00300000440EA01209DF87A
:1027E0001910084400212860204602F071F8CBE758
:1027F0001CB5044600200DF1070204218DF80700E6
:102800008DF80600204602F063F80DF1060220461E
:10281000062102F05DF89DF806009DF80710081AE1
:10282000203081B200EBD12101F0E001401AC0B2AA
:102830001CBDFEE710B594B0124C01206080FDF77E
:1028400095FF114940F6E7630A68D362A061CB6047
:10285000D06A01304008506308460021FFF78CFA27
:102860000A486423009009A0D0E901128089ADF8DC
:102870000C001D48CDE9011269460D22FFF7E2FC6C
:1028800014B010BD30000020400200204D555349C7
:10289000432053544152540D0A00000080B594B0B7
:1028A0000B48002181700B48FFF7B6FA0A486423F1
:1028B000009009A0D0E90112007B8DF80C000A48B5
:1028C000CDE9011269460C22FFF7BCFC14B080BDB3
:1028D00030000020400200204D55534943205354FE
:1028E0004F500D0A00000000AC030020B0B519499C
:1028F0008A78012A08D18A69CB78841A164A02EBB1
:1029000083056D88AC4200D2B0BD8861581C142389
:10291000B0FBF3F303EB8303A0EB8300C87032F842
:10292000200080B10D49B1FBF0F0411E0C48026857
:10293000D162C160D16A0131490851630021BDE80B
:10294000B040FFF719BA06480021BDE8B040FFF7D4
:1029500063BA00BF30000020405D000840420F0015
:1029600040020020FEE7401B00EBC000800090FB0F
:10297000F6F07047C0E90241C0E904448461FFF702
:1029800087B84FF09040FDF713BE1160116841F019
:10299000010111600021202280F8401080F84120C0
:1029A0007047306840F008003060D4E907013268B1
:1029B00022F0F00211433160716821F47F4141EA55
:1029C00000207060704784F8480084F83E0084F866
:1029D0003F0084F8400084F8410084F8420084F805
:1029E000430084F8440084F8450084F8460084F8E5
:1029F00047007047206850E8020F216820F040002F
:102A000041E80202002A704745692821002200237C
:102A1000044628470D46044602F064BE014630468F
:102A2000009502F05BB904F1600594F87A107047E4
:102A30006423FFF707BC4FF090402146FDF7B8BD77
:102A4000306840F080703060F06840F08070F06076
:102A5000FDF78CBEFA6F22F040620A43B1F1806F3D
:102A6000FA677047206850E8020F216820F00100E3
:102A700041E80202002A7047206829210279204695
:102A8000284794F824002A463346FF2870472046FA
:102A900002F054BD81B2A4EB090082B2404602F0BC
:102AA000ABB800930646234602F0B6BC1C469046DF
:102AB0008946074602F0B2BE0446006800220D4671
:102AC00000F0C2BB016841F001010160204670477F
:102AD0004FF6FE764FF0000A701C85B2704741E851
:102AE0000002002A7047204602F0C9BC0090204630
:102AF000FFF760BD204602F0D7BC0FFA86F90298B6
:102B00000C995B46B9F1FF3FCDE900017047616A5E
:102B1000206811F8012B826270470C9902982246B6
:102B20005B460027CDE900015046002170470A1F8F
:102B30003F2343254FEAB20004287047204632461F
:102B400002F057BE426C22F40042426470470168B2
:102B500051E8001F026821F0100142E80013002B29
:102B60007047CDF80090FFF73DBD026A40F2444344
:102B70001A427047016851E8001F026821F4907101
:102B800042E80013002B7047A7EB4405C4F101068F
:102B90004FF0010870471A4342EA0121826822F48B
:102BA0007F421143704700224346CDF8009000F069
:102BB00035BEF01B81B204EB090082B2404670477B
:102BC000C0E90032C0E90244C0E90441C0E906445A
:102BD0007047006800F001000090704784F84100E1
:102BE000102084F842000020606470473060FDF7D8
:102BF000BDBD206850E8000F216820F0100041E8BA
:102C00000002002A70472046294602F03EBC2046BA
:102C100002F048BD127C5143C900FDF720BB1FFAEA
:102C20008AF0BDE8F087608D51464FF00073208533
:102C3000C2B22046704700222B460090204600F08A
:102C4000EDBD2068616A406A0870608D013860855A
:102C5000606A01306062208D01382085618D002915
:102C600070472020C4F880000020704784F83D00A1
:102C7000002010BD4A6C42F400424A64704720684C
:102C8000416821F49041416081687047002084F8D8
:102C90003C0020467047204600F02EBC204600F045
:102CA000E5BC82B24846294664232047016841F0CA
:102CB0000101016070478146009020464FF40041B9
:102CC00001221923FFF78EBC411B03200229704704
:102CD0000220211D84F83D00206800F07DBA2046C6
:102CE00002F0BCBC94F8400001287047202084F812
:102CF00041007047204641464A46FFF7BEBC204689
:102D0000FFF7D9BB01251E4617468A4684F8405076
:102D1000FDF72CBD012200F097BA204601F0BFBF9D
:102D2000515C01F01F01C84070472420E067206813
:102D3000616A0268002922F001020260704782B2D3
:102D4000404601F059BF94F87610284602F024B9A5
:102D5000608D013860857047002084F8400070471E
:102D6000012084F841007047012084F83F0070473B
:102D7000608DB0F5807F7047012084F84000704777
:102D8000390A4A46816220464146FFF776BC012057
:102D900084F83E007047022084F83E0070472068A7
:102DA00080693840C01BB0FA80F040098642704705
:102DB00090F83C2004460220012A70476564C4F85C
:102DC00024B06563A4F82A80884651467047B8420B
:102DD000036246680C688B687047022084F83F00E5
:102DE00070476064202084F84100002084F840008F
:102DF00084F842007047C1F30311515C01F01F01D8
:102E0000C8407047016A40F244421142704704468C
:102E1000A1F114000528704784F8680007B000F09D
:102E200000B830BCBDE8C08F044690F83D000028D3
:102E30007047022084F843007047022084F8410064
:102E40007047022084F842007047022084F8400056
:102E500070472168B1F1804F7047204641464A468D
:102E6000FFF7ECBB204631462A46FFF733BB002173
:102E700084F83C107047016821F00101016070473F
:102E8000206850E8000F216870472046182132461C
:102E900002F0AFBC94F87C10074628463047204625
:102EA00039464A46FFF7CABB6162208D013820854A
:102EB000618D002970474B68CA68194600F0DEBA78
:102EC00002400020062A7047416841F48041416079
:102ED00070470025C16142681A40426084F8411081
:102EE00084F8405084F842507047002084F87800FD
:102EF0002046FFF72BB91E46154601EB80017047AF
:102F00001C4601338B46029282469918121B5B4481
:102F100089B292B29BB20091ABEB040189B201F08D
:102F20008DBE94F87B10824628463047044690F8C0
:102F30003C0001287047012084F8430070470120BD
:102F400084F8420070474FF4007060647047016875
:102F500051E8021F026821F0010142E80213002B30
:102F60007047E16D20460847044690F8410020284C
:102F70007047086840F00100086000207047D4F8EE
:102F800010C02046142170477A68384610477047B1
:102F9000F8B5404F04460D46F86880070ED0F86833
:102FA000216800F0030088421DD1E0B16068F96833
:102FB000C1F302110131814215D121E020680328BB
:102FC0000BD0022805D001280DD1396889070AD510
:102FD0000BE03968490506D507E03968890304D450
:102FE0003968490301D40120F8BD61686FF00F0210
:102FF00002EB0111FA6822F0730211430843F860F2
:10300000386820F080603860FDF7B0FB064638680D
:10301000000105D5FDF7AAFB801B0228F7D930E097
:103020003969A0680002012D05D07DB91C4A114004
:10303000E268D20613E0184A184B02F1B46211405C
:10304000226903EA0252A2F5001208E0124A4FF088
:103050007E431140626903EA026202F17E42084344
:1030600010433861386840F080603860FDF77EFBBF
:1030700005463868000106D4FDF778FB401B02289E
:10308000F7D90320F8BDA0693969084338610020E9
:10309000F8BD00BF00100240FF80FFF90000E0FF14
:1030A000FF80FF07BCB51E4D04462868C0000FD442
:1030B000286840F080502860286800F08050019017
:1030C0000198FDF799FF296821F08051296001E0FE
:1030D000FDF792FFB0F5007F06D1812C08D30120C7
:1030E000A02C88BF02200DE0802C03D9032009E02A
:1030F000002007E0A4F17000B0FA80F04009802CB5
:1031000008BF022007490A6822F0070202440A6049
:10311000096801F00701081A18BF0120BCBD00BFF3
:1031200058100240002002407047FDF797BE000093
:10313000B0B596B005A84421FDF791F86846142172
:103140001424FDF78CF84FF40070FDF71FFF18B141
:10315000EFF3108072B6FEE7FDF754FF1948002523
:10316000016821F0180101600721022005941391E4
:103170002821CDE9140012910121CDE90F01602031
:103180001191CDE90B1507910D9005A8FEF770F987
:1031900018B1EFF3108072B6FEE703200421049506
:1031A000CDE9025501900F2000906846FEF74EF8D9
:1031B00018B1EFF3108072B6FEE7FDF729FF16B0E5
:1031C000B0BD00BF901002400248016841F4700198
:1031D0000160704788ED00E070B5C64B0268984208
:1031E00010D0B0F1804F03D14C6822F0700222431E
:1031F000B0F1804F0AD0B04CA04207D0AF4CA042F3
:1032000004D007E04C6822F070022243CC6822F41C
:10321000407222430D688E684C699842C66285628E
:1032200004D0A54D40F48063AB4201D1096901632C
:10323000016841F0040101600121416122F0800137
:103240002143016070BD00BF10B501F01F010123D3
:10325000046A8B4002FA01F124EA03030362026A62
:103260001143016210BD0000F0B5036A026AA14E6D
:1032700022F0010223F0020302628C68D1F800C040
:10328000456823438469B04204D08B4A40F4806788
:10329000974209D1026A22F00402026223F0080276
:1032A000CB681343B04204D0834E40F48062B242F4
:1032B00006D125F44072D1E905562A4342EA0605B3
:1032C000354A4560224042EA0C0282614968416306
:1032D0000362F0BDF0B5036A026A864E22F0100266
:1032E00023F02003B04202628C680A68456843EA12
:1032F0000413846905D0704F40F48066BE4209D043
:103300000FE0066A23F0800326F040060662CE68CE
:1033100043EA0613D1E9056725F440653E4345EAD3
:10332000860545602F4D2C4044EA0222826149689F
:1033300081630362F0BD00BFF0B5036A026A6D4E9F
:1033400022F4807223F40073B04202628C680A682F
:10335000456843EA0423C46905D0574F40F48066AA
:10336000BE4209D00FE0066A23F4006326F48066AB
:103370000662CE6843EA0623D1E9056725F4405585
:103380003E4345EA06154560034D2C402243C26189
:103390004968C1630362F0BD8CFFFEFFF0B5026AAD
:1033A000036A544F23F48053FFF711FDC56905D01C
:1033B000414FB84202D0414FB84204D14F6926F480
:1033C000804646EA87164660064E354045EA0424A4
:1033D000C4614968016422F4005141EA0331016289
:1033E000F0BD00BFFF8CFFFEF0B5026A036A414FDB
:1033F00023F48033FFF7EBFC456D05D02E4FB84228
:1034000002D02E4FB84204D14F6926F4803646EAE6
:1034100007264660054E35402C4344654968816562
:1034200022F4003141EA03410162F0BD8FFFFEFF4B
:10343000F0B5026A036A2F4F23F48013FFF7C7FC2D
:10344000456D05D01C4FB84202D01C4FB84204D184
:103450004F6926F4802646EA87264660064E3540A8
:1034600045EA042444654968C16522F4001141EA33
:1034700003510162F0BD00BFFF8FFFFE10B5036A6C
:10348000046A24F0010404621A4CA04205D00A4CDC
:10349000A04202D0094CA04203D1046A24F00404E3
:1034A0000462846924F0F00444EA0212826123F089
:1034B0000A021143016210BD004401400040014076
:1034C00010B5036A046A24F010040462094CA04297
:1034D00003D1046A24F040040462846924F4704433
:1034E00044EA0232826123F0A00242EA0111016241
:1034F00010BD00BF002C014010B5416A0A0706D577
:103500000268436B546824F4004423435360CA07A1
:1035100006D00268836A546824F40034234353605D
:103520008A0706D50268C36A546824F480342343AA
:1035300053604A0706D50268036B546824F480245C
:1035400023435360CA0606D50268836B946824F44B
:103550008054234393608A0606D50268C36B94683F
:1035600024F40054234393604A060FD50268036C89
:10357000546824F480141C43B3F5801F546005D1B3
:10358000436C546824F4C00423435360090606D5F1
:103590000168806C4A6822F400221043486010BD24
:1035A000BCB504460020C4F88400FDF7DFF80546EA
:1035B00020680168090712D56FF07E404FF40011B2
:1035C000FFF739FB50B1FFF75BFC20F08000FFF7FD
:1035D00086FAF8D1032020217C2220E020680068B0
:1035E000400714D56FF07E404FF48001FFF723FBB6
:1035F00068B1FFF745FC20F49070FFF770FAF8D13E
:10360000FFF730FAFCD103202021802207E02020A0
:1036100000216422E067C4F8800021660020A150E8
:10362000002184F87810BCBD806AFEF739BC4DF8E3
:1036300008EDFFF79FFA5DF808EBF8D14DF808EDBB
:10364000FFF785FC5DF808EBF8D1016E012906D182
:103650004DF808EDFFF77BFA5DF808EBF8D1202173
:10366000C0F88010002181660166704770B501685E
:10367000044680685D4ED4E903320D681043E26968
:10368000354066693043284310430860486820F499
:1036900040501843564B4860A06999421CBF256AA8
:1036A00028438D6825F4306528438860514881425D
:1036B0000CD0994206D05048814210D14F4851A5B4
:1036C000006807E04D480068800A02E04B48006847
:1036D00080084B4D00F0030055F8205000E0102505
:1036E0004C48994210D00121B2F5004F1AD1082D53
:1036F00000F27680DFE805F0053F4F74457474747E
:103700004D00FDF745FE3EE00121082D00F26880E6
:10371000DFE805F005661A66146666661800FDF7B0
:1037200037FE0DE0082D5BD8DFE805F005284A5A82
:103730002F5A5A5A4800FDF72BFE28E0FDF742FEAB
:1037400010B94AE04FF40040626802EB420188423F
:1037500045D3B0EB023F42D8010E000210EB5200FD
:1037600041F100010023FCF72DFD2B4AA0F540712B
:10377000914230D333E0FDF715FE04E0FDF712FE71
:1037800005E0FDF71FFE30B927E0FDF71BFEB8B9D5
:1037900023E04FF4004061684A0802EB40004FF616
:1037A000EF72B0FBF1F0A0F11001914217D84FF683
:1037B000F0710140C0F3420008440CE04FF40040B7
:1037C00061684FF6EF7200EB5100B0FBF1F0A0F131
:1037D0001001914203D82168C860002100E0012156
:1037E0000020C4E91A00084670BD00BFF369FFEF6E
:1037F0000080004000440040003801408810024032
:10380000905D0008010000000400000002000000BC
:10381000080000000024F40000FD0F002DE9F0472F
:10382000DDF8209082460068984616460F4603252C
:1038300009F10104C1693940C91BB1FA81F1490993
:103840008E421ED1002CF5D0FCF790FFA0EB0800B3
:10385000484517D8B9F1000F14D0DAF80000016814
:103860004907E7D5402FE5D0802FE3D0C16909078C
:103870000BD4C1690905DDD5032520244FF400616F
:1038800006E000252846BDE8F08701250821082428
:1038900001625046FFF7CBFE00208AF87800CAF894
:1038A0008440EFE7A048FEF7FDBA00BFFEE7000046
:1038B0002DE9F04387B01D460E46814601F040F8E1
:1038C000DFF80C814846414601F0E9F901AF41A219
:1038D00018213346384601F0A5FF484600210A2248
:1038E0003B4601F0A1F94846414601F0D8F9DDF820
:1038F0003880462D01D93AA008E0282D01D93BA0F7
:1039000004E03EA03BA1142D88BF0846009001AE04
:103910003EA218212B46304601F084FF4846002184
:103920001622334601F080F94846002119228023EF
:1039300001F0B1F8D8F8005001212846802909D0BB
:1039400058F821208242C8BF1046AA42B8BF154687
:103950000131F3E7A84225DD461B00243F277F2CD9
:1039600030D008EB84004068FEF7FDFFC0F13F0156
:103970003F2928BF39462428C8BF1B2158F82400F6
:103980000091A1B2FEF7EFFFC0F13F023F2A28BF2E
:103990003A462428C8BF1B2248460134A3B201F08E
:1039A000DCF8DCE7484600212D22802301F073F883
:1039B0000749484601F073F917A348460A21352202
:1039C00001F032F9484601F061F907B0BDE8F08333
:1039D000405F000848523A2025642042504D0000C4
:1039E0004849474820535452455353004D45444994
:1039F000554D000052454C415845440056455259DA
:103A00002052454C41584544000000005354523A5E
:103A1000256420257300000043414C43554C41541C
:103A2000494E472E2E2E00001CB5044600F088FF9C
:103A30001249FFF772F912484078032809D002288A
:103A400003D001280BD113A304E010A320462A21A0
:103A500002E00CA3204622210C2201F0E5F80F48D9
:103A60004021282203780F200090204600F070FFAC
:103A70002046BDE81C4001F009B900BF405F0008C6
:103A800030000020455848414C450000484F4C4408
:103A900000000000494E48414C4500000C00002049
:103AA0002DE9F04395B06D460B4604461BA250210C
:103AB000284601F0B7FEDFF8708082B22946642301
:103AC0004046FEF7BFFB002601270FF26009802F5A
:103AD00015D078000322052381B22046FCF7DCFED6
:103AE00058B9284650214A463B4601F09BFE82B217
:103AF00040462946FEF79CFF01360137E7E73006CE
:103B000009D10D4869460722642301900B480090B3
:103B10000548FEF797FB15B0BDE8F0835363616E6F
:103B20002025733A0D0A0000AC030020202B3078CA
:103B3000253032580D0A0000450D0A00204E4F4E28
:103B400040B101460122904205D910444008B1FB22
:103B5000F0F2F8E700207047ADF52C7DFDF788F90D
:103B6000FFF7E6FA1CAD14212846FCF778FBC44E9B
:103B7000C44F082100224FF008084FF000093068B8
:103B800040F004003060306800F004009D909D9883
:103B9000306840F001003060306800F001009D9016
:103BA0009D98306840F002003060306800F00200FC
:103BB0009D909D983846FCF7D2FD4FF404100124E7
:103BC00029461D904FF480701E941C904FF0904039
:103BD000FCF7EEFC38462946CDE91C84CDE91E9958
:103BE000B846FCF7E5FC172000210022FDF798F904
:103BF0001720FDF785F956F8040C0021002240F04B
:103C0000010046F8040C56F8040C00F001001C906A
:103C10001C981120FDF784F91120FDF771F99A4ED7
:103C2000DFF8C85A994806F58841C5E90294C5E904
:103C3000001005F110001421FCF711FB2846FCF7D9
:103C4000D7FD18B1EFF3108072B6FEE7DFF89C0ADB
:103C500000214746FCF790FD18B1EFF3108072B6D3
:103C6000FEE7DFF8880A00210024FCF7A3FD18B165
:103C7000EFF3108072B6FEE7DFF8740A0C214FF400
:103C8000E13206F55053C0E90844FEF799FFFEF70C
:103C900041FA18B1EFF3108072B6FEE7DFF8545A1C
:103CA000012000217A4A06F59843C5E9021005F182
:103CB00010001421C5E90032FCF7D1FA2846FCF7C0
:103CC00097FD18B1EFF3108072B6FEE7DFF8240A13
:103CD0000021FCF751FD18B1EFF3108072B6FEE73A
:103CE000DFF8100A00210024FCF764FD18B1EFF39F
:103CF000108072B6FEE7DFF8000A4FF0FF314F2266
:103D00004FF08043A094CDE99E44AA94CDE921448C
:103D1000CDE91F448461C0E90032C0E90241046179
:103D2000FDF7B6FE18B1EFF3108072B6FEE74FF460
:103D300080509D90DFF8C0099DA9FDF719FF18B1CB
:103D4000EFF3108072B6FEE7DFF8AC09FEF700F87B
:103D500018B1EFF3108072B6FEE70024DFF898097F
:103D6000AB94A994A9A9FDF765FE18B1EFF31080F3
:103D700072B6FEE760202094CDE91D4400221C901D
:103D8000DFF874091CA9FDF789FF18B1EFF3108063
:103D900072B6FEE7DFF86009FDF752FFDFF85C0955
:103DA00000240C214FF4165206F59433FEF708FF59
:103DB000C0E90844FEF7AEF918B1EFF3108072B60F
:103DC000FEE7DFF83C094FF6FF7106F58E321F94CF
:103DD000CDE91D44C0E90024FEF7CCFD18B1EFF396
:103DE000108072B6FEE74FF480501C90DFF8100987
:103DF0001CA9FDF7BDFE18B1EFF3108072B6FEE707
:103E00000024DFF8FC089F94CDE99D449DA9FDF7AF
:103E100011FE18B1EFF3108072B6FEE7DFF8E40888
:103E20004FF6FF711D948461C0E90064C0E902414E
:103E3000FDF72EFE18B1EFF3108072B6FEE70024F6
:103E4000DFF8C0081E941C941CA9FDF7F3FD18B1FF
:103E5000EFF3108072B6FEE7DFF8AC084FF6FF71A3
:103E60004F2206F59A33CDE92444CDE92244C0E936
:103E70000032FEF77FFD68B1EFF3108072B6FEE707
:103E80004C1002400004004800100040201A20C0DE
:103E9000E49CD110DFF87008FDF75AFF18B1EFF37A
:103EA000108072B6FEE7602018219D909DAD281D00
:103EB000FCF7D5F9DFF85008294600220024FDF769
:103EC000EDFE18B1EFF3108072B6FEE71CAD1421C1
:103ED0002846FCF7C4F94FF4005029462694219057
:103EE000DFF82408FDF764FD18B1EFF3108072B617
:103EF000FEE7DFF81408FDF7A3FE0A20FCF73AFB03
:103F0000DFF80808DFF8E86764231C900FF2FC7004
:103F1000D0E90112CDE91D128189807B0E228DF836
:103F20007E00ADF87C101CA93046FEF78BF9DFF857
:103F3000EC070FF2EC72502103681CAC204601F034
:103F400071FC82B230462146FEF772FD0FF2DC7042
:103F500000F0DEFC062444B138460821FCF7F7FBEC
:103F60006420FCF707FB013CF5E7DFF8C447DFF806
:103F7000C4572046A847DFF87C072146FFF790FD8D
:103F8000DFF8B4472046A847DFF860072146FFF76F
:103F900087FD0FF2A870A847DFF85C07FDF7C4FDA6
:103FA00078B1DFF8A0070B2264231C900FF2947005
:103FB000D0E90101CDE91D01DFF834071CA9FEF7A6
:103FC00041F90FF28C7000F0A3FCDFF82007FEF738
:103FD00076FB002800F04483DFF880070A22642380
:103FE0001C900FF2787041681D910189807A8DF8DC
:103FF0007A00DFF8FC06ADF878101CA9FEF722F96C
:10400000DFF8640700210171DFF828570FF28C7088
:10401000A847DFF89047DFF89017DFF89027DFF820
:104020009037204600F07CFE204601F0E3F9204660
:1040300000214FF0000801F0E9F9204600F080FC73
:10404000DFF87017FEF769FEDFF81C770FF2687172
:104050000FF26C733879002818BF0B4620460A21EE
:10406000232200F0E1FD204600F010FE4FF47A70AC
:10407000FCF780FA0FF25470A847DFF85407942138
:10408000FCF7EDF80FF24C70A847DFF87C462046AD
:10409000FDF74AFD20460021FDF7BEFEDFF8400790
:1040A0000B2264231C900FF23870D0E90101CDE996
:1040B0001D01DFF83C061CA9FEF7C4F8DFF82C0749
:1040C00001680A914168099181680891C168079166
:1040D00001690691818A807D0490DFF88807059147
:1040E00001681B9141681A9181681991C168007C2F
:1040F0001790DFF874071891D0E900120089149026
:10410000DFF83C07CDE91521016812914168119152
:1041100081681091C1680F9101690E9141690D91FB
:10412000018B807E0C910B90FCF720FB8246FEF702
:10413000DDFBB868AAEB00000A28C0F06A81DFF84E
:10414000AC05C7F808A0FEF753FB002800F0148167
:104150008346FF2816D10A98162264231C900998DA
:104160001D9008981E9007981F900698209005981B
:10417000ADF8840004988DF88600DFF874051CA95A
:10418000FEF760F85E464FF00009BBF1200F28BF34
:1041900020265FFA89F0B04280F0F580DFF84C0508
:1041A000CDF87482CDF8A4829DA9A9AAFEF7D3FA0E
:1041B000002840F0E580786A797944F61F62013082
:1041C0007862A998904215D899B31B98102264235D
:1041D0001C901A981D9019981E9018981F90179867
:1041E0008DF88000DFF808051CA9FEF72BF887F88A
:1041F00005801DE0B1BB1CACDFF86416222220460E
:10420000FCF714F8DFF8E80421462122FEF710FC41
:10421000DFF8BC05012494217C71FCF720F8DFF85D
:104220003C064FF4007187F80080FCF718F8BC7169
:10423000A998C1087C2915D8796A6423B1FBF3F2E7
:1042400002FB131101290DD1169809221C90159813
:104250001D901498ADF87800DFF894041CA9FDF7C0
:10426000F1FFA99800F004FB4542B879012807D175
:10427000C7E90A55C7E90C55C7F838A087F8068082
:104280003878DFF8D82500F07F0101303870786A7F
:1042900042F82150012803D1BD6207F12C0204E04D
:1042A0003A4652F8281FA94201DA294615604FF410
:1042B000FA74FA6AB0FBF4F3AA42C4BFFD622A465C
:1042C00003FB140090B95018022390FBF3F0102365
:1042D000121A091AC2EB0212C1EB011192FBF3F29E
:1042E00091FBF3F102440144C7E90A12D7E90C0338
:1042F00083423CDAA8423ADD891AC929A8BF0128BD
:1043000035DBC1EBC1010A2391FBF3F11144884273
:104310002DDDB96B49B3AAEB010440F2AA52A4F215
:10432000262191421ED8DFF8D0030068416ADFF8E9
:10433000A004FEF75DF8F86B4EF66021DFF82C253F
:104340000130F863A0B21CACB1FBF0F32046502161
:1043500001F068FA82B2DFF898032146FEF768FBA5
:10436000386B02E0B4F5FA6F01D9C7F838A0C7E995
:104370000C5009F101090CE7F8690130F86148E0D7
:10438000386A01303862BBF11E0F42D31CADDFF832
:1043900060141F222846FBF749FFD54829461E22F4
:1043A00064232C46FDF74EFFD04D8DF870809DAEF6
:1043B0004FF001094FF00A0BAE21002201230096B5
:1043C000CDF80490CDF808B02846FCF76FFB2846DE
:1043D000AE21012201238DE8400AFCF767FB264647
:1043E0008DE8100ADFF80C442846AE210422012390
:1043F000A0472846AE21052201238DE8400AA047A8
:104400002846AE21062201238DE8400AA047C7E9CD
:104410000C88F86847F23051AAEB00008842C0F0DF
:10442000A580DFF8AC43C7F80CA02046FDF763FF7A
:10443000207D012840F08F80DFF894030FF2BC3418
:104440001394407846280CD828280FF2BC341394D3
:1044500007D8DFF8C44314280FF2B43088BF0446ED
:1044600013941CADDFF8B4131D222846FBF7DEFEC3
:104470009F4EDFF8ACB329461C2264233046D84750
:104480003879DFF8A433DFF8A423DFF8A4930028F9
:10449000E4A018BF034628465021C84782B23046E0
:1044A000294664233446D847C94EE24A284650215B
:1044B0003378C847CB4682B2A1462046D84C29461D
:1044C0006423A0477378DC4A28465021D847FEF77A
:1044D000E8FBDA4A139B28465021D847FEF7E1FB58
:1044E000129829461A226423A3461C9011981D9005
:1044F00010981E900F981F900E9820900D98219064
:104500000C98ADF888000B988DF88A004846A047B3
:10451000707879793378B146CA4AC54ECDE9000141
:104520009DAC30212046B04782B2744821466423B6
:10453000D84799F80100797999F80030C24ABC4E01
:10454000CDE9000128465021B04782B2684829468B
:104550006423D8470AE01CACA74923222046FBF776
:1045600065FE634821462222FEF762FA3869AAEB0B
:1045700000005028FFF4D8AD7879C7F810A0B8B182
:104580009348007D50B392484178472944D3504620
:10459000FBF7A8FE8348FFF747FA787801285DD13A
:1045A000F97901295AD0B878002854D0012055E073
:1045B0007C4C204600F0C4F9A449FEF7AEFBA44BA6
:1045C00020460F211E2200F02FFB40200021002258
:1045D00080230090204600F0E5F912E0714C20465F
:1045E00000F0AEF97349FEF798FB9A4B20460F2175
:1045F000192200F019FB984B20460F212D2200F0C4
:1046000013FB204600F042FBB878012808BFFEF7F4
:1046100045F987F8078087E5B878012808BFFEF7D5
:104620003DF939780020F87180280AD00A188B4BA0
:1046300002F07F0253F822201CAB43F82020013007
:10464000F2E763486222017843781CA8009055483D
:10465000FFF72EF968E5FEF7EDF87878F87163E575
:104660004248234C0DF1700B082264231C903FA09C
:104670004168007A1D918DF8780020465946FDF773
:10468000E1FD394801250722642305713A481D9050
:104690003A481C901CA92046FDF7D4FD134F002674
:1046A0004FF0140A0FF2D8080FF2E0090A2E3FF477
:1046B000ABAC9DA818F80640AE2101238DE821047B
:1046C00038462246FCF7F2F968B99DF87402502189
:1046D0004A4623460090584601F0A4F882B20448A6
:1046E0005946FEF7A5F90136E0E700BFB800002003
:1046F000AC0300200C0100208C02002024030020C9
:10470000F4010020D8020020400200200D0A2A2ACD
:1047100020424F4F54202A2A0D0A00000800002092
:10472000434C4B3A202575487A0D0A004C4544000D
:10473000325E0008114900082D5E000854494D32D0
:104740000000000054494D32204641494C0D0A00FA
:104750004D41583330313032000000004D41582077
:104760004641494C0D0A0000300000204D415820C0
:104770004F4B0D0A000000003A0D0A005245475306
:104780000001040506090A0C0DFF00002025303247
:10479000583A253032580D0A000000004F4C45446D
:1047A0000000000034040020345F0008B554000805
:1047B000C1570008405F00084D4158204F4B000092
:1047C0004D4158204641494C0000000048525600D7
:1047D0006001002054494D31362050574D000000F3
:1047E00042555A5A4552204F4B0D0A001C5F000893
:1047F000FC5E0008DD0B0008585E00084849474889
:1048000020535452455353004D454449554D0000E3
:1048100052454C4158454400375E00087C5E000814
:10482000452200084F4B0000515E0008E95D00087A
:1048300025580008B55D0008A05D0008D85D000897
:104840009C5E0008025E0008F85D0008CE63000868
:10485000445E0008125E00081F5E0008D0090020B8
:10486000D85E0008B85E0008CC5E0008CA5D00088B
:1048700016490A78012A0FBF4A6801220A700246C7
:1048800070B58B6840F2E334821A01F10C06634381
:104890004FF47A7493FBF4F305241A444B78C1E97E
:1048A0000102B3FBF4F505EB85055D1B013346F80A
:1048B000252001F10C054B702DCDC9691044184419
:1048C0002844084490FBF4F070BD00BF10000020A5
:1048D0001FB50B4632210124CDE9002402911A466E
:1048E000AE210123FCF7E2F804B010BD1FB50B4662
:1048F0008DF80F20322101220DF10F04CDE9004285
:1049000002911A46AE210123FCF768F904B010BDEC
:1049100010B594B06C46034605A25021204600F025
:1049200081FF82B205482146FEF782F814B010BD1F
:104930003E205354473A2025730D0A00AC03002053
:1049400080B5026890F83810406BFEF763F980BDBF
:104950002DE9FE4FFEF7D4FAF8B1FEF7DEF800F0CD
:1049600093FAFEF711F9A0B2B9B2814215D2FEF75F
:10497000C4F8C8BF013C0137A2B25046B9B200F03A
:1049800083FAA81CB9F1FF3FC4BF054606440FFADD
:1049900088F000F102084644E5E700F000B81EBCCC
:1049A000BDE8E08F2DE9F84F0A9C064603EB010BAA
:1049B000994617460D461FFA8BF3A01880B2009057
:1049C000304600F03BF978B3002029463A464B4682
:1049D0000090304600F065F8022C25D30137023CE8
:1049E000200416D001201FFA87FA1FFA84F82946FE
:1049F000009030465246434600F053F8012052469C
:104A000043460090ABF1010081B2304600F049F816
:104A100027440020BAB229464B460A90304601B0DE
:104A200000F004B800F03DB800F005B830BCBDE8B7
:104A3000C04FFFF7F7BF18BCBDE8E08FF8B50446DC
:104A400090F870001D4616460F46032812D8DFE87E
:104A500000F0020E060AFEF784FA06440AE0FEF7AA
:104A600080FA361A06E0FEF77CFA074402E0FEF709
:104A700078FA3F1A20462946A4F86660A4F86470C4
:104A800000F08DFB20B10146204600F09FFA00E0C7
:104A9000002080B2F8BD1CB50024009400F001F89D
:104AA0001CBD7CB5002BADF80420ADF80610ADF8A8
:104AB000023051D0044690F88C0000284CD0069863
:104AC00015460E46022B08D303281FD0022804D116
:104AD000F01A0130ADF8060001E0C0071AD1B4F8B1
:104AE0004C00854238D3B4F84E00854234D2B4F835
:104AF0004A30B4F848200DF106000DF1020100F033
:104B0000A5F948B3BDF80660002018E0E81A0130A6
:104B1000ADF80400B4F8480086421DD3B4F84A004A
:104B2000864219D2B4F84E30B4F84C2001A80DF1E9
:104B3000020100F08BF978B1BDF804500120216B1F
:104B40002A46D1F808C0069020463146BDF802300A
:104B500002B0BDE8704060477CBD2DE9FE4F0C9C63
:104B60000290B2EB040C48BFCCF1000CC81A48BF4D
:104B70004042844504D916462246E246019006E0AA
:104B80000E4611461A4623468246CDF804C0964288
:104B900002D917461C4603E037460C46164619460E
:104BA000A1424FF0FF3B4FF6FE751FFA8AF11FFA44
:104BB00080F81FFA8CF988BF4FF0010BAE4238BF66
:104BC00035464E08BAB2AA4288BF00F012B8C145B5
:104BD0000298A3B28EBF194611461A4600F00CF88F
:104BE0000198361A30B2002844BF56445C4401375D
:104BF000E8E71EBCBDE8E08FB0F84C309A4212D313
:104C0000B0F84E309A420ED2B0F8483099420AD3EA
:104C1000B0F84A30994206D2E0B500230093012350
:104C2000FFF73FFF8CBD704710B5034C4460BDE8F3
:104C3000104000F077B900BF7154000870B5044609
:104C4000B0F84C60B0F84E00049D824205D2B542E7
:104C500098BFAA4207D8002070BD0020AA4288BF92
:104C6000B54200D870BDB4F84A00B4F8482081427B
:104C700005D2934284BF012070BD002002E00020D5
:104C80009342EFD9994288BF012070BD10B5044608
:104C900000F050FB2046BDE8104000F0B1BB10B55D
:104CA0000446806D884208BF10BD04F17400A16500
:104CB00000F00AFB2046BDE8104000F049B80000B3
:104CC0000149C165704700BF7B4F00080249C0E938
:104CD0001411016B496808470000FFFFB0B50025BB
:104CE000044680F838204163C36280F8915080F810
:104CF0006D5080F83950856540F2011084F88D5070
:104D0000A4F8920004980168206320468847204652
:104D1000FFF7DCFF2046FFF7D3FF84F87050B0BDEB
:104D20007CB514460D460749074AFDF7BAFE0DF15A
:104D3000070000F0C3FA9DF80720044BFDF76EFE54
:104D40007CBD00BFB1560008B955000843520008A9
:104D5000816DC1B190F88D2090F9813090F9821069
:104D600080F88E3080F88F106AB1012A0CD190F94A
:104D700083209342B8BF80F88E2090F9842091421E
:104D800001DD80F88F20704710B590F97E4090F9D2
:104D9000802014449C42C8BF80F88E409142BDE8F8
:104DA0001040EEDCEFE7022B06D0012B02D02BB92E
:104DB000084404E0801A02E0401A00E0104480B287
:104DC0007047022B06D0012B02D02BB9104404E00F
:104DD000084402E0801A00E0401A80B270471CB517
:104DE0000446B0F85230B0F85420B0F85010B0F883
:104DF000560000902046FFF721FF18B30120B4F8B9
:104E0000481084F88C00B4F85000814238BFA4F8F0
:104E10004800B4F85200B4F84A10814288BFA4F8A0
:104E20004A00B4F85400B4F84C10814238BFA4F8DA
:104E30004C00B4F85600B4F84E10814288BFA4F874
:104E40004E001CBD002084F88C001CBD70B5048889
:104E50000D882544AEB2AE4203D09C42164601D224
:104E60005D1E264600249E420CD2ADB2954209D961
:104E7000964288BF324602809D4238BF2B46981A20
:104E800001240880204670BD2DE9F843099D089C47
:104E900080461E4617468946E80708D006EB0900FB
:104EA00081B2E01BFDF74BFFF019FDF7F3FDA807FA
:104EB00008D5A6EB090081B2E01BFDF740FFF01B0F
:104EC000FDF7E8FD28070BD506EB090081B2E019D4
:104ED000FDF735FFF01981B204EB0900FDF72FFF54
:104EE000680758BFBDE8F883A6EB090081B2E01956
:104EF000FDF725FFFDF75DFEBDE8F843FFF77CBE3B
:104F0000B0B5C48F049DD0F82CC0121B049592B28A
:104F1000BDE8B040604710B5029C0294BDE8104067
:104F2000FFF7EEBF2DE9F047FDF7C0FDFDF7D0FD1F
:104F30002178FEF729F8A8421DD001340346B0427B
:104F4000F6D01FFA89F11FFA88F23846FFF776FD8E
:104F500097F8701003290CD8DFE801F0020A040763
:104F6000814406E0A9EB000903E0A8EB000800E09B
:104F700080448244DCE7FDF752BE0020704710B544
:104F80000C4600F009F8611E4FF0FF32C9B202FA78
:104F900001F1084440B210BD70B50468057B227869
:104FA0006B18DEB2EA40082E08D3661CC5F108056E
:104FB000083B0660EDB26478AC40224303734FF0C7
:104FC000FF30884022EA0000C0B270BD2DE9FE4FDC
:104FD000044600F01EF9FDF726FD434E94F96BB030
:104FE0002846B047FDF79DFFFDF754FF94F96A800E
:104FF0008146B8F1010F73DB0BEB070094F870707A
:105000005146CDF80890404246B2B4F864003B46A1
:105010003246FFF7C8FE8146A4F86400B4F8660083
:10502000514632463B46FFF7CCFE032FA4F86600FC
:1050300024D8DFE807F0021A071200EB0B0109EB96
:1050400008031DE0A0EB0B0109F101034A1CA9EBC9
:1050500008014E1C411CB14605E0A0EB080109EB1C
:105060000B034A1C411C10460AE0A9EB0B0200EBA3
:10507000080109F101030132914601E04B46014666
:1050800089B282B29BB2204600911FFA89F1FFF7E4
:10509000D5FDDDF8089018B30020A4F86800FDF7EE
:1050A00052FE94F8771006462846FFF775FF07462C
:1050B00020463146002200F01CF8204639460122E5
:1050C00000F017F828460121FFF766FF0028EFD10E
:1050D00094F969005845E2DB94F86E0084F8920078
:1050E000484600F003B800BF7F4F00081EBCBDE873
:1050F000E08F2DE9F04F87B0044689466F30049267
:1051000094F868A094F86910019004F16E0003907F
:1051100094F870704DB2B4F864004FFA8AF60691B4
:10512000B4F866B094F86A8031462A463B46FFF7E9
:105130003AFE0590584631462A463B46FFF741FE67
:10514000A8EB0A0B5FFA89F50246CDF808A05FFAD2
:105150008BF63346B54238BF2B4604980028039897
:1051600008D00078059984F8920020460097FFF750
:1051700098FC04E094F86D0000280198F1D0B54245
:1051800006D30699A9EB0B094FF0000A0131BFE7DE
:10519000069884F8690002984844FDF73DBE70B552
:1051A0000C46816D1731FF2C04D8612C1ED3B0F84A
:1051B00088001FE0B0F88A000E1835462846002106
:1051C00000F023F806442846022100F01EF80435BA
:1051D000A042F3D305E0A04204BFF01C70BDB0783C
:1051E0000644308840BA0028F5D10CE0412C02D3A7
:1051F000B0F886000144487828B10A78944204BF88
:10520000881C70BDF6E7002070BD405A00BA000C43
:10521000704710B50446002044F8601F217E2073BB
:105220002046FFF7B9FE617EA0722046FFF7B4FE6C
:10523000E07294F83200A073B0FA80F04009E07395
:1052400010BDF0B590F8926002F007074FF0010C26
:1052500022F0070E0CFA07F4751E18BF2546022E21
:1052600028BF00240668426B367C0EFB06F612FA55
:1052700086F21144059ABAB10A7822436A400A704C
:105280007A1C12F0070702D06D00640008E090F865
:105290009220012A18BF654698BF6446428F114488
:1052A000013B1A04E8D107E00878013B204368403D
:1052B00001F8010B1804F7D1F0BD000008210170BE
:1052C00000487047C804002070B504460878184E9E
:1052D0000D462070487860708878A070C878E070BB
:1052E00008792071487960718879A071C879E07176
:1052F000087A2072487A6072887AA072C87AE0725E
:10530000087B2073487B6073887BA073C87BE07345
:10531000087C207408461121B0476082284613217A
:10532000B047A08228461521B047E08270BD00BF7B
:105330000B5200082DE9FC47044690F8388090F89D
:1053400039600068002501274FF6F87A90F811902F
:105350002068616BF2B2037C05FB03F000EA0A00EF
:10536000084400210090204600F035F8474505D25A
:10537000013601370835F0B24845E9D300F000B8EE
:105380000CBCBDE8F08710B590F83810CA008287D1
:1053900090F83920D300C387A0F8403003685C69D7
:1053A00044641C7C5B7CE400448754189C4288BFA6
:1053B000991A1144C900A0F8421010BDFFF7E3BFCD
:1053C0000021A0F84810B0F84410A0F84A10016C71
:1053D000C164FFF704BD1CB58DF8051004998468FD
:1053E0008DF806208DF804306B46012200910F21C4
:1053F000A0471CBDD0F808C00A2100220023604746
:10540000D0F808C01021002200236047D0F808C05F
:105410000A460B2100236047F8B51C4615460E4688
:10542000074600F00BF80698C7E90265C7E9044093
:105430003846BDE8F84000F015B80000084AFF23E0
:10544000002180F828304FF47F4380F82610016057
:105450008161A0F82330C0E90222C0E9042270472C
:10546000B5570008D0F808C0092100220023604782
:105470004FF6FF7011B10A2918BF08467047D0F8DF
:1054800010C01921002200236047E0B58DF80710F5
:105490000DF10702012100F001F88CBDD0F810C019
:1054A00013460A4617216047D0F810C01821002281
:1054B000002360471CB5192911D018290DD01729D0
:1054C0001AD10F4800788418B4F5807F14D80D499C
:1054D00008441946FAF7AAFE0CE000240AE008483E
:1054E000084A78210378642000900748FBF75AFAAD
:1054F000002410B902480470012420461CBD00BFDE
:10550000C8080020C90800200C010020D0F80CC0F9
:105510001921002200236047D0F80CC00A4616214A
:1055200000236047D0F80CC00A46152100236047CD
:10553000D0F80CC013460A4617216047F8B50E464E
:1055400004460DF10305374617F8011BA1F11500BC
:10555000022811D3A1F11800022816D317291BD055
:10556000FE2918BFF8BD7278204629218DF8032046
:1055700000F022F90236E6E77278E7682046002359
:105580008DF80320B8470236DDE7E66820460022A2
:105590000023B0473E46D6E7707801212A468DF8B1
:1055A00003002046FFF7C4FF0236CCE7D0F80CC05A
:1055B0001821002200236047F8B5FDF728FC84BFBE
:1055C0000020F8BD0FF20801FDF795FCDFE800F0C0
:1055D000032913160F3AFDF754FA04BF782084F814
:1055E0002400FDF7CCFC01B0BDE8F04060471A484C
:1055F000002101702EE0FDF706FB2BE0164F3878F6
:10560000012806D1FDF76FFA03E0FDF73EFC1836DE
:10561000183DE9B21929F8D2FDF790FA0020387048
:1056200018E00D4E3078012801D1FDF75CFAFDF746
:1056300061FA20460021FFF728FFFDF7E4FA012078
:105640003070F8BD044D2878012801D1FDF74BFAE0
:10565000002028700120F8BDC9090020B0B5FDF771
:10566000D3F9E5682046142100220023A8470C4DF9
:1056700020464B210122A847FDF7FEF920464B2189
:105680000022A847FDF7F8F920464B210122A84740
:10569000206829212B4642792046BDE8B0401847B2
:1056A000B95700080160897C80F82210704700001B
:1056B000B0B5FDF7AFF970B9092D09D00A2D1CBF9F
:1056C0000020B0BDFDF70BFB0549FDF7E0F902E056
:1056D0000249FDF79CFA0120B0BD00BF346A000802
:1056E000F36900082DE9F04104460B390020042934
:1056F00056D81546DFE801F0035413071A00002DB1
:1057000042D02A4941E02046FFF750FF2046812140
:10571000FFF708FF20462946FFF7FEFE30E0BDB345
:105720002049FDF7B4F92068C07C36E020461E46CB
:10573000FFF73CFF96F8058094F822702046402140
:10574000FFF7F0FE07EBC807F8B2000900F11001FF
:105750002046FFF7E7FE07F00F012046FFF7DCFECB
:10576000B07940F0B0012046FFF7D6FE30793268BC
:10577000C000C1B22046FFF7DBFE013D2806F5D18F
:105780002046FFF7C3FE0AE00949FDF780F906E06D
:105790000549FDF77CF92068807C84F8220001200F
:1057A000BDE8F081EC690008E56900082D6A000891
:1057B000286A000800207047D0F814C00023604712
:1057C00080B5292910D02B2908D02A290FD10020F3
:1057D000410918290BD800BF0130F9E7002007283C
:1057E00005D800BF0130FAE71046FAF7C3FE0120E2
:1057F00080BDF8B514460D460646FFF755FE304607
:105800004021FFF742FE3769304617212A462346DA
:10581000B8473046BDE8F840FFF731BE002180F8B8
:10582000261070470FB47CB50C0009AD01D0611E85
:1058300000E00021CDE90001064B6A4629460898A0
:1058400000F01AF8002C02D0009A002111707CBCE4
:105850005DF814FBE15C000802E008C8121F08C1F3
:10586000002AFAD170477047002001E001C1121FE1
:10587000002AFBD1704700002DE9FF4F8DB00F4685
:105880000546002606E025280BD0DDE90F129047DB
:105890006D1C761C28780028F5D111B0304600F038
:1058A000F3B90024A246A1460122EC4900E00443DA
:1058B00015F8013F203B02FA03F00842F7D128789F
:1058C0002A2810D06FF02F022878A0F13001092982
:1058D00014D80AEB8A0102EB410144F0020400EB08
:1058E000010A6D1CF0E701CF5FEA000A03D544F41A
:1058F0000054CAF1000A44F002046D1C28782E28D6
:1059000017D115F8010F44F004042A280ED06FF0C7
:105910002F022878A0F1300109290AD809EB890162
:1059200002EB410100EB01096D1CF2E757F8049B03
:105930006D1C28786C280FD006DC4C2817D06828FE
:105940000DD06A2814D104E0742810D07A280FD121
:105950000DE044F400140AE044F4801401E044F43F
:1059600040146978814202D104F580146D1C6D1CCD
:105970002A786E2A1FD00CDC632A31D004DC002A7E
:105980008BD0582A11D1A3E0642A68D0692A0CD19F
:1059900065E0732A2ED004DC6F2A73D0702A04D1FC
:1059A0009BE0752A6FD0782A6ED01046DDE90F1281
:1059B0009047761C50E1C4F30250022806D0032819
:1059C00009D0042801CF09D0066045E101CFF117C5
:1059D000C0E9006140E101CF06803DE106703BE196
:1059E00017F8040B8DF8000000208DF80100EB463D
:1059F000012003E057F804BB4FF0FF3061074FF080
:105A0000000102D40DE008F10101884649450FDA92
:105A10008045F8DB1BF808100029F4D108E008F1F4
:105A2000010188468142FADB1BF808100029F6D1F3
:105A3000DDE90F23AAEB08008146214600F039F981
:105A4000304400EB080604E0DDE90F121BF8010BFF
:105A50009047B8F10108F7D221464846F7E00A21FD
:105A6000C4F302534FF0000B0891022B04D001CF76
:105A7000C117032B09D00AE0FF1D27F00707F7E83D
:105A8000020108E032E01FE020E000B2C117042B61
:105A900001D140B2C117031E71F1000307DA4FF0C4
:105AA000000CD0EB0C006CEB01012D2302E0230570
:105AB00004D52B238DF82430012303E0E30701D024
:105AC0002023F7E7984658E00A2110E010210EE065
:105AD00010204FF0000B08900CE010214FF0000B4D
