:020000040800F2
:10000000704F0020A1010008852E0008D5290008A6
:10001000532D000861030008E147000800000000BC
:100020000000000000000000000000009137000800
:10003000710300080000000071350008C93700088E
:10004000BB010008BB010008BB010008BB010008A0
:10005000BB010008BB010008BB010008BB01000890
:10006000BB010008BB010008BB010008BB01000880
:10007000BB010008BB010008BB010008BB01000870
:10008000BB01000865030008BB010008BB010008B4
:10009000BB010008BB010008BB0100087303000896
:1000A000BB010008BB010008BB010008BB01000840
:1000B000BB0100080000000000000000BB010008B8
:1000C000BB0100080000000000000000BB010008A8
:1000D00000000000BB010008D94700080000000034
:1000E000BB010008BB010008000000000000000088
:1000F0000000000000000000000000000000000000
:10010000000000000000000000000000BB0100082B
:100110000000000000000000BB0100088D3800084E
:10012000BB010008BB010008BB010008BB010008BF
:10013000BB010008000000000000000000000000FB
:10014000BB010008BB010008BB010008BB0100089F
:10015000BB010008BB010008BB010008BB0100088F
:10016000BB010008BB010008BB0100080000000043
:10017000BB010008BB0100080000000000000000F7
:10018000BB010008BB010008BB010008DFF80CD070
:1001900000F090F8004800478D4A0008704F00209A
:1001A0000648804706480047FEE7FEE7FEE7FEE711
:1001B000FEE7FEE7FEE7FEE7FEE7FEE77D38000824
:1001C0008D0100082DE9F05F0546002092469B4610
:1001D00088460646814640241BE02846414647465D
:1001E000224600F056F853465A46C01A914110D3A1
:1001F00011461846224600F03DF82D1A67EB01081B
:100200004F4622460120002100F034F817EB000988
:100210004E41201EA4F10104DFDC484631462A4647
:10022000434600F000B830BCBDE8C09F40EA01037F
:100230009B0703D009E008C9121F08C0042AFAD29C
:1002400003E011F8013B00F8013B521EF9D2704760
:10025000D2B201E000F8012B491EFBD27047002208
:10026000F6E710B513460A4604461946FFF7F0FFB5
:10027000204610BD202A04DB203A00FA02F10020BB
:1002800070479140C2F1200320FA03F319439040D4
:100290007047202A04DB203A21FA02F0002170473F
:1002A00021FA02F3D040C2F12002914008431946DE
:1002B000704700001CB509480090094801900546A8
:1002C000009C06E0E06840F0010394E807009847CE
:1002D0001034AC42F6D3FFF75DFF0000748D0008C8
:1002E000948D0008272906D81C48082101701A4857
:1002F00000214170704718494A78032A2BD8DFE85B
:1003000002F00205131B012288604A70134A137819
:10031000172B9CBF013313708A68821AB2F57A6F6B
:1003200019D38860022015E08A68821AB2F5FA6F44
:1003300011D3886003200DE0084A1378092B24BFED
:10034000013B13708A6841F27073821A9A4202D399
:1003500088600120487070473C0000200C0000209D
:10036000FEE70000014800F05BB800BF7C030020FE
:1003700070474FF4807000F011B9EFF3108072B63F
:10038000FEE7D8B190F82510022919D110B50168FF
:10039000D0E910230C6824F001040C600C6824F0F0
:1003A0000E040C6003F01C01012303FA01F15160FB
:1003B000002180F82530BDE8104004E0012105E06F
:1003C0000421C1630121002280F8242008467047DF
:1003D00090F8251002291DD1B0B50168826BD0E9D3
:1003E00010340D6825F001050D600D6825F00E052F
:1003F0000D6004F01C01012404FA01F15960002190
:1004000080F8241080F825400AB190470021BDE80B
:10041000B04002E00421C16301210846704700009A
:10042000F0B5D0E910230168042403F01C0316681A
:100430000D689C40344201D06F071BD402249C40BD
:10044000344201D0AF071FD426FA03F4240735D570
:100450002C0733D50C6824F00E040C60012101FA3E
:1004600003F353600022C16380F8242080F8251034
:10047000416B1FE00B689B0603D40B6823F0040359
:100480000B605460016B15E00A68920606D40A6896
:1004900022F00A020A60012280F82520002280F85A
:1004A0002420074A02F17C03994288BF02F580624A
:1004B0001460C16A11B1BDE8F0400847F0BD00BF4B
:1004C0000400024000284DD0F0B5022100F10807D9
:1004D000274D80F8251025490368D0CF01F1080C7D
:1004E0008E46634538BFA1F5806138BF05F580654C
:1004F0001D441422B5FBF2F2950047F6F072C0E9F4
:1005000010151968914346EA0702196041691143C1
:1005100082691143C2691143026A11431A68114387
:100520002143B4F5804F196012D063450EF1A80144
:1005300005F01C0338BFAEF556710F240A689C40C5
:10054000A2430A600A68446804FA03F31A430A6083
:1005500000210122C16380F8241080F82520BDE825
:10056000F04000E001210846704700BF000402404F
:10057000F8FBFDBFB0B5044600F0F8F805460548A5
:10058000611C007818BF044400F0F0F8401BA04242
:10059000FAD3B0BD000000207047000003490A688C
:1005A000024208BF70470860FFF7F6BF140401401D
:1005B0002DE9FE4F5F4A07234FF0000A4FF0000C71
:1005C000904208BF0223019300F120020023009211
:1005D0000A6832FA03F508BF00F0B6B8012404FA3D
:1005E00003F712EA070B00F09F80D1F804E0032222
:1005F00002FA0AF50EF003086FEA0509A8F10105F1
:10060000012D0FD88568CE6805EA090506FA0AF6B5
:1006100035438560CEF3001546689D40BE433543A3
:10062000456005E0B8F1030F02D14FF0030821E067
:10063000C5688E6805EA090506FA0AF63543B8F179
:10064000020FC56016D10CF01C050F22009C02FAA7
:1006500005FE6FF0030202EA5307E65926EA0E0E82
:100660000E6906FA05F545EA0E05E551D1F804E0F4
:100670000EF00308066808FA0AF506EA090635438B
:100680001EF4403F05604FD02D4A2B4CB0F1904FE7
:100690001568A4F57E7745F001051560156805F02D
:1006A00001050295029D23F0030557F805E007D0E8
:1006B000244ADDF80480904208BF4FF0010801E0B1
:1006C0004FF000080CF00C050F229E0802FA05F40A
:1006D00008FA05F5184A2EEA04042C4347F8264088
:1006E00094684E6844EA0B05F70258BF24EA0B05EC
:1006F000124C9560B702A646246844EA0B0558BF21
:1007000024EA0B05CEF80050B703546844EA0B0501
:1007100058BF24EA0B055560F603146844EA0B053C
:1007200058BF24EA0B0515600AF1020A0CF1040C0B
:1007300001334DE700080048000401400C0401406B
:1007400060100240000400481EBCBDE8E08F426912
:1007500002EA0103914341EA034181617047182392
:10076000002A08BF2823C1507047000001480068D4
:10077000704700BF7442002090F84120202A03D126
:1007800090F84020012A01D1022111E0242280F8B2
:1007900041200268136823F001031360136823F4F7
:1007A0008053136013681943734602F0A9FB9E46F9
:1007B0000846704790F84120202A03D190F8402045
:1007C000012A01D1022110E0242280F84120026890
:1007D000136823F001031360136823F4706343EA82
:1007E0000121734602F08CFB9E46084670470000CC
:1007F00008B3B0B5044690F8410020B902F080FD7E
:10080000204600F087FA242084F84100D4E9000350
:10081000D4E90212056823F07063012A25F001056E
:1008200005600361836823F40043836005D141F4CC
:10083000004181600AE00120704741F40441022A2E
:10084000816003D1416841F4006102E0416821F414
:10085000006141600F4A04F1100541681143416095
:10086000C16821F40041C1602ECD114341EA03214A
:10087000C160216A29430160016841F00101016002
:1008800000202021606484F84110206384F8420035
:10089000B0BD00BF008000022DE9FE4F04460020DD
:1008A000029094F84100202806D120688069000455
:1008B00002D402F0D2FC02D1022000F06FB88A46C6
:1008C00090462420344A1D464FF000095F1C84F8EE
:1008D000410001206FF39F2A84F84000C4F844903F
:1008E000E168206893460129114618BF01F50061AF
:1008F00041EA0A014160FFF739FF06462068816935
:10090000826901F0200102F01002891809D1002F3C
:10091000F4D0FFF72BFF801BA8422AD8002DEDD181
:1009200027E08169C90610D42046202100222B46E9
:10093000009602F0E7F840B3606C042812D12068FA
:100940002021C161C4F844900CE0102100222B4604
:10095000C16120462021009602F0D4F810B9206829
:100960002021C16102985A46013002900298404508
:10097000B6D302F076FC606C40F020006064012089
:10098000002184F8401000F009B820682021C161DE
:1009900084F841100020F3E7002000021EBCBDE8EF
:1009A000E08F00002DE9F84302F0CDFD02D102F006
:1009B00054FC03D102252846BDE8F88301251E46D4
:1009C0001746884684F84050FFF7D0FE02F036FC08
:1009D0000028F0D1212002F0B0FB668560636762D9
:1009E000C848618DB1F5807F04D3FF214FF080733B
:1009F000218505E0618D0029218549D04FF00073E4
:100A000017F8012B2568AA624A1E67622285628D4B
:100A1000013A62850090CAB22046414602F05AF877
:100A2000089F0025FF26608D68B3204639464A4658
:100A300002F0B3F850BB02F015FB02F059FC02F0D3
:100A40001DFDF0D00004EED12046802100223B465F
:100A500002F037FBD0B902F05FFC21BF268500957C
:100A60002046414627BFFF224FF08073608D2085CE
:100A70003FBF0095C2B22046414638BF4FF00073D9
:100A800002F028F8CFE702F0EFFC40B1012592E731
:100A900000902046414600224FF00073BEE72068D8
:100AA0002021994B02F0FAFC85E700BF2DE9F84FB1
:100AB00002F049FD0CD1DDF828B0BBF1000F09D0E0
:100AC000DDF82C80B8F1000F04D002F0C6FB07D18E
:100AD000022502E002F020FD0125284600F07AB848
:100AE00002F0CBFB02F0AAFB0028F6D122200C99E1
:100AF0000025F2B2002384F84100402084F842002F
:100B0000324802F031FC8346A0F5806002F099FA89
:100B100002F0ABFB78B92068012E03D002F004FC90
:100B200048B92068F9B2002243468162204640213C
:100B300002F0C7FA10B184F84050CDE702F0ECFBA8
:100B400009D30120514601224FF080732085CDF852
:100B500000B0204603E002F01AFBCDF800B001F02F
:100B6000B9FF00250126204604210022434602F059
:100B7000A8FA0028B0D102F018FB19D0000417D150
:100B8000204680210022434602F09BFA0028A3D190
:100B900002F0C2FB07D3268500952046514601226C
:100BA0004FF0807302E002F0F2FA009501F092FF3C
:100BB000608D0028D7D102F02AFC00287FF48CAF8A
:100BC00020682021024B02F069FC86E700240080A7
:100BD00000E800FE18BCBDE8E08F00002DE9F84FEA
:100BE00002F0B1FC0CD1DDF828B0BBF1000F09D048
:100BF000DDF82C80B8F1000F04D002F02EFB07D1F5
:100C0000022502E002F088FC0125284600F07EB8AB
:100C100002F033FB02F012FB0028F6D121200C99E0
:100C20000025F2B24FF0807384F84100402084F830
:100C30004200344802F098FB02F003FA02F015FB80
:100C400078B92068012E03D002F06EFB48B9206805
:100C5000F9B20022434681622046802102F031FA37
:100C600010B184F84050CFE702F056FB09D3FF20C3
:100C70005146FF224FF080732085002000902046CF
:100C800008E0608D00214FF0007320850091C2B212
:100C90002046514601F01EFF0025FF2602F0E5FA2E
:100CA0000028B1D102F0DEF902F022FB02F0E6FBEF
:100CB00019D0000417D1204680210022434602F0BB
:100CC00000FA0028A0D102F027FB07D32685009563
:100CD00020465146FF224FF0807302E002F057FA9F
:100CE000009501F0F7FE608D0028D7D102F08FFB50
:100CF00000287FF489AF20682021034B02F0CEFB4F
:100D000083E700BF0020008000E800FE18BCBDE8BB
:100D1000E08F00002DE9F0439BB0044616A8142193
:100D2000FFF79DFA01A85421FFF799FA2068454979
:100D3000884243D04449884240F08080402001905E
:100D400001A800F09BF908B1FFF717FB3F4E4FF0E9
:100D500003080027306840F001003060306800F080
:100D6000010000900420CDF8648018971A9012209A
:100D700017904FF4C0601690009816A902F093F8EF
:100D8000F068344D40F40010F0608020C5E9018720
:100D9000C5E9037030482860F068C5E90577C5E902
:100DA000077700F40010009000982846FFF78AFBB0
:100DB00008B1FFF7E2FAAC62E5633FE04FF4807000
:100DC000019001A800F05AF908B1FFF7D6FA1F4DBB
:100DD0004FF004084FF0030900261227286840F05E
:100DE00001002860286800F0010000900098286841
:100DF00040F002002860286800F002000090802087
:100E0000CDF86880CDF864901896179716900098E2
:100E100016AC02F0ADF810202146CDE91998CDE9C5
:100E2000177616900A48FFF7C3FBE86840F4000005
:100E3000E860E86800F40000009000981BB0BDE88E
:100E4000F08300BF005C0040005400404C100240A2
:100E5000000400487C03002080000240034804494D
:100E600000780A6810440860704700BF0000002046
:100E70007442002080B5032000F0A8F80F2000F095
:100E800007F808B1012080BD00F04CF8002080BDBB
:100E900070B586B004463148016841F02001016018
:100EA0006946006800F020000190019801A800F058
:100EB0009BFA049D00F0B6FA17490026174B40F242
:100EC000E732002D8E6118BF0125A840C1E90262FA
:100ED0000E615F4DB0FBF5F00138C1E90030084606
:100EE00000F010FE18B90C4800F07AFE18B1054663
:100EF000284606B070BD372000F032F80F2C08D815
:100F0000372021460022002500F03AF8044804600A
:100F1000EEE70125ECE700BF30060020001400409A
:100F20000400002082B00D480022816841F00101D8
:100F30008160816801F0010101910199016841F02E
:100F4000805101600F21006800F0805000900098EF
:100F50006FF0010002B000F013B800BF581002405B
:100F6000002809D41C21012201EAD00100F01F0051
:100F700002FA00F0014A8850704700BF00E100E02B
:100F8000F0B5184B4FF0FF361C68C4F30224E51E81
:100F900084F0070438BF002506FA05F7BA43042C8D
:100FA00028BF042406FA04F4A14300F00F04A9406A
:100FB000043C1143044A234409010244002848BF69
:100FC00003F10C021170F0BD00E400E005494FF69A
:100FD000FF030A681A4060F30A22034810430860BE
:100FE000704700BF0CED00E00000FA0510B5AD49F8
:100FF000B0F5007F0A6802F4C0621ED1B2F5007F2E
:1010000023D00868012262F34A2032220860F448A3
:10101000006850430E4AB0FBF2F0002201304C69E8
:10102000013842F10003640501D5002BF7D148696E
:10103000400544BF032010BD07E0B2F5806F04D027
:101040000868022262F34A200860002010BD00BF39
:1010500040420F009348006800F4C060704700BF32
:101060009048016841F4807101607047024801684E
:1010700041F0040101607047001002402DE9F8437F
:1010800004464078864F00071BD5E06B68B1B0F589
:10109000400F11D0B0F5000F40F0EC80386840F4FC
:1010A000803038604FF4000006E0201D002102F07F
:1010B0009DFA814638B9E06BF96F21F4400108438D
:1010C000F8674FF00009A078800750D5F86C5FEA08
:1010D000C00808D4F86C40F08050F864F86C00F058
:1010E0008050009000986F4D286840F48070286010
:1010F000FFF73CFB06462868C00507D4FFF736FB20
:10110000801B0228F7D94FF0030929E0B9F1000F3D
:1011100026D1D7F8840010F4407017D0216D884292
:1011200011D0D7F88400D7F8841041F4803120F42E
:101130004070C7F88410D7F8841021F48031C7F8C4
:101140008410C7F88400C00740F09780206DD7F85E
:1011500084104FF0000921F440710843C7F884005F
:10116000B8F1000F03D4F86C20F08050F8642068C8
:10117000C10705D0216AFA6F22F003021143F96713
:10118000810705D5616AFA6F22F00C021143F967F5
:10119000810605D5A16AFA6F22F440621143F9670E
:1011A000810505D5616BFA6F22F440221143F9677E
:1011B000410505D5A16BFA6F22F440121143F9677E
:1011C000410605D5E16AFA6F22F440521143F967EE
:1011D000C10505D5216BFA6F22F440321143F9673E
:1011E000810413D5216C01F0D2FE07D0B1F1006F5C
:1011F0000CD1396841F48011396007E0201D0121CC
:1012000002F0F4F9002818BF81462068410313D585
:10121000616C01F0BCFE07D0B1F1006F0CD13968F0
:1012200041F48011396007E0201D012102F0DEF950
:10123000002818BF81462068410410D5A16CFA6FC0
:1012400022F040520A43B1F1805FFA6707D1201DB6
:10125000022102F0CBF9002818BF81462068000463
:1012600005D5E06CF96F21F080410843F8674846E6
:10127000BDE8F8834FF0010925E7FFF777FA064646
:1012800041F288354FF00309D7F8840080073FF515
:101290005DAFFFF76BFA801BA842F5D960E700BF8E
:1012A0000C100240007000402DE9F843002800F0C7
:1012B00092805B4D04468846286800F00700814212
:1012C0000AD9286820F0070040EA0800286028684A
:1012D00000F0070040457ED120685D4E10F002010D
:1012E0000AD0A268336803F0F0039A4204D9336845
:1012F00023F0F0031A433260C20731D056F8081CBD
:10130000606848B1022804D0032808D1890108D4B4
:1013100061E0890305D45EE0890702D45BE04905FA
:1013200059D53168A946354621F00301084301F03B
:1013300001FF064641F288376068296801F00C0118
:10134000B1EB800F07D0FFF711FA801BB842F3D939
:101350000320BDE8F88320682E464D4600F00201C8
:1013600051B1A168326802F0F002914204D23268B1
:1013700022F0F00211433160296801F0070188452D
:101380000AD2296821F0070141EA08012960296889
:1013900001F0070141451ED1410705D5E1683268DA
:1013A00022F4E06211433160000706D520693168FC
:1013B00021F4605141EAC000306000F04DF831681E
:1013C000064A01F0E6FF2149086006480068BDE8CA
:1013D000F843FFF75DBD0120BDE8F883AE7E00084D
:1013E00008000020040000200F220260184A136841
:1013F00003F003034360136803F0F0038360136892
:1014000003F4E063C3604FF4E063126803EAD202BE
:1014100002610348006800F007000860704700BFE1
:101420000020024009480A490A4A00680968C1F3D5
:10143000022101F030BF00BF04480549054A006899
:101440000968C1F3C22101F026BF00BF08000020D7
:1014500008100240BE7E000810B526488168C368A7
:1014600011F00C02014605D00C2A24D103F003032D
:10147000012B20D10B4653F8944B14F0080408BFFD
:1014800018464FF00403006808BF0823D8401C4BDF
:1014900000F00F00002A53F82030184618BF002033
:1014A0000C2A21D1C86800F00300022809D00328C3
:1014B00008BF124B06E0042A17D0082A17D10F489C
:1014C00010BD0D4BC868CA68C9680224C2F3062261
:1014D000C0F30210C1F341615A43013004EB4101F2
:1014E000B2FBF0F0B0FBF1F010BD034810BD0020DE
:1014F0000023D5E7001002400024F40000127A0017
:10150000C87E000840B32DE9F843E14E0446B068B8
:1015100000F00C08F06800F003072078C0061DD426
:101520002078C0075AD0B8F1080F50D0B8F10C0F8E
:1015300008BF032F4BD030686168B1F5803F07D0FA
:10154000B1F5A02F40F0DC8140F48020306030689D
:1015500040F480303060DBE101207047B8F1000FCB
:1015600019D0B8F10C0F08BF012F14D03068A16951
:10157000002900F0518140F0010001F0DBFD05463B
:101580003068800700F15781FFF7F0F801F052FE54
:10159000F6D9BDE8F8833068800703D5A069002834
:1015A00000F0AB81206A316809075ABFD6F8941061
:1015B0000909316801F0F001884240F2F78002F039
:1015C0009FF8002840F0998101F088FC02E1306822
:1015D000800303D56068002800F08F8120788007A1
:1015E00028D5B8F1040F17D0B8F10C0F08BF022F9F
:1015F00012D03068E168002900F0988140F48070D2
:1016000001F098FD0546306840050CD4FFF7AEF8B0
:1016100001F010FEF7D9BCE73068400503D5E0685B
:10162000002800F06A812069716821F0F85141EAD0
:10163000006070602078000755D42078400769D496
:101640002078800600F19A80A06A002800F09A8134
:10165000022840F0F380E16AF06800F003028A4259
:1016600040F00081216B6FF00F0202EB011100F0DE
:1016700070028A4240F0F680616B00F4FE42B2EBE9
:10168000012F40F0EF80A16B00F07842B2EBC16F08
:1016900040F0E880E16BDE4A02EA015100F4C0024A
:1016A000A1F500118A4240F0DD80216C4FF07E42AE
:1016B00000F0C06002EA016101F17E41884240F021
:1016C000D1803068800100F15D8101F056FC044654
:1016D0003068800100F15681FFF748F8011B0320B4
:1016E0000229F5D955E7D6F894006169002900F080
:1016F000818040F00100C6F89400FFF737F80546F6
:10170000D6F89400800798D4FFF730F8401B0228E1
:10171000F6D9EAE0B06D5FEAC00908D4B06D40F0D8
:101720008050B065B06D00F0805000900098B74FC9
:101730003868C0050FD4386840F480703860FFF70F
:1017400015F805463868C00505D4FFF70FF801F015
:1017500071FDF7D91DE7D6F89000A168012908D0DE
:10176000052940F0A98040F00400C6F89000D6F8A2
:10177000900040F00100C6F89000A8E0D6F898006C
:10178000616A002900F0868040F00100C6F89800E8
:10179000FEF7ECFF0546D6F8980080073FF554AFFA
:1017A000FEF7E4FF01F046FDF5D9F2E6316841F0BD
:1017B00008013160316821F0F00101433160B8F176
:1017C000000FE169726822F47F4242EA01217160F0
:1017D00000F08E80FFF740FEB168894A01F0D9FD24
:1017E0008849086088480068FFF752FB00287FF4AA
:1017F000D0AE95E620F00100C6F89400FEF7B6FFE3
:101800000546D6F8940080077FF517AFFEF7AEFFC8
:1018100001F010FDF5D9BCE620F0010001F08AFCD2
:101820000546306880077FF57BAEFEF79FFF01F02D
:1018300001FDF6D9ADE601F051FB71E6B8F10C0FF0
:101840005BD0306820F0807001F074FC0446306892
:10185000800140F19380FEF789FF011B03200229DC
:10186000F5D996E6B8F10C0F47D03068400144D462
:10187000306820F0807001F05DFC05463068800122
:1018800040F19180FEF772FF01F0D4FCF6D980E6BA
:101890000010024020F00100C6F89800FEF766FF35
:1018A0000546D6F8980080077FF5CEAEFEF75EFFBE
:1018B00001F0C0FCF5D96CE620F00100C6F89000FC
:1018C000D6F8900020F00400C6F89000E9B3FEF7C7
:1018D0004DFF054641F28837D6F89000800744D482
:1018E000FEF744FF401BB842F6D90320BDE8F88359
:1018F00001F006FF00283FF46DAF0120BDE8F8833A
:1019000020F480303060306820F480203060E1B313
:10191000FEF72CFF0546306880033FF55FAEFEF70B
:1019200025FF411B03206429F5D932E620F480709D
:1019300001F000FC0546306840057FF57BAEFEF700
:1019400015FF01F077FCF6D923E6FEF70FFF0546F9
:1019500041F28837D6F89000800706D5FEF706FFDB
:10196000411B0320B942F5D913E6B9F1000F3FF549
:1019700067AEB06D20F08050B06561E6F068264932
:101980000840F0600020BDE8F883FEF7EFFE054652
:10199000306880037FF522AEFEF7E8FE411B03208E
:1019A0006429F5D9F5E504F12C036FF00F05194F03
:1019B0000FCB05EB0111F5683D4028430843E16B6F
:1019C00040EA0220124A02EA01514FF07E42A1F59C
:1019D00000110843216C40EAC36002EA016101F191
:1019E0007E410843F06001F0C8FA04463068800187
:1019F000C8D4FEF7BBFE011B03200229F6D9C8E5B7
:101A0000AE7E0008080000200400002000700040A6
:101A10000000E0FF8C809D01FCFFEEFE70477047E8
:101A20007047000090F83C20012A01D1022134E0E7
:101A300070B591E83C001A4E25F47C5524F470549E
:101A400033402C4322F477222343794C1A430B6909
:101A500023F476231A434B691A438B6A22F47422C7
:101A600023F470231A438B6942EA03430268A242BB
:101A70000DD1D1E90745496A0A4E23F07C7306EA85
:101A80000151194324F00073194341EA0503002171
:101A900080F83C105364BDE870400846704700BFB2
:101AA000FF87F0FF0000F0FC90F83C300222012B91
:101AB00026D070B580F83D205D4C0268556893686B
:101AC000A24203D14E6825F4700535430E6825F017
:101AD00070053543B2F1804F556004D0534DAA4292
:101AE00001D0A24204D1896823F080031943916098
:101AF0000022012180F83C2080F83D10BDE87040B4
:101B00001046704770B110B501F068FC03D101F0C8
:101B100071FB00F009F801F086FB012001F0C7F924
:101B200001F058BB0120704781B00068B0F1804FD0
:101B300023D0184988420ED0D249884214D03C495B
:101B4000884224D11448816841F400618160806832
:101B500000F4006019E01048016841F010010160D4
:101B6000006800F0100010E00B48816841F400317B
:101B70008160806800F4003007E00748724601F099
:101B80004DFB9646006800F001000090009801B0FF
:101B9000704700BF001000405810024090F83D1000
:101BA00001291BD1022180F83D100168B1F1804F5D
:101BB00005D01E48814202D01D48814209D1886863
:101BC0001C4A734601F061FC9E4608D0B2F5803F86
:101BD00005D0724601F0B1FC96467047012070476F
:101BE00090F83D1001291FD1022180F83D100168B5
:101BF000C868B1F1804F40F00100C86005D00B48C3
:101C0000814202D0FE48814209D18868094A734660
:101C100001F03BFC9E4608D0B2F5803F05D07246ED
:101C200001F08BFC96467047012070470040014050
:101C3000002C01400700010010B501F080FB60D0CE
:101C400084F83D0001202F4B84F83C002068826816
:101C50001A4082600A68EAB1102A1BD0202A19D0E3
:101C6000302A17D0402A3DD0502A32D0602A18D0CE
:101C7000B2F5005F21D0B2F5805F3CD0702A26D14A
:101C8000D1E90123C96801F031FA8160816841F02E
:101C900077012FE0816821F07001114341F00701C5
:101CA00028E04B68CA68194601F06AFF206881681D
:101CB00041F0670121F010011CE0D1E90123C9685E
:101CC00001F014FA8160816841F4804112E0012042
:101CD00012E001F0CEFB2068816841F0570121F04D
:101CE000200107E001F0C5FB2068816841F0470151
:101CF00021F030018160002001F08EFB012184F889
:101D00003D1010BD8800FEFF704770B504460068A6
:101D1000C5680669B10710D5A9070ED56FF0020195
:101D20000161012121778069800702D001F099FBD0
:101D300001E001F0D3FA00202077700712D5680780
:101D400010D520686FF004010161022121778069BC
:101D500010F4407F02D001F084FB01E001F0BEFAF4
:101D600000202077300711D528070FD520686FF0A5
:101D70000801016104212177C069800702D001F0C8
:101D800070FB01E001F0AAFA00202077F00612D5DE
:101D9000E80610D520686FF0100101610821217755
:101DA000C06910F4407F02D001F05BFB01E001F05C
:101DB00095FA00202077F00708D0E80706D02068C1
:101DC0006FF001010161204600F060F916F4025F36
:101DD00008D0280606D520686FF40251016120461C
:101DE000FFF71DFEF00508D5280606D520686FF41C
:101DF000807101612046FFF711FE700608D5680664
:101E000006D520686FF040010161204600F048F9D6
:101E1000B00601D5A80600D470BD20686FF020017F
:101E200001612046BDE87040FFF7FABD10B586B0ED
:101E3000044601A81421FEF712FA2068914988424D
:101E40000BD0B0F1804F1AD10F4801F0E7F9012112
:101E500001F06BF90098202007E00B4801F0DEF953
:101E60000E2101F062F90098402005910021CDE992
:101E700003110221CDE9010101A901F014F806B016
:101E800010BD00BF004401404C10024070470000EC
:101E9000B0B501F034FB04BF0220B0BD0D460120F7
:101EA0004FEAB201052984F83C0048D8DFE801F088
:101EB000032B13230B332068294601F035FD2068DE
:101EC00050F8181F0EE02068294601F0EDFD20684B
:101ED00050F8541F06E02068294601F08DFD206867
:101EE00050F81C1F41F008010160016821F0040155
:101EF000016029691FE02068294601F0AFFD2068D4
:101F000050F81C1F0EE02068294601F043FD2068B0
:101F100050F8181F06E02068294601F0E9FD206806
:101F200050F8541F41F400610160016821F48061A0
:101F3000016029690902026811430160002001F073
:101F40006BFAB0BD70B110B501F048FA03D101F0E1
:101F500051F900F009F801F066F9012000F0A7FF3F
:101F600001F038B90120704770477047B0B504469A
:101F700081B101F087F838BF03EBB205625D012A39
:101F80000FD1032818D8DFE800F002140E1101F079
:101F9000F4F913E094F83E00012802D101F0CBF9E6
:101FA0000CE00120B0BD01F022FA07E001F023FAB5
:101FB00004E001F024FA01E001F015FA206801F0D4
:101FC00064F901F020FA0FD02D48814205D02D4A46
:101FD000914202D02C4A91420ED101F0FFF82A4AD8
:101FE000914201D0814207D18868064A01F04DFA3A
:101FF00004D0B2F5803F01D001F09FFAB0BD00BF20
:10200000002C014007000100B0B501F000F8206885
:102010001B4A1A49904205D01A4A904202D01A4AE5
:10202000904207D1026A0A4204D101F045F801D179
:1020300001F033F8026A0A4204D101F0A5F901D196
:1020400001F0F3F94FEAB500042813D8DFE800F0F7
:10205000030F090C060001F063F90DE001F058FAD6
:102060000AE001F055F907E001F046F904E001F05B
:102070004BF901E001F048FA0020B0BD1111110048
:10208000002C014000440140004001400068034929
:10209000884208BFFEF7E2BE704700BF0014004050
:1020A0007047704770477047F8B50446006840F6BF
:1020B0000F03C269016886681A424FEA826361D0E1
:1020C000934D01EA050706F001057F195ED0D6079A
:1020D00009D0CE0507D501260662D4F8846046F003
:1020E0000106C4F88460960708D53DB10226066251
:1020F000D4F8846046F00406C4F88460560708D516
:102100003DB104260662D4F8846046F00206C4F8A5
:10211000846016070BD501F02006AD1907D00825FD
:102120000562D4F8845045F00805C4F884501205BF
:102130000AD54A0108D54FF400620262D4F884201F
:1021400042F02002C4F88420D4F88420002A00F051
:10215000DB80002B06D5890604D5A16E11B120467F
:1021600088472068D4F88410806801F0280100F0C6
:102170004000401837D12046FFF795FF0020C4F8F3
:102180008400F8BD002B01D58B0644D4236E012BAF
:1021900003D1D30601D5CB0644D4D30201D57302B3
:1021A00019D4100601D5080633D4500640F1AC808E
:1021B000480640F1A98001F03DF920F0400000F010
:1021C00039FFF8D10020E0662020E0672046BDE816
:1021D000F84000F091B94FF4801101622046BDE84B
:1021E000F840FFF75FBF204602F0BBF92068806827
:1021F00040064ED500F090FEFCD1606F002848D01C
:1022000044498163FEF7E4F800287DD0606F816B5C
:1022100005E0E16E00E0A16E002975D02046BDE822
:10222000F8400847102101628068400636D4B4F8AF
:102230005A00B4F85810B4F85A20002A64D08142E9
:1022400062D0081A216851E8001F226821F49071B9
:1022500042E80013002BF5D1216851E8021F2268E3
:1022600021F0010142E80213002BF5D12021C4F82E
:1022700080100021A1662166216851E8001F2268B4
:1022800021F0100142E80013002BF5D10221616614
:102290002FE02046BDE8F840FFF705BF606FB4F8B7
:1022A00058200068436899B249B3914227D2A4F8F4
:1022B0005A300068800615D401F0BCF820F4807014
:1022C00000F0B8FEF8D100F06AFEFCD100F024FE68
:1022D000FCD100F07AFF206600F037FFFCD1606F80
:1022E000FEF74FF802206066B4F85800B4F85A10B0
:1022F000401A81B22046BDE8F840FFF7D2BE8A42BC
:1023000002D10068800600D4F8BD02206066F1E7C3
:10231000200100045D45000810B560B10446C06F9F
:1023200008B901F0C7F800F0BBFF01D000F067FF6B
:1023300000F068FF08B1012010BD00F054FF21F04B
:102340002A01816000F069FEBDE8104002F0C2B8C9
:10235000F0B59BB0044616A81421FDF780FF01A834
:102360005421FDF77CFF2068334988422CD0334943
:1023700088425ED10120019001A8FEF77FFE08B1DE
:10238000FDF7FBFF2E48416941F4804141614169FD
:1023900001F4804100910099016841F0020101605F
:1023A000006800F00200009007201A9003201990A6
:1023B0000020189002201790C0201690009816A9AF
:1023C0002048FEF7F5F834E00225019501A8FEF754
:1023D00055FE08B1FDF7D1FF194803260027C16853
:1023E00041F40031C160C16801F4003100910099ED
:1023F00000F014FF00F099FE07201996CDE9175759
:102400001A9004201690009816AC00F0B1FD4FF41D
:1024100000402146CDE91966CDE91757169000F026
:1024200042FD262005210022FEF7AAFD2620FEF708
:1024300097FD1BB0F0BD00BF0044004000380140D4
:102440004C100240000400482DE9F8430446C06FD8
:1024500020281CBF0220BDE8F8830D46B1B3164604
:10246000A2B300209946C4F884002120E067FEF75B
:102470007DF9A4F852608046A4F85060A068B0F5D9
:10248000805F01D12069A0B300262F46B4F8520026
:10249000F8B12046802100F031FE28BB27B117F8A3
:1024A000010B2168886206E036F8021B20680027CD
:1024B0006FF35F218162E06F00F02100212805D1D8
:1024C000B4F852000138A4F85200DFE70120BDE85B
:1024D000F8832046402100F011FE2021E16700280A
:1024E00018BF0320BDE8F8832020E0670320BDE883
:1024F000F88300272E46C9E7704700002DE9F04F0A
:102500009FB00746007D012840F0128197F8903077
:102510001E201E2488A2B3FBF0F01E2B38BF1C46E1
:102520001E2BC0EB0010A3EB400B38BF4FF0000B8D
:10253000CDE9004B07AE60210393304605F04EFA1B
:10254000884D82B2314664232846FFF77DFF0DF1A6
:102550001C0885A121224046FDF768FE2846414619
:1025600020226423FFF770FF182004A987A5D9460D
:10257000A24600EB8B0807F1180081E81108BAF1B8
:10258000000F17D01E2060212A46B9FBF0F0C0EBE7
:102590000010A8EBC0003B58304605F01FFA82B28D
:1025A000704800F077FC09F1010908F10408AAF16C
:1025B000010AE4E740F60D20002502226423ADF86D
:1025C0001C0068488DF81E5007A9FFF73DFFDDF895
:1025D00018801820DDF81490DDF80CA01E215A4652
:1025E000234600EB88005BB1B2FBF1F60132013B00
:1025F000C6EB0616A0EBC6060430BE593544F2E71A
:10260000BAF1000F01D04D4502D20026002005E0AE
:10261000B5FBF9F64EF66020B0FBF6F03870C0B2AC
:102620005CA260213346009007AD00F074FD82B2D9
:102630004C4800F096FC07EB88001E2200F11801C0
:1026400000206CB1BBFBF2F30BF1010B013CA3EBDF
:102650000313DB00CB5804319B1B03FB0300F0E7A3
:10266000BAF1000F05D0B0FBF9F002F003FA03460F
:1026700000E00023BB6007AD4EA2602100F04BFDDF
:1026800082B2384800F06DFC049908F1010CA9F100
:10269000010E00251E220026AE451ADD05EB0803BB
:1026A0003846B3FBF2F4C4EB0414A3EB44030CEB85
:1026B00005040135B4FBF2F751F82330C7EB0717D7
:1026C000A4EB4704074651F82440E31A03FB0366D2
:1026D000E2E72DB1B6FBF5F002F0CCF9034600E0DD
:1026E00000237B60CDE9005607AD384A602100F039
:1026F00012FD82B21B4800F034FC7868962801D3A2
:10270000002302E0322802D864237B7004E06FF0DB
:102710006901081AC3B2787007AC2D4A60212046BF
:1027200005F05CF982B20F4821466423FFF78CFE66
:102730001FB000F04FB800BF5B434F4D505554459C
:102740005D206275665F6964783D257520636F75ED
:102750006E743D25752073746172743D25750D0A84
:1027600000000000040700205B434F4D50555445C6
:102770005D204942492076616C75657320284F724F
:102780006465726564293A2000000000256C75209C
:10279000000000005B434F4D505554455D206D6572
:1027A000616E3D256C752068723D25752062706DE7
:1027B0000D0A00005B434F4D505554455D20736436
:1027C0006E6E3D2575206D730D0A0000E87F0008D0
:1027D0001680000830BCBDE8C08F00002DE9F04134
:1027E0009CB0054600690C46002800F09E80271A20
:1027F0004FF47A7095F890104EA2B7FBF0F83B4674
:10280000CDE9008104AE6021304605F0E7F882B2E0
:10281000524800F03FFBB7F57A7FC0F08680504801
:1028200050493844884223D895F89020032A4ED343
:102830001E204FF01E0CB2FBF0F31E2A38BF944648
:102840006746C3EB0313A2EB430238BF002205EB3C
:10285000820303F1180600236FB1B2FBF0F1013FD0
:102860000132A1EB0111C900715804360B44F3E7A2
:1028700004AE3DA250E0B3FBFCF07D214B2364226B
:102880004143009058434346B1FBF2F1B0FBF2F0F4
:1028900000220291019088454FF0000188BF01217C
:1028A000804538BF01223C4852EA01073BA13CA2C7
:1028B00018BF0146039104AE3046602105F08EF842
:1028C00082B2264800F0E6FA7FBB95F890201E21E0
:1028D000501CC5F80C80B2FBF1F185F89000C1EBFB
:1028E0000111A2EB41014FF0FF3205EB8101C1F86C
:1028F0001880C1B252FA80F0012986BF01212975E2
:10290000297D1E2290FBF2F2C2EB0212A0EB4200E4
:102910002F4ACDE9000104AE30466021434605F060
:102920005DF882B20D4800F0B5FA2C611CB0BDE82C
:10293000F08100BF5B424541545D207469636B7355
:102940003D256C75206962695F6D733D256C75204E
:102950006275663D25750D0A000000000407002021
:1029600080E5F9FFE76D18005B424541545D207238
:10297000616E6765204641494C206962695F6D73ED
:102980003D256C7520286E656564203430302D320D
:10299000303030290D0A00005B8000084F4B0000EA
:1029A0005B504C4155535D206E65773D256C75201D
:1029B0006D65616E3D256C75206C6F3D256C7520D5
:1029C00068693D256C75202D3E2025730D0A000099
:1029D00030800008FEE700688169890744BF002154
:1029E00081628169C90703D1816941F00101816177
:1029F00070470000F8B5044600680D468169C906B5
:102A000002D40027002139E0102116460427C161B5
:102A100001218269C90792062CD459B3691C4FF071
:102A20000101F6D0FDF7A2FE811B2068A94202D861
:102A30000121002DEDD1426894F8421083691B04F6
:102A400009D512F4804206D1202904D000F021FDDE
:102A5000FDF78CFE064620688169890608D4FDF7DB
:102A600085FE801B1A28F6D3206800212427D0E792
:102A70000121CEE709B12021C16101218269D3057D
:102A800005D54FF4807147F00107C161012153055D
:102A900004D4920509D469B90020F8BD4FF48061CF
:102AA00047F00807C161910504D54FF4007147F064
:102AB0000207C16100F0DEFB2068054A4168114051
:102AC0004160606C384300F06BFC0120F8BD00BF32
:102AD00000E800FE70B5049C4FF480656FF39F2101
:102AE000074E006841EA024105EA54551943754012
:102AF0004668214321F0004135402943416070BDC3
:102B0000009C00FC2DE9F843DDF820801D461646A8
:102B10000F46044603F1010900F017FC1BD12046C3
:102B200029464246FFF766FF90B9B9F1000FF3D08E
:102B3000FDF71CFEA0EB0800A84201D8002DEBD148
:102B400000F003FCE8D1606C40F0200000F028FCAD
:102B50000120BDE8F8830020BDE8F88370B5154674
:102B60000E46044620688069800644BF002070BD80
:102B700000F056FC78B9FDF7F9FD401BB04201D8D2
:102B8000002EEFD1206880698006EBD4606C40F0A5
:102B9000200000F005FC012070BDF8B515460E467A
:102BA00004464F1C20688069800744BF0020F8BDA0
:102BB00000F036FC88B9002FF4D0FDF7D7FD401B9C
:102BC000B04201D8002EEDD1206880698007E9D499
:102BD000606C40F0200000F0E3FB0120F8BDBCB5C4
:102BE00009214022044603F049F8C8BB4FF496700F
:102BF000FDF7C0FC204608211F2203F03FF878BBF8
:102C000020460921032203F039F848BB20460A2157
:102C1000272203F033F818BB20460C21242203F0AE
:102C20002DF8E8B920460D21242203F027F8B8B981
:102C300020460221802203F021F888B92046042191
:102C4000002203F01BF858B920460621002203F0A9
:102C500015F828B920460521002203F00FF810B11D
:102C600005462846BCBD0DF107022046002100257F
:102C700002F0F6FFF5E7F0B587B015460E460DF108
:102C80001B020421044602F0EBFF60B90DF11A02A9
:102C90002046062102F0E4FF28B99DF81A009DF8AD
:102CA0001B10814203D10127384607B0F0BD322006
:102CB00005AA062101230127CDE900210290204623
:102CC000AE210722FDF7F2FE0028EDD19DF8140099
:102CD0009DF815109DF816209DF81730002700F07C
:102CE0000300000440EA01209DF8181010440DF183
:102CF0001302306003F00300000440EA01209DF855
:102D00001910084400212860204602F0A9FFCBE7F3
:102D10001CB5044600200DF1070204218DF80700C0
:102D20008DF80600204602F09BFF0DF106022046BA
:102D3000062102F095FF9DF806009DF80710081A7D
:102D4000203081B200EBD12101F0E001401AC0B285
:102D50001CBDFEE710B598B0124C01206080FDF755
:102D600005FD114940F6E7630A68D362E060CB6075
:102D7000D06A01304008506308460021FFF7F6F89A
:102D80000A486423009009A0D0E901128089ADF8B7
:102D90000C001D48CDE9011269460D22FFF754FBD6
:102DA00018B010BD3C0000204C0500204D55534983
:102DB000432053544152540D0A00000080B598B08E
:102DC0000B48002181700B48FFF71EF90A48642365
:102DD000009009A0D0E90112007B8DF80C000A4890
:102DE000CDE9011269460C22FFF72EFB18B080BD19
:102DF0003C0000204C0500204D55534943205354BE
:102E00004F500D0A0000000004070020B0B519491A
:102E10008A78012A08D1CA68CB78841A164A02EB4C
:102E200083056D88AC4200D2B0BDC860581C142325
:102E3000B0FBF3F303EB8303A0EB8300C87032F81D
:102E4000200080B10D49B1FBF0F0411E0C48026832
:102E5000D162C160D16A0131490851630021BDE8E6
:102E6000B040FFF783B806480021BDE8B040FFF747
:102E7000CBB800BF3C000020F87E000840420F00A5
:102E80004C050020FEE7401B00EBC000800090FBDB
:102E9000F6F0704731466423FFF7D6BA82B238465F
:102EA0002946642340474FF09040FDF781BB84F8EA
:102EB000480084F83E0084F83F0084F8400084F81D
:102EC000410084F8420084F8430084F8440084F808
:102ED000450084F8460084F847007047306840F0A9
:102EE00008003060D4E90701326822F0F002114393
:102EF0003160716821F47F4141EA002070607047C1
:102F00001160116841F0010111600021202280F858
:102F1000401080F841207047206850E8020F216877
:102F200020F0400041E80202002A7047456928214C
:102F300000220023044628470D46044603F09ABDAC
:102F400001463046009503F091B804F1600594F80D
:102F50007A107047204602F0BDBD251D284603F0BB
:102F600029BE29466423FFF76FBA6423FFF76CBAC2
:102F70004FF090402146FDF71BBB306840F0807059
:102F80003060F06840F08070F060FDF7EFBBFA6FE2
:102F900022F040620A43B1F1806FFA6770472068FF
:102FA00050E8020F216820F0010041E80202002AE7
:102FB00070472068292102792046284794F8240088
:102FC0002A463346FF287047204603F07FBC81B273
:102FD000A4EB090082B2404602F0D6BF0093064639
:102FE000234603F0E1BB1C4690468946074603F0A2
:102FF000DDBD0299404603F047BF00EB800001EBC6
:103000008000294603F023BE6FF005007047044698
:10301000006800220D4600F077BC016841F0010114
:103020000160204670474FF6FE764FF0000A701C94
:1030300085B2704741E80002002A7047204603F03D
:10304000E6BB00902046FFF745BD204603F0F4BBE9
:103050000FFA86F902980C995B46B9F1FF3FCDE96A
:1030600000017047616A206811F8012B8262704785
:103070000C99029822465B460027CDE90001504694
:10308000002170470A1F3F2343254FEAB20004285E
:1030900070472046324603F074BD426C22F4004271
:1030A00042647047016851E8001F026821F0100176
:1030B00042E80013002B7047026A40F244431A4270
:1030C0007047CDF80090FFF71DBD016851E8001F63
:1030D000026821F4907142E80013002B7047A7EBBF
:1030E0004405C4F101064FF0010870471A4342EA53
:1030F0000121826822F47F42114370470022434637
:10310000CDF8009001F024BBF01B81B204EB090064
:1031100082B240467047284604F060BCC0E90241D4
:10312000C0E904448461FEF7EDBC006800F00100D2
:10313000009070473060FDF719BB84F84100102003
:1031400084F84200002060647047206850E8000F57
:10315000216820F0100041E80002002A7047204654
:10316000294603F05ABB204603F064BC127C51434D
:10317000C900FDF774B81FFA8AF0BDE8F08704466D
:1031800003F07CBD00EB800001EB80007047608D98
:1031900051464FF000732085C2B22046704700228E
:1031A0002B460090204601F0D3BA2068616A406A3D
:1031B0000870608D01386085606A01306062208D22
:1031C00001382085618D002970472020C4F88000D7
:1031D0000020704784F83D00002010BD4A6C42F486
:1031E00000424A6470472068416821F49041416080
:1031F00081687047002084F83C00204670472046D4
:1032000001F014B9204601F0CBB9C0E90032C0E9A1
:103210000244C0E90441C0E906447047016841F036
:103220000101016070470220211D84F83D002068E3
:1032300000F032BB411B03200229704781460090F9
:1032400020464FF4004101221923FFF75BBC2046C2
:1032500003F0CCBB204602F0BBBA94F84000012832
:103260007047202084F841007047204641464A4676
:10327000FFF793BC2046FFF7AEBB01251E4617465D
:103280008A4684F84050FDF771BA012200F03CBB39
:10329000284660215847515C01F01F01C840704723
:1032A0002420E0672068616A0268002922F0010298
:1032B0000260704782B2404602F066BE94F8761013
:1032C000284603F031B804F1240801256F464FF079
:1032D000000A02AE7047044603F0D0BC4DF808ED7A
:1032E0002046FEF7D3FD20465DF808EBFEF73DBE15
:1032F000608D013860857047012084F84100704777
:10330000002084F840007047012084F83F00704797
:10331000012084F840007047608DB0F5807F7047D1
:10332000012084F83E007047390A4A4681622046EF
:103330004146FFF732BC022084F83E00704790F807
:103340003C2004460220012A7047206880693840EA
:10335000C01BB0FA80F0400986427047B842036251
:1033600046680C688B6870476564C4F824B0656370
:10337000A4F82A80884651467047022084F83F000E
:103380007047204602F053BE016A40F244421142A7
:103390007047C1F30311515C01F01F01C840704731
:1033A0006064202084F84100002084F8400084F804
:1033B000420070470446A1F114000528704784F8C4
:1033C000680007B000F000B830BCBDE8C08F2846E8
:1033D00004F016BA4FF0805101607047044690F82F
:1033E0003D0000287047022084F843007047022007
:1033F00084F841007047022084F8420070470220A0
:1034000084F8400070472168B1F1804F7047204632
:1034100041464A46FFF7A2BB002184F83C107047A2
:10342000204631462A46FFF7E5BA016821F001013E
:1034300001607047206850E8000F216870472046FF
:103440001821324603F09DBB94F87C1007462846AD
:10345000304794F84500FF2870473168C96A8842B0
:1034600070472046FEF750BC204639464A46FFF7D3
:1034700075BB4B68CA68194600F060BB6162208D5D
:1034800001382085618D0029704702400020062AFE
:103490007047416841F48041416070470025C16137
:1034A00042681A40426084F8411084F8405084F821
:1034B00042507047002084F878002046FEF748BF4D
:1034C0001E46154601EB800170471C4601338B46B2
:1034D000029282469918121B5B4489B292B29BB247
:1034E0000091ABEB040189B202F070BD94F87B103F
:1034F00082462846304794F84400FF287047044627
:1035000090F83C0001287047012084F84300704780
:10351000012084F8420070474FF4007060647047E7
:10352000016851E8021F026821F0010142E802131C
:10353000002B7047E16D20460847086840F0010005
:10354000086000207047044690F84100202870472A
:10355000D4F810C02046142170477A6838461047C6
:10356000204603F027BB0000000000000000000020
:10357000EFF30980BFF36F8F154B1A681EF0100F21
:1035800008BF20ED108A20E9F04F10602DE90900F6
:103590004FF0500080F31188BFF34F8FBFF36F8F50
:1035A00003F0ECFC4FF0000080F31188BDE8090047
:1035B0001968086800F00EB81EF0100F08BF00F080
:1035C0000EB880F30988BFF36F8F704700BF00BF4C
:1035D0007C00002030C8B0E8C04FFFF7EDBFB0EC72
:1035E000088AB0EC08CAFFF7ECBF0000F8B5404FFE
:1035F00004460D46F86880070ED0F868216800F090
:10360000030088421DD1E0B16068F968C1F302117E
:103610000131814215D121E0206803280BD0022816
:1036200005D001280DD1396889070AD50BE0396822
:10363000490506D507E03968890304D43968490388
:1036400001D40120F8BD61686FF00F0202EB011197
:10365000FA6822F0730211430843F860386820F0DA
:1036600080603860FDF782F806463868000105D5AD
:10367000FDF77CF8801B0228F7D930E03969A06893
:103680000002012D05D07DB91C4A1140E268D20626
:1036900013E0184A184B02F1B4621140226903EAA0
:1036A0000252A2F5001208E0124A4FF07E43114088
:1036B000626903EA026202F17E4208431043386104
:1036C000386840F080603860FDF750F8054638688B
:1036D000000106D4FDF74AF8401B0228F7D9032061
:1036E000F8BDA0693969084338610020F8BD00BF02
:1036F00000100240FF80FFF90000E0FFFF80FF079D
:10370000BCB51E4D04462868C0000FD4286840F0A0
:1037100080502860286800F0805001900198FDF7E3
:1037200099FC296821F08051296001E0FDF792FCA5
:10373000B0F5007F06D1812C08D30120A02C88BFD2
:1037400002200DE0802C03D9032009E0002007E0CF
:10375000A4F17000B0FA80F04009802C08BF02206C
:1037600007490A6822F0070202440A60096801F06A
:103770000701081A18BF0120BCBD00BF5810024045
:1037800000200240000000000000000000000000D7
:10379000074B1968086800F00DB880F30988BFF37B
:1037A0006F8F4FF0000080F31188704700BF00BF9B
:1037B0007C00002030C8B0E8C04FFFF7EEBF01200A
:1037C00001F032FDFBE7000080B50548006803F01A
:1037D0006BFF012808BF80BDBDE8804003F070BCCE
:1037E00010E000E0B0B596B005A84421FCF737FD25
:1037F000684614211424FCF732FD4FF40070FDF7E5
:10380000F5FB18B1EFF3108072B6FEE7FDF728FC68
:1038100019480025016821F01801016007210220E4
:10382000059413912821CDE9140012910121CDE9CD
:103830000F0160201191CDE90B1507910D9005A89E
:10384000FDF760FE18B1EFF3108072B6FEE70320BB
:1038500004210495CDE9025501900F20009068469F
:10386000FDF722FD18B1EFF3108072B6FEE7FDF709
:10387000FDFB16B0B0BD00BF9010024002480168C9
:1038800041F470010160704788ED00E00148FEF7E7
:103890003CBA00BF3006002070B5C64B02689842A3
:1038A00010D0B0F1804F03D14C6822F07002224357
:1038B000B0F1804F0AD0B04CA04207D0AF4CA0422C
:1038C00004D007E04C6822F070022243CC6822F456
:1038D000407222430D688E684C699842C6628562C8
:1038E00004D0A54D40F48063AB4201D10969016366
:1038F000016841F0040101600121416122F0800171
:103900002143016070BD00BF10B501F01F0101230C
:10391000046A8B4002FA01F124EA03030362026A9B
:103920001143016210BD0000F0B5036A026AA14EA6
:1039300022F0010223F0020302628C68D1F800C079
:10394000456823438469B04204D08B4A40F48067C1
:10395000974209D1026A22F00402026223F00802AF
:10396000CB681343B04204D0834E40F48062B2422D
:1039700006D125F44072D1E905562A4342EA0605EC
:10398000354A4560224042EA0C028261496841633F
:103990000362F0BDF0B5036A026A864E22F010029F
:1039A00023F02003B04202628C680A68456843EA4B
:1039B0000413846905D0704F40F48066BE4209D07C
:1039C0000FE0066A23F0800326F040060662CE6808
:1039D00043EA0613D1E9056725F440653E4345EA0D
:1039E000860545602F4D2C4044EA022282614968D9
:1039F00081630362F0BD00BFF0B5036A026A6D4ED9
:103A000022F4807223F40073B04202628C680A6868
:103A1000456843EA0423C46905D0574F40F48066E3
:103A2000BE4209D00FE0066A23F4006326F48066E4
:103A30000662CE6843EA0623D1E9056725F44055BE
:103A40003E4345EA06154560034D2C402243C261C2
:103A50004968C1630362F0BD8CFFFEFFF0B5026AE6
:103A6000036A544F23F48053FFF778FCC56905D0EF
:103A7000414FB84202D0414FB84204D14F6926F4B9
:103A8000804646EA87164660064E354045EA0424DD
:103A9000C4614968016422F4005141EA03310162C2
:103AA000F0BD00BFFF8CFFFEF0B5026A036A414F14
:103AB00023F48033FFF752FC456D05D02E4FB842FA
:103AC00002D02E4FB84204D14F6926F4803646EA20
:103AD00007264660054E35402C434465496881659C
:103AE00022F4003141EA03410162F0BD8FFFFEFF85
:103AF000F0B5026A036A2F4F23F48013FFF72EFC00
:103B0000456D05D01C4FB84202D01C4FB84204D1BD
:103B10004F6926F4802646EA87264660064E3540E1
:103B200045EA042444654968C16522F4001141EA6C
:103B300003510162F0BD00BFFF8FFFFE10B5036AA5
:103B4000046A24F0010404621A4CA04205D00A4C15
:103B5000A04202D0094CA04203D1046A24F004041C
:103B60000462846924F0F00444EA0212826123F0C2
:103B70000A021143016210BD0044014000400140AF
:103B800010B5036A046A24F010040462094CA042D0
:103B900003D1046A24F040040462846924F470446C
:103BA00044EA0232826123F0A00242EA011101627A
:103BB00010BD00BF002C014082B03D4F434D3D4C35
:103BC000DFF83081DFF8D8954FF0000A3BA64FF0C0
:103BD000400BFCF7CBFD3979A1B1297D39B3697868
:103BE000292944D3FCF77EFB204600F0B7FE787805
:103BF00001285BD1B979012958D0B878002852D072
:103C0000012053E0204602F063F82B49FFF7B9FB8F
:103C100020460F211E22334602F0CEF92046002115
:103C200000228023CDF800B002F084F811E0204695
:103C300002F04EF82649FFF7A4FB20460F21192277
:103C400024A302F0B9F920460F212D2225A302F06A
:103C5000B3F9204602F0E2F9B878012808BFFFF76F
:103C6000ADF887F806A0502001F0DEFAB1E7B87889
:103C7000012808BFFFF7A2F839780020B871802822
:103C800008D00A1802F07F0259F8222048F82020B4
:103C90000130F4E729786B7820466222CDF8008065
:103CA00000F0A0FDDFE7FFF755F87878B871DAE7A4
:103CB0003C000020DC0C0020F6860008504C4143FC
:103CC000452046494E474552000000006C04002044
:103CD00068820008414E414C595A494E472E2E2EBB
:103CE000000000004B656570205374696C6C2E2ECB
:103CF0002E0000007C010020B6B00FF25040DFF82B
:103D000044B4DFF844944FF00A0800244168099154
:103D10000189807A07900FF2A440089141681991B7
:103D200081681891C168007C16900FF2A440179129
:103D3000416800890B900FF234400C914168159155
:103D400081681491C168008A12900FF25840139153
:103D50004168119181681091C1680F9101694069B2
:103D60000D900FF2F8300E91D0E90101CDE9051068
:103D7000FCF7FCFC1A90FFF749F85846FEF7C8FF1D
:103D8000002800F093810546FF2811D1DFF8BC031D
:103D90000A2264231E9009981F900898ADF88000AD
:103DA00007988DF88200DFF8B0031EA9FEF74CFBE0
:103DB000202D0A9528BF20251B9500251B99E8B2C8
:103DC000884280F07E81CDE91C441DA958461CAA7A
:103DD000FEF751FF002840F06F81D9F8180099F8DC
:103DE000041044F61F620130C9F818001C98904274
:103DF00016D8002960D0DFF8C403102264231E9077
:103E000019981F90189820901798219016988DF85F
:103E10008800D1481EA9FEF717FB89F804404AE044
:103E200000296CD1D148DFF830A3D846DFF850B371
:103E3000112264231E9015981F90149820901398B7
:103E400021901298ADF888001EAF50463946D847E9
:103E50001C9B38466021CBA203F0C0FD82B25046C5
:103E600039466423D847CD480126942189F8046057
:103E7000FCF7F5F9CA484FF4007189F80040FCF7E7
:103E8000EEF9C9E9074489F8056001F04DFAC54823
:103E90003946172264231E9011981F901098209085
:103EA0000F9821900E9822900D9823905046D84755
:103EB000C3464FF00A081C98C1087C291FD8D9F8BE
:103EC00018006422B0FBF2F101FB1200012810D1AE
:103ED000BF48092264231E900C981F900B98ADF8E0
:103EE00080009D481EA9FEF7AFFA1C98C1087C29E6
:103EF00005D801F019FA012089F805001C9801F095
:103F000017FAC0F1000A99F80500012808D11A989B
:103F1000C9E907AAC9E909AA89F80540C9F82C0026
:103F200099F80000D9F818309D4A00F07F0101305F
:103F3000012B42F821A089F8000004D1C9F820A083
:103F400009F11C0104E0494651F8200F504502DAFE
:103F50005046C1F800A0D9F81C105145C4BFC9F89B
:103F60001CA051466426B3FBF6F202FB163292B94E
:103F70000E18022796FBF7F61027891B801BC1EB52
:103F80000111C0EB001091FBF7F190FBF7F0314409
:103F90003044C9E90710461AC6EBC60797FBF8F785
:103FA0000F449AB9CDE900A102A90DF178088B4A16
:103FB000C1C14046602103F011FD82B2664841460E
:103FC00064234FF00A080024FEF73EFAD9E90901FC
:103FD000814265DA504563DDB84261DD01285FDB6F
:103FE000C92E5DDBCDE90007D9F82C101A9F029687
:103FF0001EAE7B4A3046A7EB01086021434603F022
:10400000EDFC82B254483146FEF7AFFFD9F82C00E0
:1040100028B3A8F2262040F2AA51884222D899F863
:10402000040001281BD178480068416A5B48FEF70C
:10403000D5FBD9F830004EF66021744A0130C9F83A
:1040400030001FFA88F01EAEB1FBF0F3304660215D
:1040500003F0C4FC82B240483146FEF786FFC9F83F
:104060002C701AE0B8F5FA6F0BD9C9F82C701EAE97
:10407000644925223046FCF7D9F8374831462422D6
:1040800009E01EAE602157A24346304603F0A6FC6D
:1040900082B231483146FEF768FF4FF00A0800242B
:1040A000D9F824000135C9E909A087E6D9F810003C
:1040B0000130C9F8100041E0D9F814000130C9F806
:1040C00014000A981E2839D324480B2264231E901A
:1040D00006981F90059820901EAD1F482946FEF7B0
:1040E000B3F98DF878401DAE01275846AE21002265
:1040F00001230096CDE90178FCF7D8FC5846AE21A3
:10410000012201238DE8C001FCF7D0FC164E584671
:10411000AE21042201238DE8A001B0475846AE210C
:10412000052201238DE8A001B0475846AE210622A2
:1041300001238DE8A001B047C9E909440A2001F034
:1041400073F815E6C40300203C00002021493243E7
:10415000204552520D0A000004070020214649461E
:104160004F204F56460D0A00DD0B000846494E47CA
:1041700045522044455445435445440D0A0000002F
:10418000492400085B4154544143485D20726177E3
:104190005F69723D256C750D0A0000006C040020FB
:1041A000304900205B464958315D20656E76656C6C
:1041B0006F70652072657365740D0A0046494E473D
:1041C00045522052454D4F5645440D0A000000000F
:1041D0002146494E4745520D0A000000F58000086F
:1041E000C68000085B5045414B5D206E6F6973656A
:1041F0002028256C75206D73203C20353530290D25
:104200000A000000EC8100089805002031810008B8
:10421000A2B080480AAD544CDFF850A1604FDFF8DF
:10422000D881DFF8DCB152A6016809914168089194
:1042300081680791C16806910169059141690491FE
:10424000018B807E0391029047F2305000F0ECFF2A
:10425000207DDAF8301094F890303246CDE9000134
:104260002846602103F0BAFB82B238462946FEF7A1
:104270007CFE2046FEF742F9207D012866D1607859
:104280000FF24419462809D828280FF2481905D8F2
:104290000FF25019142851A088BF8146554928466D
:1042A0001D22FBF7C3FF384629461C226423C04762
:1042B0002378524AFEF7ECFFFEF7F0FDA368514A5F
:1042C000FEF7E6FFFEF7EAFD63684F4AFEF7E0FF00
:1042D000FEF7E4FD63784D4AFEF7DAFFFEF7DEFDF8
:1042E0004B4A284660214B46D847FEF7D7FD099830
:1042F00029461A2264230A9008980B9007980C907C
:1043000006980D9005980E9004980F900398ADF8BC
:10431000400002988DF842003846C04760789AF80D
:10432000041023783CA2CDE9000128463021D8476B
:104330003D4A0F2311680B62D16F202984D182B2CC
:10434000394829460A23FEF77FF87DE794F8903034
:104350002846602113A203F041FB82B23846294669
:10436000FEF703FE70E700BF6C0400203C00002055
:104370005B48525620545249474745525D2062756A
:10438000665F6964783D25752076616C69643D25BA
:10439000752062656174733D256C750D0A0000001F
:1043A0000407002043414C43554C4154494E472E8D
:1043B0002E2E206275665F6964783D2575206E65D6
:1043C000656420320D0A0000484947482053545282
:1043D000455353004D454449554D000052454C410D
:1043E00058454400564552592052454C4158454481
:1043F000000000001482000849240008B180000871
:10440000DD79000850810008648100089C80000864
:104410003F81000834820008244852562C25752C10
:1044200025752C25750D0A007C06002010B5416A03
:104430000A0706D50268436B546824F400442343FA
:104440005360CA0706D00268836A546824F40034B3
:10445000234353608A0706D50268C36A546824F46C
:104460008034234353604A0706D50268036B5468BF
:1044700024F4802423435360CA0606D50268836B64
:10448000946824F48054234393608A0606D5026816
:10449000C36B946824F40054234393604A060FD5F9
:1044A0000268036C546824F480141C43B3F5801F25
:1044B000546005D1436C546824F4C0042343536012
:1044C000090606D50168806C4A6822F40022104370
:1044D000486010BDBCB504460020C4F88400FCF759
:1044E00045F9054620680168090712D56FF07E403E
:1044F0004FF40011FEF753FE50B1FEF79BFF20F082
:104500008000FEF797FDF8D1032020217C2220E0D7
:1045100020680068400714D56FF07E404FF480019A
:10452000FEF73DFE68B1FEF785FF20F49070FEF7C0
:1045300081FDF8D1FEF733FDFCD10320202180223C
:1045400007E0202000216422E067C4F88000216693
:104550000020A150002184F87810BCBD806AFDF7CE
:10456000A2BD4DF808EDFEF7B0FD5DF808EBF8D1FF
:104570004DF808EDFEF7D4FF5DF808EBF8D1016EB9
:10458000012906D14DF808EDFEF78CFD5DF808EB2A
:10459000F8D12021C0F880100021816601667047A3
:1045A00070B50168044680685D4ED4E903320D6839
:1045B0001043E26935406669304328431043086080
:1045C000486820F440501843564B4860A06999420F
:1045D0001CBF256A28438D6825F430652843886010
:1045E000514881420CD0994206D05048814210D1A6
:1045F0004F4851A5006807E04D480068800A02E076
:104600004B48006880084B4D00F0030055F82050DF
:1046100000E010254C48994210D00121B2F5004F1E
:104620001AD1082D00F27680DFE805F0053F4F74BF
:10463000457474744D00FCF7F5FE3EE00121082D31
:1046400000F26880DFE805F005661A6614666666A3
:104650001800FCF7E7FE0DE0082D5BD8DFE805F059
:1046600005284A5A2F5A5A5A4800FCF7DBFE28E020
:10467000FCF7F2FE10B94AE04FF40040626802EB2A
:104680004201884245D3B0EB023F42D8010E0002FE
:1046900010EB520041F100010023FBF793FD2B4A80
:1046A000A0F54071914230D333E0FCF7C5FE04E041
:1046B000FCF7C2FE05E0FCF7CFFE30B927E0FCF7BF
:1046C000CBFEB8B923E04FF4004061684A0802EB22
:1046D00040004FF6EF72B0FBF1F0A0F110019142F3
:1046E00017D84FF6F0710140C0F3420008440CE0C7
:1046F0004FF4004061684FF6EF7200EB5100B0FBE1
:10470000F1F0A0F11001914203D82168C8600021A6
:1047100000E001210020C4E91A00084670BD00BF76
:10472000F369FFEF00800040004400400038014082
:1047300088100240487F00080100000004000000CB
:1047400002000000080000000024F40000FD0F003B
:104750002DE9F047DDF8209082460068984616461D
:104760000F46032509F10104C1693940C91BB1FA9B
:1047700081F149098E421ED1002CF5D0FBF7F6FFDE
:10478000A0EB0800484517D8B9F1000F14D0DAF8AB
:10479000000001684907E7D5402FE5D0802FE3D01E
:1047A000C16909070BD4C1690905DDD5032520249A
:1047B0004FF4006106E000252846BDE8F08701259A
:1047C0000821082401625046FFF7CBFE00208AF83A
:1047D0007800CAF88440EFE7A048FDF765BC00BF49
:1047E000FEE700002DE9F04387B01D460E468146E6
:1047F00001F06EFADFF80C814846414601F017FCE3
:1048000001AF41A218213346384603F0E7F8484685
:1048100000210A223B4601F0CFFB4846414601F009
:1048200006FCDDF83880462D01D93AA008E0282D95
:1048300001D93BA004E03EA03BA1142D88BF08464F
:10484000009001AE3EA218212B46304603F0C6F878
:10485000484600211622334601F0AEFB48460021AF
:104860001922802301F0DFFAD8F8005001212846F0
:10487000802909D058F821208242C8BF1046AA4298
:10488000B8BF15460131F3E7A84225DD461B0024D9
:104890003F277F2C30D008EB84004068FEF7F3FA06
:1048A000C0F13F013F2928BF39462428C8BF1B213A
:1048B00058F824000091A1B2FEF7E5FAC0F13F02DA
:1048C0003F2A28BF3A462428C8BF1B224846013445
:1048D000A3B201F00AFBDCE7484600212D22802329
:1048E00001F0A1FA0749484601F0A1FB17A3484689
:1048F0000A21352201F060FB484601F08FFB07B02A
:10490000BDE8F0836882000848523A2025642042BE
:10491000504D0000484947482053545245535300D6
:104920004D454449554D000052454C4158454400C1
:10493000564552592052454C41584544000000000C
:104940005354523A256420257300000043414C43E0
:10495000554C4154494E472E2E2E00001CB504469E
:1049600001F0B6F91249FEF70CFD12484078032811
:1049700009D0022803D001280BD113A304E010A30F
:1049800020462A2102E00CA3204622210C2201F01D
:1049900013FB0F484021282203780F200090204667
:1049A00001F09EF92046BDE81C4001F037BB00BF76
:1049B000688200083C000020455848414C450000F2
:1049C000484F4C4400000000494E48414C4500000F
:1049D0000C0000202DE9F04399B06D460B460446CB
:1049E0001BA26021284602F0F9FFDFF8708082B236
:1049F000294664234046FDF727FD002601270FF2D4
:104A00006009802F15D078000322052381B220464B
:104A1000FBF742FF58B9284660214A463B4602F060
:104A2000DDFF82B240462946FEF79FFA0136013784
:104A3000E7E7300609D10D48694607226423019053
:104A40000B4800900548FDF7FFFC19B0BDE8F08366
:104A50005363616E2025733A0D0A0000040700209D
:104A6000202B3078253032580D0A0000450D0A0001
:104A7000204E4F4E40B101460122904205D91044CC
:104A80004008B1FBF0F2F8E700207047A6B0FCF751
:104A9000F1F9FEF7A7FE0EAD14212846FBF7DFFB68
:104AA000C44EC54F082100224FF008084FF00009FE
:104AB000306840F004003060306800F00400079077
:104AC0000798306840F001003060306800F0010065
:104AD00007900798306840F002003060306800F0BE
:104AE0000200079007983846FBF739FE4FF4041090
:104AF000012429460F904FF4807010940E904FF0CF
:104B00009040FBF755FD38462946CDE90E84CDE9A6
:104B10001099B846FBF74CFD172005210022FCF741
:104B20002FFA1720FCF71CFA56F8040C0521002276
:104B300040F0010046F8040C56F8040C00F00100A7
:104B40000E900E981120FCF71BFA1120FCF708FAC2
:104B50009A4EDFF884559A4806F58841C5E90294D3
:104B6000C5E9001005F110001421FBF778FB284679
:104B7000FBF73EFE18B1EFF3108072B6FEE7DFF8E8
:104B8000580500214746FBF7F7FD18B1EFF31080F9
:104B900072B6FEE7DFF8400500210024FBF70AFEAD
:104BA00018B1EFF3108072B6FEE7DFF830050C2184
:104BB0004FF4E13206F55053C0E90844FEF725FBF7
:104BC000FDF7AAFB18B1EFF3108072B6FEE7DFF82D
:104BD0001055012000217B4A06F59843C5E90210D3
:104BE00005F110001421C5E90032FBF738FB284617
:104BF000FBF7FEFD18B1EFF3108072B6FEE7DFF8A9
:104C0000E0040021FBF7B8FD18B1EFF3108072B695
:104C1000FEE7DFF8CC0400210024FBF7CBFD18B140
:104C2000EFF3108072B6FEE7DFF8B8044FF0FF3103
:104C30004F224FF080430A94CDE908440594CDE912
:104C40001344CDE911448461C0E90032C0E9024156
:104C50000461FCF757FF18B1EFF3108072B6FEE75E
:104C60004FF480500790DFF87C0407A9FCF7E4FFBD
:104C700018B1EFF3108072B6FEE7DFF86804FDF7B5
:104C800061F918B1EFF3108072B6FEE70024DFF887
:104C900054040694049404A9FCF706FF18B1EFF33A
:104CA000108072B6FEE760201294CDE90F44002216
:104CB0000E90DFF830040EA9FDF7EAF818B1EFF313
:104CC000108072B6FEE7DFF81C04FDF7AFF8DFF8DE
:104CD000180400240C214FF4165206F59433FEF705
:104CE00094FAC0E90844FDF717FB18B1EFF3108000
:104CF00072B6FEE7DFF8F4034FF6FF7106F58E3269
:104D00001194CDE90F44C0E90024FEF707FA18B169
:104D1000EFF3108072B6FEE74FF480500E90DFF88C
:104D2000CC030EA9FCF788FF18B1EFF3108072B620
:104D3000FEE70024DFF8B4030994CDE9074407AD8A
:104D40002946FCF7B1FE18B1EFF3108072B6FEE70A
:104D5000DFF89C034FF6FF710F948461C0E9006493
:104D6000C0E90241FCF7CEFE18B1EFF3108072B635
:104D7000FEE70024DFF8780310940E940EA9FCF7E8
:104D800093FE18B1EFF3108072B6FEE7DFF864030C
:104D90004FF6FF714F2206F59A33CDE91644CDE95F
:104DA0001444C0E90032FEF7B9F968B1EFF310809E
:104DB00072B6FEE74C1002400004004800100040AC
:104DC000201A20C0E49CD110CA48FDF7BBF818B1E6
:104DD000EFF3108072B6FEE7602018210790281DBF
:104DE000FBF73DFAC348294600220024FDF750F89E
:104DF00018B1EFF3108072B6FEE70EAE1421304604
:104E0000FBF72DFA4FF40050314618941390B9482F
:104E1000FCF708FE18B1EFF3108072B6FEE7B54854
:104E2000FDF704F80A20FBF7A5FBB348AB4E64235B
:104E30000E90B1A0D0E90112CDE90F128189807BDB
:104E40000E228DF84600ADF844100EA93046FDF74D
:104E5000FBFAAD48ADA2602103680EAC204602F01B
:104E6000BDFD82B230462146FEF77FF8AAA000F0D1
:104E700017FF062444B138460821FBF768FC64207C
:104E8000FBF778FB013CF5E7A44CA54E2046B04764
:104E900093482146FFF79EFDA24C2046B0478E481E
:104EA0002146FFF797FDA0A0B0478E4C2046FCF7A7
:104EB00075FE60B19E480B2264230E909CA0D0E941
:104EC0000101CDE90F0185480EA9FDF7BDFA206863
:104ED0000A27466A0A20FBF74DFB2068974ADFF84D
:104EE00060826021406A831BB3FBF7F600960EAF29
:104EF0003846C047DFF8E4A1DFF8489282B239466D
:104F000064235046C8479048914A602106FB00F34D
:104F10008E48B3FBF0F0461E00960EAF3846C047F1
:104F200082B2504639466423C84720684FF0010BCF
:104F30008662C0F814B0466A0120FBF71BFB2068AC
:104F400084A26021406A0EAC831B2046C04782B217
:104F5000504621466423C8478BA000F0A1FE5E485E
:104F6000FDF73DFE002871D08A480A2264230E9086
:104F700088A041680F910189807A8DF842005748D6
:104F8000ADF840100EA9FDF75FFA85480021C17108
:104F90009048634EB047904C9049914A914B2046BF
:104FA00001F086F8204601F0EDFB2046002101F0DB
:104FB000F5FB204600F08CFE8B49FEF7E2F9784DB8
:104FC0008A498B4BE879002818BF0B4620460A21F6
:104FD000232200F0F1FF204601F020F84FF47A7010
:104FE000FBF7C8FA8348B04783489421FBF737F9A9
:104FF0008248B0473F4C2046FCF7D0FD20460021B8
:10500000FDF702F87E486423D0E900128068109012
:105010003248CDE90E120EA90B22FDF715FA00F069
:1050200011F97848784A794C0021A047686378489C
:10503000784A0021A0477848784A0021A04778485C
:10504000784A0021A04700F00DF9FEE75548234CAF
:10505000082264230E9053A04168007A8DF8400026
:105060000F910EAE20463146FDF7EEF94C4807226F
:10507000642380F807B04E480F904E480E900EA95A
:105080002046FDF7E1F9144F4FF0000A4FF01408E5
:105090000FF22419BAF10A0F3FF47AAF19F80A4057
:1050A0003846AE210123CDE9005BCDF808802246C9
:1050B000FBF7FCFC68B99DF81C00602141A2234667
:1050C0000090304602F08AFC82B204483146FDF777
:1050D0004CFF0AF1010ADDE7C403002004070020A9
:1050E00018040020980500207C0600200005002000
:1050F000E40500204C0500200D0A2A2A20424F4FCB
:1051000054202A2A0D0A000008000020434C4B3A84
:10511000202575487A0D0A004C454400AB810008F3
:10512000A15C0008A681000854494D32000000002F
:1051300054494D32204641494C0D0A006480000814
:10514000DD790008492400088038010040420F0042
:10515000788100085B54494D325D20616674657248
:10516000206669783A20316D73203D20256C7520CA
:105170007469636B732028657870656374207E3171
:10518000303030290D0A00004D4158333031303273
:10519000000000004D4158204641494C0D0A0000D6
:1051A0003C0000204D4158204F4B0D0A00000000EC
:1051B0003A0D0A00524547530001040506090A0C3E
:1051C0000DFF000020253032583A253032580D0AA4
:1051D00000000000B0810008DC0C00205C820008A8
:1051E00045680008516B000868820008B581000816
:1051F000BC810008D98100086C040020C58100082A
:1052000050820008BF370008587F00089D520008F0
:10521000F93C0008A07F000811420008C47F000884
:10522000B93B00087C7F0008EFF3058109B1FDF769
:10523000EBBE20B180B501F0FBFD002080BD002059
:1052400070470000EFF3058008B1FDF7DDBE11489F
:10525000016811B14FF0FF3070470121016000205B
:10526000704700BF10B5EFF3058010B16FF0050473
:105270000DE008480168012907D1074900240C7096
:105280000221016001F034FE01E04FF0FF342046BE
:1052900010BD00BF780100201FED00E02DE9FF41A7
:1052A00000240B460394EFF3058190B389BB1AB336
:1052B0009669002E08BF1826382E2AD81179C907FA
:1052C00027D15569D2E902E811684FEA950C002D03
:1052D000674608BF8027BEF1000F1ED0B8F15C0FF3
:1052E00017D31269AAB1A5B1CDE900626246CDF823
:1052F00008E002F0A0F90DE018268027002103AA9B
:10530000CDE90062BAB202F067F90399012808BF3B
:105310000C46204604B0BDE8F081B8F1000FF8D18A
:105320001269002AF5D1EAE72F4801210170704780
:105330002DE9F0419CB02C4E8046F068441C30783A
:10534000F46001280BD1012000271421A6F80100E8
:1053500006F11000B760FAF782FF377006E0707848
:10536000012801D1706802E0012070704046B168E8
:1053700040F2E332A8EB00004FF0050C06F11007F5
:1053800051434FF47A7291FBF2F10844B178C6E9C7
:105390000180B1FBFCF303EB8303CB1A0131B17045
:1053A000322147F82300B4FBF1F303FB1141D6E9A6
:1053B0000437183664CE3B4401291A442A44324447
:1053C00092FBFCF60CD1CDE90080029604AD07A259
:1053D00060212346FDF79FFE82B20E48FDF7C1FD16
:1053E00030461CB0BDE8F081180000205B46494CF7
:1053F0005445525D206E3D256C7520783D256C64CA
:105400002068703D256C64206F75743D256C640DBB
:105410000A00000004070020F8B59E4C05460E4621
:10542000A7692068043001F0C5FB681C08D13EB1B3
:1054300054F8500B011D2046BDE8F84001F007BCB0
:105440002068ED19456006D3206A21680431BDE863
:10545000F84001F0E5BBE0692168043101F0E0FBB0
:10546000E06A854238BFE562F8BD00BF2DE9F04132
:10547000FDF731FFED4FF8680130F860386840B152
:10548000386948BBE06A3968C96A814298BF3C60A4
:1054900022E03C60F86801281ED17F4E0025B5F55A
:1054A0008C6F04D0701901F0ADFB1435F7E7DFF80D
:1054B0006C801B4D4046A84708F114063046A847AB
:1054C00007F16400A84707F13C00A84707F1500026
:1054D000A847C7F81C803E627868796A013060642A
:1054E0007860E06A88426C4988BF7862FDF74AFEBE
:1054F000211D01F0ACFB01F0DDFB386958B1E06A19
:105500003968C96A814206D26448FDF763FFBFF378
:105510004F8FBFF36F8FBDE8F08100BF50010020B7
:10552000056C00087CB501F0A9FB104E3068C0B9CD
:1055300006F11404204601F065FB06F12805284613
:1055400001F060FB00200A4A0A4BC6E9024510211F
:1055500000900A2001F0C8FD306010B106A101F0F2
:1055600037FCBDE87C4001F0A5BB00BFF400002083
:105570008C0700202C080020546D725100000000A0
:10558000026C72B110B5D0E902431344C360A34268
:10559000BDE8104024BF0368C36008461946FAF707
:1055A00045BE704770B51546866B026C0446CAB19D
:1055B00005B3E068FAF73AFEE268206C2168121A37
:1055C0008A42E26003D2A16840420844E060002EB3
:1055D000304618BF0120A91EB1FA81F149090840DF
:1055E000361A13E02068002580B9A06802F0D2F8CE
:1055F000A5600CE06068FAF719FED4E90101226C9D
:1056000010448842606001D3206860600020711CF3
:10561000A16370BD10B5044690F85900022808BF78
:1056200010BD012803D038B9206B01F059FB20468A
:10563000BDE8104001F054BB4FF0500080F31188DA
:10564000BFF36F8FBFF34F8FFEE70000774D124E11
:10565000124F4FF08058A86890B101F00FFBA86C72
:10566000C468201D01F0A6FAE8680138E860A8685F
:105670000138A86001F01EFB2046FFF7CBFFEAE7E8
:1056800030680228E7D3C7F80080BFF34F8FBFF31D
:105690006F8FE0E77C0000207C08002004ED00E034
:1056A000B0B5049D00291C46C5E90F0108BF2A4674
:1056B000284601212A6001F05BFD85F84C40B0BD11
:1056C0002DE9F0470A9C82460F4616469100A52216
:1056D0009846206BFAF7BCFD206BDDE908590021E4
:1056E00000EB8600043820F0070604F1340057B1BF
:1056F000102904D07A5C42540131002AF8D10020EC
:1057000084F8430000E001700027372D28BF3725BB
:10571000C4E91357E562201D01F07FFA04F1180077
:1057200001F07BFAC5F13800676551464246A06139
:10573000304684F858706462246100F07FFA20607B
:10574000B9F1000F18BFC9F80040BDE8F0870000AC
:1057500070B5104B03F11802114612688242FBD358
:105760004D6844684E19864202D12C4408464C606C
:105770000519954201D0134606E05B689A4203D0B2
:10578000D2E90032224442600360814218BF0860BF
:1057900070BD00BF3001002010B50C46014600610D
:1057A00041F8044F944206D9C84808309A4208D2BA
:1057B0009C4206D30AE08069D21A824206D2C348CC
:1057C0000C30006801F02CFA002010BD012010BD43
:1057D00010B5FDF7D4FCA06BB0FA80F0440901F0DD
:1057E00069FA204610BD000008480068006880F390
:1057F00008884FF0000080F3148862B661B6BFF3EA
:105800004F8FBFF36F8F00DF00BF000008ED00E097
:105810000648C169096821B1C169C968C968496890
:1058200001E04FF0FF31C162704700BF7C000020F3
:105830002DE9FC47804601F043FF214D81464FF0A2
:10584000000A2869814533D2A868016859B3C06845
:10585000C6680768341D204601F0ACF9316A30464D
:10586000884796F828004007EED5B0693844B8421A
:1058700006D97060A8682146366101F0D1F9E3E7E6
:10588000304600213A460023CDF800A002F07AF815
:105890000028D9D14FF0500080F31188BFF36F8FEB
:1058A000BFF34F8FFEE7E9684FF0010AC5E9021028
:1058B0004846C5F81090C8F800A000F003B800BF33
:1058C000F40000200CBCBDE8F087000081B000208F
:1058D0000090094800684FF0500181F31188BFF330
:1058E0006F8FBFF34F8F013000D0FEE70098002884
:1058F000FCD001B0704700BF1000002086B0734F8D
:1059000002AC4FF080584FF0000B01ADB86806684C
:105910001EB1C068D0F8009001E04FF0000901F01E
:1059200027FB2046FFF784FF8246029810B101F062
:1059300095FFA6E01EB1D14518D9002204E0F86811
:105940000068B0FA80F042093868A9EB0A0101F05A
:105950004FFA01F083FF002840F093805C48C0F8C4
:105960000080BFF34F8FBFF36F8F8AE001F076FFA7
:10597000B868C068D0F80C8008F1040001F01AF98A
:1059800098F82800410704D400F0FA0088F82800AD
:1059900014E0D8F8180052464B4600EB0901404687
:1059A000FFF7FAFE50B1404600214A460023CDF8E9
:1059B00000B001F0E7FF002800F07E80D8F820104A
:1059C000404688474FF080585BE00298B0F1FF3FB7
:1059D00006DCDDE90320059990470298002850D4A1
:1059E000049E706910B1301D01F0E4F82846FFF7FD
:1059F0001FFF02460298092843D8DFE800F005059A
:105A00000534253B0505342596F82800039B40F016
:105A1000010086F82800B069C1183046FFF7BCFEC7
:105A200078B3316A3046884796F82800400728D571
:105A3000B06903990023CDF800B042183046002128
:105A400001F0A0FFE8B92EE0039896F8281041F085
:105A50000101B06186F82810E0B181183046134684
:105A6000FFF79AFE0DE096F8280000F0FE0086F899
:105A7000280006E096F828008107F6D4304601F0A9
:105A80002FF938682146002201F0D2FC00287FF46B
:105A90009CAF3BE74FF0500080F31188BFF36F8F4E
:105AA000BFF34F8FFEE74FF0500080F31188BFF334
:105AB0006F8FBFF34F8FFEE74FF0500080F31188D8
:105AC000BFF36F8FBFF34F8FFEE700BFF4000020DE
:105AD00004ED00E070B5FDF752FB94F8456004F169
