:020000040800F2
:100000005811002075020008B13B0008693700084C
:10001000AD3B0008FD090008D542000800000000C3
:10002000000000000000000000000000213D00086A
:100030000D0A000800000000B53B0008253D00083F
:100040008F0200088F0200088F0200088F0200084C
:100050008F0200088F0200088F0200088F0200083C
:100060008F0200088F0200088F0200088F0200082C
:100070008F0200088F0200088F0200088F0200081C
:100080008F020008010A00088F0200088F02000892
:100090008F0200088F0200088F020008110A000872
:1000A0008F0200088F0200088F0200088F020008EC
:1000B0008F02000800000000000000008F0200080E
:1000C0008F02000800000000000000008F020008FE
:1000D000000000008F020008C94200080000000074
:1000E0008F0200088F0200080000000000000000DE
:1000F0000000000000000000000000000000000000
:100100000000000000000000000000008F02000856
:1001100000000000000000008F0200088F020008AD
:100120008F0200088F0200088F0200088F0200086B
:100130008F02000800000000000000000000000026
:100140008F0200088F0200088F0200088F0200084B
:100150008F0200088F0200088F0200088F0200083B
:100160008F0200088F0200088F02000800000000C4
:100170008F0200088F02000800000000000000004D
:100180008F0200088F0200088F02000800F002F8BA
:1001900000F060F814A696E8000CB244B344DA45C7
:1001A00001D100F057F8BAE80F000FA696E830002A
:1001B000A5EB040504EB0607AAEB0704A7F101076A
:1001C0004FEA15154FEA3414A4F10104AC4201D3EF
:1001D00000F040F813F0010F18BFFB1A43F00103C1
:1001E00000F001F8DBE718478C760000AC760000E1
:1001F000103A24BF78C878C1FAD8520724BF30C853
:1002000030C144BF04680C607047000070470000B4
:100210000023002400250026103A28BF78C1FBD80F
:10022000520728BF30C148BF0B607047642900F0F7
:100230002981752900F02681782900F05F817329D2
:1002400000F06C83002070471FB506F05CFC1FBDFA
:1002500010B510BD00F098FB1146FFF7F5FF04F054
:10026000AFF900F0B6FB03B4FFF7F2FF03BC00F0F8
:10027000BFFB00000948804709480047FEE7FEE74A
:10028000FEE7FEE7FEE7FEE7FEE7FEE7FEE7FEE746
:1002900004480549054A064B70470000C93D00085F
:1002A0008D010008580B002058110020580D002027
:1002B000580D002053EA020C00F069802DE9F04B44
:1002C0004FF00006002B1FBFB3FA83F503FA05F4C5
:1002D00024FA05F65E4012BF1643B2FA82F502FA1E
:1002E00005F4C5F120051EBF22FA05FC44EA0C0402
:1002F000203556EA044C4FEA144418BF641C4FF0F2
:1003000000084FF00009904271EB030C39D300292B
:1003100019BFB1FA81F701FA07F6B0FA80F700FACF
:1003200007F6C7F120071EBF20FA07FC46EA0C06B5
:100330002037B6FBF4FCA7EB0507103F07F01F0BB7
:10034000CBF120062CFA06F60CFA0BFB44BFB346A1
:100350000026202FA4BF5E464FF0000B5BEA060C80
:1003600008BF4FF0010B19EB0B0948EB0608ABFB7C
:10037000027C06FB02CC0BFB03CCC01B71EB0C0117
:10038000C1E70B46024641464846BDE8F08B13B52F
:10039000084318BF4FF0FF300146AFF30080BDE8BF
:1003A0001C4070470FB41CB50C0007AA009007D082
:1003B0004142A14202D32044401E01E04FF0FF30F1
:1003C000074B7B4469460190069800F07AFA0021B9
:1003D000002C01D0009A11701CBC5DF814FB0000C9
:1003E0002305000070B5044685690068C10601D583
:1003F000302600E02026C00707D070BDD4E90121D7
:1004000030469047206A401C20626D1EF6D570BDB4
:1004100070B5044685690078C00707D170BDD4E97E
:10042000012120209047206A401C20626D1EF6D5D5
:1004300070BD70B50C460546012A05D028788006A7
:1004400000D5EA69002302E0012305E05B1C93422A
:1004500002D2E05C0028F9D1A869E618C01AA861A8
:10046000286A184428622846FFF7BCFF04E0D5E953
:10047000012114F8010B9047B442F8D32846FFF746
:10048000C7FF70BD2DE9F0410646002410687529AC
:10049000314616A510D0AFF30080002802DA4042A2
:1004A00013A507E031688A0701D512A502E04907C4
:1004B00004D511A5012401E0AFF3008000210A2238
:1004C00006F1240709E0B0FBF2FCB0FBF2F302FBFB
:1004D0001C00303078541846491C0028F3D12346BC
:1004E0002A463046BDE8F04100F08CB9000000001B
:1004F0002D0000002B0000002000000070B5044615
:100500000D4621461068AFF300802188090502D509
:100510000F4A7A4402E00E4A7A440E32002104F176
:10052000240305E000F00F060009965D5E54491CA7
:100530000028F7D120780023000704D5702D02D0C1
:1005400009B1022311322046BDE8704000F05AB9CB
:100550000A6600002DE9F05F894604464FF0000A64
:10056000DFF874B1FB44C0F820A02046E16888475A
:10057000002874D0252806D0D4E901219047206AAC
:10058000401C2062F1E700265F462046E16888476C
:100590002028054607DB312D05D2781910F8200CEC
:1005A00008B10643F1E7B00701D526F00406C4F808
:1005B0001CA00027C4F818A02A2D09D0284606F050
:1005C0009BFA38B304EB8708303DC8F8185019E09F
:1005D00059F8041B204604EB87029161E1688847C3
:1005E000012F054618D1E069002820DA26F0200600
:1005F0001DE0D8F8180000EB800005EB4000303813
:10060000C8F818002046E1688847054606F074FAE5
:100610000028EED1012F0AD02E2D08D12046E16806
:1006200088477F1C0546022F46F02006C4DBA069E0
:10063000002803DA404246F00106A061F00701D02D
:1006400026F010066C2D0BD0682D09D04C2D39D01A
:100650006A2D35D0742D35D07A2D33D016E038E0A0
:10066000E1682F4620468847B842054609D16C2FDD
:1006700026D04FF48060E16806432046884705464F
:1006800004E06C2F1AD04FF4807006430DB3A5F12F
:100690004100192802D8203546F400664A4629460A
:1006A000204626604E46FFF7C1FD80B101280BD0E1
:1006B000F61D26F0070000F1080956E74020E4E7A0
:1006C0008020D8E70020D6E706F104094DE7284648
:1006D00052E7206A00F002B8E065000030BCBDE8D7
:1006E000C09F032A40F2308010F0030C00F0158008
:1006F00011F8013BBCF1020F624498BF11F801CB25
:1007000000F8013B38BF11F8013BA2F1040298BF89
:1007100000F801CB38BF00F8013B11F0030300F0F3
:100720000181083AC0F0088051F8043B083A51F8BA
:1007300004CBA0E80810F5E7121D5CBF51F8043B9C
:1007400040F8043BAFF30080D20724BF11F8013B0F
:1007500011F801CB48BF11F8012B24BF00F8013B71
:1007600000F801CB48BF00F8012B70474FF00002A2
:100770000429C0F0128010F0030C00F01B80CCF1B3
:10078000040CBCF1020F18BF00F8012BA8BF20F821
:10079000022BA1EB0C0100F00DB85FEAC17C24BF75
:1007A00000F8012B00F8012B48BF00F8012B70471F
:1007B0004FF0000200B5134694469646203922BFFA
:1007C000A0E80C50A0E80C50B1F12001BFF4F7AF45
:1007D000090728BFA0E80C5048BF0CC05DF804EB27
:1007E000890028BF40F8042B08BF704748BF20F895
:1007F000022B11F0804F18BF00F8012B7047704793
:10080000704770472DE9F0470D46994692460446D9
:1008100000F124080168880604D5E06921F0100180
:10082000216000E00120A84201DD471B00E0002715
:10083000A1697A1902EB0900081AA0612078C006A4
:1008400002D42046FFF7CEFD002608E0D4E90121BE
:100850001AF806009047206A401C761C20624E451C
:10086000F4DB2078C0060AD52046FFF7BBFD06E082
:10087000D4E9012130209047206A401C2062381EB4
:10088000A7F10107F4DC07E0D4E9012118F805001D
:100890009047206A401C2062281EA5F10105F3DC68
:1008A0002046FFF7B5FD2078000602D50220BDE8FE
:1008B000F0870120FBE7000001694A1C026108780B
:1008C000704700B58FB0CDE9013100210591054990
:1008D0007944CDE9031011466846FFF73BFE0FB09F
:1008E00000BD0000E5FFFFFFD1E900239A4202D2DC
:1008F000531C0B601070704710B5436913B1AFF310
:10090000008001E0FFF795FD012010BD127800F195
:1009100024010A7000224A700122EDE711684FF0AD
:10092000FF32E9E710B5203AC0F00B80B1E818506B
:10093000A0E81850B1E81850A0E81850203ABFF4C9
:10094000F5AF5FEA027C24BFB1E81850A0E8185068
:1009500044BF18C918C0BDE810405FEA827C24BFBC
:1009600051F8043B40F8043B08BF7047D20728BF4A
:1009700031F8023B48BF11F8012B28BF20F8023B99
:1009800048BF00F8012B7047754600F02BF8AE46C3
:1009900005006946534620F00700854618B020B58B
:1009A000FFF776FCBDE820404FF000064FF000074F
:1009B0004FF000084FF0000BAC46ACE8C009ACE8C3
:1009C000C009ACE8C009ACE8C00921F007018D46B8
:1009D000704710B50446AFF300802046BDE81040D4
:1009E000FFF741BC0048704710000020704700002E
:1009F00001491820ABBEFEE726000200FEE700001A
:100A000040F28C00C2F2000000F05CB870470000B9
:100A10004FF4807000F02EB9EFF3108072B600BF73
:100A2000FEE70000002804BF0120704790F8251061
:100A3000022915D10168D0E910C30A6822F0010229
:100A40000A600A6822F00E020A6003F01C0101220B
:100A500002FA01F1CCF80410002180F8252002E010
:100A60000421C1630121002280F824200846704738
:100A700090F82510022921D180B50268D0F838C03D
:100A8000D0E910E1136801F01C0123F001031360A9
:100A90001368BCF1000F23F00E0313604FF0010246
:100AA00002FA01F1CEF804104FF0000180F8252081
:100AB00080F8241018BFE047002080BD0421C163E6
:100AC0000120704770B5D0E910C20168DCF8004021
:100AD00002F01C0304220E689A40224218BF16F04E
:100AE00004051ED1022202FA03FE1EEA040F18BFFB
:100AF00016F0020221D124FA03F212071CD516F0D7
:100B0000080208BF70BD0A6822F00E020A600121C7
:100B100001FA03F2CCF80420C16380F82510416B80
:100B200021E00B689B0603D40B6823F004030B60E1
:100B3000CCF80420016BD9B970BD0A68920606D4BE
:100B40000A6822F00A020A60012280F825200422A5
:100B5000C4F2020202F17C03994288BF02F580626E
:100B6000C2F800E0C16A0022002980F82420E3D006
:100B7000BDE8704008470000002804BF012070470E
:100B80002DE9F04340F2000CC4F2020C02684FF66B
:100B9000F8310CF58163CBF6FD719A4238BF01F54F
:100BA00080614CF6CD431144CCF6CC43A1FB03133A
:100BB0006FF003060CF5806506EA9303D0E9029E08
:100BC000D0F810803CBF0025C4F20205C0E91053E4
:100BD000022380F82530136847F6F075AB431360A5
:100BE00000F11407E8CF4EEA0801194329431468BD
:100BF00031433943214341EA0901B9F5804F11607E
:100C000017D0D0E910124FF49566436802F01C0229
:100C10000F27614508BFA8265CF806109740B94326
:100C20004CF806105CF8061003FA02F211434CF877
:100C3000061000210122C16380F8252080F82410CD
:100C40000020BDE8F0830000B0B5044600F008F9CC
:100C5000054640F20500C2F200000078611C18BF92
:100C6000044400BF00F0FCF8401BA042FAD3B0BD22
:100C70007047000040F21441C4F201010A680242C8
:100C800014BF08607047FFF7F3BF00002DE9F04F75
:100C900083B00C68002C00F0CF8000F1200240F2FD
:100CA000004C009240F60002C4F2010CC4F60002AF
:100CB000072300254FF0010B00274FF0000A904258
:100CC00008BF022301934DE040F20042C4F6000247
:100CD000DDF80480904208BF4FF0010805F00C06D3
:100CE0000F22B2402EEA020208FA06F64FEA9A03F1
:100CF000324344F82320DCF808204B6842EA090616
:100D000040F20C4EDC0258BF22EA0906CCF808601B
:100D1000C4F2010EDEF800209C0242EA090658BF28
:100D200022EA0906CEF80060DCF804209C0342EABF
:100D3000090658BF22EA0906CCF80460DCF8002056
:100D4000DB0342EA090658BF22EA0906CCF8006034
:100D50000C680AF1010A34FA0AF207F1020705F1F8
:100D6000040569D00BFA0AF614EA0609F0D0D1F8A6
:100D7000048008F0030EAEF10102012A4FF00302D5
:100D800002FA07F411D88268D1F80CB0A2430BFA2A
:100D900007F31A4382604268C8F30013B24303FAB0
:100DA0000AF34FF0010B1A434260BEF1030F1ED04D
:100DB000C2688B68A243BB401A43BEF1020FC260F7
:100DC00015D16FF0030202EA5A0B009A05F01C06D7
:100DD0000F2352F80BE003FA06F80B692EEA080E0F
:100DE000B34043EA0E0342F80B304FF0010B0268A8
:100DF0004B68A24303F00306BE40324313F4403F66
:100E00000260A5D041F26003C4F202031A68ACF597
:100E10007E7442F001021A601A68B0F1904F02F03D
:100E200001020292029A2AF0030254F802E07FF4CF
:100E30004BAF4FF0000851E703B000F000B830BCF2
:100E4000BDE8C08F426902EA0103914341EA0341D0
:100E5000816170471823002A08BF2823C1507047BA
:100E600040F64C10C2F200000068704790F8412034
:100E7000202A03D190F84020012A01D10220704796
:100E8000242280F841200268136823F001031360D4
:100E9000136823F4805313601368194311601168B9
:100EA00041F001011160202180F84110002180F8FB
:100EB000401000207047000090F84120202A03D104
:100EC00090F84020012A01D102207047242280F8A6
:100ED00041200268136823F001031360136823F4B0
:100EE000706343EA01211160116841F00101116052
:100EF000202180F84110002180F840100020704728
:100F0000002804BF0120704710B590F8411031B996
:100F1000002180F84010044600F056FD20462421B0
:100F200080F8411090E80610C4680B6822F07062E7
:100F300023F001030B600A618A68012C22F400424D
:100F40008A604FF4044208BF4FF4004242EA0C02A8
:100F50008A604A68022C22F4006208BF02F500622F
:100F60004A604A6800F1100442F0007242F4004204
:100F70004A60CA6822F40042CA601CCC1A4342EAA2
:100F80000422CA60D0E907231A430A600A6842F0C3
:100F900001020A6000212022416480F8412001639F
:100FA00080F84210002010BD2DE9F04F81B00446BA
:100FB0000020009094F84100202807D12068806923
:100FC000000403D494F84000012803D1022001B0AA
:100FD00000F0B4B8012084F84000242084F84100D7
:100FE00048F208001D464FF0000860F39F215F1C87
:100FF0004FF02009C4F84480E06893462268012835
:1010000008468A4618BF40F400605060FFF728FF8A
:10101000216806468A69896902F0200201F0100100
:10102000891810D020688169C9061CD51021C161BA
:1010300031E000BF20688169806901F0200100F083
:1010400010004018EED1002FF4D0FFF709FF002D5B
:101050005FD0801BA842EDD95BE000BF20688069AB
:1010600080062FD52068806980065BD420462946FB
:10107000324602F07BFB78BB002FF3D0FFF7F0FE87
:10108000002DEBD0801BA842ECD9E7E720688069EF
:10109000800633D52068806980060FD42046294613
:1010A000324602F063FBF8B9002FF3D0FFF7D8FE09
:1010B000002DEBD0801BA842ECD9E7E72068C0F8F0
:1010C0001C9011E0606C40F02000606484F8419056
:1010D00084F8428084F84080606C042804D1206841
:1010E000C0F81C90C4F8448000985A460130009023
:1010F000009851465845FFF47FAF0AE0606C40F01D
:101100002000606484F8419084F8428084F8408034
:10111000EAE7202084F84100606C40F02000606421
:10112000012005E020682021C16184F841100020E1
:10113000002184F8401001B000F000B830BCBDE8D8
:10114000C08F00002DE9F04F81B0044690F84100B7
:10115000202803D194F84000012803D1022001B0D7
:1011600000F00EB9012089461E46174684F840005B
:10117000FFF776FE216805468969090416D4212007
:1011800084F84100102084F8420000206064676207
:1011900066856063608DFF2822D94FF08071FF2241
:1011A00021E000BF206880690004E8D520461921AD
:1011B0002A4602F0DBFA002840F0C980FFF750FE13
:1011C000401B1A28EED3206880690004EAD5606CC1
:1011D00040F020006064202084F841000120C7E036
:1011E000628D4FF0007149F60000CFF60040228575
:1011F000C2B117F8013B2668B3626762638D013B99
:101200006385531E23854B466FF39F23D2B243EA77
:1012100002427368114303EA0002114341F4005192
:10122000716009E02268082753684E46034067F35F
:101230009F26334319435160618D0A9F002974D062
:101240006FF39F2940F2000A09F100787E1C00F537
:10125000806BC0F2FF1A03E0206880698007B6D572
:1012600020688069800710D4204639462A4602F05B
:101270007DFA00286BD1002EF2D0FFF7F1FD002F90
:10128000EAD0401BB842EBD9E6E7616A206811F862
:10129000012B82626162618D01396185218D013985
:1012A0002185628DBAB3090406D034E020688069D4
:1012B00000067FF58CAF20688069000610D42046B8
:1012C00039462A4602F052FA002840D1002EF2D0C8
:1012D000FFF7C6FD002FE9D0401BB842EBD9E5E788
:1012E000608DB0F5807F0BD32068FF212185416898
:1012F00001EA0B0141EA090141EA0A0141600AE001
:10130000608D216820854A68C0B248EA004002EA40
:101310000B0210434860608D0028A1D105E000BF9A
:101320002068806980067FF552AF2068806980065A
:1013300011D4204639462A4602F018FA38B9FFF788
:101340008FFD002FECD0401BB842EED9E8E701201A
:1013500001B000F015B820682021C16142684EF646
:101360000003CFF600631A404260002084F8411069
:10137000002184F8421084F8401001B000F000B859
:1013800030BCBDE8C08F00002DE9F04F81B00446AD
:1013900090F84100202807D10A9E4EB10B9F3FB123
:1013A00094F84000012807D1022001B000F078B97C
:1013B0004FF4007060646FE101209B4691468846BF
:1013C00084F84000FFF74CFD21680546896909044F
:1013D00028D4222084F84100402084F842000020D4
:1013E0006064666267852168606349F6000A40466A
:1013F0004B68CFF6004A6FF39F205FFA8BF280466E
:1014000040EA024003EA0A02104400F50050486036
:1014100088690C9E80073CD4771C28E0206880698E
:101420000004D6D5204619212A4602F09FF900284B
:1014300040F03281FFF714FD401B1A28EED32068DC
:1014400080690004EAD5606C40F0200060642020D0
:1014500084F84100002084F842001BE12068806984
:10146000800740F10A8120688069800711D42046F6
:1014700031462A4602F07AF9002840F00A81002F0E
:10148000F1D0FFF7EDFC002EE8D0401BB042EAD9C6
:10149000E4E72068BBF1010F23D04FEA19218162F4
:1014A000806980071CD4771C08E020688069800769
:1014B00040F1E38020688069800711D420463146DE
:1014C0002A4602F053F9002840F0E380002FF1D0C3
:1014D000FFF7C6FC002EE8D0401BB042EAD9E4E793
:1014E00020685FFA89F181622068806940061CD417
:1014F000771C08E020688069400640F1BE802068C3
:101500008069400611D4204631462A4602F02EF961
:10151000002840F0BE80002FF1D0FFF7A1FC002E84
:10152000E8D0401BB042EAD9E4E7608D40F2000900
:10153000B0F5807FC0F20119404609D3012221682D
:10154000228551F8042F09F5105302EA0A020DE032
:10155000628D2168228551F8043FD2B203EA0A0362
:1015600043EA024242F20043C0F200231A4302431C
:1015700000F1007B771C0AF5806A0A6004E02068AD
:10158000806940077FF55FAF20688069400710D40D
:10159000204631462A4602F0E9F800287CD1002F87
:1015A000F2D0FFF75DFC002EE9D0401BB042EBD932
:1015B000E5E72068616A406A0870606A218D013041
:1015C0006062481E2085618D01396185618DB9B3E6
:1015D000000405D034E02068806900067FF533AF51
:1015E00020688069000610D4204631462A4602F061
:1015F000BDF8002850D1002FF2D0FFF731FC002EAB
:10160000E9D0401BB042EBD9E5E7608DB0F5807FB3
:101610000BD3206801212185416801EA0A0141EAD2
:10162000080141EA090141600AE0608D21682085D6
:101630004A68C0B24BEA004002EA0A02104348601E
:10164000608D0028A0D1204631462A4602F028F9B4
:1016500010BB20682021C16142684EF60003CFF61E
:1016600000631A404260002084F8411084F8420070
:1016700084F8400001B000F013B8606C40F0200026
:101680006064202084F84100002084F8420084F83F
:101690004000002084F84000012001B000F000B8B4
:1016A00030BCBDE8C08F00002DE9F04F81B004468A
:1016B00090F84100202807D10A9E4EB10B9F3FB100
:1016C00094F84000012807D1022001B000F078B959
:1016D0004FF4007060646FE101209B46924689469A
:1016E00084F84000FFF7BCFB2168054689690904BE
:1016F0002CD4212084F84100402084F842000020AE
:1017000060646662678560634846226849F60048FF
:101710006FF39F205FFA8BF1CFF60048814640EAD5
:1017200001405168A8F580631940084440F080707A
:1017300040F40050506090690C9E80073DD4771CA7
:1017400029E000BF206880690004D2D52046192115
:101750002A4602F00BF8002840F02E81FFF780FBAC
:10176000401B1A28EED3206880690004EAD5606C1B
:1017700040F020006064202084F84100002084F8BC
:10178000420017E120688069800740F106812068E7
:101790008069800711D4204631462A4601F0E6FFD1
:1017A000002840F00681002FF1D0FFF759FB002EF2
:1017B000E8D0401BB042EAD9E4E72068BBF1010F52
:1017C00023D04FEA1A218162806980071CD4771CDC
:1017D00008E020688069800740F1DF802068806928
:1017E000800711D4204631462A4601F0BFFF002869
:1017F00040F0DF80002FF1D0FFF732FB002EE8D061
:10180000401BB042EAD9E4E720685FFA8AF18162BE
:101810002068806900061CD4771C08E02068806975
:10182000000640F1BA8020688069000611D4204685
:1018300031462A4601F09AFF002840F0BA80002F76
:10184000F1D0FFF70DFB002EE8D0401BB042EAD9E3
:10185000E4E7608DB0F5807F48460AD3FF22216817
:10186000228551F8042F0023C0F2FF1302EA080278
:101870000BE0628D2168228551F8043FD2B203EA61
:10188000080343EA02424FF000731A4340F2000B90
:10189000024300F1007A771CC0F2FF1B0A6004E0EB
:1018A0002068806980077FF562AF206880698007C3
:1018B00010D4204631462A4601F058FF00287BD13B
:1018C000002FF2D0FFF7CCFA002EE9D0401BB04237
:1018D000EBD9E5E7616A206811F8012B8262616249
:1018E000618D01396185218D01392185628DBAB300
:1018F000090406D034E02068806900067FF537AF20
:1019000020688069000610D4204631462A4601F03E
:101910002DFF002850D1002FF2D0FFF7A1FA002EA2
:10192000E9D0401BB042EBD9E5E7608DB0F5807F90
:101930000BD32068FF212185416801EA080141EAB3
:10194000090141EA0B0141600AE0608D21682085B0
:101950004A68C0B24AEA004002EA080210434860FE
:10196000608D0028A1D1204631462A4601F098FF1B
:1019700010BB20682021C16142684EF60003CFF6FB
:1019800000631A404260002084F8411084F842004D
:1019900084F8400001B000F013B8606C40F0200003
:1019A0006064202084F84100002084F8420084F81C
:1019B0004000002084F84000012001B000F000B891
:1019C00030BCBDE8C08F00002DE9F0439BB0044659
:1019D000002501A854211A95CDE91855CDE91655D1
:1019E000FEF7E6FE206845F60041C4F20001884299
:1019F00053D045F20041C4F20001884240F0988083
:101A000040200190002601A80C9600F0A9F90028BA
:101A100018BFFFF701F841F24C05C4F2020528682F
:101A2000032740F001002860286816A900F0010093
:101A3000009000984FF4C06016901220CDE9170670
:101A400004201A904FF090401997FFF71FF9E868AB
:101A5000802140F40010E860E86840F28C0500F452
:101A60000010009000988020C2F20005C4F202002D
:101A7000C5E900072846C5E90266C5E90416C5E9B7
:101A800006662E62FFF778F8002818BFFEF7C4FF3D
:101A9000E563AC621BB0BDE8F0834FF48070019049
:101AA00001A80D9500F05CF9002818BFFEF7B4FFFF
:101AB00041F24C05C4F20205286816AC40F0010062
:101AC000286028684FF0120800F00100009000988C
:101AD00028684FF0000940F00200286028680326BB
:101AE00000F00200009000988020169004274FF02C
:101AF00090402146CDF85C80CDF8609019961A97F9
:101B0000FFF7C4F8102016A981E8010340F2004055
:101B1000C4F600002146CDE91967FFF7B7F8E86879
:101B200040F40000E860E86800F4000000900098CD
:101B30001BB0BDE8F083000040F2050040F64C11F8
:101B4000C2F20000C2F2000100780A681044086086
:101B50007047000080B5032000F092F8002000F0EC
:101B600009F800281CBF012080BD00F031F80020DA
:101B700080BD000040F20501C2F200010978002991
:101B800004BF0120704710B5044640F20000C2F2C5
:101B900000004FF47A720068B2FBF1F1B0FBF1F093
:101BA00000F09AFF01460F2C4FF001000ED80029DB
:101BB00018BF10BD4FF0FF302146002200F034F86E
:101BC00040F208010020C2F200010C6010BD0000CC
:101BD00082B041F25800C4F20200816841F0010174
:101BE0008160816801F0010101910199016841F072
:101BF00080510160006800F080500090009802B0B1
:101C000070470000002848BF704700F01F01012204
:101C100002FA01F11C2202EAD0004EF20012CEF2CA
:101C2000000281507047000010B54EF60C5CCEF2F9
:101C3000000CDCF80030C3F3022E8EF00704042CF5
:101C400028BF0424BEF103034FF0FF3E0EFA04F454
:101C500038BF0023A14399400EFA03F39A4311437E
:101C600000F1604200F00F03090102F56442043BF9
:101C70006344002848BF03F10C02117010BD00003E
:101C80004EF60C51CEF200010A684FF6FF031A40DF
:101C900060F30A2242F0806040F0FD7008607047F7
:101CA00047F2000CC4F2000CDCF80020B0F5007F15
:101CB00002F4C0602BD1B0F5007F26D0DCF8000024
:101CC000012262F34A20CCF8000040F20000C2F288
:101CD00000000068322358434DF68363C4F21B337F
:101CE000A0FB030302EB9340002200BFDCF81410BA
:101CF000013842F10003490501D5002BF6D1DCF88B
:101D00001400400544BF0320704700207047B0F521
:101D1000806FFAD0DCF80000022161F34A20CCF891
:101D2000000000207047000047F20000C4F20000ED
:101D3000006800F4C060704747F20000C4F2000081
:101D4000016841F4807101607047000041F20000B9
:101D5000C4F20200016841F0040101607047000014
:101D60002DE9F04782B00446407841F28807000729
:101D7000C4F2020702D44FF0000A2EE0E06BB8B1C3
:101D8000B0F5400F0ED0B0F5000F1BD157F87C0C0A
:101D90004FF0000A40F4803047F87C0CBAF1000F95
:101DA0000ED114E04FF0000ABAF1000F08D10EE096
:101DB000201D002101F000FF8246BAF1000F06D07D
:101DC000D0460CE04FF0010ABAF1000FF8D13868A4
:101DD000E16B20F44000084338604FF00008A07821
:101DE000800701D4C24664E057F8300C5FEAC009AE
:101DF0000BD457F8300C40F0805047F8300C57F8AF
:101E0000300C00F080500190019847F20005C4F2B8
:101E10000005286840F480702860FFF721F8064626
:101E20002868C00506D4FFF71BF8801B0328F7D3EA
:101E30004FF0030ABAF1000F32D1B86810F44070C5
:101E400011D0216D88420BD0B868B96820F4407079
:101E500041F48031B960B96821F48031B960B8606B
:101E6000C00703D112E00020C0070FD0FEF7F8FF33
:101E7000064641F2893500BFB868800706D4FEF7F0
:101E8000EFFF801BA842F7D34FF0030ABAF1000F0F
:101E900006D1B868216D20F440700843C246B8608E
:101EA000B9F1000F05D457F8300C20F0805047F8F6
:101EB000300C2068C1070ED1810714D481061AD4D2
:101EC000810520D4410526D441062CD4C10532D445
:101ED000800438D451E03968226A21F003011143AB
:101EE00039608107EAD53968626A21F00C01114333
:101EF00039608106E4D53968A26A21F44061114352
:101F000039608105DED53968626B21F440211143C7
:101F100039604105D8D53968A26B21F440111143CD
:101F200039604106D2D53968E26A21F44051114343
:101F30003960C105CCD53968226B21F44031114399
:101F40003960800419D53968206C21F04061014363
:101F5000B0F1806F396009D0B0F1006F0DD157F842
:101F60007C0C40F4801047F87C0C06E0201D012119
:101F700001F022FE002818BF8246A078400719D53C
:101F80003968606C21F040610143B0F1806F3960C5
:101F900009D0B0F1006F0DD157F87C0C40F48010DF
:101FA00047F87C0C06E0201D012101F005FE002809
:101FB00018BF8246607840060FD53868A16C20F0C3
:101FC00040500843B1F1805F386006D1201D0221E6
:101FD00001F0F2FD002818BF82466078000605D5A2
:101FE0003868E16C20F0804008433860504602B009
:101FF000BDE8F0872DE9F04381B0002800F0B480FF
:1020000042F20008C4F202080446D8F800000D4667
:1020100000F0070081420DD9D8F8000020F0070039
:102020002843C8F80000D8F8000000F00700A842D4
:1020300040F09A80206841F208098107C4F2020941
:102040000DD5A168D9F8002002F0F002914206D91E
:10205000D9F8002022F0F0021143C9F80010C0079F
:102060004DD1206881070DD5A168D9F8002002F074
:10207000F002914206D2D9F8002022F0F00211437A
:10208000C9F80010D8F8001001F007018D420CD2F9
:10209000D8F8001021F007012943C8F80010D8F83B
:1020A000001001F00701A9425ED1410707D5D9F818
:1020B0000010E26821F4E0611143C9F80010000744
:1020C00008D5D9F80000216920F4605040EAC10029
:1020D000C9F80000D9F80000D9F8041010F00C007D
:1020E00005D00C2834D101F00301012930D159F871
:1020F000081C09070ED4D9F88C10090A0DE0606895
:1021000059F8081CA0B302282CD0032850D189010B
:102110002AD52FE059F8081C090946F6743201F057
:102120000F01C0F6000252F8211000280A4618BF1D
:1021300000220C2858D1D9F8040000F0030002282E
:1021400039D0032804BF41F20021C0F27A0136E001
:10215000042865D0082869D141F200220021C0F28C
:102160007A02E6E7890305D4012001B0BDE8F083D7
:102170008907F9D5D9F8001021F003010843C9F8FF
:102180000000FEF76DFE064641F28837D9F80000E0
:10219000616800F00C00B0EB810F3FF462AFFEF716
:1021A0005FFE801BB842F1D9032001B0BDE8F08387
:1021B0004905D9D5DEE742F20041C0F2F401D9F871
:1021C0000400D9F80420C0F30210C2F306225143E0
:1021D000D9F804200130B1FBF0F0C2F341610222D2
:1021E00002EB4101B0FBF1F2D9F8000046F659319B
:1021F000C0F30310C0F60001085C00F01F0022FAD3
:1022000000F140F20800C2F2000040F20002006853
:10221000C2F20002116001B0BDE8F043FFF7AABCB2
:1022200042F200420021C0F2F40282E700220021C3
:102230007FE7000040F2000041F20801C2F2000016
:10224000C4F202010068096846F66932C1F302214E
:10225000C0F60002515C01F01F01C8407047000049
:1022600040F2000041F20801C2F20000C4F2020193
:102270000068096846F66932C1F3C221C0F600025F
:10228000515C01F01F01C8407047000041F20C0191
:10229000C4F2020151F8040C10F00C02086805D0D9
:1022A0000C2A40D100F0030001283CD151F80C0C5D
:1022B000000703D4D1F88800000A02E051F80C0CA2
:1022C000000946F6743300F00F00C0F6000353F81F
:1022D0002030002A184618BF00200C2A18BF70476B
:1022E000086800F00300022806D0032804BF41F26A
:1022F0000023C0F27A0303E042F20043C0F2F40389
:1023000008680A68C0F30210C2F3062209680130A7
:102310005A43B2FBF0F0C1F34161022202EB4101EA
:10232000B0FBF1F07047042A07D0082A0BD141F224
:1023300000200023C0F27A00CFE742F200400023E1
:10234000C0F2F400C9E700200023C6E7002804BF5C
:10235000012070472DE9F04383B041F200060446A6
:10236000C4F20206B068F168227800F00C09D006C9
:1023700001F0030819D42078C00700F0F880B9F103
:10238000080F40D0B9F10C0F08BFB8F1030F3AD0D5
:1023900065683068B5F5A02F00F0BF80B5F5803FC7
:1023A00040F0C28040F48030C4E0B9F1000F1BD08F
:1023B000B9F10C0F08BFB8F1010F15D0A169306851
:1023C000002979D040F001003060FEF749FD054654
:1023D0003068800700F18280FEF742FD401B022832
:1023E0004FF00300F4D92CE33068800703D5A069CF
:1023F000002800F0CB82256A306800070CD4D6F89C
:102400009400000909E03068800340F1B080606802
:10241000002840F0AC80B9E2306800F0F00085425E
:1024200019D9B06DC0006BD4B06D40F08050B0656C
:10243000B06D00F0805001900198FFF775FCB16D10
:1024400021F08051B165B0F5007F5ED0802D40F263
:102450003182032038E23068B9F1000F40F0080003
:102460003060306820F0F00040EA050030607068AD
:10247000E16920F47F4040EA0120706040F07482FE
:10248000B06DC00000F14082B06D40F08050B0658A
:10249000B06D00F0805002900298FFF745FCB16DDE
:1024A00021F08051B165B0F5007F00F03382802DBE
:1024B00040F24282032049E220F001003060FEF742
:1024C000CFFC0546306880077FF555AFFEF7C8FCA6
:1024D000401B02284FF00300F4D9B2E2306840F00C
:1024E000080030603068D4E9071220F0F000104393
:1024F0003060706820F47F4040EA012070603AE765
:10250000FFF712FCB0F5007FA0D1812DC0F0DB8178
:102510000120A02D88BF0220D6E140F48020306049
:10252000306840F4803005E020F48030306030685E
:1025300020F480203060FEF793FC002D054613D078
:102540003068800313D4FEF78BFC401B64284FF0E7
:102550000300F5D975E200BFFEF782FC401B64283A
:102560004FF0030000F26D8230688003F4D42078CD
:1025700080072CD5B9F1040F1BD0B9F10C0F08BF9F
:10258000B8F1020F15D0E1683068002900F07F81B2
:1025900040F480703060FEF763FC0546306840050B
:1025A0000ED4FEF75DFC401B02284FF00300F5D966
:1025B00047E23068400503D5E068002800F0E68176
:1025C0007068216920F0F85040EA0160706020785E
:1025D000000760D42078400777D42078800600F187
:1025E000A580A06A002800F0A381022840F0CB80DB
:1025F000F068E16A00F003028A4240F0DB80226B5F
:102600006FF00F0300F0700103EB0212914240F0F3
:10261000D180616B00F4FE42B2EB012F40F0CA8022
:10262000A16B00F07842B2EBC16F40F0C380E26B67
:102630000023CFF6E07303EA025200F4C001A2F5D2
:102640000012914240F0B680216C4FF07E4202EAC7
:10265000016100F0C06001F17E41884240F0AA8033
:102660003068800100F16481306840F08070306033
:10267000F06840F08070F060FEF7F2FB04463068CE
:10268000800100F15581FEF7EBFB001B02284FF0A3
:102690000300F4D9D5E16169D6F8940000295ED031
:1026A00040F00100C6F89400FEF7DAFB054600BFD3
:1026B000D6F8940080078DD4FEF7D2FB401B022889
:1026C000F6D9032003B0BDE8F083B06D5FEAC0081F
:1026D00008D4B06D40F08050B065B06D00F080500F
:1026E0000090009847F20007C4F200073868C00560
:1026F00011D4386840F480703860FEF7B1FB0546AD
:102700003868C00507D4FEF7ABFB401B02284FF02A
:102710000300F5D995E1A568D6F89000052D7AD08B
:10272000012D40F0818040F0010085E0616AD6F81B
:10273000980000295AD040F00100C6F89800FEF732
:102740008FFB0546D6F8980080073FF54AAFFEF7A5
:1027500087FB401B02284FF00300F3D971E120F002
:102760000100C6F89400FEF77BFB0546D6F89400FE
:1027700080077FF52FAFFEF773FB401B02284FF059
:102780000300F3D95DE1B9F10C0F00F0FF80306870
:1027900020F080703060FEF763FB044630688001F3
:1027A00040F1BF80FEF75CFB001B02284FF00300E6
:1027B000F4D946E1B9F10C0F00F0E880306840012F
:1027C00000F1E480306820F080703060FEF748FB54
:1027D000054600BF3068800140F13F81FEF740FBB5
:1027E000401B02284FF00300F4D92AE120F0010039
:1027F000C6F89800FEF734FB054600BFD6F89800EF
:1028000080077FF5EEAEFEF72BFB401B02284FF052
:102810000300F3D915E140F00400C6F89000D6F8A3
:10282000900040F0010007E020F00100C6F89000A1
:10283000D6F8900020F00400C6F89000FEF710FBD8
:10284000002D054641F2883714D000BFD6F890001D
:10285000800713D4FEF704FB401BB8424FF003007F
:10286000F4D9EEE0FEF7FCFA401BB8424FF003004B
:1028700000F2E780D6F890008007F3D4B8F1000F9B
:102880003FF5ABAEB06D20F08050B065A5E620F40A
:1028900080703060FEF7E4FA054600BF30684005FE
:1028A0007FF595AEFEF7DCFA401B02284FF00300DF
:1028B000F4D9C6E0A5F17000B0FA80F04009802D8F
:1028C00008BF022000E0002042F20001C4F2020131
:1028D0000A6822F0070202440A60096801F0070151
:1028E000814253D1306840F0080030603068D4E94C
:1028F000071220F0F00010433060706820F47F4031
:1029000040EA012070602FE0FFF70EFAB0F5007F7B
:102910007FF4CDAD812D18D30120A02D88BF0220DA
:1029200014E0F0684FF6FC71CFF6EE610840F060FD
:10293000002003B0BDE8F083A5F17000B0FA80F08C
:102940004009802D08BF022000E0002042F2000173
:10295000C4F202010A6822F0070202440A60096810
:1029600001F00701814211D1B068F16810F00C004C
:1029700005D00C282AD101F00301012926D13168A4
:10298000090707D4D6F89410090A05E0012003B01E
:10299000BDE8F0833168090946F6743201F00F0191
:1029A000C0F6000252F8211000280A4618BF002283
:1029B0000C282BD1F06800F00300022810D0032867
:1029C00004BF41F20021C0F27A010DE004283BD09F
:1029D00008283FD141F200220021C0F27A02E7E745
:1029E00042F20041C0F2F401F068F268C0F3021054
:1029F000C2F306225143F2680130B1FBF0F0C2F39A
:102A00004161022202EB4101B0FBF1F2B06846F6EF
:102A10005931C0F30310C0F60001085C00F01F003C
:102A200022FA00F140F20800C2F2000040F2000277
:102A30000068C2F200021160FFF79CF800283FF422
:102A40009AAC03B0BDE8F08342F200420021C0F22C
:102A5000F402ADE700220021AAE7F06848F28C01F9
:102A6000C0F29D1104F12C0700EA010C8ECF6FF02B
:102A70000F00D4E90F5400EB02100022CFF6E072F1
:102A800041EA0C0102EA05520843A2F500124FF098
:102A90007E4540EA032005EA0465104305F17E45C2
:102AA00040EAC7602843F060306840F080703060D2
:102AB000F06840F08070F060FEF7D2F904463068AC
:102AC00080013FF535AFFEF7CBF9001B02284FF030
:102AD0000300F4D9B5E70000411E0020B0EB116FF0
:102AE0001CBF012070474EF21002CEF2000251606E
:102AF0004EF62351CEF20001F0230B7007219060B7
:102B00001160704790F83C20012A4FF0020230D04B
:102B100010B5012380F83C3080F83D20026842F671
:102B2000004C5368D2F808E0C4F2010C624503D1AE
:102B30004C6823F4700323430C6823F07003234391
:102B4000B2F1804F536007D044F20003C4F2010396
:102B50009A4201D0624504D189682EF0800319435E
:102B600091600121002280F83D1080F83C20BDE8F2
:102B70001040104670470000002804BF0120704735
:102B8000B0B590F83D1031B9002180F83C100446F2
:102B900000F066F82046022180F83D10016842F6F8
:102BA000004E0A68C4F2010E714502D0B1F1804FA7
:102BB00003D1846822F07002224343F6FF74C4F20A
:102BC000010444F2004CA142C4F2010C05DCB1F155
:102BD000804F0AD0714508D00BE0614505D044F222
:102BE0000004C4F20104A14203D1046922F440723A
:102BF00022434368C56884697145CD628B6218BF02
:102C0000614525D143690B630B6822F0800243F0D4
:102C1000040322430B6001234B610A6080F84830B3
:102C200080F83E3080F83F3080F8403080F8413006
:102C300080F8423080F8433080F8443080F84530E6
:102C400080F8463080F8473080F83D300020B0BD35
:102C500044F20003C4F201039942D3D0D4E7000048
:102C60000068B0F1804F18BF704781B041F2580042
:102C7000C4F20200016841F001010160006800F047
:102C800001000090009801B07047000090F83D10DE
:102C9000012925D1022180F83D100168B1F1804F52
:102CA0000BD044F20000C4F20100814205D042F68C
:102CB0000040C4F2010081420CD188680722C0F2B2
:102CC00001020240062A4FF000000AD0B2F5803F10
:102CD00008BF7047086840F0010008600020704796
:102CE0000120704790F83C20012A4FF0020200F0CA
:102CF000898010B5012380F83C3080F83D20D0F861
:102D000000E08822DEF80830CFF6FE721A40CEF8D6
:102D100008200B684F2B40DC1F2B5DDD202B5FD084
:102D2000302B5DD0402B40F0EA80D1F804C0C96858
:102D3000DEF82030DEF8202042F60044C4F2010420
:102D4000A64522F00102CEF820200BD044F200422A
:102D5000C4F20102964505D044F20002C4F2010219
:102D6000964505D1DEF8202022F00402CEF820207E
:102D7000DEF8182022F0F00242EA011123F00A02E4
:102D800042EA0C02CEF81810CEF82020DEF8081027
:102D900041F0470121F0300129E06F2B34DDB3F51C
:102DA000005F00F09980B3F5805F22D0702B40F077
:102DB000A680D1E901C3C968DEF8082043EA0C0304
:102DC00022F47F4243EA01211143CEF80810DEF8D5
:102DD000081041F077010AE013B1102B40F08F800A
:102DE000DEF8081021F07001194341F00701CEF818
:102DF00008100022012180F83D10002180F83C10CD
:102E0000BDE8104010467047502B2DD0602B76D176
:102E1000D1F804C0C968DEF82030DEF8202042F680
:102E20000044C4F20104A64522F01002CEF820208E
:102E300005D1DEF8202022F04002CEF82020DEF876
:102E4000182022F4704242EA013123F0A00242EA43
:102E50000C12CEF81810CEF82020DEF8081041F041
:102E6000670121F01001C2E7D1F804C0C968DEF89B
:102E70002030DEF8202042F60044C4F20104A645CA
:102E800022F00102CEF820200BD044F20042C4F21E
:102E90000102964505D044F20002C4F201029645B3
:102EA00005D1DEF8202022F00402CEF82020DEF842
:102EB000182022F0F00242EA011123F00A0242EA4D
:102EC0000C02CEF81810CEF82020DEF8081041F0E1
:102ED000570121F020018AE7D1E901C3C968DEF872
:102EE000082043EA0C0322F47F4243EA0121114304
:102EF000CEF80810DEF8081041F4804177E701228F
:102F000078E700007047000070470000704700003D
:102F100070B5026840F62F03D169166894680B40BB
:102F2000202B06F0200E07D1BEF1000F04D0816ED9
:102F300041B3BDE87040084740F60F03194209D07D
:102F400040F22013C0F2004304F0010C334013EBB5
:102F50000C0324D1036ECD0615D5012B13D116F029
:102F6000100310D010211162916849062CD4B0F8DA
:102F70005810B0F85A20B0F85A30002B18BF9142C0
:102F800040F0408170BDCB0211D514F480030ED007
:102F90004FF480111162BDE87040FFF7B5BFCB0759
:102FA00018BF16F480736AD18B0772D47CE00A06CE
:102FB00040F10B8116F0800200F00781C16E0029FC
:102FC000E0D0BDE870400847416F0A6851688BB295
:102FD000002B49D0B0F85860B34245D2A0F85A103F
:102FE0001168890634D400BF016851E8001F0268E7
:102FF00021F4807142E80013002BF5D1016851E8FB
:10300000021F026821F0010142E80213002BF5D1F2
:10301000016851E8021F026821F0400142E80213F2
:10302000002BF5D12021C0F880100021016600BFDF
:10303000016851E8001F026821F0100142E8001306
:10304000002BF5D1416F04460846FDF7EBFC204606
:1030500002214166B0F85810B0F85A20891A89B296
:10306000BDE87040FFF74EBFB0F8581099427FF4AA
:1030700089AF126892067FF585AF0222EAE001234C
:103080001362D0F8843043F00103C0F884308B071A
:103090000AD5BCF1000F07D002231362D0F88430A8
:1030A00043F00403C0F884304B070AD5BCF1000F8D
:1030B00007D004231362D0F8843043F00203C0F831
:1030C00084300B070AD55CEA0E0307D0082313628D
:1030D000D0F8843043F00803C0F884300B050BD5DA
:1030E00016F0806308D04FF400631362D0F8842098
:1030F00042F02002C0F88420D0F88420002A3FF457
:1031000041AF890607D5BEF1000F04D0816E11B121
:103110000446884720460168D0F88420896802F078
:10312000280201F04001891806D10446FFF7EEFE9F
:103130000020C4F8840070BD016851E8001F0268D7
:1031400021F4907142E80013002BF5D1016851E899
:10315000021F026821F0010142E80213002BF5D1A1
:10316000016E01290AD100BF016851E8001F026801
:1031700021F0100142E80013002BF5D12021C0F806
:10318000801000210166026881669168490635D584
:10319000016851E8021F026821F0400142E8021371
:1031A000002BF5D1416F49B343F68172C0F600029E
:1031B000044608468A63FDF75BFC00283FF4E2AE54
:1031C000606F816BBDE87040084749067FF5DAAE55
:1031D00016F0400108BF70BD016851E8001F026889
:1031E00021F0400142E80013002BF5D12021C167F6
:1031F0000021C166BDE8704000F07AB9BDE87040BA
:10320000FFF784BE891A00BF026852E8002F0368E6
:1032100022F4907243E80026002EF5D1026852E8AD
:10322000022F036822F0010243E80226002EF5D1A6
:103230002022C0F88020002202668266026852E8DE
:10324000002F036822F0100243E80026002EF5D17B
:10325000022289B24266BDE87040FFF753BE00000B
:1032600010B5C0B10446C06F28B9002084F87800BA
:10327000204600F025F82420E0672068616A026893
:1032800022F00102026011B1204600F0A7FD2046A5
:1032900000F07AFE08B1012010BD2168486820F4D2
:1032A00090404860886820F02A008860086840F0F4
:1032B000010220460A60BDE8104000F003BE000095
:1032C000F0B59BB00446002601A854211A96CDE91A
:1032D0001866CDE91666FDF76BFA206844F20041E6
:1032E000C4F20001884238D043F60001C4F2010163
:1032F000884273D101200190002401A80994FEF7AF
:103300002FFD002818BFFDF787FB41F24C00C4F2E7
:103310000200416941F480414161416901F4804109
:1033200000910099016841F002010160006816A94E
:1033300000F0020000900098C02016900220CDE915
:1033400017040320199007201A9040F20040C4F699
:103350000000FDF79BFC1BB0F0BD022501A8019504
:103360000A96FEF7FDFC002818BFFDF755FB41F259
:103370004C00C4F20200C16816AC41F40031C160D7
:10338000C168002601F4003100910099016803270B
:1033900041F0010101600068214600F00100009049
:1033A00000980420CDE9160507201A904FF09040B0
:1033B00018961997FDF76AFC4FF4004016A9E1C171
:1033C0004FF0904021461A97FDF760FC262000211F
:1033D0000022FEF729FC2620FEF714FC1BB0F0BDEE
:1033E0002DE9F04381B00446C06F202809D18946F9
:1033F00000294FF0010018BF002A06D101B0BDE836
:10340000F083022001B0BDE8F0830020C4F88400FE
:1034100021201D46E0671646FDF722FDA4F8506006
:10342000A4F85260A1680646B1F5805F02D1206918
:10343000002855D0C8464FF00009B4F8520088B3B0
:103440006F1C00BF2068C06900060DD4002FF9D0A2
:10345000FDF706FD01464FF00300E5B3891BA942C5
:1034600039D820680068EDE7B8F1000F04D018F8EB
:10347000010B2168886207E039F8020B21686FF3BD
:103480005F2088624FF00008E06F00F021002128E3
:1034900029D1B4F852000138A4F85200B4F852000F
:1034A0000028CFD12068C069400613D46F1C03E008
:1034B0002068C06940060DD4002FF9D0FDF7D0FC7C
:1034C00001464FF0030035B1891BA94203D820689B
:1034D0000068EDE700202021E16701B0BDE8F0833E
:1034E0004FF00008A9E7012001B0BDE8F08300001B
:1034F00070470000017D012918BF70472DE9F04396
:1035000090F890201E2A944628BF4FF01E0C4AB116
:1035100000F114010023664651F8045F013E2B447C
:10352000FAD100E00023B3FBFCF1634504D34EF66F
:103530006023B3FBF1F303706AB100F114060023BA
:10354000654600BF56F8044F013DA4EB010404FB9F
:103550000433F7D100E00023B3FBFCF3022B01D2CC
:10356000194608E0012619468D196908B3FBF1F6E2
:10357000B6EB550FF8D3892353431E0B3601A6EB48
:103580001333A2EB43061E2A38BF0026022A8160AD
:1035900037D3F3B2012151FA86F100EB830648F6E6
:1035A0008908CCF1000206F11C0406F118054FF061
:1035B000000EC8F6880800BFA1FB0879A3FB0876B7
:1035C0004FEA19173609A7EB0717A6EB061654F8AA
:1035D000377055F836600132BE1B06FB06EE043428
:1035E00001310435561C03F10103E5D1ACF10101B1
:1035F0000A060BD0C9B2BEFBF1F2022A08D211466C
:103600000FE04FF0000E00210A06F3D1002108E080
:1036100001231146CF187908B2FBF1F3B3EB570F32
:10362000F8D34F294160BDE8F04302D9002242702F
:1036300070470B294FF06402F9D35143A1F57A7119
:103640004AF2EB034908CEF60E23A1FB0313A2EBCB
:1036500053124270704700000269002A79D02DE9A8
:10366000F047A1EB02094FEAD9037C2B73D9A9F5E6
:10367000C02346F6E757A3F5D453C0F21807BB4260
:103680006AD844F6D353C1F2620390F89080A9FB44
:103690000337B8F1030F4FEA971C40D3892308FB87
:1036A00003F31C0B2401A4EB1333B8F11E0FC64621
:1036B000A8EB430328BF4FF01E0EB8F11E0F38BF12
:1036C0000023DCB200EB840348F6890A03F11806F4
:1036D0000025C8F6880A7346A4FB0A273A09A2EB1C
:1036E000021256F83220013B154406F1040604F19B
:1036F0000104F1D1B5FBFEF34B2703FB07F648F2BB
:103700001F57C5F2EB17A6FB0765BCEB551F23D36C
:103710007D267343A3FB07377B099C451CD8892270
:1037200008FB02F2130B1B01A3EB1232A8EB4202BF
:10373000D2B200EB8202C2F818C008F10102D3B283
:10374000C0F80CC0022B80F8902024BF0122027523
:1037500002E0016170470161B9F57A7FBDE8F04789
:1037600028BF016170470000FEE700002DE9F0432B
:1037700081B00446006816468369DA0602D4002147
:10378000002048E00D461021C1612068816989064A
:1037900034D4002705F101094FF0000808E048F093
:1037A000200801272068816901F02001394328D1D0
:1037B000B9F1000FF6D0FDF753FB15B1801BA842FD
:1037C000F0D92068426894F8421083691B040BD535
:1037D00012F4804208D1202906D0416841F480418A
:1037E0004160FDF73DFB0646206880698006D9D41C
:1037F000FDF736FB801B1A28F6D3D0E701220421FF
:1038000004E0B7FA87F14A0948F00401002A1CBF16
:103810002022C261012022689369DF0507D45F0579
:103820000DD49B0513D4D0B901B0BDE8F0834FF49B
:10383000807041F00101D06101205F05F1D54FF4A6
:10384000806041F00801D06101209B05EBD54FF469
:10385000007041F00201D06101200028E4D093699A
:103860009B0744BF002393629369DB0703D19369ED
:1038700043F00103936153684EF60007CFF60067EB
:103880003B405360626C11436164202184F8411015
:10389000002184F8421084F8401001B0BDE8F083A4
:1038A00070B5044600688069800619D415460E4636
:1038B00008E000BF20688069800615D5206880690F
:1038C00080060DD4204631462A46FFF74FFF48B9FF
:1038D000FDF7C6FA002EEDD0401BB042EED9E9E765
:1038E000002070BD012070BD606C40F0200060645D
:1038F000202084F84100002084F8420084F8400031
:10390000012070BDF0B587B0044640208DF812004C
:1039100001260DF112003225CDE900062046AE2128
:10392000092201230295FDF7BFFE08B107B0F0BDE3
:103930004FF49670FDF788F91F208DF813000DF1F4
:103940001300CDE900062046AE210822012302958E
:10395000FDF7AAFE0028E9D103208DF81400012606
:1039600005A83225CDE900062046AE210922012313
:103970000295FDF799FE0028D8D127208DF8150073
:103980000DF11500CDE900062046AE210A220123E3
:103990000295FDF789FE0028C8D101270DF1160018
:1039A00024263225CDE900072046AE210C22012332
:1039B0008DF816600295FDF777FE0028B6D10DF15F
:1039C0001700CDE900072046AE210D2201238DF816
:1039D00017600295FDF768FE0028A7D180208DF8BA
:1039E0001800012606A83225CDE900062046AE21A2
:1039F000022201230295FDF757FE002896D10DF112
:103A000019000027CDE900062046AE21042201233B
:103A10008DF819700295FDF747FE00287FF486AFF8
:103A200001260DF11A003225CDE900062046AE210F
:103A3000062201238DF81A700295FDF735FE002845
:103A40007FF474AF00208DF81B000DF11B00CDE951
:103A500000062046AE21052201230295FDF724FE33
:103A600000287FF463AF322001210DF11102CDE96E
:103A7000002102902046AE2100220123FDF784FCA4
:103A8000002007B0F0BD00002DE9F04387B00446E8
:103A900001260DF11B0091460F463225CDE90006A7
:103AA0002046AE21042201230295FDF76DFC00287B
:103AB00049D10DF11A0000902046AE2106220123C3
:103AC00002950196FDF760FCE8BB9DF81B009DF890
:103AD0001A10884201D1012635E0062005A94FF0D1
:103AE0003208CDE900102046AE2107220123CDF88F
:103AF00008800126FDF748FC28BB9DF814009DF8BE
:103B0000151000F003009DF8162000049DF81730F2
:103B100040EA01201044386003F003009DF81810BB
:103B200000049DF8192040EA01201044C9F8000063
:103B30000DF113008DE841012046AE210022012342
:103B40000026FDF721FC304607B0BDE8F0830000F9
:103B500070B584B0044600208DF80F008DF80E007B
:103B600001260DF10F003225CDE900062046AE21D9
:103B7000042201230295FDF707FC0DF10E00CDE9AB
:103B800000062046AE21062201230295FDF7FCFB2C
:103B90009DF80F009DF80E10401A203000EBD06108
:103BA00001F0E001401AC0B204B070BDFEE70000B1
:103BB000FEE70000704700002DE9F04141F20004EB
:103BC000C4F20204E2680E469107804613D0E16811
:103BD000D8F8000001F0030181420AD148B1E06841
:103BE000D8F80410C0F302100130884201D100253A
:103BF0002DE001252BE0D8F8000001280DD0032886
:103C000004D0022814D14FF4806107E021688903B1
:103C100000F17F804FF4802100E0022122681140F2
:103C2000B1FA81F24FEA521518BF012119B90EE01D
:103C30000125002159B1E168D8F804206FF00F0385
:103C400021F0730103EB021211430843E0608DB9C8
:103C5000206820F080602060FDF702F9074600BF71
:103C60002068000105D5FDF7FBF8C01B0328F7D33A
:103C7000032515B12846BDE8F0812169D8F8080070
:103C8000012E4FEA002009D0CEB948F2FF02D8F841
:103C90000C30C0F2FF721140DA061DE048F2FF025C
:103CA000CFF6FF1202F1B4621140D8F810200023C1
:103CB000CFF6E07303EA0252A2F500120CE048F2DC
:103CC000FF02CFF6FF121140D8F814204FF07E43C8
:103CD00003EA026202F17E42084310432061206839
:103CE00040F080602060FDF7BBF8064620680001C8
:103CF00005D4FDF7B5F8801B0328F7D30325002D65
:103D0000B8D1D8F818002169084320612846BDE8D9
:103D1000F0810025012100297FF48DAF97E7000095
:103D200070470000FDF708BF10B596B005A8442104
:103D3000FCF73EFD00244FF400700494CDE90244EA
:103D4000CDE90044FDF7ACFF18B1EFF3108072B677
:103D5000FEE7FDF7F1FF41F29000C4F202000168B6
:103D600021F01801016014206021059001200D91BF
:103D700002210790CDE90B04CDE90F101190282006
:103D800012900720CDE9130105A81591FEF7DEFA80
:103D900018B1EFF3108072B6FEE70F2000900320F9
:103DA00001900020CDE90200049068460421FEF74E
:103DB00021F920B1EFF3108072B600BFFEE7FDF7E6
:103DC000C5FF16B010BD00004EF68850CEF20000C0
:103DD000016841F47001016070470000416A0A0700
:103DE0000CD4CA0715D18A071ED44A0727D4CA069D
:103DF00030D48A0639D44A0642D457E00268D0F853
:103E000034C0536823F4004343EA0C035360CA07E9
:103E1000E9D00268D0F828C0536823F4003343EA9D
:103E20000C0353608A07E0D50268D0F82CC05368B1
:103E300023F4803343EA0C0353604A07D7D5026862
:103E4000D0F830C0536823F4802343EA0C03536056
:103E5000CA06CED50268D0F838C0936823F48053E0
:103E600043EA0C0393608A06C5D50268D0F83CC0CB
:103E7000936823F4005343EA0C0393604A0615D574
:103E8000D0F800C0036CDCF80420B3F5801F22F4E6
:103E9000801242EA0302CCF8042007D1DCF80420A7
:103EA000436C22F4C0021A43CCF80420090658BF20
:103EB00070470168806C4A6822F400221043486011
:103EC00070470000B0B582B004460020C4F88400FA
:103ED000FCF7C6FF21680546096809071AD56FF087
:103EE0007E4C20464FF4001100222B46CDF800C036
:103EF00000F04EF970B100BF206850E8000F216853
:103F000020F0800041E80002002AF5D103202021A2
:103F10007C222FE020680068400723D56FF07E4C9C
:103F200020464FF4800100222B46CDF800C000F05F
:103F30002FF9B8B1206850E8000F216820F4907084
:103F400041E80002002AF5D1206850E8020F2168FC
:103F500020F0010041E80202002AF5D103202021CF
:103F6000802207E02020E067C4F88000002164225E
:103F700000202166A150002184F8781002B0B0BD65
:103F8000806AFEF7C3BF0000B0B5044604F108051F
:103F90002ECD0068194341EA0503D4F81CC005681A
:103FA00046F6F311CEF6FF712940194341EA0C01A0
:103FB0000160416821F440511143416048F2000220
:103FC000A369C4F2000290421CBF216A0B438168BE
:103FD00021F43061194344F20043C4F200039842D3
:103FE000816015D090420CD043F60001C4F201016B
:103FF00088421CD141F28801C4F202010B6860A51D
:1040000010E041F28801C4F2020109688B0A05E060
:1040100041F28801C4F2020109688B0846F6A43512
:10402000C0F6000503F0030155F8213000E010232D
:10403000904242F20040C0F2F40012D0BCF5004FB2
:104040001DD1082B00F253800025DFE803F005584E
:104050006250605050508E00FEF7ECF8002859D1A5
:104060007BE0082B3ED80025DFE803F0053C1E3C32
:10407000183C3C3C1C00FEF7DDF8B8B96DE0082B9D
:1040800039D80025DFE803F0053F5B37593737376C
:104090007600FEF7CFF8002852D15EE0FEF7F6F882
:1040A00020B95AE04FF40040002856D0626802EB75
:1040B000420188424FF0010152D3130398424FD876
:1040C000010E000210EB520041F100010023FCF749
:1040D000F1F84FF60052A0F54071C0F20F02914284
:1040E00039D33CE0002001250028DFD135E0002055
:1040F000012578B931E00020012508BB2DE0FEF74D
:10410000AFF838B929E0FEF7ABF8C8B925E0FEF7FB
:10411000BDF810B361684A0802EB4000B0FBF1F053
:104120004FF6EF72A0F11001914218D84FF6F071DE
:104130000140C0F3420008440DE0FEF7A7F860B16B
:1041400061684FF6EF7200EB5100B0FBF1F0A0F1A7
:104150001001914203D82168C860294600E001217E
:1041600000220846A266E266B0BD4FF40040002877
:10417000D0D1F2E74FF400400028E1D1EDE700BFD5
:104180000100000004000000020000000800000020
:104190002DE9F04381B004460068C0690840401A28
:1041A000B0FA80F04009824255D1DDF820801546F2
:1041B0000E46994608F1010709E000BF2068C06972
:1041C0003040801BB0FA80F04009854243D1002F77
:1041D000F4D0FCF745FE0146B8F1000F4FF00300A4
:1041E0003AD0A1EB0901414536D82068016849075A
:1041F000E4D5402EE2D0802EE0D0C16909072ED44C
:10420000C1690905DAD54FF400610162206850E800
:10421000000F216820F4907041E80002002AF5D1D7
:10422000206850E8020F216820F0010041E80202F6
:10423000002AF5D1206E01280AD100BF206850E87D
:10424000000F216820F0100041E80002002AF5D19B
:10425000032020212AE0002001B0BDE8F0830821DE
:10426000016200BF206850E8000F216820F49070C0
:1042700041E80002002AF5D1206850E8020F2168C9
:1042800020F0010041E80202002AF5D1206E012849
:104290000AD100BF206850E8000F216820F010000C
:1042A00041E80002002AF5D1012008212022C4F8AB
:1042B000802000222266A266C4F8841084F8782048
:1042C00001B0BDE8F083000040F2E420C2F200003B
:1042D000FEF71EBEFEE700002DE9F04F87B0DDF8C7
:1042E00040B099460E46824601F0FCF946F6685801
:1042F000C0F600085046414601F070FC01AF49A2EB
:10430000384618213346FCF74DF8504600210A2262
:104310003B4601F00FFC5046414601F05FFCB9F10D
:10432000460F01D942A70AE0B9F1280F01D943A7E6
:1043300005E046A743A0B9F1140F88BF074601AEB8
:1043400046A2304618214B460097FCF72BF8504602
:1043500000211622334601F0EDFB504600211922C0
:10436000802301F06FFADBF800000121064600BF50
:104370005BF821200131B242B8BF16468242C8BF65
:1043800010468029F4D1B04233DD871B00204FF066
:104390003F084FF01B0900BF5BF820100BEB8002B9
:1043A000891B01EBC101890091FBF7F15368C1F151
:1043B0003F02991B01EBC101890091FBF7F13F2AF4
:1043C00000F10104C1F13F05A8BF42461B2AD8BF36
:1043D0004A463F2DA8BF454681B2A3B250461B2D89
:1043E000D8BF4D46009501F00BFB7F2C2046D3D162
:1043F00012E0504600212D22802301F023FA46F6D8
:104400006851C0F60001504601F0E8FB16A3504683
:104410000A21352201F08EFB504601F0D5FB07B092
:1044200000F02AB848523A2025642042504D00003E
:104430004849474820535452455353004D45444939
:10444000554D000052454C4158454400564552597F
:104450002052454C41584544000000005354523A04
:10446000256420257300000043414C43554C4154C2
:10447000494E472E2E2E000030BCBDE8C08F0000F4
:1044800010B582B0044601F02DF946F66851C0F629
:104490000001204601F0A2FB40F27000C2F20000D1
:1044A0000078032809D0022803D001280BD114A3D7
:1044B00004E011A320462A2102E00DA32046222178
:1044C0000C2201F037FB40F20400C2F20000037836
:1044D0004FF00F0C204640212822CDF800C001F0FB
:1044E0000DF9204602B0BDE8104001F06DBB00BFE1
:1044F000455848414C450000484F4C4400000000DE
:10450000494E48414C4500002DE9F04395B06D46B9
:104510000B46044624A228465021FBF743FF40F2F5
:10452000E428C2F2000882B2404629466423FEF71E
:1045300057FF002601270FF27C0902E00137802F88
:1045400016D0780081B2204603220523FCF72CFD0B
:104550000028F3D1284650214A463B46FBF722FF6C
:1045600082B2404629466423FEF73AFF0136E5E76A
:10457000300602D015B0BDE8F08340F64550C0F2D9
:104580000A00019044F62060C4F64F60009040F2AB
:10459000E420C2F20000694607226423FEF720FFF0
:1045A00015B0BDE8F08300BF5363616E2025733AF8
:1045B0000D0A0000202B3078253032580D0A0000FB
:1045C000ADF54A7D40F2004A44F20048C4F6000AC4
:1045D000C4F20008FDF7BEFAFFF7A6FB002641F281
:1045E0004C074096CDE93E66CDE93C66C4F2020731
:1045F0003868082140F0040038603868002200F074
:104600000400BD90BD9838684FF0080940F00100E3
:104610003860386800F00100BD90BD98386840F0FF
:1046200002003860386800F00200BD90BD98504626
:10463000FCF710FC4FF480703C904FF404103CAC3D
:104640003D9001254FF0904021463E95FCF71EFB22
:1046500050462146CDE93C95CDE93E66FCF716FB78
:10466000172000210022FDF7DFFA1720FDF7CAFA14
:1046700057F8040C002140F0010047F8040C57F8EB
:10468000040C002200F001003C903C981120FDF742
:10469000CBFA1120FDF7B6FA40F2D40008F58051AC
:1046A000C2F2000041F62022CCF2200280E846004F
:1046B000C0E90356C0E90566C0E90766FCF720FCBF
:1046C00018B1EFF3108072B6FEE740F2D400C2F2E8
:1046D00000000021FCF7CAFB18B1EFF3108072B69E
:1046E000FEE740F2D400C2F2000000210024FCF7F3
:1046F000E3FB20B1EFF3108072B600BFFEE740F29B
:10470000E420C2F200004FF4E1310C22C0E9008144
:10471000C0E90244C0E90442C0E90644C0E90844D3
:10472000FEF79EFD18B1EFF3108072B6FEE740F27F
:10473000281008F5C051C2F2000049F6E4420023F7
:10474000C1F2D102012780E88E00C0E90433C0E93C
:1047500006330362FCF7D4FB18B1EFF3108072B696
:10476000FEE740F22810C2F200000021FCF77EFBB9
:1047700018B1EFF3108072B6FEE740F22810C2F2D3
:10478000000000210024FCF797FB20B1EFF310801C
:1047900072B600BFFEE740F21020C2F200004FF0F8
:1047A00080414FF0FF33CDE93E44CDE93C44BF9416
:1047B000CDE9BD444F2280E81600C0E9033484618E
:1047C000FEF7DAF918B1EFF3108072B6FEE74FF496
:1047D00080503C9040F21020C2F200003CA9FEF74D
:1047E00081FA20B1EFF3108072B600BFFEE740F20D
:1047F00010200024C2F20000BDA9BD94BF94FEF7B2
:1048000081F920B1EFF3108072B600BFFEE740F2ED
:104810005C2008F57441C2F200000C234FF41652DC
:1048200080E81600C0E90344C0E90534C0E9074444
:104830004462FEF715FD18B1EFF3108072B6FEE783
:104840000A20FCF701FA40F62A50C0F20A00CDF81F
:10485000FB0042F25400C2F62A203E9044F220208F
:10486000C4F64F703D9040F60D2040F2E424C2F6AD
:104870002A20C2F200043C903CA920460E22642368
:10488000FEF7AEFD40F20000C2F2000003683CAE4D
:104890000FF6F04230465021FBF784FD82B22046ED
:1048A00031466423FEF79CFD46F631423CAEC0F62D
:1048B00000020FF6DC4330465021FBF773FD82B255
:1048C000204631466423FEF78BFD40F20045062466
:1048D000C4F6000528460821FCF7B4FA6420FCF76A
:1048E000B3F9013CF6D146F6314846F65C47C0F6CE
:1048F0000008C0F600073CAC2046502142463B462B
:10490000FBF750FD40F2E426C2F2000682B23046C8
:1049100021466423FEF764FD40F22810C2F2000035
:104920003946FFF7F1FD46F65744C0F600043CAFA8
:104930003846502142462346FBF734FD82B23046CA
:1049400039466423FEF74CFD40F2D400C2F2000069
:104950002146FFF7D9FD3CAC0FF6384320465021E5
:104960004246FBF71FFD82B2304621466423FEF724
:1049700037FD40F21020C2F20000FEF787F940F642
:104980004C54C0F20A0498B144F22060C4F64110BD
:104990003D9044F65410C3F24D203C9040F2E42088
:1049A000C2F200003CA90B2264233E94FEF718FDDE
:1049B00046F631423CADC0F600020FF6E033284621
:1049C0005021FBF7EFFC82B240F2E420C2F200007B
:1049D00029466423FEF704FD40F2D400C2F2000031
:1049E000FEF790FF002844F24D10C2F2580000F08C
:1049F0006D8544F24611C4F64941CDF8F740CDE942
:104A00003C0140F2E420C2F200003CA90A226423E7
:104A1000FEF7E6FC40F274310020C2F2000108709B
:104A200046F63144C0F600040DF1F00A0FF6943357
:104A3000504650212246FBF7B5FC40F2E425C2F275
:104A4000000582B2284651466423FEF7C9FC40F2B5
:104A5000B436C2F2000646F65C5146F2C16246F632
:104A60008523C0F60001C0F60002C0F60003304600
:104A700001F056F9304601F0CBFD304600214FF0F1
:104A8000000A01F0D1FD304600F02CFE46F66851D8
:104A9000C0F60001304601F0A1F840F27430C2F2D5
:104AA000000000780FF624310FF62833002818BFD5
:104AB0000B4630460A21232201F03CF8304601F033
:104AC00083F84FF47A70FCF7BFF83CAE0FF6103362
:104AD000304650212246FBF765FC82B2284631461B
:104AE0006423FEF77DFC40F27C10C2F200009421AA
:104AF000FBF75EFEFCF7B4F9399046F63C50C0F681
:104B00000000016840F2AC382B91416840F2D409B2
:104B10002A91816840F650152991C168C2F20008B7
:104B200028910169C2F2000927914169C2F200058A
:104B3000269181692591818B807F249123900FF6A6
:104B4000A4204168089181680791C16806910169B4
:104B50000591818A807D049103900FF6C4204168FD
:104B6000379181683691C168007C359134900FF699
:104B70008C204168339181683291C168319101691B
:104B8000309141692F9181692E91C169008C2D91DD
:104B90002C9046F6D040C0F6000001682291416892
:104BA000219181682091C1681F9101691E9141691D
:104BB0001D918169007F1C911B9046F6F040C0F664
:104BC000000001681A914168199181681891C168C3
:104BD00017910169169141691591018B807E14919D
:104BE000139046F69C40C0F600000168129141689F
:104BF000119181681091C1680F9101690E9141690D
:104C00000D9181690C91C1690B91018C90F8220082
:104C10000A91099042E040F28800C2F2000040F29E
:104C200074320078C2F2000212789BF8001000285B
:104C300008BF0146002A46F6714346F66E42C0F6AA
:104C40000003C0F6000218BF134640F26C32C2F2F5
:104C5000000200280FF6E010374616680FF6D4124F
:104C600018BF104646F6DE32CDE900103846502116
:104C7000C0F600020296FBF795FB82B240F2E420F8
:104C8000C2F2000039466423FEF7AAFB40F200405E
:104C9000C4F600000821FCF7D5F8399440F27C1BDB
:104CA000C2F2000B3CAE29E040F2B434C2F2000480
:104CB000204600F017FD47F2F6112046C0F600012D
:104CC00000F08CFF46F67D4320460F211E22C0F6E1
:104CD000000300F02FFF20460021002280233746EA
:104CE000402600963E4600F05DFD20463B9C00F0CD
:104CF0006BFF3998201AB0F5FA6F8CD2FCF7B0F838
:104D0000D8F800100446401A0A283B94C0F03382B9
:104D10004846C8F80040FEF71BFF0028389000F016
:104D2000B281FF28C9ADBDAF1BD10446DFF8B4087E
:104D300031463C90089816223D90079864233E9097
:104D400006983F90059840900498ADF804010398A8
:104D50008DF8060140F2E420C2F20000FEF740FBAD
:104D600020462028044628BF2024002800F09281F5
:104D70004FF000083A9400BF484639462A46CDF81D
:104D8000F4A2CDF824A3FEF77FFE064650B140F210
:104D90008001C2F20001086801300860002E00F0B6
:104DA0006A8177E140F28405C2F200052868C9995A
:104DB0000130286040F28800C2F2000044F61F6211
:104DC0000078914240F26C32C2F200023C4611601F
:104DD0001DD8002854D0DFF848083CA93C903798EB
:104DE00010223D90369864233E9035983F90349839
:104DF0008DF8000140F2E420C2F20000FEF7F0FA64
:104E000040F28800C2F2000080F800A038E0B8BB91
:104E1000DFF8E8073CA93C90339821223D90329876
:104E200064233E9031983F90309840902F98419065
:104E30002E9842902D9843902C98ADF8100140F296
:104E4000E420C2F20000FEF7CBFA40F28801012014
:104E5000C2F20001087040F27C10C2F200009421FE
:104E6000FBF7A6FC40F65030C2F2000080F800A02C
:104E700040F65010C2F200004FF40071FBF798FCAE
:104E8000C998CB46C0087C2824D8286845F6294113
:104E90000138CCF28F21484345F628414FEAB00053
:104EA000C0F28F21884215D80A20ADF8F80044F2EC
:104EB0004750C0F652503D9044F22160C4F649601C
:104EC0003C9040F2E420C2F200003CA90922642395
:104ED000FEF786FAC99800F0B1FB40F65032C2F2F4
:104EE0000002117840F65013C0F1000901F07F0074
:104EF000C2F2000343F820902868013140F278376D
:104F000040F27C3501281170C2F20007C2F20005A0
:104F100004BFC7F80090C5F8009039684945B8BF8C
:104F2000C7F800902968494547F6D501C2F2E96102
:104F300001FB00F041F26E214FEAB000C0F28301A4
:104F4000C8BFC5F8009088421AD8386829680A187E
:104F500002EBD272A0EB6200C0EB0010C31700EBB3
:104F60001370001100EB62003860A1EB6200C0EB2F
:104F70000010C11700EB1170001100EB62002860F7
:104F800040F28430C2F20000016840F28030C2F288
:104F90000000006881425BDA484559DD29683A68BB
:104FA000521AC92AA8BF012852DB46F26763C2EB36
:104FB000C202C6F2666352FB03F2931003EBD27295
:104FC0001144884244DD40F27030C2F200000068B3
:104FD000C0B33B99A1EB000AAAF2262040F2AA51E5
:104FE00088422BD840F21020C2F200000068416ACB
:104FF00040F27C10C2F20000FEF72EFB40F2780275
:10500000C2F2000210684EF660210130B1FBFAF3E3
:1050100010600DF1F00A46F6034250465021C0F6EA
:105020000002FBF7BFF982B240F2E420C2F20000B6
:1050300051466423FEF7D4F9BDAC03E0BAF5FA6F2C
:10504000BDAC05D940F270303B99C2F2000001605E
:1050500040F28031C2F20001086840F284322746F3
:105060003A9CC2F20002C1F800904FF0000AD94603
:10507000C9AD106076B908F101085FFA88F0A04266
:10508000FFF47AAE06E040F27C01C2F2000108684B
:1050900001300860389840F27C1B40F2AC3840F692
:1050A00050153B9C1E28C2F2000BC2F20008C2F24F
:1050B00000053CAE5FD32B9831463C902A981E22C7
:1050C0003D90299864233E9028983F9027984090DF
:1050D00026984190259842902498ADF80C01239889
:1050E0008DF80E0140F2E420C2F20000FEF778F9DC
:1050F000BDAF01264846AE21002201230A248DF8C7
:10510000F0A0009701960294FCF73EF94846AE21C4
:1051100001220123CDE900760294FCF735F93CA881
:10512000CDE900064846AE21042201230294FCF793
:10513000BBFA3CA8CDE900064846AE210522012372
:105140000294FCF7B1FA3CA8CDE900064846AE212E
:105150000622012302943B9C3CAEFCF7A5FA40F2E8
:105160008030C2F20000C0F800A040F28430C2F2E9
:105170000000C0F800A040F2B030C2F200000068A9
:1051800047F23051201A8842C0F00D8140F2B03011
:10519000C2F2000004605846FEF7ACF99BF8140018
:1051A000012840F0E1809BF8010046F69044462833
:1051B000C0F6000410D846F676442828C0F600044D
:1051C0000AD846F661441428C0F6000446F6664044
:1051D000C0F6000088BF0446229840F2E4253C90C7
:1051E0002198C2F200053D90209831463E901F98CC
:1051F0001C223F901E98642340901D9841901C985B
:1052000042901B988DF80C012846FEF7E9F840F211
:105210007430C2F20000007846F68A43002846F651
:105220006E40C0F60003C0F6000046F6224218BFEA
:10523000034630465021C0F60002FBF7B3F882B2B5
:10524000284631466423FEF7CBF89BF8003046F63B
:10525000C93230465021C0F60002FBF7A3F882B2F3
:10526000284631466423FEF7BBF89BF8013046F62A
:10527000B43230465021C0F60002FBF793F882B2F8
:10528000284631466423FEF7ABF846F61142304615
:105290005021C0F600022346FBF784F882B228466C
:1052A00031466423FEF79CF81A9831463C901998D1
:1052B0001A223D90189864233E9017983F901698B4
:1052C0004090159841901498ADF8080113988DF806
:1052D0000A012846FEF784F840F28805C2F200056C
:1052E0009BF800309BF80140B0462E78BDAF46F6E3
:1052F000474238463021C0F60002CDE90046FBF7B0
:1053000051F882B240F25C20C2F2000039466423B8
:10531000FEF766F840F27C10C2F200000378447891
:105320002E7846F63D4240465021C0F6000240F23B
:105330007C1BCDE90046C2F2000B4646FBF732F873
:1053400082B240F2E420C2F2000041466423FEF73C
:1053500047F840F2AC3840F650153B9CC2F20008CA
:10536000C2F200051FE000BF129831463C90119830
:1053700022223D90109864233E900F983F900E9803
:1053800040900D9841900C9842900B98439009984A
:105390008DF812010A98ADF8100140F2E420C2F233
:1053A0000000FEF71DF840F2A830C2F200000068CD
:1053B000201A5028FFF49DAC40F28800C2F2000091
:1053C0000078002840F2A830C2F2000004603FF4E8
:1053D0006BAC9BF80130472B2BD340F27001C2F22B
:1053E0000001087830B90120087040F27400C2F260
:1053F000000004600878032842D0022835D0012834
:105400005CD140F20400C2F200000078172805D8F1
:1054100040F204020130C2F20002107040F2740047
:10542000C2F200000068201A40097C2846D90220F8
:105430003EE040F65030C2F200000078002100BF8C
:10544000421802F07F0255F8222046F8212001314F
:105450008029F5D19BF8001040F2B430C2F2000070
:1054600062220096FEF738FF43E440F27400C2F275
:1054700000000068201A00097C281FD9032017E0CB
:1054800040F20400C2F200000078092805D340F27F
:1054900004020138C2F20002107040F27400C2F23D
:1054A0000000006841F27072201A904206D3012079
:1054B000087040F27400C2F20000046040F2B430A0
:1054C000C2F20000FEF7DCFFFFF713BC44F64F31D9
:1054D00040F2E424C0F60D21C2F200040DF1F00AFE
:1054E0000025CDE93C0120465146082264238DF871
:1054F000F850FDF775FF40F274304FF0010BC2F227
:10550000000080F800B040F63A50C0F20A003D902A
:1055100044F25250C5F247303C903CA92046072245
:105520006423FDF75DFF40F2D4040FF27C094FF0D5
:105530001408C2F2000403E001350A2D3FF470AAFA
:1055400019F80560BDA8CDE9000B2046AE21324612
:105550000123CDF80880FBF717FF0028ECD19DF858
:10556000F4725046502113A233460097FAF71AFFFF
:1055700082B240F2E420C2F2000051466423FDF7FB
:105580002FFFD9E7434C4B3A202575487A0D0A0086
:105590004C45440054494D32000000004D41583301
:1055A00030313032000000000001040506090A0C09
:1055B0000DFF000020253032583A253032580D0AB0
:1055C000000000004F4C4544000000004D415820B1
:1055D0004F4B00004D4158204641494C000000000F
:1055E000485256002149324320455252202D206214
:1055F00075732072657365740D0A000046494E4745
:105600004552204445544543544544202D2052657D
:1056100073657474696E67204852560D0A00000065
:1056200046494E4745522052454D4F5645440D0A76
:1056300000000000594553004E4F000040F29D32DB
:10564000C2F20002117840F2A03C0029C2F2000C24
:1056500002BFCCF800000123137080B540F2A43ED5
:10566000C2F2000EDEF8001040F2E333594344F674
:10567000D353DCF80020C1F26203CCF8000040F202
:105680009C3C51FB03F1C2F2000C821A8B119CF876
:10569000000003EBD171CD2343439B0A03EB83034B
:1056A0001144C31A40F28832DBB2C2F2000242F85F
:1056B0002310CEF8001000F1010ED2E9000391682A
:1056C0001844D2E903320844184446F26761104492
:1056D000C6F2666150FB01F0411001EBD0708CF80E
:1056E00000E080BD80B5016890F83820097C406BEF
:1056F0005143C900FBF73AF880BD00002DE9F04F97
:1057000085B00C46CD1A591CD61A0F1911440392B4
:105710001FFA81FCA9B21D46B2B2BBB20290CDF80D
:1057200000C000F00FFAB8B30E9903982A46CDE9ED
:1057300000010298002123464FF0000B00F032FBDD
:1057400055B3ABEB450AC5F101084FF0010900BFA5
:105750000FFA88F00AF10201B0F1FF3FC2BF88449E
:105760008A46013D0BF1010B0FFA89F0049500F117
:105770000209AFB21FFA8BF502982346A446039C98
:105780000E9E29463A46C844CDE90046644600F0DC
:1057900009FBBD42049DDBD305B000F000B830BC6E
:1057A000BDE8C08F2DE9F04F81B00A9C804603EB25
:1057B000010BA018994686B21FFA8BF34046174694
:1057C0000D46009600F0BEF988B3002640462946F3
:1057D0003A464B46009600F077F8022C27D3023C5D
:1057E000200407F1010717D01FFA87FAA6B24FF07D
:1057F000010C4046294652463346CDF800C000F021
:1058000063F8ABF1010081B24046524633460126AF
:10581000009600F059F827440026BAB240462946BF
:105820004B460A9601B000F005B800F04DB801B043
:1058300000F005B830BCBDE8C04FFFF7F6BF30BC84
:10584000BDE8C08FF0B581B0DBB390F88C60C6B313
:10585000B0F84C60B24234D3B0F84E60B24230D2AD
:10586000B0F848C0B0F84AE05D18AEB27145644681
:1058700038BF0C46AE422F4608BF0C46714538BFB4
:10588000AEF10107AE4208BF3746BEB200257445EF
:105890004FF0000728BF0127664598BF01253D430B
:1058A00008D1644588BFA446764538BFB646AEEBFE
:1058B0000C0361462DB9076B0026BF689BB20096AA
:1058C000B84701B0F0BD00002DE9F047002B00F013
:1058D0008A8090F88C70002F00F08580089C022B45
:1058E00005D3032C3FD0022C01D1C91A013114F089
:1058F000010A3DD1B0F84C6097B2B74273D3B0F80B
:105900004E60B7426FD2B0F848E0B0F84A4013FAA0
:1059100081F61FFA81F97546B7B2A14538BF0D4629
:10592000B74208BF0D461FFA85F8A145354638BF76
:10593000651EB74208BF3D46AEB2A0454FF0000716
:105940004FF0000528BF0127764598BF01252F435A
:1059500048D1F04588BFC646A64238BF3446A4EBBE
:105960000E0371463EE0D21A013214F0010AC1D092
:10597000B0F848608FB2B74235D3B0F84A60B7424A
:1059800028BFBDE8F087B0F84CE0B0F84E4013FAFD
:1059900082F61FFA82F97546B7B2A14538BF15469F
:1059A000B74208BF15461FFA85F8A145354638BFEE
:1059B000651EB74208BF3D46AEB2A0454FF0000796
:1059C0004FF0000528BF0127764598BF01252F43DA
:1059D00008D1F04588BFC646A64238BF3446A4EB7E
:1059E0000E0372460FB1BDE8F087076B89B2D7F896
:1059F00008C092B29BB2CDF820A0BDE8F047604746
:105A00002DE9F04F83B00C9FB1EB030C019048BF20
:105A1000CCF1000CD01B48BF404260450BD9154665
:105A20003A460290CDF800C095420DD82C460F465C
:105A3000154619460AE00D4611461A463B46CDF872
:105A400008C000909542F1D914461F464FF0FF3B25
:105A5000B9424FF6FE7688BF4FF0010BB54238BF12
:105A60002E46B44220D802991FFA8CF989B24FEA27
:105A700051081FFA80FA00BF0198BAB2CA45A5B210
:105A800086BF11462A46294600F014F800980134D2
:105A9000A8EB00080FFA88F0002848BF5F4402987E
:105AA00048BF8044B542E7D303B000F000B830BC33
:105AB000BDE8C08F70B582B0B0F84C309A4237D391
:105AC000B0F84E309A4233D2B0F8483099422FD3D2
:105AD000B0F84AC061452BD290F88C4044B301F134
