:020000040800F2
:10000000201100204902000829360008992D000817
:1000100025360008910A0008F94100080000000098
:10002000000000000000000000000000753800081B
:10003000D90A00080000000059360008A938000855
:1000400063020008630200086302000863020008FC
:1000500063020008630200086302000863020008EC
:1000600063020008630200086302000863020008DC
:1000700063020008630200086302000863020008CC
:1000800063020008C90A000863020008630200084E
:10009000630200086302000863020008DD0A00082A
:1000A000630200086302000863020008630200089C
:1000B0006302000800000000000000006302000866
:1000C0006302000800000000000000006302000856
:1000D0000000000063020008E94100080000000081
:1000E0006302000863020008000000000000000036
:1000F0000000000000000000000000000000000000
:100100000000000000000000000000006302000882
:100110000000000000000000630200086302000805
:10012000630200086302000863020008630200081B
:100130006302000800000000000000000000000052
:1001400063020008630200086302000863020008FB
:1001500063020008630200086302000863020008EB
:100160006302000863020008630200080000000048
:1001700063020008630200080000000000000000A5
:1001800063020008630200086302000800F002F83E
:1001900000F04AF80AA090E8000C82448344AAF1D7
:1001A0000107DA4501D100F03FF8AFF2090EBAE8D5
:1001B0000F0013F0010F18BFFB1A43F0010318479B
:1001C0005C6900007C690000103A24BF78C878C1DF
:1001D000FAD8520724BF30C830C144BF04680C604D
:1001E000704700000023002400250026103A28BF95
:1001F00078C1FBD8520728BF30C148BF0B60704799
:10020000642900F02581752900F02281782900F009
:100210005B81732900F06D83002070471FB506F0E5
:100220001AF91FBD10B510BD00F099FB1146FFF77C
:10023000F5FF04F0F3F900F0B7FB03B4FFF7F2FFAA
:1002400003BC00F0C1FB0000094880470948004793
:10025000FEE7FEE7FEE7FEE7FEE7FEE7FEE7FEE776
:10026000FEE7FEE704480549054A064B70470000D3
:10027000393900088D010008200B002020110020D2
:10028000200D0020200D002053EA020C00F06980B0
:100290002DE9F04B4FF00006002B1FBFB3FA83F59A
:1002A00003FA05F424FA05F65E4012BF1643B2FACB
:1002B00082F502FA05F4C5F120051EBF22FA05FCFD
:1002C00044EA0C04203556EA044C4FEA144418BFA3
:1002D000641C4FF000084FF00009904271EB030CD2
:1002E00039D3002919BFB1FA81F701FA07F6B0FA3C
:1002F00080F700FA07F6C7F120071EBF20FA07FCB7
:1003000046EA0C062037B6FBF4FCA7EB0507103FC6
:1003100007F01F0BCBF120062CFA06F60CFA0BFBAC
:1003200044BFB3460026202FA4BF5E464FF0000B0B
:100330005BEA060C08BF4FF0010B19EB0B0948EB09
:100340000608ABFB027C06FB02CC0BFB03CCC01BFC
:1003500071EB0C01C1E70B46024641464846BDE839
:10036000F08B13B5084318BF4FF0FF300146AFF3D1
:100370000080BDE81C4070470FB47CB50C0009AA92
:10038000009001D02044401E084B7B4469460190F8
:10039000089800F07CFA05461CB10020694600F080
:1003A00089FA28467CBC5DF814FB0000310500008A
:1003B00070B5044685690068C10601D5302600E0A5
:1003C0002026C00707D070BDD4E9012130469047F0
:1003D000206A401C20626D1EF6D570BD70B50446C3
:1003E00085690078C00707D170BDD4E901212020BC
:1003F0009047206A401C20626D1EF6D570BD70B516
:100400000C460546012A05D02878800600D5EA6901
:10041000002302E0012305E05B1C934202D2E05C72
:100420000028F9D1A869E618C01AA861286A1844FA
:1004300028622846FFF7BCFF04E0D5E9012114F843
:10044000010B9047B442F8D32846FFF7C7FF70BDB1
:100450002DE9F0410646002410687529314616A59D
:1004600010D0AFF30080002802DA404213A507E065
:1004700031688A0701D512A502E0490704D511A504
:10048000012401E0AFF3008000210A2206F12407D5
:1004900009E0B0FBF2FCB0FBF2F302FB1C003030D1
:1004A00078541846491C0028F3D123462A46304682
:1004B000BDE8F04100F08CB9000000002D00000004
:1004C0002B0000002000000070B504460D462146B8
:1004D0001068AFF300802188090502D50F4A7A44DD
:1004E00002E00E4A7A440E32002104F1240305E0B2
:1004F00000F00F060009965D5E54491C0028F7D1F4
:1005000020780023000704D5702D02D009B1022302
:1005100011322046BDE8704000F05AB98E5F0000ED
:100520002DE9F05F894604464FF0000ADFF874B108
:10053000FB44C0F820A02046E1688847002874D01A
:10054000252806D0D4E901219047206A401C20626A
:10055000F1E700265F462046E168884720280546E7
:1005600007DB312D05D2781910F8200C08B10643AD
:10057000F1E7B00701D526F00406C4F81CA0002757
:10058000C4F818A02A2D09D0284605F05DFF38B31D
:1005900004EB8708303DC8F8185019E059F8041BDF
:1005A000204604EB87029161E1688847012F0546E8
:1005B00018D1E069002820DA26F020061DE0D8F8DE
:1005C000180000EB800005EB40003038C8F8180038
:1005D0002046E1688847054605F036FF0028EED141
:1005E000012F0AD02E2D08D12046E16888477F1CB4
:1005F0000546022F46F02006C4DBA069002803DA76
:10060000404246F00106A061F00701D026F0100636
:100610006C2D0BD0682D09D04C2D39D06A2D35D0DA
:10062000742D35D07A2D33D016E038E0E1682F46AE
:1006300020468847B842054609D16C2F26D04FF492
:100640008060E168064320468847054604E06C2F39
:100650001AD04FF4807006430DB3A5F1410019285C
:1006600002D8203546F400664A46294620462660D0
:100670004E46FFF7C5FD80B101280BD0F61D26F0D0
:10068000070000F1080956E74020E4E78020D8E79A
:100690000020D6E706F104094DE7284652E7206A14
:1006A00000F002B8645F000030BCBDE8C09F032AC0
:1006B00040F2308010F0030C00F0158011F8013B7F
:1006C000BCF1020F624498BF11F801CB00F8013B66
:1006D00038BF11F8013BA2F1040298BF00F801CB2A
:1006E00038BF00F8013B11F0030300F00681083A1F
:1006F000C0F0088051F8043B083A51F804CBA0E858
:100700000810F5E7121D5CBF51F8043B40F8043BAC
:10071000AFF30080D20724BF11F8013B11F801CBE1
:1007200048BF11F8012B24BF00F8013B00F801CBB2
:1007300048BF00F8012B70474FF000020429C0F0B9
:10074000128010F0030C00F01B80CCF1040CBCF103
:10075000020F18BF00F8012BA8BF20F8022BA1EB55
:100760000C0100F00DB85FEAC17C24BF00F8012B3A
:1007700000F8012B48BF00F8012B70474FF0000232
:1007800000B5134694469646203922BFA0E80C5087
:10079000A0E80C50B1F12001BFF4F7AF090728BF62
:1007A000A0E80C5048BF0CC05DF804EB890028BFDE
:1007B00040F8042B08BF704748BF20F8022B11F007
:1007C000804F18BF00F8012B704770477047704783
:1007D0002DE9F0470D4699469246044600F124085B
:1007E0000168880604D5E06921F01001216000E06D
:1007F0000120A84201DD471B00E00027A1697A190A
:1008000002EB0900081AA0612078C00602D4204635
:10081000FFF7CEFD002608E0D4E901211AF8060012
:100820009047206A401C761C20624E45F4DB2078FD
:10083000C0060AD52046FFF7BBFD06E0D4E901213A
:1008400030209047206A401C2062381EA7F1010723
:10085000F4DC07E0D4E9012118F805009047206A8C
:10086000401C2062281EA5F10105F3DC2046FFF79D
:10087000B5FD2078000602D50220BDE8F0870120F2
:10088000FBE7000001694A1C02610878704700B567
:100890008FB0CDE901310021059105497944CDE9B9
:1008A000031011466846FFF73BFE0FB000BD000085
:1008B000E5FFFFFF0A6802F8010B0A607047D1E903
:1008C00000239A4202D2531C0B601070704710B57F
:1008D000436913B1AFF3008001E0FFF790FD012001
:1008E00010BD127800F124010A7000224A70012222
:1008F000EDE711684FF0FF32E9E710B5203AC0F09C
:100900000B80B1E81850A0E81850B1E81850A0E8E2
:100910001850203ABFF4F5AF5FEA027C24BFB1E87B
:100920001850A0E8185044BF18C918C0BDE81040BE
:100930005FEA827C24BF51F8043B40F8043B08BFC7
:100940007047D20728BF31F8023B48BF11F8012B8E
:1009500028BF20F8023B48BF00F8012B70477546BE
:1009600000F02CF8AE4605006946534620F007001B
:10097000854618B020B5FFF775FCBDE820404FF064
:1009800000064FF000074FF000084FF0000BAC4698
:10099000ACE8C009ACE8C009ACE8C009ACE8C009E3
:1009A00021F007018D46704710B50446AFF3008073
:1009B0002046BDE81040FFF740BC000000487047EB
:1009C000100000207047000001491820ABBEFEE770
:1009D0002600020045290CD840F27000C2F2000047
:1009E0000021017040F20400C2F2000008210170F1
:1009F000704740F27001C2F200010A7832B9012258
:100A00000A7040F27402C2F2000210600A78032AEF
:100A100017D0022A2ED0012A2BD140F20402C2F2B2
:100A200000021378172B9CBF0133137040F274023D
:100A3000C2F200021368C31AB3F57A6F19D3022306
:100A400023E040F20402C2F20002137840F2740C78
:100A5000092B24BF013B1370C2F2000CDCF80030FC
:100A600041F27072C31A934222BF01220A70CCF87D
:100A70000000704740F27402C2F200021368C31A09
:100A8000B3F5FA6F38BF704703230B7010607047DF
:100A9000FEE7000080B144F24021C0F20F0140F2B5
:100AA0001022B1FBF0F1C2F2000210680139C162FC
:100AB000D16049088163704740F21020C2F2000003
:100AC000006800218163704780B540F28C00C2F25B
:100AD000000000F073F880BD7047000080B54FF44F
:100AE000807000F049F980BD82B043F2005540F2B9
:100AF0000044C0F20C05C4F600040026204608217C
:100B000000F024FA019600BF0198A842F6D201989D
:100B100001300190F8E70000002804BF0120704771
:100B200090F82510022915D10168D0E910C30A6890
:100B300022F001020A600A6822F00E020A6003F045
:100B40001C01012202FA01F1CCF80410002180F806
:100B5000252002E00421C1630121002280F8242025
:100B60000846704780B590F82510022921D1016808
:100B7000D0F838E0D0E910C30A68BEF1000F22F0C7
:100B800001020A600A6822F00E020A6003F01C01EA
:100B90004FF0010202FA01F1CCF804104FF000010D
:100BA00080F8252080F8241001D0F0470021084665
:100BB00080BD0421C1630121084680BDB0B5016834
:100BC000D0E910C4DCF800500B6804F01C0E5A0782
:100BD00013D5042202FA0EF414EA05020DD00A68B5
:100BE000920603D40A6822F004020A60CCF804409A
:100BF000016B00293FD08847B0BD9A0720D502225B
:100C000002FA0EF414EA05021AD00A68920606D413
:100C10000A6822F00A020A60012280F825200422D4
:100C2000C4F2020202F17C03994288BF02F580629D
:100C30001460C16A002280F82420E1B18847B0BD69
:100C40001A0758BFB0BD082202FA0EF22A4012D08D
:100C50000A6822F00E020A60012101FA0EF2CCF8B5
:100C60000420C16380F82510416B0022002980F820
:100C7000242018BF8847B0BD002804BF012070475A
:100C800070B540F2000CC4F2020C02684FF6F83165
:100C90000CF58163CBF6FD719A4238BF01F5806196
:100CA0004CF6CD431144CCF6CC43A1FB03136FF0BB
:100CB00003060CF5806506EA9303D0E9021E046979
:100CC0003CBF0025C4F20205C0E91053022380F89E
:100CD0002530136847F6F075AB4313604EEA010305
:100CE000466923433343D0E90665B1F5804F43EAB3
:100CF0000603066A43EA0503156843EA060343EA66
:100D00000503136016D0D0E910324FF495654168A1
:100D100002F01C020F26634508BFA8255CF80530C9
:100D20009640B3434CF805305CF8053091401943C8
:100D30004CF8051000210122C16380F8252080F8BD
:100D40002410BDE87040084670470000B0B5044666
:100D500000F00AF9054640F20500C2F200000078F2
:100D6000611C18BF044400BF00F0FEF8401BA04205
:100D7000FAD3B0BD7047000080B540F21441C4F210
:100D800001010A68024208BF80BD0860FFF7F2FF58
:100D900080BD00002DE9F04F83B00A68002A00F002
:100DA000CF8040F2004A40F60003C4F2010AC4F6C4
:100DB0000003072700254FF0000C0124984208BFCC
:100DC0000227009701904BE040F20043C4F6000375
:100DD000DDF800E0984208BF4FF0010E0CF00C0760
:100DE0000F23BB4028EA03030EFA07F73B4346F8FC
:100DF0002230DAF808204B6842EA090740F20C4E2C
:100E0000DE0258BF22EA0907CAF80870C4F2010ED0
:100E1000DEF800209E0242EA090758BF22EA0907CD
:100E2000CEF80070DAF804209E0342EA090758BFA2
:100E300022EA0907CAF80470DAF80020DB0342EA64
:100E4000090758BF22EA0907CAF800700A680CF1BE
:100E5000040C32FA04F304F1010405F102056FD029
:100E6000A4F10108012303FA08F312EA0309EDD003
:100E70004E6806F00302A2F1010BBBF1010F19D875
:100E8000D0F808B00327D1F80CE0504607FA05FA6D
:100E90002BEA0A0A0EFA05F747EA0A078246019882
:100EA0008760476827EA0303C6F3001707FA08F7C5
:100EB0003B434360032A1CD0C36803278E68AF40BE
:100EC000BB4306FA05F73B43022AC36011D16FF01A
:100ED000030202EA580202440CF01C070F23D2F866
:100EE00020E003FA07F60B692EEA0606BB403343FF
:100EF0001362026803234F68AB409A4307F0030371
:100F0000AB401A4317F4403F02609FD041F26003A8
:100F1000C4F202031A68AAF57E7642F001021A6052
:100F20001A68B0F1904F02F001020292029A4FEA61
:100F3000980256F822807FF447AF4FF0000E4DE73D
:100F400003B000F000B830BCBDE8C08F426902EACF
:100F50000103914341EA0341816170471823002A4C
:100F600008BF2823C150704740F61810C2F2000095
:100F700000687047002804BF0120704710B5044680
:100F800090F8410028B9002084F84000204600F085
:100F90001BFB242084F8410094E80310E3680268F6
:100FA00021F0706122F00102026001618168012B71
:100FB00021F4004181604FF4044108BF4FF4004127
:100FC00041EA0C0181604168022B21F4006108BFF5
:100FD00001F500614160416804F1100341F00071C6
:100FE00041F400414160C16821F40041C1600ECB71
:100FF000114341EA0321C160D4E9071211430160A2
:10100000016841F00101016000202021606484F842
:101010004110206384F8420010BD00002DE9F04F1C
:1010200083B004460020029094F84100202807D1A4
:1010300020688069000403D494F84000012803D19B
:10104000022003B000F07CB8012084F84000242086
:101050008A4684F8410048F208001D4690464FF049
:10106000000960F39F2A5F1C4FF0100BC4F84490F6
:1010700011E000BFC1F81CB02046202100222B4601
:10108000009601F0BBFF00283DD00298013002908D
:10109000029840453BD2E06821680128504618BFBD
:1010A00040F400604860FFF75FFF216806468A69E8
:1010B0008B691B0943EA5212D2071BD08869C0060C
:1010C000D8D42046202100222B46009601F096FF1E
:1010D00058B3606C0428D8D120682021C161C4F8BD
:1010E0004490D2E7216888698A69120942EA50105F
:1010F000C007E3D1002FF5D0FFF736FF3DB1801BCD
:10110000A842EFD903E020682021C161BDE720207B
:1011100084F84100606C40F020006064002084F896
:101120004000012003B000F00BB820682021C1610D
:10113000002084F8411084F8400003B000F000B8AB
:1011400030BCBDE8C08F00002DE9F04381B00446FB
:1011500090F84100202805D194F84000012803D1DF
:10116000022514E0022512E001251E461746884696
:1011700084F84050FFF7F8FE814620464FF40041C6
:1011800001221923CDF8009001F038FF18B128464C
:1011900001B0BDE8F083212084F84100102084F8DC
:1011A000420000206064676266856063608DFF288E
:1011B00003D94FF08073FF2002E0608D4FF0007381
:1011C000208548B117F8011B226891626762618D22
:1011D00001396185411E218542F20006089FC8F24F
:1011E0000006C2B220464146009601F0EFFE608D37
:1011F000C8B30025FF260BE0608D41462085C2B2B2
:1012000020464FF00073009501F0E0FE608D50B372
:10121000204639464A4601F071FF60BB606A21688A
:1012200010F8012B8A626062608D01386085208D24
:10123000411E2185608D0904E8D10028E6D02046B2
:10124000802100223B46CDF8009001F0D7FE30BB54
:10125000608DB0F5807FCFD3268520464146FF22A2
:101260004FF08073CFE7204639464A4601F014FF1D
:1012700018B101258BE7012589E720682021C1618C
:1012800042684EF60003CFF600631A400025426024
:1012900084F8411084F8425084F8405077E70125E3
:1012A00075E700002DE9F04F83B0044690F8410047
:1012B00020280FD1DDF830B0BBF1000F0CD0DDF8E5
:1012C0003480B8F1000F07D094F84000012808D10D
:1012D000022535E0022533E04FF4007060640125FB
:1012E0002EE001251F4616468A4684F84050FFF737
:1012F0003BFE814620464FF4004101221923CDF8E0
:10130000009001F07BFED8B90E99222084F84100AC
:101310004020002584F842006564C4F824B0A4F895
:101320002A808846656300912046514632463B46F6
:10133000CDF8049001F0D8FD30B184F8405001257B
:10134000284603B000F077B8608D42F20047B0F550
:10135000807FC8F2000707D3012020852046514630
:1013600001224FF0807306E0608D51462085C2B2A5
:1013700020464FF00073009701F028FE0027012659
:101380000BE0608D51462085C2B220464FF00073BD
:10139000009701F01BFE608D88B3204604210022D7
:1013A0004346CDF8009001F029FE30BB2068616A09
:1013B000406A0870606A218D0130013960622185C0
:1013C000608D0904A0F101006085608DE3D10028E3
:1013D000E1D02046802100224346CDF8009001F064
:1013E0000DFEA0B9608DB0F5807FCAD3268520465A
:1013F000514601224FF08073CAE70125A0E720463D
:1014000041464A4601F048FE18B1012598E70125FA
:1014100096E720682021C16142684EF60003CFF6AE
:1014200000631A400025426084F8411084F842505D
:1014300084F8405084E730BCBDE8C08F2DE9F04F00
:1014400083B0044690F8410020280FD1DDF830B079
:10145000BBF1000F0CD0DDF83480B8F1000F07D0DD
:1014600094F84000012808D1022535E0022533E038
:101470004FF40070606401252EE001251F461646DA
:101480008A4684F84050FFF76FFD814620464FF4AE
:10149000004101221923CDF8009001F0AFFDD8B929
:1014A0000E99212084F841004020002584F8420054
:1014B0006564C4F824B0A4F82A8088466563009166
:1014C0002046514632463B46CDF8049001F044FD9B
:1014D00030B184F840500125284603B000F070B8C0
:1014E000608DB0F5807F08D3FF202085002720463F
:1014F0005146FF224FF0807307E0608D0027208562
:10150000C2B2204651464FF00073009701F05EFDD5
:101510000027FF260BE0608D51462085C2B2204691
:101520004FF00073009701F051FD608D60B32046CD
:1015300041464A4601F0E2FD20BB606A216810F88E
:10154000012B8A626062608D01386085208D411EAA
:101550002185608D0904E8D10028E6D0204680214D
:1015600000224346CDF8009001F048FDA0B9608DFF
:10157000B0F5807FCFD3268520465146FF224FF01D
:101580008073CFE70125A7E7204641464A4601F090
:1015900083FD18B101259FE701259DE720682021E3
:1015A000C16142684EF60003CFF600631A40002581
:1015B000426084F8411084F8425084F840508BE730
:1015C00030BCBDE8C08F00002DE9F0439BB004465D
:1015D000002501A854211A95CDE91855CDE91655D5
:1015E000FFF7CCF8206845F60041C4F200018842BC
:1015F00054D045F20041C4F20001884240F0998085
:1016000040200190002601A80C9600F069F90028FE
:1016100018BFFFF769FA41F24C05C4F202052868C9
:10162000032740F001002860286816A900F0010097
:10163000009000984FF4C06016901220179001207F
:10164000189004201A904FF090401997FFF7A2FBD2
:10165000E868802140F40010E860E86840F28C05FA
:1016600000F40010009000988020C2F20005C4F23F
:101670000200C5E900072846C5E90266C5E9041667
:10168000C5E906662E62FFF7F7FA002818BFFFF7D4
:101690002BFAE563AC621BB0BDE8F0834FF48070B9
:1016A000019001A80D9500F01BF9002818BFFFF765
:1016B0001BFA41F24C05C4F20205286816AC40F052
:1016C0000100286028684FF0120800F00100009027
:1016D000009828684FF0000940F002002860286850
:1016E000032600F002000090009880201690042746
:1016F0004FF090402146CDF85C80CDF8609019966F
:101700001A97FFF747FB102016A981E8010340F262
:101710000040C4F600002146CDE91967FFF73AFB07
:10172000E86840F40000E860E86800F40000009019
:1017300000981BB0BDE8F08340F2050040F6181198
:10174000C2F20000C2F2000100780A68104408608A
:101750007047000080B5032000F066F8002000F01C
:1017600009F800281CBF012080BD00F02FF80020E0
:1017700080BD0000B0B540F20501C2F20001097859
:1017800001B3044640F20000C2F200004FF47A7246
:101790000068B2FBF1F1B0FBF1F000F031FE0F2C6C
:1017A0004FF001050CD858B94FF0FF302146002208
:1017B000002500F029F840F20800C2F200000460A1
:1017C0002846B0BD01252846B0BD000082B041F2D8
:1017D0005800C4F20200816841F001018160816813
:1017E00001F0010101910199016841F0805101600E
:1017F000006800F080500090009802B07047000030
:1018000080B502F0FBFC80BD70B514460D4606465F
:1018100002F004FD2946224601F008FF0146304649
:1018200002F004FD70BD000080B502F011FD80BD26
:1018300047F20001C4F200010A68B0F5007F02F42B
:10184000C06026D1B0F5007F21D00868012262F384
:101850004A20086040F20000C2F200000068322313
:1018600058434DF68363C4F21B33A0FB030302EB22
:10187000934000BF4B69421E824203D213F4806042
:101880001046F7D14869400544BF03207047002047
:101890007047B0F5806FFAD00868022262F34A20E0
:1018A000086000207047000047F20000C4F200000A
:1018B000006800F4C060704747F20000C4F2000006
:1018C000016841F4807101607047000041F200003E
:1018D000C4F20200016841F0040101607047000099
:1018E0002DE9F04782B00446407841F288070007AE
:1018F000C4F2020702D44FF0000A2EE0E06B88B178
:10190000B0F5400F17D0B0F5000F1BD157F87C0C85
:101910004FF0000A40F4803047F87C0CBAF1000F19
:101920000ED114E0201D002101F098FE8246BAF18C
:10193000000F05D10BE04FF0000ABAF1000F06D0FE
:10194000D0460CE04FF0010ABAF1000FF8D1386828
:10195000E16B20F44000084338604FF00008A078A5
:10196000800701D4C24664E057F8300C10F080596B
:101970000BD157F8300C40F0805047F8300C57F836
:10198000300C00F080500190019847F20005C4F23D
:101990000005286840F480702860FFF7E5FA0646E5
:1019A0002868C00506D4FFF7DFFA801B0328F7D3A9
:1019B0004FF0030ABAF1000F32D1B86810F440704A
:1019C00011D0216D88420BD0B868B96820F44070FE
:1019D00041F48031B960B96821F48031B960B860F0
:1019E000C00703D112E00020C0070FD0FFF7BCFAF8
:1019F000064641F2893500BFB868800706D4FFF774
:101A0000B3FA801BA842F7D34FF0030ABAF1000FD4
:101A100006D1B868216D20F440700843C246B86012
:101A2000B9F1000F05D157F8300C20F0805047F87D
:101A3000300C2068C1070ED1810714D481061AD456
:101A4000810520D4410526D441062CD4C10532D4C9
:101A5000800438D451E03968226A21F0030111432F
:101A600039608107EAD53968626A21F00C011143B7
:101A700039608106E4D53968A26A21F440611143D6
:101A800039608105DED53968626B21F4402111434C
:101A900039604105D8D53968A26B21F44011114352
:101AA00039604106D2D53968E26A21F440511143C8
:101AB0003960C105CCD53968226B21F4403111431E
:101AC0003960800419D53968206C21F040610143E8
:101AD000B0F1806F396009D0B0F1006F0DD157F8C7
:101AE0007C0C40F4801047F87C0C06E0201D01219E
:101AF00001F0B4FD002818BF8246A078400719D530
:101B00003968606C21F040610143B0F1806F396049
:101B100009D0B0F1006F0DD157F87C0C40F4801063
:101B200047F87C0C06E0201D012101F097FD0028FC
:101B300018BF8246607840060FD53868A16C20F047
:101B400040500843B1F1805F386006D1201D02216A
:101B500001F084FD002818BF82466078000605D594
:101B60003868E16C20F0804008433860504602B08D
:101B7000BDE8F0872DE9F04381B0002800F09180A6
:101B800042F20008C4F202080446D8F800000D46EC
:101B900000F0070088420CD2D8F8000020F00700BF
:101BA0002843C8F80000D8F8000000F00700A84259
:101BB00077D1206841F208098107C4F202090DD5E6
:101BC000A168D9F8002002F0F002914206D9D9F8B4
:101BD000002022F0F0021143C9F80010C00756D1CE
:101BE000206881070DD5A168D9F8002002F0F00225
:101BF000914206D2D9F8002022F0F0021143C9F830
:101C00000010D8F8001001F00701A9420CD9D8F84B
:101C1000001021F007012943C8F80010D8F800107F
:101C200001F00701A9423CD1410707D5D9F80010BE
:101C3000E26821F4E0611143C9F80010000708D5FB
:101C4000D9F80000216920F4605040EAC100C9F8C9
:101C5000000000F085F8D9F8001046F2A942C1F35F
:101C60000311C0F60002515C40F2000201F01F01B6
:101C700020FA01F140F20800C2F200000068C2F24E
:101C800000021160FFF776FD01B0BDE8F0836068E7
:101C900058B102282CD003282FD159F8081C8901EB
:101CA00007D4012001B0BDE8F08359F8081C89076A
:101CB000F7D5D9F8001021F003010843C9F8000056
:101CC000FFF752F9064641F2883700BFD9F8000005
:101CD000616800F00C00B0EB810F3FF481AFFFF7BB
:101CE00043F9801BB842F1D9032001B0BDE8F0836D
:101CF00059F8081C8903D4D5DBE759F8081C4905B5
:101D0000CFD5D6E740F20000C2F20000006870476D
:101D100080B5FFF7F7FF41F20801C4F2020109683C
:101D200046F2B942C1F30221C0F60002515C01F053
:101D30001F01C84080BD000080B5FFF7E3FF41F2FE
:101D40000801C4F20201096846F2B942C1F3C22196
:101D5000C0F60002515C01F01F01C84080BD0000C8
:101D600041F20C01C4F2020151F8040C10F00C0213
:101D7000086805D00C2A40D100F0030001283CD1AE
:101D800051F80C0C000703D4D1F88800000A02E0D7
:101D900051F80C0C000946F2C44300F00F00C0F6E5
:101DA000000353F82030002A184618BF00200C2AE0
:101DB00018BF7047086800F00300022806D0032807
:101DC00004BF41F20023C0F27A0303E042F2004371
:101DD000C0F2F40308680A68C0F30210C2F30622D6
:101DE000096801305A43B2FBF0F0C1F341610222AD
:101DF00002EB4101B0FBF1F07047042A07D0082A3A
:101E00000BD141F200200023C0F27A00CFE742F26A
:101E100000400023C0F2F400C9E700200023C6E719
:101E20002DE9F04381B0002800F0428241F2000623
:101E30000446C4F20206B068F168227800F00C088B
:101E4000D00601F003071CD42078C00700F0ED8015
:101E5000B8F1080F43D0B8F10C0F08BF032F3ED0E4
:101E60006568B5F5A02F00F0BB80B5F5803F00F0A8
:101E7000BB80306820F480303060306820F48020EF
:101E8000B5E0B8F1000F1BD0B8F10C0F08BF012F5F
:101E900016D0A1693068002978D040F00100306088
:101EA000FFF762F8054600BF3068800700F18080C8
:101EB000FFF75AF8401B02284FF00300F4D954E210
:101EC0003068800703D5A069002800F0F181206AFE
:101ED000316809070CD4D6F89410090909E0306874
:101EE000800340F1A2806068002840F09E80DFE11E
:101EF000316801F0F001884216D901F073FC002826
:101F000040F0D681306840F0080030603068D4E995
:101F1000072120F0F00008433060706820F47F4013
:101F200040EA0220706013E03168B8F1000F41F020
:101F300008013160316821F0F00141EA00013160AF
:101F40007168E26921F47F4141EA0221716041D068
:101F5000FFF706FFB16846F2A942C1F30311C0F6CC
:101F60000002515C40F2000201F01F0120FA01F171
:101F700040F20800C2F200000068C2F200021160E4
:101F8000FFF7F8FB002840F0F0815DE720F001004A
:101F90003060FEF7E9FF0546306880077FF554AFF3
:101FA000FEF7E2FF401B02284FF00300F4D9DCE10A
:101FB000306840F0080030603068D4E9072120F034
:101FC000F00008433060706820F47F4040EA02204F
:101FD000706039E701F006FC002840F06981B7E73E
:101FE000306840F480203060306840F480303060E9
:101FF000FEF7BAFF002D054614D000BF30688003FD
:1020000013D4FEF7B1FF401B64284FF00300F5D94D
:10201000ABE100BFFEF7A8FF401B64284FF00300B0
:1020200000F2A38130688003F4D4207880072CD597
:10203000B8F1040F1BD0B8F10C0F08BF022F16D057
:10204000E1683068002900F07F8140F480703060E2
:10205000FEF78AFF054600BF306840050ED4FEF744
:1020600083FF401B02284FF00300F5D97DE1306863
:10207000400503D5E068002800F01A8170682169E6
:1020800020F0F85040EA016070602078000760D4CA
:102090002078400777D42078800600F1AC80A06AD1
:1020A000002800F06C81022840F0D380F068E16ADB
:1020B00000F003028A4240F0E380226B6FF00F03CE
:1020C00000F0700103EB0212914240F0D980616B85
:1020D00000F4FE42B2EB012F40F0D280A16B00F081
:1020E0007842B2EBC16F40F0CB80E26B0023CFF6B9
:1020F000E07303EB025200F4C0016FF3140291424B
:1021000040F0BE80216C4FF07E4202EB016100F096
:10211000C06001F07E41884240F0B28030688001AA
:1021200000F12D81306840F080703060F06840F040
:102130008070F060FEF718FF04463068800100F1FF
:102140001E81FEF711FF001B02284FF00300F4D997
:102150000BE16169D6F89400002966D040F00100D7
:10216000C6F89400FEF700FF054600BFD6F89400BD
:1021700080078DD4FEF7F8FE401B0228F6D9032015
:1021800001B0BDE8F083B06D10F0805908D1B06D9A
:1021900040F08050B065B06D00F080500090009825
:1021A00047F20007C4F200073868C00511D4386848
:1021B00040F480703860FEF7D7FE05463868C005E9
:1021C00007D4FEF7D1FE401B02284FF00300F5D9DB
:1021D000CBE0A568052D00F08480012D00F08780FC
:1021E000D6F8900020F00100C6F89000D6F89000D4
:1021F00020F004007FE0616AD6F8980000295BD0E7
:1022000040F00100C6F89800FEF7AEFE054600BF9C
:10221000D6F8980080073FF542AFFEF7A5FE401BB9
:1022200002284FF00300F3D99FE020F00100C6F828
:102230009400FEF799FE0546D6F8940080077FF5D6
:1022400027AFFEF791FE401B02284FF00300F3D9A1
:102250008BE0B8F10C0F2BD0306820F0807030602C
:10226000FEF782FE044600BF3068800140F18080A6
:10227000FEF77AFE001B02284FF00300F4D974E049
:10228000B8F10C0F14D03068400111D4306820F040
:1022900080703060FEF768FE05463068800172D5B8
:1022A000FEF762FE401B02284FF00300F5D95CE008
:1022B000012001B0BDE8F08320F00100C6F89800CD
:1022C000FEF752FE054600BFD6F8980080077FF55E
:1022D000E6AEFEF749FE401B02284FF00300F3D99B
:1022E00043E0D6F8900040F00400C6F89000D6F81D
:1022F000900040F00100C6F89000FEF735FE002D7A
:10230000054641F2883712D0D6F89000800712D4E3
:10231000FEF72AFE401BB8424FF00300F4D924E038
:10232000FEF722FE401BB8424FF003001DD8D6F83E
:1023300090008007F4D4B9F1000F7FF4ACAEB06D1B
:1023400020F08050B065A6E620F480703060FEF783
:102350000BFE0546306840057FF597AEFEF704FE9C
:10236000401B02284FF00300F4D901B0BDE8F08310
:10237000F0684FF6FC71CFF6EE610840F060002087
:1023800001B0BDE8F083F06848F28C01C0F29D1105
:1023900004F12C0700EA010C8ECF6FF00F00D4E996
:1023A0000F5400EB02100022CFF6E07241EA0C015C
:1023B00002EB055208436FF314024FF07E4540EAEA
:1023C000032005EB0465104305F07E4540EAC76035
:1023D0002843F060306840F080703060F06840F072
:1023E0008070F060FEF7C0FD044630688001C6D4FE
:1023F000FEF7BAFD001B02284FF00300F5D9B4E741
:1024000080B501F039FA80BD002804BF0120704773
:1024100010B5044690F83D0028B9002084F83C002F
:10242000204600F023F8022084F83D002068211D9A
:1024300001F08CFA012084F8480084F83E0084F80A
:102440003F0084F8400084F8410084F8420084F89A
:10245000430084F8440084F8450084F8460084F87A
:10246000470084F83D00002010BD000081B00068E6
:10247000B0F1804F01D001B0704741F25800C4F272
:102480000200016841F001010160006800F00100F4
:102490000090009801B0704790F83D1001291CBFD2
:1024A00001207047022180F83D100168B1F1804F92
:1024B0000BD044F20000C4F20100814205D042F684
:1024C0000040C4F20100814212D188680722C0F2A4
:1024D00001020240062A4FF000000ED0B2F5803F04
:1024E00008BF7047086840F001000860002070478E
:1024F000086840F00100086000207047B0B504464D
:1025000090F83C00012804BF0220B0BD0D464FEA00
:10251000B2010120052984F83C0048D8DFE801F029
:10252000030B131B23332068294601F069FA206846
:1025300050F8181F1EE02068294601F0A7FA20680D
:1025400050F8181F26E02068294601F0E5FA2068B7
:1025500050F81C1F0EE02068294601F023FB20687C
:1025600050F81C1F16E02068294601F04FFB206838
:1025700050F8541F41F008010160016821F0040186
:10258000016029690FE02068294601F073FB20688B
:1025900050F8541F41F400610160016821F480612A
:1025A00001602969090202681143016000200021CD
:1025B00084F83C10B0BD0000002804BF0120704723
:1025C00010B5044690F83D0028B9002084F83C007E
:1025D000204600F023F8022084F83D002068211DE9
:1025E00001F0B4F9012084F8480084F83E0084F832
:1025F0003F0084F8400084F8410084F8420084F8E9
:10260000430084F8440084F8450084F8460084F8C8
:10261000470084F83D00002010BD00007047000016
:1026200010B5044659B1081F4FEAB000032809D875
:10263000DFE800F0020B0E1104F13F000DE004F1A1
:102640003E000AE004F1430007E004F1400004E02A
:1026500004F1410001E004F14200007801281CBFB0
:10266000012010BD61B1081F4FEAB00003280BD84C
:10267000DFE800F0020E1216022084F83F0012E09C
:10268000022084F83E000EE0022084F843000AE0B5
:10269000022084F8400006E0022084F8410002E0B5
:1026A000022084F842002068012201F097F9216895
:1026B00043F6FF70C4F20100814205DCB1F1804FA6
:1026C00021D042F6004007E044F20040C4F201008D
:1026D000814205D044F20000C4F20100814225D1BC
:1026E000486CB1F1804F40F4004048640BD044F294
:1026F0000000C4F20100814205D042F60040C4F25D
:102700000100814212D188680722C0F20102024012
:10271000062A4FF000000ED0B2F5803F08BF10BD72
:10272000086840F001000860002010BD086840F013
:1027300001000860002010BD7047000070470000D5
:1027400070470000B0B50446006840F62F03C16929
:10275000026885680B40202B02F0200E07D1BEF1E5
:10276000000F04D0A16E99B320468847B0BD40F653
:102770000F03194213D040F22013C0F2004305F0BA
:10278000010C134013EB0C0309D0CB0718BF12F454
:10279000807340F0A7808B0700F1AE80B7E0D4F8DB
:1027A00060C00A40D3063CD5BCF1010F39D11021DD
:1027B00001628068400640D4B4F85800B4F85A105A
:1027C000B4F85A20002A1CBF401A5FEA004101D128
:1027D000B0BD00BF216851E8001F226821F490714C
:1027E00042E80013002BF5D1216851E8021F22684E
:1027F00021F0010142E80213002BF5D12021C4F899
:10280000801000212166A166216851E8001F22681E
:1028100021F0100142E80013002BF5D1022161667E
:1028200054E0C90254D515F4800151D04FF4801101
:1028300001622046FFF782FFB0BD606F006841680B
:102840008AB2002A00F0C480B4F858309A4280F06E
:10285000BF80A4F85A100068800630D4206850E881
:10286000000F216820F4807041E80002002AF5D1B1
:10287000206850E8020F216820F0010041E80202C0
:10288000002AF5D1206850E8020F216820F04000AE
:1028900041E80202002AF5D12020C4F8800000207F
:1028A000206600BF206850E8000F216820F010006B
:1028B00041E80002002AF5D1606FFEF72DF90220F1
:1028C0006066B4F85800B4F85A10401A81B28AE031
:1028D000100600F19780500658BFB0BD204601F0A9
:1028E000FFFAB0BD01230362D4F8843043F0010342
:1028F000C4F884308B070AD5BCF1000F07D002233F
:102900000362D4F8843043F00403C4F884304B07E6
:102910000AD5BCF1000F07D004230362D4F8843039
:1029200043F00203C4F884300B070AD55CEA0E03B7
:1029300007D008230362D4F8843043F00803C4F8B6
:1029400084300B050BD512F0806308D04FF4006380
:102950000362D4F8840040F02000C4F88400D4F866
:10296000840000283FF434AF02EA0100800603D55A
:10297000A16E09B1204688472068D4F88410806889
:1029800001F0280100F04000401834D0204601F04A
:102990007DFA20688068400629D500BF206850E88D
:1029A000020F216820F0400041E80202002AF5D120
:1029B000606FE0B143F68161C0F600018163FEF70C
:1029C000D1F800283FF404AF606F816B8847B0BD39
:1029D000B4F8581091427FF4FBAE006880067FF592
:1029E000F7AE022060662046FFF7A6FEB0BD204687
:1029F000FFF7A6FEB0BD2046FFF7A2FE0020C4F8F8
:102A00008400B0BDE16E00297FF4AEAEE0E60000C8
:102A100010B5C8B10446C06F28B9002084F878000A
:102A2000204600F025F82420E0672068616A0268EB
:102A300022F00102026011B1204601F04FF9204658
:102A400001F062FA012801D1012010BD206841681F
:102A500021F490414160816821F02A018160016880
:102A600041F001010160204601F0ACF910BD000009
:102A7000B0B59CB00446002502A854211B95CDE9B1
:102A80001955CDE91755FDF779FE206844F200414C
:102A9000C4F20001884201D01CB0B0BD022402A8DB
:102AA00002940B95FEF71CFF002818BFFEF71CF8D8
:102AB00041F24C00C4F20200C168072541F4003124
:102AC000C160C16801F4003101910199016841F0D0
:102AD00001010160006800F00100019001980420EC
:102AE000CDE9170400201990032017AC1A904FF07D
:102AF000904021461B95FEF74DF94FF4004017908A
:102B00004FF0904021461B95FEF744F92620002106
:102B10000022FEF779FE2620FEF772FE1CB0B0BD43
:102B20002DE9F04182B00446C06F202852D10E46F4
:102B300000294FF001004AD01746002A47D04FF035
:102B4000000821201D46C4F88480E067FEF70CFAD7
:102B5000A4F85070A4F85270A1680746B1F5805FE0
:102B600025D12069002814BF3046B04606461EE035
:102B70002046802100223B46009501F0D3FA68BB35
:102B800026B116F8010B2168886206E038F8020BBE
:102B900021686FF35F2088620026E06F00F021005B
:102BA000212821D1B4F852000138A4F85200B4F819
:102BB00052000028DCD12046402100223B460095EF
:102BC00001F0B0FA2021E167002818BF032002B00D
:102BD000BDE8F081022002B0BDE8F0812020E0676E
:102BE000032002B0BDE8F081012002B0BDE8F08111
:102BF000704700002DE9F04381B08046007D002839
:102C000000F08E8098F89060D8F80C001E2E3546A3
:102C100028BF1E2528B14EF66021B1FBF0F088F8E0
:102C20000000C5B108F1140100202A4651F8043F04
:102C3000013A1844FAD18DB1B0FBF5F108F1140254
:102C400000202B4652F8044F013BA4EB010404FB87
:102C50000400F7D103E00020002DEDD10020B0FBEF
:102C6000F5F001F0CBFC48F6890CC8F6880CA6FB01
:102C70000C231A091201A2EB1312A6EB42091E2E15
:102C800038BF4FF00009022DC8F808002BD3A5F17A
:102C9000010E002408F11805002300204C44A4FB79
:102CA0000C71671CA7FB0C620E093601A6EB111113
:102CB000A4EB410114092401A4EB1212A7EB420278
:102CC00055F8222055F821100133511A01FB01005B
:102CD000DCB2A645E2DC190609D0D9B2B0FBF1F0AE
:102CE00001F08CFC04E0002000231906F5D100203F
:102CF0004F28C8F8040001D900210FE00B284FF03D
:102D000064010BD34843A0F57A704AF2EB02400805
:102D1000CEF60E22A0FB0202A1EB521188F80110A0
:102D200001B0BDE8F083000070B5044600690D46AF
:102D300080B3281AA0F5C02146F6E752A1F5D45178
:102D4000C0F21802914225D844F6D351C1F2620173
:102D5000A0FB01018E092046314601F017FCC8B1E5
:102D600094F8900048F68901C8F68801A0FB01128A
:102D700011090901A1EB1211A0EB410104EB810142
:102D800001308E61C1B2E660022984F8900024BF50
:102D900001202075256170BDFEE700000068816993
:102DA000890744BF002181628169C90718BF704744
:102DB000816941F001018161704700002DE9F04314
:102DC00081B00446006816468369DA0602D40026FC
:102DD00000254CE00D461021C161206881698906FB
:102DE00037D4002705F101094FF0000806E000BFC5
:102DF0002068816901F0200139432ED1B9F1000F1B
:102E0000F6D0FEF7B1F815B1801BA842F0D92068C2
:102E1000426894F842308169202B0DD012F4804230
:102E20000AD111F4004107D0416841F4804141606A
:102E3000FEF79AF8064600BF206880698006D7D45E
:102E4000FEF792F8801B1A28F6D348F020080127D5
:102E5000CEE701214FF0000802E0B7FA87F14909F7
:102E600048F00406012500291CBF2021C16120680B
:102E70008169CA051ED44A0524D489052AD4ADB176
:102E80002046FFF78BFF20684EF600024168CFF620
:102E9000006211404160606C30436064202084F81F
:102EA0004100002084F8420084F84000284601B028
:102EB000BDE8F08346F001064FF480720125C2613F
:102EC0004A05DAD546F008064FF480620125C26152
:102ED0008905D4D546F002064FF400710125C16181
:102EE000002DCDD1E2E700002DE9F04381B042F2A0
:102EF00000051C461746DDE90898C8F20005DAB25D
:102F000000230646009500F061F8304649464246E7
:102F100000F0F4F818B1012001B0BDE8F083012CF5
:102F200009D03068390A816230464946424600F08D
:102F3000E5F80028EFD13068F9B2816230464021CF
:102F400000224B46CDF8008000F058F8002818BF4A
:102F5000012001B0BDE8F0832DE9F04381B042F2D9
:102F600000051C461746DDE90898C8F20005DAB2EC
:102F70004FF080730646009500F028F83046494629
:102F8000424600F0BBF818B1012001B0BDE8F08363
:102F9000012C09D03068390A8162304649464246E0
:102FA00000F0ACF80028EFD13068F9B28162304609
:102FB000802100224B46CDF8008000F01FF8002849
:102FC00018BF012001B0BDE8F08300006FF39F211E
:102FD00000681943DDF800C041EA0241426849F641
:102FE000004341EA0C0122EA5C52CFF6004321F093
:102FF00000411A4011434160704700002DE9F04341
:1030000081B00446006880690840401AB0FA80F038
:10301000400990422CD1DDF8208015460E461F460F
:1030200003F1010912E000BF206880693040801B75
:10303000B0FA80F04009A8421ED020688069304074
:10304000801BB0FA80F04009A84211D120463946D1
:103050004246FFF7B3FED8B9B9F1000FEDD0FDF746
:1030600083FF002FE0D0A0EB0800B842E5D9DBE7F2
:10307000002001B0BDE8F083606C40F02000606487
:10308000202084F84100002084F8420084F84000A9
:10309000012001B0BDE8F08370B504460068806986
:1030A000800619D415460E4608E000BF20688069E6
:1030B000800615D52068806980060DD420463146EB
:1030C0002A46FFF77BFE48B9FDF74EFF002EEDD0F4
:1030D000401BB042EED9E9E7002070BD012070BD71
:1030E000606C40F020006064202084F841000020E3
:1030F00084F8420084F84000012070BDF0B581B032
:1031000004460068806980071CD415460E464F1C93
:1031100008E000BF20688069800716D520688069B4
:1031200080070FD4204631462A46FFF747FEC0B934
:10313000002FF3D0FDF718FF002EEBD0401BB0425C
:10314000ECD9E7E7002001B0F0BD606C40F0200052
:103150006064202084F84100002084F8420084F854
:103160004000012001B0F0BDB0B582B0092140227D
:10317000044602F023F8054600284AD14FF4967021
:10318000FDF7E4FD204608211F2202F017F805464E
:1031900000283ED120460921032202F00FF80546FF
:1031A000B8BB20460A21272202F008F8054680BB5A
:1031B00020460C21242202F001F8054648BB204697
:1031C0000D21242201F0FAFF054610BB2046022102
:1031D000802201F0F3FF0546D8B9204604210022E1
:1031E00001F0ECFF0546A0B920460621002201F0BF
:1031F000E5FF054668B920460521002201F0DEFF03
:10320000054630B90DF1070220460021002501F0E6
:10321000C5FF284602B0B0BDF0B587B015460E46D2
:103220000DF11B020421044601F0B8FF08B101278B
:103230003FE00DF11A022046062101F0AFFF08B170
:10324000012736E09DF81B009DF81A10884201D135
:1032500001272EE03220062105AACDE900210290A7
:103260002046AE21072201230127FEF71BF800BBF1
:103270009DF814009DF8151000F003009DF816202D
:1032800000049DF8173040EA01201044306003F03C
:1032900003009DF8181000049DF8192040EA012051
:1032A000104428600DF1130220460021002701F090
:1032B00075FF384607B0F0BD10B582B00446002057
:1032C0008DF807008DF806000DF107022046042155
:1032D00001F064FF0DF106022046062101F05EFFB9
:1032E0009DF807009DF80610401A203000EBD061D1
:1032F00001F0E001401AC0B202B010BD80B582B04A
:1033000041F24800C4F202000168002241F00101CC
:1033100001600068002100F0010001900198112077
:10332000FEF772FA1120FEF76BFA02B080BD0000C2
:10333000F0B587B000200690CDE90400CDE9020089
:1033400041F24C00C4F20200016840F2004441F036
:10335000010101600168C4F6000401F0010101915E
:1033600001990168002241F0020101600068082112
:1033700000F002000190019820460826FDF7EEFDBE
:103380004FF4807002904FF4041002AD03900127B7
:103390004FF0904029460497FDF7FCFC2046294653
:1033A000CDE90267FDF7F6FC172000210022FEF7A9
:1033B0002BFA1720FEF724FA07B0F0BD80B540F2D3
:1033C000D40045F2004141F62022C2F20000C4F2CE
:1033D0000001CCF22002C0E900120121C160FDF71A
:1033E000C9FD002808BF80BDFDF77EFB80B540F217
:1033F000281045F6004149F6E442C2F20000C4F24A
:103400000001C1F2D102C0E900120121C160FDF743
:10341000B1FD002808BF80BDFDF766FBB0B58CB0DC
:1034200041F26000C4F20200016840F2102441F44D
:10343000006101600068C2F2000400F400600590C1
:10344000059842F60040C4F2010000254F2140F2E9
:10345000E73284E8230020460B95CDE90955CDE9F4
:103460000755CDE90555C4E903256561FFF7A4F8C3
:103470006020CDE9050505A9204604220795099598
:10348000FFF73CF84FF40070CDE9025500900220A0
:1034900001900120049069464FF09040FDF77AFCBE
:1034A00020460421FFF7BCF80CB0B0BD80B540F257
:1034B0005C20C2F200004FF080414F2200234FF009
:1034C000FF3C80E80E10FEF79FFF002808BF80BD7C
:1034D000FDF70AFB80B540F2A82044F20041C2F299
:1034E0000000C4F2000100234FF00C0C4FF4E13255
:1034F00080E80E00C0E90333C0F814C0FFF788FA73
:10350000002808BF80BDFDF7EFFA000040F2393017
:10351000C2F200000121017040F23A30C2F2000014
:103520000021017040F23B30C2F200000170704790
:1035300080B540F23930C2F200000021017040F243
:103540003B30C2F2000001700020FDF7A3FA80BDFD
:1035500070B540F23931C2F200010978012960D119
:1035600040F23B35C2F2000504462878022837D0E5
:10357000012818D0002854D140F23A30C2F200009D
:10358000007846F2F44100EB4000C0F6000151F82B
:103590002000FDF77FFA40F23C30C2F200000460E8
:1035A0000120287070BD40F23A30C2F2000000786D
:1035B00040F23C3646F2F442C2F2000600EB400014
:1035C000C0F60002316802EB80004068611A814257
:1035D00027D30020FDF75EFA02203460287070BD0A
:1035E00040F23A30C2F20000017846F2F44301EBB7
:1035F0004102C0F6000303EB820240F23C33C2F208
:1036000000031B689268E31A934238BF70BD013112
:10361000CAB2082A017002D3FFF78AFF70BD0020EA
:10362000287070BDFEE70000FEE7000000F0070014
:1036300080F00703042B28BF04234FF0FF3C03381E
:103640000CFA03F338BF0020994381400CFA00F0D4
:1036500022EA000008437047704700002DE9F0415E
:1036600041F20004C4F20204E2680E46910780466B
:1036700013D0E168D8F8000001F0030181420AD1BB
:1036800048B1E068D8F80410C0F302100130884255
:1036900001D100253AE0012538E0D8F800000328E0
:1036A0000DD0022819D0012821D12168012301F071
:1036B0000202C1F3400183EA5205D9B926E021682C
:1036C00089034FF0010145D4226802F4802381EA86
:1036D0009345C2F3804169B918E02168012301F4E0
:1036E0008062C1F3802183EA922519B90EE0012599
:1036F000002159B1E168D8F8042021F073016FF07E
:103700000F0303EB021208431043E06015B1284693
:10371000BDE8F081206820F080602060FDF724FC87
:10372000074600BF2068000105D5FDF71DFCC01B42
:103730000328F7D30325002DE9D1012E0ED00EBBAF
:10374000206948F2FF01C0F2FF710140D8E9022070
:10375000C00627E000250029CCD1D7E748F2FF01B9
:103760002069CFF6FF1101F1B4610140D8F81000D3
:103770000023CFF6E073D8F8082003EB00506FF376
:1037800014000FE0206948F2FF01CFF6FF1101405D
:10379000D8F814004FF07E43D8F8082003EB0060FF
:1037A00000F07E4041EA022108432061206840F099
:1037B00080602060FDF7D8FB064600BF206800014E
:1037C00005D4FDF7D1FB801B0328F7D30325002D7B
:1037D0009DD1D8F818002169084320612846BDE82A
:1037E000F0810000B0B582B041F25805C4F2020584
:1037F00029680446C90015D4286840F08050286024
:10380000286800F0805001900198FEF74DF8296873
:1038100021F080512960B0F5007F08D0802C0DD9AF
:10382000032015E0FEF740F8B0F5007FF6D1812CBB
:103830000DD30120A02C88BF022009E0A4F1700064
:10384000B0FA80F04009802C08BF022000E0002080
:1038500042F20001C4F202010A6822F007020244A7
:103860000A60096801F00701081A18BF012002B0B8
:10387000B0BD000070470000B0B501380024B4EBC3
:10388000106F1CBF0120B0BD4EF21005CEF2000536
:1038900068604FF0FF300F2100F0C8FC0720AC60DB
:1038A00028602046B0BD000080B5FDF745FF80BD13
:1038B00010B596B005A84421FCF760FF00244FF432
:1038C00000700494CDE90244CDE90044FDF7B0FF57
:1038D00080BBFDF7F1FF41F29000C4F202000168E5
:1038E00021F01801016014206021059001200D9144
:1038F00002210790CDE90B04CDE90F10119028208B
:1039000012900720CDE9130105A81591FEF788FA5A
:1039100080B90F200090032001900020CDE9020023
:10392000049068460421FEF725F918B9FDF7CEFF8B
:1039300016B010BDFDF7D8F84EF68850CEF2000054
:10394000016841F47001016070470000B0B542F6B3
:10395000004E0268C4F2010E704502D0B0F1804FF3
:1039600003D14B6822F070021A4343F6FF73C4F28E
:10397000010344F2004C9842C4F2010C05DCB0F1A2
:10398000804F0AD0704508D00BE0604505D044F266
:103990000003C4F20103984203D1CB6822F44072C1
:1039A0001A430C688D684B697045C562846218BF04
:1039B00060450CD10969016322F080010268194356
:1039C00042F004020260012242610160B0BD44F293
:1039D0000005C4F20105A842EED1EBE780B501F085
:1039E0001F014FF0010CD0F820E00CFA01F32EEA91
:1039F00003030362036A02FA01F11943016280BD05
:103A0000F0B5026A036A22F0020223F001030362A6
:103A10004368D0F818E08C6842F60046D1F800C040
:103A20002243C4F2010644F2004544F20004B042CD
:103A3000C4F20105C4F2010418BFA84208D1076A04
:103A400022F0080227F004070762CF683A4301E03A
:103A5000A042F4D0B04218BFA84206D1D1E9054532
:103A600023F4407323432B4301E0A042F6D04FF6EA
:103A70008C74CFF6FE740EEA040747EA0C07436025
:103A80008761496841630262F0BD0000B0B5036A16
:103A9000026A42F6004422F0100202624268D0F844
:103AA00018C08D68D1F800E023F02003C4F20104AF
:103AB000A04243EA051302D0A0420BD116E0056AEA
:103AC00023F0800325F040050562CD6843EA051325
:103AD000A0420BD044F20044C4F20104A04205D03D
:103AE00044F20004C4F20104A04207D1D1E9054523
:103AF00022F4406242EA840242EA850248F6FF4428
:103B0000CFF6FF640CEA040545EA0E2542608561A4
:103B1000496881630362B0BDB0B5036A026A42F6C8
:103B2000004422F4807202624268D0F81CC08D68A2
:103B3000D1F800E023F40073C4F20104A04243EA88
:103B4000052302D0A0420BD116E0056A23F40063DE
:103B500025F480650562CD6843EA0523A0420BD0B9
:103B600044F20044C4F20104A04205D044F200042F
:103B7000C4F20104A04207D1D1E9054522F4405224
:103B800042EA041242EA05124FF68C74CFF6FE7434
:103B90000CEA040545EA0E054260C5614968C16347
:103BA0000362B0BDB0B5D0F820C0026A42F600454D
:103BB00022F4805202624268C3690C68D1F808E0BE
:103BC000C4F20105A8420BD044F20045C4F201053D
:103BD000A84205D044F20005C4F20105A84204D170
:103BE0004D6922F4804242EA851248F6FF45CFF63D
:103BF000FF652B4043EA04234260C3612CF4005567
:103C0000496845EA0E3201640262B0BDB0B5D0F831
:103C100020C0026A42F6004522F480320262426805
:103C2000436D0C68D1F808E0C4F20105A8420BD03E
:103C300044F20045C4F20105A84205D044F2000553
:103C4000C4F20105A84204D14D6922F4803242EA4F
:103C500005224FF68F75CFF6FE752B402343426049
:103C600043652CF40035496845EA0E4281650262DD
:103C7000B0BD0000B0B5D0F820C0026A42F60045E1
:103C800022F4801202624268436D0C68D1F808E0A9
:103C9000C4F20105A8420BD044F20045C4F201056C
:103CA000A84205D044F20005C4F20105A84204D19F
:103CB0004D6922F4802242EA852248F6FF75CFF64C
:103CC000FF652B4043EA0423426043652CF4001552
:103CD000496845EA0E52C1650262B0BD80B5416ACD
:103CE0000A070CD4CA0715D18A071ED44A0727D45D
:103CF000CA0630D48A0639D44A0657D541E002684C
:103D0000D0F834C0536823F4004343EA0C035360F3
:103D1000CA07E9D00268D0F828C0536823F40033FA
:103D200043EA0C0353608A07E0D50268D0F82CC040
:103D3000536823F4803343EA0C0353604A07D7D512
:103D40000268D0F830C0536823F4802343EA0C03A0
:103D50005360CA06CED50268D0F838C0936823F401
:103D6000805343EA0C0393608A06C5D50268D0F8F5
:103D70003CC0936823F4005343EA0C0393604A0663
:103D800014D50268D0F840C05368BCF5801F23F4F6
:103D9000801343EA0C03536008D1D2F804C0D0F872
:103DA00044E02CF4C00343EA0E035360090658BFF5
:103DB00080BD0168806C4A6822F40022104348608C
:103DC00080BD0000B0B582B004460020C4F8840075
:103DD000FDF7CAF821680546096809071AD56FF08A
:103DE0007E4C20464FF4001100222B46CDF800C037
:103DF00000F098F970B100BF206850E8000F21680A
:103E000020F0800041E80002002AF5D12020E06780
:103E100003202FE020680068400724D56FF07E4C17
:103E200020464FF4800100222B46CDF800C000F060
:103E300079F9C0B1206850E8000F216820F4907033
:103E400041E80002002AF5D1206850E8020F2168FD
:103E500020F0010041E80202002AF5D12020C4F838
:103E60008000032006E02020E067C4F880000020E6
:103E700020666066002184F8781002B0B0BD0000B2
:103E800080B5806AFEF75CFC80BD0000016851E8E7
:103E9000001F026821F4907142E80013002BF5D155
:103EA000016851E8021F026821F0010142E8021393
:103EB000002BF5D1016E01290AD100BF016851E83C
:103EC000001F026821F0100142E80013002BF5D119
:103ED0002021C0F880100021016681667047000033
:103EE00080B500BF016851E8001F026821F0400161
:103EF00042E80013002BF5D12021C1670021C166E3
:103F0000FEF776FE80BD000070B504462269D4E954
:103F10000213006866690A43E1693243066846F69F
:103F2000F315CEF6FF750A432E4032430260426815
:103F300022F440521A43426048F20002A369C4F2DC
:103F4000000290421CBF266A3343866826F430661E
:103F5000334344F20046C4F20006B04283600ED000
:103F6000904213D043F60003C4F20103984219D1E2
:103F700041F28803C4F202031B6866A60DE041F219
:103F80008803C4F202031B689B0805E041F2880322
:103F9000C4F202031B689B0A5AA603F0030356F8F7
:103FA000233000E01023904242F20040C0F2F400BF
:103FB00011D0B1F5004F1DD1082B00F25C80002517
:103FC000DFE803F0055563595C5959596000002535
:103FD000FDF79EFE59E0082B1AD80026DFE803F013
:103FE00005181F181C1818183E000026FDF790FE33
:103FF000B0B938E0082B64D80025DFE803F0055E8F
:104000006C626562626269000025FDF781FE62E014
:104010000020012620B926E00026FDF7A1FE10B3FE
:104020006268012502EB4201884265D31103884290
:1040300062D8010E000210EB520041F10001002392
:10404000FCF722F94FF6FF42A0F54071C0F20F02D3
:1040500091420AD821683546C8604DE04FF40040CF
:1040600000260028DCD1354646E0012544E0002545
:10407000FDF762FE09E00020012506E00025FDF7BE
:104080006FFE02E04FF400400025A8B361684A08C3
:1040900002EB4000B0FBF1F04FF6EF72A0F110011F
:1040A000914208D84FF6F0710140C0F342002268F7
:1040B0000844D06020E001251EE00025FDF73CFE0D
:1040C00009E00020012506E00025FDF749FE02E099
:1040D0004FF40040002578B161684FF6EF7200EBB5
:1040E0005100B0FBF1F0A0F11001914203D821681A
:1040F00080B2C86000E0012500212846A166E16683
:1041000070BD00BF000000000400000002000000BD
:104110000800000001000000040000000200000090
:10412000080000002DE9F04381B004460068C06932
:104130000840401AB0FA80F0400990423DD1DDF8C5
:10414000208015460E46994608F1010709E000BF98
:104150002068C0693040801BB0FA80F04009A84256
:104160002FD1002FF4D0FCF7FFFE0146B8F1000F6D
:104170004FF0030026D0A1EB0901414522D8206869
:1041800001684907E4D5402EE2D0802EE0D0C16915
:1041900009071AD4C1690905DAD54FF40061016233
:1041A0002046FFF773FE2020C4F88400002084F826
:1041B0007800032001B0BDE8F083002001B0BDE825
:1041C000F083002001B0BDE8F08308250562204699
:1041D000FFF75CFE0020C4F8845084F878000120CA
:1041E00001B0BDE8F083000080B540F2A820C2F223
:1041F0000000FEF7A7FA80BDFEE70000002848BFD8
:10420000704700F01F01012202FA01F14EF2001284
:104210004009CEF2000242F8201070474EF60C50D2
:10422000CEF200000068C0F3022070474EF614532F
:1042300000F00F02CEF2000309011A4400F16043BE
:10424000B0F1FF3FC8BF03F5644211707047000032
:104250004EF60C51CEF200010A684FF6FF031A40E9
:1042600060F30A2242F0806040F0FD700860704701
:104270001B28BCBF1B2070473F28A8BF3F207047AA
:104280002DE9F04F89B0DDF848A099460F468346E6
:1042900000F0C4FF46F22868C0F6000858464146C0
:1042A00001F014F903AE41A2304618213B46FCF759
:1042B00063F8584600210A22334601F0D9F85846DF
:1042C000414601F003F9B9F1460F01D93AA70AE0D6
:1042D000B9F1280F01D93BA705E03EA73BA0B9F1F2
:1042E000140F88BF074603AE3EA2304618214B4646
:1042F0000097FCF741F8584600211622334601F09A
:10430000B7F8584600211922802300F0DDFF02A9EA
:1043100001AA504600F0C2F870B3DDE9010900249B
:10432000A0EB09085AF824000AEB84014968A0EBC5
:10433000090000EBC000A1EB0901800001EBC10105
:1043400090FBF8F0890091FBF8F1C0F13F00651C8B
:10435000C1F13F06FFF78CFF07463046FFF788FFA5
:10436000C6B2FAB2A1B2ABB25846009601F00EF84E
:104370007F2D2C46D6D112E0584600212D228023D5
:1043800000F0A2FF46F22861C0F60001584601F095
:104390009DF817A358460A21352201F069F85846BE
:1043A00001F08CF809B000F02BB800BF48523A2059
:1043B00025642042504D000048494748205354523C
:1043C000455353004D454449554D000052454C411D
:1043D00058454400564552592052454C4158454491
:1043E000000000005354523A256420257300000059
:1043F00043414C43554C4154494E472E2E2E00000C
:1044000030BCBDE8C08F000010B582B0044600F09B
:1044100005FF46F22861C0F60001204601F056F87B
:1044200040F27000C2F20000007803280AD002288F
:104430000FD0012813D117A3204622210C2201F00E
:1044400017F80CE00FA3204622210C2201F010F8EF
:1044500005E00EA320462A210C2201F009F840F2C3
:104460000400C2F2000003784FF00F0C20464021F8
:104470002822CDF800C000F0DDFE204601F01EF835
:1044800002B010BD455848414C450000484F4C44CF
:1044900000000000494E48414C45000010B550F85E
:1044A00004CB6FF00303E646C41864680433744514
:1044B000B8BFA6466445C8BFA446B3F5FC7FF3D198
:1044C0000020C1F800E0F445C8BF0120C2F800C0D8
:1044D00010BD00002DE9F04395B06D460B46044633
:1044E00024A228465021FBF747FF40F2A828C2F239
:1044F000000882B2404629466423FEF711FB0026DD
:1045000001270FF27C0902E00137802F16D07800D6
:1045100081B2204603220523FCF780FD0028F3D159
:10452000284650214A463B46FBF726FF82B24046CA
:1045300029466423FEF7F4FA0136E5E7300602D097
:1045400015B0BDE8F08340F64550C0F20A00019076
:1045500044F62060C4F64F60009040F2A820C2F2FA
:104560000000694607226423FEF7DAFA15B0BDE8B9
:10457000F08300BF5363616E2025733A0D0A00007B
:10458000202B3078253032580D0A000080B590F885
:1045900090C00246BCF1030F4FF0010038BF80BD50
:1045A000BCF11E0F02F114034FF0000228BF4FF0C0
:1045B0001E0CBCF1010F88BF604600BF53F804EF2A
:1045C00001387244FAD1B2FBFCF04B2248F21F5C76
:1045D0004243C5F2EB1CA2FB0C237D225043A0FBFF
:1045E0000C020020B1EB531F4FF0000328BF012342
:1045F000B1EB521F98BF0120184080BD022838BF80
:1046000070470122014600BF53185908B0FBF1F270
:10461000B2EB530FF8D3084670470000ADF5287D84
:1046200040F20045C4F60005FDF794F8FFF740F9A5
:10463000FEF77EFEFEF762FEFEF74CFF0A20FCF757
:1046400085FB40F62A50C0F20A00CDF8A30042F2E2
:104650005400C2F62A20289044F22020C4F64F705D
:10466000279040F60D2040F2A824C2F62A20C2F27C
:104670000004269026A920460E226423FEF750FA55
:1046800040F20000C2F2000003680DF1980A0FF634
:10469000F00250465021FBF76FFE82B22046514691
:1046A0006423FEF73DFA0FF6E40000F09DFD0624BA
:1046B00028460821FCF74AFC6420FCF747FB013C34
:1046C000F6D146F28754C0F60004204600F08CFD77
:1046D000FEF78CFE40F22810C2F200002146FFF7E0
:1046E000F9FE46F28254C0F60004204600F07CFD3C
:1046F000FEF764FE40F2D400C2F200002146FFF74C
:10470000E9FE0FF68C0000F06FFDFEF7CFFE40F2E1
:104710005C20C2F20000FDF7BFFE40F64C54C0F230
:104720000A0498B144F22060C4F64110279044F680
:104730005410C3F24D20269040F2A820C2F200008F
:1047400026A90B2264232894FEF7EAF90FF6480005
:1047500000F04AFD40F2D400C2F20000FEF704FD72
:10476000002840F2383544F24D10C2F20005C2F282
:10477000580013D044F24611C4F64941CDF89F4089
:10478000CDE9260140F2A820C2F2000026A90A22A3
:104790006423FEF7C5F90020287015E000218DF88C
:1047A000A01044F64F31C0F60D21CDE9260140F2AC
:1047B000A820C2F2000026A908226423FEF7B0F95F
:1047C0000120287000F038FC0FF2D87000F00CFDCA
:1047D00040F28034C2F2000446F21C6145F6ED72EC
:1047E00046F2D933C0F60001C0F60002C0F600035D
:1047F000204600F0ADFE204601F080FB204600215F
:104800004FF0000801F08AFB204600F007FD46F259
:104810002861C0F60001204600F058FE287846F2D4
:104820008C5146F29353C0F60001C0F600030028F5
:1048300018BF0B4620460A21232200F019FE20460D
:1048400000F03CFE4FF47A70FCF780FA0FF25C70D7
:1048500000F0CAFCFEF7E2FD0FF2587000F0C4FC55
:1048600040F27C15C2F2000528469421FBF786FF32
:10487000FCF77AFB814646F2A450C0F600000168BE
:1048800040F2783B0C91416840F2D4060B9181686C
:10489000C2F2000B0A91C168C2F2000609910169D7
:1048A000A7AF08914169A6AC079181690691C169DA
:1048B0000591018C90F822000491039046F2C850B3
:1048C000C0F600000168239141682291816821911E
:1048D000C168209101691F9141691E918169007F22
:1048E0001D911C9046F2E850C0F6000001681B9133
:1048F00041681A9181681991C168189101691791ED
:1049000041691691018B807E1591149046F20460E6
:10491000C0F60000016813914168129181681191FD
:10492000C168109101690F91818A807D0E910D906F
:104930003BE000BF40F23830C2F20000007840F2A5
:104940007802002840F2303040F28801C2F20002C2
:1049500046F29753C2F20000C2F20001146846F218
:104960009052C0F6000300680968C0F6000218BF44
:10497000134646F26352CDE9000150465021C0F67D
:1049800000020294A6ACFBF7F7FC82B240F2A8202A
:10499000C2F2000051466423FEF7C2F840F2004024
:1049A000C4F600000821FCF7D1FA4846CDF89090F3
:1049B0000FE000BF40F28030C2F20000FFF724FD9C
:1049C000DDF89490A6AC2498A9EB0000B0F5FA6F3E
:1049D000B0D2FCF7C9FA8146FEF7BAFDDBF8000059
:1049E000CDF89490A9EB00000228C0F09F813046DA
:1049F000CBF80090FEF760FC8146002800F05C8157
:104A0000002500BF304639462246CDE9A688FEF78C
:104A100003FC834630B140F28401C2F20001086811
:104A20000130DEE040F28802C2F200021068A6996E
:104A30000130106042F20F72914240F2303240F287
:104A40004034C2F20002C2F20004116034D84AF2CB
:104A5000D73145F62942C3F67051CCF28F2200FBC4
:104A6000021045F628414FEAB000C0F28F2188427B
:104A70001AD80A20ADF8A40044F24F60C0F64650A0
:104A8000289044F24750C2F25200279044F221602D
:104A9000C4F64960269040F2A820C2F200005146B8
:104AA0000D226423FEF73CF840F24430C2F20000CD
:104AB000C4F80080C0F80080A69800F01BFB40F608
:104AC0001C32C2F20002117840F61C13474201F07A
:104AD0007F00C2F2000343F8207040F28800C2F267
:104AE0000000006801310128117005D140F2443105
:104AF000C2F2000127600F602168B94240F24431E0
:104B0000B8BF2760C2F200010968B942C2BF40F2D3
:104B10004431C2F200010F6045F62941CCF28F21E9
:104B2000484345F628414FEAB000C0F28F21884241
:104B30002ED840F24436C2F20006206831680A18C6
:104B400002EBD272A0EB620000EB4000A1EB62012D
:104B5000C31701EB410100EB9370CB1701EB93718D
:104B60008010891000EB620001EB6201421A316093
:104B700040F2D406312AC2F20006206008DC193067
:104B80002060A1F1190040F24431C2F20001086036
:104B900040F24C30C2F20000016840F24830C2F2EC
:104BA00000000068814210DAB8420EDD40F2403168
:104BB000C2F200010A6840F24431C2F20001096801
:104BC000521A1F2AA8BF012814DA40F24832C2F252
:104BD0000002106840F24C31C2F200011760A7AF2A
:104BE000A6AC0860BBF1000F6DD101354D45FFF457
:104BF00009AF68E002EB420246F267635200C6F278
:104C0000666352FB03F2931003EBD27211448842A5
:104C1000DBDDFCF7A9F940F23432C2F20002116880
:104C20000446B9B35646A4EB010AAAF5C870B0F51C
:104C3000C86F31D84FF47A7004FB00F140F27C1059
:104C4000C2F20000FEF770F840F27801C2F20001F3
:104C500008684EF660220130B2FBFAF30860304675
:104C60005021D5A2B246FBF787FB82B240F2A820C2
:104C7000C2F2000031466423FDF752FF40F23430A7
:104C8000C2F2000040F2D40604604FF00008C2F205
:104C900000069AE7146098E7BAF5FA6FB24640F258
:104CA000D4064FF00008C2F2000682BF40F2343052
:104CB000C2F20000046088E740F28001C2F2000105
:104CC000086801300860B9F11E0F40F27C1540F20F
:104CD000783BDDF89490C2F20005C2F2000BA7AF5A
:104CE00024D340F64650C0F20A00289042F24F000A
:104CF000C5F24F60279044F22160C4F249602690CB
:104D000040F2A820C2F2000051460B226423FDF7B6
:104D100007FF00BF3046FEF7CFFA28B130465146B4
:104D20003A46FEF779FAF5E7DDF8949040F27C30E8
:104D3000C2F20000006847F23051A9EB000088423F
:104D4000C0F0B28040F27C30C2F20000C0F80090A7
:104D50002846FDF74FFF287D002800F08480687802
:104D600099A4462807D828289AA404D89DA41428D2
:104D70009AA088BF0446239840F2A827269022983C
:104D8000C2F20007279021985146289020981C22B3
:104D900029901F9864232A901E982B901D982C9080
:104DA0001C988DF8B4003846FDF7BAFE40F2383052
:104DB000C2F20000007846F29C53002846F2905060
:104DC000C0F60003C0F6000046F2545218BF034676
:104DD00050465021C0F60002FBF7CEFA82B23846A8
:104DE00051466423FDF79CFE2B785046502181A24A
:104DF000FBF7C2FA82B2384651466423FDF790FEB3
:104E00006B785046502181A2FBF7B6FA82B2384641
:104E100051466423FDF784FE5046502181A223466B
:104E2000FBF7AAFA82B2384651466423FDF778FEB2
:104E30001B98514626901A981A2227901998642395
:104E400028901898299017982A9016982B901598C2
:104E5000ADF8B00014988DF8B2003846FDF760FE4A
:104E6000A7AFA6AC1EE00C98514626900B982222C4
:104E700027900A98642328900998299008982A90E6
:104E800007982B9006982C9005982D9003988DF8F4
:104E9000BA000498ADF8B80040F2A820C2F20000B1
:104EA000FDF73EFEDDF8949040F27430C2F200004F
:104EB0000068A9EB00005028FFF485AD40F27C02A9
:104EC000C2F20002106840F27431C2F20001C1F86F
:104ED00000900130697810604846FBF77BFD6878E8
:104EE0000024462888BF0124472820D340F25030B0
:104EF000C2F200000078D0B913985146269012985B
:104F000016222790119864232890109829900F98C2
:104F10002A900E98ADF8AC000D988DF8AE0040F2D6
:104F2000A820C2F20000FDF7FBFDFEF7EFFA6B7858
:104F300040F25030472BC2F200000470BFF43AAD8B
:104F400040F61C30C2F20000007840F61C1400212C
:104F5000C2F20004421802F07F0254F822204AF8FC
:104F6000212001318029F5D1297840F28030C2F228
:104F700000006222CDF800A0FFF782F920E500BF13
:104F8000434C4B3A202575487A0D0A004C454400A5
:104F900054494D32000000004D4158333031303219
:104FA000000000004F4C45440000000042555A5A92
:104FB0004552000048525600424541542025752074
:104FC00062706D0D0A000000484947482053545252
:104FD000455353004D454449554D000052454C4101
:104FE00058454400564552592052454C4158454475
:104FF00000000000484541525420524154453A2097
:1050000025752042504D0D0A0000000053545245B2
:1050100053533A202020202025752F3130300D0A9F
:105020000000000053544154453A20202020202005
:1050300025730D0A000000002DE9F04F99B040F6ED
:105040003A50C0F20A00059044F25250C5F247307F
:10505000049040F2A820C2F2000004A907226423B1
:10506000FDF75EFD40F2D40A002719A514264FF083
:1050700001080DF16309C2F2000A02E001370A2FAC
:1050800023D0EC5D5046AE2122460123CDE90098A5
:105090000296FCF707F90028F0D12E469DF86350E0
:1050A0000DF1100B584650210CA2234600953546B1
:1050B0001426FBF761F982B240F2A820C2F2000088
:1050C00059466423FDF72CFDD8E719B000F00EB85F
:1050D0000001040506090A0C0DFF000020253032EE
:1050E000583A253032580D0A0000000030BCBDE8A7
:1050F000C08F0000B0B540F26932C2F200021178F0
:1051000040F26C3E40F2683C0029C2F2000E02BF41
:10511000CEF8000001231370C2F2000C9CF800309E
:105120004CF6CD41DEF80020CCF6CC4140F2703593
:10513000A3FB0114C2F20005811ACEF80000286812
:1051400040F2E332504344F6D352C1F2620250FBC4
:1051500002F0821102EBD0700844A10801EB81013A
:1051600040F25432591AC2F2000242F8210028607B
:10517000591C92E829008CF800101844D2E9033237
:1051800028441844104446F26762C6F2666250FB37
:1051900002F0421002EBD070B0BD000080B584B0C8
:1051A00094460A4632210123CDE90131AE21012383
:1051B000CDF800C0FCF776F804B080BD80B584B0AF
:1051C0000B468DF80F2001210DF10F024FF0320C2C
:1051D000CDE90021AE211A460123CDF808C0FCF725
:1051E0002DF904B080BD000010B594B06C460346A4
:1051F00007A220465021FBF7BFF882B240F2A82058
:10520000C2F2000021466423FDF78AFC14B010BDF1
:105210003E205354473A2025730D0A0080B501689B
:1052200090F83820097C406B5143C900FBF784FAA1
:1052300080BD00002DE9F04182B015460E46804643
:10524000C81A591C1C46D21A8B1929448FB281B234
:1052500092B29BB24046009700F014F938B1089F13
:10526000404631462A462346009700F047FA02B0EE
:10527000BDE8F081F0B581B0054690F870001C469D
:10528000164603280F4616D8DFE800F002070C1177
:10529000E96D2846884706440DE0E96D28468847B1
:1052A0003F1A08E0E96D28468847361A03E0E96DA1
:1052B000284688470744B9B2B2B22846234600F0D0
:1052C00059FC01B0F0BD000080B582B04FF0000C79
:1052D000CDF800C000F002F802B080BDB0B584B0D7
:1052E000002BADF80E10ADF80C20ADF80A304AD006
:1052F000044690F88C00002845D00898012B07D070
:10530000032819D0022803D1C91A0131ADF80E10B3
:1053100010F0010517D1BDF80C00B4F84C1088420C
:1053200031D3B4F84E1088422DD2B4F84820B4F8E6
:105330004A300DF10E0015E0D11A0131ADF80C1014
:1053400010F00105E7D0BDF80E00B4F8481088420F
:1053500019D3B4F84A10884215D2B4F84C20B4F8E6
:105360004E3003A80DF10A0100F09EF958B1206BF0
:10537000BDF80E10D0F808C0BDF80C20BDF80A30FA
:1053800020460095E04704B0B0BD00002DE9F04F85
:1053900083B00C9F5D1A38BFCD1ABE1AACB238BFAD
:1053A000D61B1FFA86FAA2450294019009D910462D
:1053B0003A46B34690420CD804460F46104619466A
:1053C00009E0084611461A463B46AB463546904230
:1053D000F2D914461F46B9424FF0FF364FF6FF711F
:1053E0004FF0FF3288BF0126884208BF501E1FFAC7
:1053F00080F844451AD81FFA8BF04FEA500900BFD5
:105400000298824587BFB9B2A2B2A1B2BAB20198DE
:1054100000F012F8A9EB05090FFA89F00134002811
:10542000A0B244BF3744D9444045E9D903B000F0A5
:1054300000B830BCBDE8C08F80B582B0B0F84C3049
:10544000934212D8B0F84E3093420ED9B0F848309B
:105450008B420AD8B0F84A308B4206D94FF0000C84
:105460000123CDF800C0FFF739FF02B080BD000076
:1054700080B545F6917CC0F6000CC0F804C000F081
:1054800007FA80BDF0B581B00646B6F84E401F461B
:10549000069BB0F84C000D46214600F0E3FB48B1F6
:1054A000B6F84800B6F84A102A463B4600F0DAFB48
:1054B00001B0F0BD002001B0F0BD000010B5044601
:1054C00000F0A8FC204600F021FD10BD10B50446F8
:1054D000806D884208BF10BD04F17400A16500F022
:1054E00031FC204600F058F810BD000045F61D11B3
:1054F000C0F60001C165704780B50021CFF6FF718D
:10550000026B016541655168884780BDB0B50446AE
:10551000049884F8382040F20112A4F8922002681E
:105520000025C4E90B302046A56584F8395084F87D
:105530006D5084F8915084F88D50616390472046F7
:10554000FFF7DAFF2046FFF7D1FF84F87050B0BDB7
:10555000B0B582B09C4613460C4646F2892146F20D
:105560003512C0F60001C0F600020546CDF800C0B5
:1055700000F0DCFC0DF1070000F0DCFB9DF80720DB
:1055800045F695430146C0F6000328460094FFF710
:10559000BDFF02B0B0BD0000816DD9B190F88D3073
:1055A00090F9812090F98210002B80F88E2080F8ED
:1055B0008F1008BF7047012B0DD190F983309A42AC
:1055C000B8BF80F88E3090F984209142C4BF80F833
:1055D0008F207047704790F97EC090F980309C44CE
:1055E0009445C8BF80F88EC09942C8BF80F88F30FC
:1055F00070470000022B07D0012B08D0002B14BFEE
:105600001044084480B27047401A80B27047801A34
:1056100080B27047022B07D0012B08D0002B14BF9B
:10562000401A104480B27047801A80B27047084414
:1056300080B2704710B582B0B0F85010B0F8542066
:10564000B0F85230B0F856C00446CDF800C0FFF7AD
:1056500019FF20B3B4F84810B4F850000122814279
:1056600084F88C2038BFA4F84800B4F84A10B4F885
:105670005200814288BFA4F84A00B4F84C10B4F834
:105680005400814238BFA4F84C00B4F84E10B4F86E
:105690005600814288BFA4F84E0002B010BD002021
:1056A00084F88C0002B010BDB0B505880C889D420E
:1056B00004EB050C1FFA8CFE144638BF2C46E64559
:1056C0000CBF2C46A3F1010E9D4228BFE6469C422A
:1056D0004FF0000C0FD21FFA8EF595420BD9944271
:1056E00038BF14469D4288BF9E460480AEEB04003E
:1056F0004FF0010C08806046B0BD00002DE9F04F6E
:1057000087B09B46109F14460B46009200215A46D4
:1057100005900693019700F03DF8BBF1000F32D0E1
:105720004FF6FE70ABEB4B0101304F00CBF1010A9D
:105730004FF001084FF0000900B2CDE9030400BFAB
:10574000039A0FFA8AF090426FEAE030834409F13D
:1057500001090FFA88F007F10201C4BF8A440F461D
:1057600000F1020800941FFA8BF51FFA89F60598DC
:10577000069B109C31462A46C244019400F00AF868
:10578000049CAE42DCD307B000F000B830BCBDE8EA
:10579000C08F00002DE9F04381B0DDE908891C4687
:1057A00016460D465FEAC97107460BD15FEA89705C
:1057B0001BD45FEA09702BD45FEA49703BD401B077
:1057C000BDE8F0836019A8EB060281B292B23846B8
:1057D000FFF732FEA019A8EB050281B292B238465B
:1057E000FFF72AFE5FEA8970E3D5601BA8EB06028B
:1057F00081B292B23846FFF71FFEA01BA8EB05024C
:1058000081B292B23846FFF717FE5FEA0970D3D52E
:10581000601908EB060281B292B23846FFF70CFE1F
:10582000A01908EB050281B292B23846FFF704FED8
:105830005FEA4970C3D5601B08EB060281B292B2E1
:105840003846FFF7F9FDA01B08EB050281B292B2C2
:105850003846FFF7F1FD01B0BDE8F08310B582B026
:10586000B0F83EE0DDF810C0C46AA2EB0E0292B2BE
:10587000CDF800C0A04702B010BD000080B582B0D6
:10588000DDF810C0CDF800C0FFF7E8FF02B080BD22
:105890002DE9F04F81B0984692468B4606464FF66A
:1058A000FF7900F0CDFD726898F8001030469047FF
:1058B00048452BD0A9F1010108F1010400278DB260
:1058C00008E000BF0744726814F8011B3046904797
:1058D00048451CD083B2AB42F5D01FFA8BF11FFABA
:1058E0008AF23046FFF7C6FC96F870100329E9D813
:1058F000DFE801F005070902AAEB000AE2E78344AA
:10590000E0E78244DEE7ABEB000BDBE70027B8B251
:1059100001B000F000B830BCBDE8C08F0020704777
:1059200010B50C4600F00AF8611EC9B24FF0807243
:1059300002FA01F1A0EB116040B210BD10B50246B1
:105940000068137B90F800C003EB010E5FFA8EF441
:10595000082C2CFA03FC0AD3441C1460C3F108037E
:105960004078DBB298404CEA000CAEF1080E4FF0E4
:10597000FF3088402CEA0000C0B282F80CE010BD75
:105980002DE9F04F83B0044600F1600500F052F9B4
:1059900094F87A1094F96BB02846FFF7C1FF94F899
:1059A0007B1082462846FFF7BBFF94F87C10074621
:1059B0002846FFF7B5FF94F96A808146B8F1010FD8
:1059C00070DB0BEB0701494294F87070B4F8640087
:1059D0004EB2514632463B46CDF80890FFF70AFEDC
:1059E0008146B4F86600514632463B46A4F86490BE
:1059F000FFF710FE032FA4F8660008D8DFE807F0D1
:105A0000020A111909EB080300EB0B0116E04B46E3
:105A1000014613E009F10103A3EB0B0900EB0801B8
:105A20000CE009F10103411CA3EB0809A1EB0B00F9
:105A300004E0411C09EB0B03A1EB08008FB21FFA35
:105A400089F182B29BB220460097FFF71BFDDDF87B
:105A5000089038B30020A4F8680000BF94F87610CE
:105A60002846FFF76BFF94F8771006462846FFF7A5
:105A700065FF074620463146002200F01BF820460D
:105A80003946012200F016F828460121FFF756FF9B
:105A90000028EFD194F969005845DFDB94F86E00D7
:105AA00084F89200484603B000F000B830BCBDE86E
:105AB000C08F00002DE9F04F87B0029290F8682067
:105AC00090F8697004460E4694F86A0094F870B035
:105AD000A0EB020A5FFA8AF0F1B2D046CDE90410D9
