:020000040800F2
:10000000C810002075020008E53700089D3300087D
:10001000E1370008FD090008713F000800000000FA
:10002000000000000000000000000000553900083A
:100030000D0A000800000000E937000859390008DF
:100040008F0200088F0200088F0200088F0200084C
:100050008F0200088F0200088F0200088F0200083C
:100060008F0200088F0200088F0200088F0200082C
:100070008F0200088F0200088F0200088F0200081C
:100080008F020008010A00088F0200088F02000892
:100090008F0200088F0200088F020008110A000872
:1000A0008F0200088F0200088F0200088F020008EC
:1000B0008F02000800000000000000008F0200080E
:1000C0008F02000800000000000000008F020008FE
:1000D000000000008F020008653F000800000000DB
:1000E0008F0200088F0200080000000000000000DE
:1000F0000000000000000000000000000000000000
:100100000000000000000000000000008F02000856
:1001100000000000000000008F0200088F020008AD
:100120008F0200088F0200088F0200088F0200086B
:100130008F02000800000000000000000000000026
:100140008F0200088F0200088F0200088F0200084B
:100150008F0200088F0200088F0200088F0200083B
:100160008F0200088F0200088F02000800000000C4
:100170008F0200088F02000800000000000000004D
:100180008F0200088F0200088F02000800F002F8BA
:1001900000F060F814A696E8000CB244B344DA45C7
:1001A00001D100F057F8BAE80F000FA696E830002A
:1001B000A5EB040504EB0607AAEB0704A7F101076A
:1001C0004FEA15154FEA3414A4F10104AC4201D3EF
:1001D00000F040F813F0010F18BFFB1A43F00103C1
:1001E00000F001F8DBE718472C6C00004C6C0000B5
:1001F000103A24BF78C878C1FAD8520724BF30C853
:1002000030C144BF04680C607047000070470000B4
:100210000023002400250026103A28BF78C1FBD80F
:10022000520728BF30C148BF0B607047642900F0F7
:100230002981752900F02681782900F05F817329D2
:1002400000F06C83002070471FB505F06CFF1FBDE8
:1002500010B510BD00F098FB1146FFF7F5FF03F055
:10026000CBFF00F0B6FB03B4FFF7F2FF03BC00F0D6
:10027000BFFB00000948804709480047FEE7FEE74A
:10028000FEE7FEE7FEE7FEE7FEE7FEE7FEE7FEE746
:1002900004480549054A064B70470000653A0008C6
:1002A0008D010008C80A0020C8100020C80C0020DA
:1002B000C80C002053EA020C00F069802DE9F04BD5
:1002C0004FF00006002B1FBFB3FA83F503FA05F4C5
:1002D00024FA05F65E4012BF1643B2FA82F502FA1E
:1002E00005F4C5F120051EBF22FA05FC44EA0C0402
:1002F000203556EA044C4FEA144418BF641C4FF0F2
:1003000000084FF00009904271EB030C39D300292B
:1003100019BFB1FA81F701FA07F6B0FA80F700FACF
:1003200007F6C7F120071EBF20FA07FC46EA0C06B5
:100330002037B6FBF4FCA7EB0507103F07F01F0BB7
:10034000CBF120062CFA06F60CFA0BFB44BFB346A1
:100350000026202FA4BF5E464FF0000B5BEA060C80
:1003600008BF4FF0010B19EB0B0948EB0608ABFB7C
:10037000027C06FB02CC0BFB03CCC01B71EB0C0117
:10038000C1E70B46024641464846BDE8F08B13B52F
:10039000084318BF4FF0FF300146AFF30080BDE8BF
:1003A0001C4070470FB41CB50C0007AA009007D082
:1003B0004142A14202D32044401E01E04FF0FF30F1
:1003C000074B7B4469460190069800F07AFA0021B9
:1003D000002C01D0009A11701CBC5DF814FB0000C9
:1003E0002305000070B5044685690068C10601D583
:1003F000302600E02026C00707D070BDD4E90121D7
:1004000030469047206A401C20626D1EF6D570BDB4
:1004100070B5044685690078C00707D170BDD4E97E
:10042000012120209047206A401C20626D1EF6D5D5
:1004300070BD70B50C460546012A05D028788006A7
:1004400000D5EA69002302E0012305E05B1C93422A
:1004500002D2E05C0028F9D1A869E618C01AA861A8
:10046000286A184428622846FFF7BCFF04E0D5E953
:10047000012114F8010B9047B442F8D32846FFF746
:10048000C7FF70BD2DE9F0410646002410687529AC
:10049000314616A510D0AFF30080002802DA4042A2
:1004A00013A507E031688A0701D512A502E04907C4
:1004B00004D511A5012401E0AFF3008000210A2238
:1004C00006F1240709E0B0FBF2FCB0FBF2F302FBFB
:1004D0001C00303078541846491C0028F3D12346BC
:1004E0002A463046BDE8F04100F08CB9000000001B
:1004F0002D0000002B0000002000000070B5044615
:100500000D4621461068AFF300802188090502D509
:100510000F4A7A4402E00E4A7A440E32002104F176
:10052000240305E000F00F060009965D5E54491CA7
:100530000028F7D120780023000704D5702D02D0C1
:1005400009B1022311322046BDE8704000F05AB9CB
:100550002A5C00002DE9F05F894604464FF0000A4E
:10056000DFF874B1FB44C0F820A02046E16888475A
:10057000002874D0252806D0D4E901219047206AAC
:10058000401C2062F1E700265F462046E16888476C
:100590002028054607DB312D05D2781910F8200CEC
:1005A00008B10643F1E7B00701D526F00406C4F808
:1005B0001CA00027C4F818A02A2D09D0284605F051
:1005C000ABFD38B304EB8708303DC8F8185019E08C
:1005D00059F8041B204604EB87029161E1688847C3
:1005E000012F054618D1E069002820DA26F0200600
:1005F0001DE0D8F8180000EB800005EB4000303813
:10060000C8F818002046E1688847054605F084FDD3
:100610000028EED1012F0AD02E2D08D12046E16806
:1006200088477F1C0546022F46F02006C4DBA069E0
:10063000002803DA404246F00106A061F00701D02D
:1006400026F010066C2D0BD0682D09D04C2D39D01A
:100650006A2D35D0742D35D07A2D33D016E038E0A0
:10066000E1682F4620468847B842054609D16C2FDD
:1006700026D04FF48060E16806432046884705464F
:1006800004E06C2F1AD04FF4807006430DB3A5F12F
:100690004100192802D8203546F400664A4629460A
:1006A000204626604E46FFF7C1FD80B101280BD0E1
:1006B000F61D26F0070000F1080956E74020E4E7A0
:1006C0008020D8E70020D6E706F104094DE7284648
:1006D00052E7206A00F002B8005C000030BCBDE8C0
:1006E000C09F032A40F2308010F0030C00F0158008
:1006F00011F8013BBCF1020F624498BF11F801CB25
:1007000000F8013B38BF11F8013BA2F1040298BF89
:1007100000F801CB38BF00F8013B11F0030300F0F3
:100720000181083AC0F0088051F8043B083A51F8BA
:1007300004CBA0E80810F5E7121D5CBF51F8043B9C
:1007400040F8043BAFF30080D20724BF11F8013B0F
:1007500011F801CB48BF11F8012B24BF00F8013B71
:1007600000F801CB48BF00F8012B70474FF00002A2
:100770000429C0F0128010F0030C00F01B80CCF1B3
:10078000040CBCF1020F18BF00F8012BA8BF20F821
:10079000022BA1EB0C0100F00DB85FEAC17C24BF75
:1007A00000F8012B00F8012B48BF00F8012B70471F
:1007B0004FF0000200B5134694469646203922BFFA
:1007C000A0E80C50A0E80C50B1F12001BFF4F7AF45
:1007D000090728BFA0E80C5048BF0CC05DF804EB27
:1007E000890028BF40F8042B08BF704748BF20F895
:1007F000022B11F0804F18BF00F8012B7047704793
:10080000704770472DE9F0470D46994692460446D9
:1008100000F124080168880604D5E06921F0100180
:10082000216000E00120A84201DD471B00E0002715
:10083000A1697A1902EB0900081AA0612078C006A4
:1008400002D42046FFF7CEFD002608E0D4E90121BE
:100850001AF806009047206A401C761C20624E451C
:10086000F4DB2078C0060AD52046FFF7BBFD06E082
:10087000D4E9012130209047206A401C2062381EB4
:10088000A7F10107F4DC07E0D4E9012118F805001D
:100890009047206A401C2062281EA5F10105F3DC68
:1008A0002046FFF7B5FD2078000602D50220BDE8FE
:1008B000F0870120FBE7000001694A1C026108780B
:1008C000704700B58FB0CDE9013100210591054990
:1008D0007944CDE9031011466846FFF73BFE0FB09F
:1008E00000BD0000E5FFFFFFD1E900239A4202D2DC
:1008F000531C0B601070704710B5436913B1AFF310
:10090000008001E0FFF795FD012010BD127800F195
:1009100024010A7000224A700122EDE711684FF0AD
:10092000FF32E9E710B5203AC0F00B80B1E818506B
:10093000A0E81850B1E81850A0E81850203ABFF4C9
:10094000F5AF5FEA027C24BFB1E81850A0E8185068
:1009500044BF18C918C0BDE810405FEA827C24BFBC
:1009600051F8043B40F8043B08BF7047D20728BF4A
:1009700031F8023B48BF11F8012B28BF20F8023B99
:1009800048BF00F8012B7047754600F02BF8AE46C3
:1009900005006946534620F00700854618B020B58B
:1009A000FFF776FCBDE820404FF000064FF000074F
:1009B0004FF000084FF0000BAC46ACE8C009ACE8C3
:1009C000C009ACE8C009ACE8C00921F007018D46B8
:1009D000704710B50446AFF300802046BDE81040D4
:1009E000FFF741BC0048704710000020704700002E
:1009F00001491820ABBEFEE726000200FEE700001A
:100A000040F28400C2F2000000F06EB870470000AF
:100A10004FF4807000F040B982B043F2005540F2CC
:100A20000044C0F20C05C4F600040026204608214C
:100A300000F01AFA019600BF0198A842F6D2019878
:100A400001300190F8E70000002804BF0120704742
:100A500090F82510022915D10168D0E910C30A6861
:100A600022F001020A600A6822F00E020A6003F016
:100A70001C01012202FA01F1CCF80410002180F8D7
:100A8000252002E00421C1630121002280F82420F6
:100A90000846704790F82510022921D180B50268D8
:100AA000D0F838C0D0E910E1136801F01C0123F040
:100AB000010313601368BCF1000F23F00E031360F1
:100AC0004FF0010202FA01F1CEF804104FF00001DC
:100AD00080F8252080F8241018BFE047002080BD52
:100AE0000421C1630120704770B5D0E910C20168CC
:100AF000DCF8004002F01C0304220E689A402242F7
:100B000018BF16F004051ED1022202FA03FE1EEAE7
:100B1000040F18BF16F0020221D124FA03F21207C3
:100B20001CD516F0080208BF70BD0A6822F00E023C
:100B30000A60012101FA03F2CCF80420C16380F8B5
:100B40002510416B21E00B689B0603D40B6823F052
:100B500004030B60CCF80420016BD9B970BD0A689E
:100B6000920606D40A6822F00A020A60012280F87E
:100B700025200422C4F2020202F17C03994288BFBC
:100B800002F58062C2F800E0C16A0022002980F804
:100B90002420E3D0BDE8704008470000002804BFCF
:100BA000012070472DE9F04340F2000CC4F2020C22
:100BB00002684FF6F8310CF58163CBF6FD719A426D
:100BC00038BF01F580614CF6CD431144CCF6CC43DF
:100BD000A1FB03136FF003060CF5806506EA93038F
:100BE000D0E9029ED0F810803CBF0025C4F2020577
:100BF000C0E91053022380F82530136847F6F075DA
:100C0000AB43136000F11407E8CF4EEA0801194323
:100C10002943146831433943214341EA0901B9F5B5
:100C2000804F116017D0D0E910124FF495664368D9
:100C300002F01C020F27614508BFA8265CF80610C9
:100C40009740B9434CF806105CF8061003FA02F21C
:100C500011434CF8061000210122C16380F82520C1
:100C600080F824100020BDE8F0830000B0B50446F1
:100C700000F008F9054640F20400C2F200000078D6
:100C8000611C18BF044400BF00F0FCF8401BA042E8
:100C9000FAD3B0BD7047000040F21441C4F2010124
:100CA0000A68024214BF08607047FFF7F3BF0000F4
:100CB0002DE9F04F83B00C68002C00F0CF8000F1DC
:100CC000200240F2004C009240F60002C4F2010CF7
:100CD000C4F60002072300254FF0010B00274FF058
:100CE000000A904208BF022301934DE040F2004207
:100CF000C4F60002DDF80480904208BF4FF00108FE
:100D000005F00C060F22B2402EEA020208FA06F69F
:100D10004FEA9A03324344F82320DCF808204B685A
:100D200042EA090640F20C4EDC0258BF22EA0906EC
:100D3000CCF80860C4F2010EDEF800209C0242EA02
:100D4000090658BF22EA0906CEF80060DCF8042044
:100D50009C0342EA090658BF22EA0906CCF804605F
:100D6000DCF80020DB0342EA090658BF22EA090644
:100D7000CCF800600C680AF1010A34FA0AF207F1B3
:100D8000020705F1040569D00BFA0AF614EA060910
:100D9000F0D0D1F8048008F0030EAEF10102012A70
:100DA0004FF0030202FA07F411D88268D1F80CB0B0
:100DB000A2430BFA07F31A4382604268C8F3001398
:100DC000B24303FA0AF34FF0010B1A434260BEF13B
:100DD000030F1ED0C2688B68A243BB401A43BEF10A
:100DE000020FC26015D16FF0030202EA5A0B009A9B
:100DF00005F01C060F2352F80BE003FA06F80B6906
:100E00002EEA080EB34043EA0E0342F80B304FF0CF
:100E1000010B02684B68A24303F00306BE40324355
:100E200013F4403F0260A5D041F26003C4F2020314
:100E30001A68ACF57E7442F001021A601A68B0F1CB
:100E4000904F02F001020292029A2AF0030254F833
:100E500002E07FF44BAF4FF0000851E703B000F021
:100E600000B830BCBDE8C08F426902EA010391437B
:100E700041EA0341816170471823002A08BF2823F3
:100E8000C150704740F6BC00C2F2000000687047D5
:100E9000002804BF0120704710B590F8411031B907
:100EA000002180F84010044600F056FD2046242121
:100EB00080F8411090E80610C4680B6822F0706258
:100EC00023F001030B600A618A68012C22F40042BE
:100ED0008A604FF4044208BF4FF4004242EA0C0219
:100EE0008A604A68022C22F4006208BF02F50062A0
:100EF0004A604A6800F1100442F0007242F4004275
:100F00004A60CA6822F40042CA601CCC1A4342EA12
:100F10000422CA60D0E907231A430A600A6842F033
:100F200001020A6000212022416480F8412001630F
:100F300080F84210002010BD2DE9F04F81B004462A
:100F40000020009094F84100202807D12068806993
:100F5000000403D494F84000012803D1022001B01A
:100F600000F0B4B8012084F84000242084F8410047
:100F700048F208001D464FF0000860F39F215F1CF7
:100F80004FF02009C4F84480E068934622680128A5
:100F900008468A4618BF40F400605060FFF772FFB1
:100FA000216806468A69896902F0200201F0100171
:100FB000891810D020688169C9061CD51021C1612B
:100FC00031E000BF20688169806901F0200100F0F4
:100FD00010004018EED1002FF4D0FFF753FF002D82
:100FE0005FD0801BA842EDD95BE000BF206880691C
:100FF00080062FD52068806980065BD4204629466C
:10100000324602F0CDF978BB002FF3D0FFF73AFF5C
:10101000002DEBD0801BA842ECD9E7E7206880695F
:10102000800633D52068806980060FD42046294683
:10103000324602F0B5F9F8B9002FF3D0FFF722FFDE
:10104000002DEBD0801BA842ECD9E7E72068C0F860
:101050001C9011E0606C40F02000606484F84190C6
:1010600084F8428084F84080606C042804D12068B1
:10107000C0F81C90C4F8448000985A460130009093
:10108000009851465845FFF47FAF0AE0606C40F08D
:101090002000606484F8419084F8428084F84080A5
:1010A000EAE7202084F84100606C40F02000606492
:1010B000012005E020682021C16184F84110002052
:1010C000002184F8401001B000F000B830BCBDE849
:1010D000C08F00002DE9F04F81B0044690F8410028
:1010E000202803D194F84000012803D1022001B048
:1010F00000F00EB9012089461E46174684F84000CC
:10110000FFF7C0FE216805468969090416D421202D
:1011100084F84100102084F8420000206064676277
:1011200066856063608DFF2822D94FF08071FF22B1
:1011300021E000BF206880690004E8D5204619211D
:101140002A4602F02DF9002840F0C980FFF79AFEE8
:10115000401B1A28EED3206880690004EAD5606C31
:1011600040F020006064202084F841000120C7E0A6
:10117000628D4FF0007149F60000CFF600402285E5
:10118000C2B117F8013B2668B3626762638D013B09
:101190006385531E23854B466FF39F23D2B243EAE8
:1011A00002427368114303EA0002114341F4005103
:1011B000716009E02268082753684E46034067F3D0
:1011C0009F26334319435160618D0A9F002974D0D3
:1011D0006FF39F2940F2000A09F100787E1C00F5A8
:1011E000806BC0F2FF1A03E0206880698007B6D5E3
:1011F00020688069800710D4204639462A4602F0CC
:10120000CFF800286BD1002EF2D0FFF73BFE002F65
:10121000EAD0401BB842EBD9E6E7616A206811F8D2
:10122000012B82626162618D01396185218D0139F5
:101230002185628DBAB3090406D034E02068806944
:1012400000067FF58CAF20688069000610D4204628
:1012500039462A4602F0A4F8002840D1002EF2D0E8
:10126000FFF710FE002FE9D0401BB842EBD9E5E7AD
:10127000608DB0F5807F0BD32068FF212185416808
:1012800001EA0B0141EA090141EA0A0141600AE071
:10129000608D216820854A68C0B248EA004002EAB1
:1012A0000B0210434860608D0028A1D105E000BF0B
:1012B0002068806980067FF552AF206880698006CB
:1012C00011D4204639462A4602F06AF838B9FFF7A9
:1012D000D9FD002FECD0401BB842EED9E8E7012041
:1012E00001B000F015B820682021C16142684EF6B7
:1012F0000003CFF600631A404260002084F84110DA
:10130000002184F8421084F8401001B000F000B8C9
:1013100030BCBDE8C08F00002DE9F04F81B004461D
:1013200090F84100202807D10A9E4EB10B9F3FB193
:1013300094F84000012807D1022001B000F078B9EC
:101340004FF4007060646FE101209B46914688462F
:1013500084F84000FFF796FD216805468969090475
:1013600028D4222084F84100402084F84200002044
:101370006064666267852168606349F6000A4046DA
:101380004B68CFF6004A6FF39F205FFA8BF28046DE
:1013900040EA024003EA0A02104400F500504860A7
:1013A00088690C9E80073CD4771C28E020688069FF
:1013B0000004D6D5204619212A4601F0F1FF002865
:1013C00040F03281FFF75EFD401B1A28EED3206803
:1013D00080690004EAD5606C40F020006064202041
:1013E00084F84100002084F842001BE120688069F5
:1013F000800740F10A8120688069800711D4204667
:1014000031462A4601F0CCFF002840F00A81002F27
:10141000F1D0FFF737FD002EE8D0401BB042EAD9EB
:10142000E4E72068BBF1010F23D04FEA1921816264
:10143000806980071CD4771C08E0206880698007D9
:1014400040F1E38020688069800711D4204631464E
:101450002A4601F0A5FF002840F0E380002FF1D0DC
:10146000FFF710FD002EE8D0401BB042EAD9E4E7B8
:1014700020685FFA89F181622068806940061CD487
:10148000771C08E020688069400640F1BE80206833
:101490008069400611D4204631462A4601F080FF7B
:1014A000002840F0BE80002FF1D0FFF7EBFC002EAB
:1014B000E8D0401BB042EAD9E4E7608D40F2000971
:1014C000B0F5807FC0F20119404609D3012221689E
:1014D000228551F8042F09F5105302EA0A020DE0A3
:1014E000628D2168228551F8043FD2B203EA0A03D3
:1014F00043EA024242F20043C0F200231A4302438D
:1015000000F1007B771C0AF5806A0A6004E020681D
:10151000806940077FF55FAF20688069400710D47D
:10152000204631462A4601F03BFF00287CD1002F9F
:10153000F2D0FFF7A7FC002EE9D0401BB042EBD958
:10154000E5E72068616A406A0870606A218D0130B1
:101550006062481E2085618D01396185618DB9B356
:10156000000405D034E02068806900067FF533AFC1
:1015700020688069000610D4204631462A4601F0D2
:101580000FFF002850D1002FF2D0FFF77BFC002E78
:10159000E9D0401BB042EBD9E5E7608DB0F5807F24
:1015A0000BD3206801212185416801EA0A0141EA43
:1015B000080141EA090141600AE0608D2168208547
:1015C0004A68C0B24BEA004002EA0A02104348608F
:1015D000608D0028A0D1204631462A4601F07AFFCE
:1015E00010BB20682021C16142684EF60003CFF68F
:1015F00000631A404260002084F8411084F84200E1
:1016000084F8400001B000F013B8606C40F0200096
:101610006064202084F84100002084F8420084F8AF
:101620004000002084F84000012001B000F000B824
:1016300030BCBDE8C08F00002DE9F04F81B00446FA
:1016400090F84100202807D10A9E4EB10B9F3FB170
:1016500094F84000012807D1022001B000F078B9C9
:101660004FF4007060646FE101209B46924689460A
:1016700084F84000FFF706FC2168054689690904E3
:101680002CD4212084F84100402084F8420000201E
:1016900060646662678560634846226849F6004870
:1016A0006FF39F205FFA8BF1CFF60048814640EA46
:1016B00001405168A8F580631940084440F08070EB
:1016C00040F40050506090690C9E80073DD4771C18
:1016D00029E000BF206880690004D2D52046192186
:1016E0002A4601F05DFE002840F02E81FFF7CAFB7C
:1016F000401B1A28EED3206880690004EAD5606C8C
:1017000040F020006064202084F84100002084F82C
:10171000420017E120688069800740F10681206857
:101720008069800711D4204631462A4601F038FEF0
:10173000002840F00681002FF1D0FFF7A3FB002E18
:10174000E8D0401BB042EAD9E4E72068BBF1010FC2
:1017500023D04FEA1A218162806980071CD4771C4C
:1017600008E020688069800740F1DF802068806998
:10177000800711D4204631462A4601F011FE002888
:1017800040F0DF80002FF1D0FFF77CFB002EE8D087
:10179000401BB042EAD9E4E720685FFA8AF181622F
:1017A0002068806900061CD4771C08E020688069E6
:1017B000000640F1BA8020688069000611D42046F6
:1017C00031462A4601F0ECFD002840F0BA80002F97
:1017D000F1D0FFF757FB002EE8D0401BB042EAD90A
:1017E000E4E7608DB0F5807F48460AD3FF22216888
:1017F000228551F8042F0023C0F2FF1302EA0802E9
:101800000BE0628D2168228551F8043FD2B203EAD1
:10181000080343EA02424FF000731A4340F2000B00
:10182000024300F1007A771CC0F2FF1B0A6004E05B
:101830002068806980077FF562AF20688069800733
:1018400010D4204631462A4601F0AAFD00287BD15B
:10185000002FF2D0FFF716FB002EE9D0401BB0425C
:10186000EBD9E5E7616A206811F8012B82626162B9
:10187000618D01396185218D01392185628DBAB370
:10188000090406D034E02068806900067FF537AF90
:1018900020688069000610D4204631462A4601F0AF
:1018A0007FFD002850D1002FF2D0FFF7EBFA002E79
:1018B000E9D0401BB042EBD9E5E7608DB0F5807F01
:1018C0000BD32068FF212185416801EA080141EA24
:1018D000090141EA0B0141600AE0608D2168208521
:1018E0004A68C0B24AEA004002EA0802104348606F
:1018F000608D0028A1D1204631462A4601F0EAFD3C
:1019000010BB20682021C16142684EF60003CFF66B
:1019100000631A404260002084F8411084F84200BD
:1019200084F8400001B000F013B8606C40F0200073
:101930006064202084F84100002084F8420084F88C
:101940004000002084F84000012001B000F000B801
:1019500030BCBDE8C08F00002DE9F0439BB00446C9
:10196000002501A854211A95CDE91855CDE9165541
:10197000FEF71EFF206845F60041C4F200018842D0
:1019800054D045F20041C4F20001884240F09980F1
:1019900040200190002601A80C9600F0A9F900282B
:1019A00018BFFFF739F841F24C05C4F20205286868
:1019B000032740F001002860286816A900F0010004
:1019C000009000984FF4C0601690122017900120EC
:1019D000189004201A904FF090401997FFF768F97B
:1019E000E868802140F40010E860E86840F284056F
:1019F00000F40010009000988020C2F20005C4F2AC
:101A00000200C5E900072846C5E90266C5E90416D3
:101A1000C5E906662E62FFF7C1F8002818BFFEF779
:101A2000FBFFE563AC621BB0BDE8F0834FF4807050
:101A3000019001A80D9500F05BF9002818BFFEF792
:101A4000EBFF41F24C05C4F20205286816AC40F0E9
:101A50000100286028684FF0120800F00100009093
:101A6000009828684FF0000940F0020028602868BC
:101A7000032600F0020000900098802016900427B2
:101A80004FF090402146CDF85C80CDF860901996DB
:101A90001A97FFF70DF9102016A981E8010340F20B
:101AA0000040C4F600002146CDE91967FFF700F9B0
:101AB000E86840F40000E860E86800F40000009086
:101AC00000981BB0BDE8F08340F2040040F6BC0172
:101AD000C2F20000C2F2000100780A6810440860F7
:101AE0007047000080B5032000F092F8002000F05D
:101AF00009F800281CBF012080BD00F031F800204B
:101B000080BD000040F20401C2F200010978002902
:101B100004BF0120704710B5044640F20000C2F235
:101B200000004FF47A720068B2FBF1F1B0FBF1F003
:101B300000F09AFF01460F2C4FF001000ED800294B
:101B400018BF10BD4FF0FF302146002200F034F8DE
:101B500040F208010020C2F200010C6010BD00003C
:101B600082B041F25800C4F20200816841F00101E4
:101B70008160816801F0010101910199016841F0E2
:101B800080510160006800F080500090009802B021
:101B900070470000002848BF704700F01F01012275
:101BA00002FA01F11C2202EAD0004EF20012CEF23B
:101BB000000281507047000010B54EF60C5CCEF26A
:101BC000000CDCF80030C3F3022E8EF00704042C66
:101BD00028BF0424BEF103034FF0FF3E0EFA04F4C5
:101BE00038BF0023A14399400EFA03F39A431143EF
:101BF00000F1604200F00F03090102F56442043B6A
:101C00006344002848BF03F10C02117010BD0000AE
:101C10004EF60C51CEF200010A684FF6FF031A404F
:101C200060F30A2242F0806040F0FD700860704767
:101C300047F2000CC4F2000CDCF80020B0F5007F85
:101C400002F4C0602BD1B0F5007F26D0DCF8000094
:101C5000012262F34A20CCF8000040F20000C2F2F8
:101C600000000068322358434DF68363C4F21B33EF
:101C7000A0FB030302EB9340002200BFDCF814102A
:101C8000013842F10003490501D5002BF6D1DCF8FB
:101C90001400400544BF0320704700207047B0F592
:101CA000806FFAD0DCF80000022161F34A20CCF802
:101CB000000000207047000047F20000C4F200005E
:101CC000006800F4C060704747F20000C4F20000F2
:101CD000016841F4807101607047000041F200002A
:101CE000C4F20200016841F0040101607047000085
:101CF0002DE9F04782B00446407841F2880700079A
:101D0000C4F2020702D44FF0000A2EE0E06BB8B133
:101D1000B0F5400F0ED0B0F5000F1BD157F87C0C7A
:101D20004FF0000A40F4803047F87C0CBAF1000F05
:101D30000ED114E04FF0000ABAF1000F08D10EE006
:101D4000201D002101F052FD8246BAF1000F06D09D
:101D5000D0460CE04FF0010ABAF1000FF8D1386814
:101D6000E16B20F44000084338604FF00008A07891
:101D7000800701D4C24664E057F8300C5FEAC0091E
:101D80000BD457F8300C40F0805047F8300C57F81F
:101D9000300C00F080500190019847F20005C4F229
:101DA0000005286840F480702860FFF76BF806464D
:101DB0002868C00506D4FFF765F8801B0328F7D311
:101DC0004FF0030ABAF1000F32D1B86810F4407036
:101DD00011D0216D88420BD0B868B96820F44070EA
:101DE00041F48031B960B96821F48031B960B860DC
:101DF000C00703D112E00020C0070FD0FFF742F860
:101E0000064641F2893500BFB868800706D4FFF75F
:101E100039F8801BA842F7D34FF0030ABAF1000F3C
:101E200006D1B868216D20F440700843C246B860FE
:101E3000B9F1000F05D457F8300C20F0805047F866
:101E4000300C2068C1070ED1810714D481061AD442
:101E5000810520D4410526D441062CD4C10532D4B5
:101E6000800438D451E03968226A21F0030111431B
:101E700039608107EAD53968626A21F00C011143A3
:101E800039608106E4D53968A26A21F440611143C2
:101E900039608105DED53968626B21F44021114338
:101EA00039604105D8D53968A26B21F4401111433E
:101EB00039604106D2D53968E26A21F440511143B4
:101EC0003960C105CCD53968226B21F4403111430A
:101ED0003960800419D53968206C21F040610143D4
:101EE000B0F1806F396009D0B0F1006F0DD157F8B3
:101EF0007C0C40F4801047F87C0C06E0201D01218A
:101F000001F074FC002818BF8246A078400719D55C
:101F10003968606C21F040610143B0F1806F396035
:101F200009D0B0F1006F0DD157F87C0C40F480104F
:101F300047F87C0C06E0201D012101F057FC002829
:101F400018BF8246607840060FD53868A16C20F033
:101F500040500843B1F1805F386006D1201D022156
:101F600001F044FC002818BF82466078000605D5C1
:101F70003868E16C20F0804008433860504602B079
:101F8000BDE8F0872DE9F04381B0002800F0B4806F
:101F900042F20008C4F202080446D8F800000D46D8
:101FA00000F0070081420DD9D8F8000020F00700AA
:101FB0002843C8F80000D8F8000000F00700A84245
:101FC00040F09A80206841F208098107C4F20209B2
:101FD0000DD5A168D9F8002002F0F002914206D98F
:101FE000D9F8002022F0F0021143C9F80010C00710
:101FF0004DD1206881070DD5A168D9F8002002F0E5
:10200000F002914206D2D9F8002022F0F0021143EA
:10201000C9F80010D8F8001001F007018D420CD269
:10202000D8F8001021F007012943C8F80010D8F8AB
:10203000001001F00701A9425ED1410707D5D9F888
:102040000010E26821F4E0611143C9F800100007B4
:1020500008D5D9F80000216920F4605040EAC10099
:10206000C9F80000D9F80000D9F8041010F00C00ED
:1020700005D00C2834D101F00301012930D159F8E1
:10208000081C09070ED4D9F88C10090A0DE0606805
:1020900059F8081CA0B302282CD0032850D189017C
:1020A0002AD52FE059F8081C090946F2941201F0CC
:1020B0000F01C0F6000252F8211000280A4618BF8E
:1020C00000220C2858D1D9F8040000F0030002289F
:1020D00039D0032804BF41F20021C0F27A0136E072
:1020E000042865D0082869D141F200220021C0F2FD
:1020F0007A02E6E7890305D4012001B0BDE8F08348
:102100008907F9D5D9F8001021F003010843C9F86F
:102110000000FEF7B7FE064641F28837D9F8000006
:10212000616800F00C00B0EB810F3FF462AFFEF786
:10213000A9FE801BB842F1D9032001B0BDE8F083AD
:102140004905D9D5DEE742F20041C0F2F401D9F8E1
:102150000400D9F80420C0F30210C2F30622514350
:10216000D9F804200130B1FBF0F0C2F34161022242
:1021700002EB4101B0FBF1F2D9F8000046F279110F
:10218000C0F30310C0F60001085C00F01F0022FA43
:1021900000F140F20800C2F2000040F200020068C4
:1021A000C2F20002116001B0BDE8F043FFF7AABC23
:1021B00042F200420021C0F2F40282E70022002134
:1021C0007FE7000040F2000041F20801C2F2000087
:1021D000C4F202010068096846F28912C1F30221C3
:1021E000C0F60002515C01F01F01C84070470000BA
:1021F00040F2000041F20801C2F20000C4F2020104
:102200000068096846F28912C1F3C221C0F60002D3
:10221000515C01F01F01C8407047000041F20C0101
:10222000C4F2020151F8040C10F00C02086805D049
:102230000C2A40D100F0030001283CD151F80C0CCD
:10224000000703D4D1F88800000A02E051F80C0C12
:10225000000946F2941300F00F00C0F6000353F893
:102260002030002A184618BF00200C2A18BF7047DB
:10227000086800F00300022806D0032804BF41F2DA
:102280000023C0F27A0303E042F20043C0F2F403F9
:1022900008680A68C0F30210C2F306220968013018
:1022A0005A43B2FBF0F0C1F34161022202EB41015B
:1022B000B0FBF1F07047042A07D0082A0BD141F295
:1022C00000200023C0F27A00CFE742F20040002352
:1022D000C0F2F400C9E700200023C6E7002804BFCD
:1022E000012070472DE9F04383B041F20006044617
:1022F000C4F20206B068F168227800F00C09D0063A
:1023000001F0030819D42078C00700F0F880B9F173
:10231000080F40D0B9F10C0F08BFB8F1030F3AD045
:1023200065683068B5F5A02F00F0BF80B5F5803F37
:1023300040F0C28040F48030C4E0B9F1000F1BD0FF
:10234000B9F10C0F08BFB8F1010F15D0A1693068C1
:10235000002979D040F001003060FEF793FD05467A
:102360003068800700F18280FEF78CFD401B022858
:102370004FF00300F4D92CE33068800703D5A0693F
:10238000002800F0CB82256A306800070CD4D6F80C
:102390009400000909E03068800340F1B080606873
:1023A000002840F0AC80B9E2306800F0F0008542CF
:1023B00019D9B06DC0006BD4B06D40F08050B065DD
:1023C000B06D00F0805001900198FFF775FCB16D81
:1023D00021F08051B165B0F5007F5ED0802D40F2D4
:1023E0003182032038E23068B9F1000F40F0080074
:1023F0003060306820F0F00040EA0500306070681E
:10240000E16920F47F4040EA0120706040F074826E
:10241000B06DC00000F14082B06D40F08050B065FA
:10242000B06D00F0805002900298FFF745FCB16D4E
:1024300021F08051B165B0F5007F00F03382802D2E
:1024400040F24282032049E220F001003060FEF7B2
:1024500019FD0546306880077FF555AFFEF712FD80
:10246000401B02284FF00300F4D9B2E2306840F07C
:10247000080030603068D4E9071220F0F000104303
:102480003060706820F47F4040EA012070603AE7D5
:10249000FFF712FCB0F5007FA0D1812DC0F0DB81E9
:1024A0000120A02D88BF0220D6E140F480203060BA
:1024B000306840F4803005E020F4803030603068CF
:1024C00020F480203060FEF7DDFC002D054613D09F
:1024D0003068800313D4FEF7D5FC401B64284FF00E
:1024E0000300F5D975E200BFFEF7CCFC401B642861
:1024F0004FF0030000F26D8230688003F4D420783E
:1025000080072CD5B9F1040F1BD0B9F10C0F08BF0F
:10251000B8F1020F15D0E1683068002900F07F8122
:1025200040F480703060FEF7ADFC05463068400531
:102530000ED4FEF7A7FC401B02284FF00300F5D98C
:1025400047E23068400503D5E068002800F0E681E6
:102550007068216920F0F85040EA016070602078CE
:10256000000760D42078400777D42078800600F1F7
:10257000A580A06A002800F0A381022840F0CB804B
:10258000F068E16A00F003028A4240F0DB80226BCF
:102590006FF00F0300F0700103EB0212914240F064
:1025A000D180616B00F4FE42B2EB012F40F0CA8093
:1025B000A16B00F07842B2EBC16F40F0C380E26BD8
:1025C0000023CFF6E07303EA025200F4C001A2F543
:1025D0000012914240F0B680216C4FF07E4202EA38
:1025E000016100F0C06001F17E41884240F0AA80A4
:1025F0003068800100F16481306840F080703060A4
:10260000F06840F08070F060FEF73CFC04463068F3
:10261000800100F15581FEF735FC001B02284FF0C8
:102620000300F4D9D5E16169D6F8940000295ED0A1
:1026300040F00100C6F89400FEF724FC054600BFF8
:10264000D6F8940080078DD4FEF71CFC401B0228AE
:10265000F6D9032003B0BDE8F083B06D5FEAC0088F
:1026600008D4B06D40F08050B065B06D00F080507F
:102670000090009847F20007C4F200073868C005D0
:1026800011D4386840F480703860FEF7FBFB0546D3
:102690003868C00507D4FEF7F5FB401B02284FF051
:1026A0000300F5D995E1A568D6F89000052D7AD0FC
:1026B000012D40F0818040F0010085E0616AD6F88C
:1026C000980000295AD040F00100C6F89800FEF7A3
:1026D000D9FB0546D6F8980080073FF54AAFFEF7CC
:1026E000D1FB401B02284FF00300F3D971E120F029
:1026F0000100C6F89400FEF7C5FB0546D6F8940025
:1027000080077FF52FAFFEF7BDFB401B02284FF07F
:102710000300F3D95DE1B9F10C0F00F0FF803068E0
:1027200020F080703060FEF7ADFB04463068800119
:1027300040F1BF80FEF7A6FB001B02284FF003000C
:10274000F4D946E1B9F10C0F00F0E880306840019F
:1027500000F1E480306820F080703060FEF792FB7A
:10276000054600BF3068800140F13F81FEF78AFBDB
:10277000401B02284FF00300F4D92AE120F00100A9
:10278000C6F89800FEF77EFB054600BFD6F8980015
:1027900080077FF5EEAEFEF775FB401B02284FF079
:1027A0000300F3D915E140F00400C6F89000D6F814
:1027B000900040F0010007E020F00100C6F8900012
:1027C000D6F8900020F00400C6F89000FEF75AFBFF
:1027D000002D054641F2883714D000BFD6F890008E
:1027E000800713D4FEF74EFB401BB8424FF00300A6
:1027F000F4D9EEE0FEF746FB401BB8424FF0030071
:1028000000F2E780D6F890008007F3D4B8F1000F0B
:102810003FF5ABAEB06D20F08050B065A5E620F47A
:1028200080703060FEF72EFB054600BF3068400523
:102830007FF595AEFEF726FB401B02284FF0030004
:10284000F4D9C6E0A5F17000B0FA80F04009802DFF
:1028500008BF022000E0002042F20001C4F20201A1
:102860000A6822F0070202440A60096801F00701C1
:10287000814253D1306840F0080030603068D4E9BC
:10288000071220F0F00010433060706820F47F40A1
:1028900040EA012070602FE0FFF70EFAB0F5007FEC
:1028A0007FF4CDAD812D18D30120A02D88BF02204B
:1028B00014E0F0684FF6FC71CFF6EE610840F0606E
:1028C000002003B0BDE8F083A5F17000B0FA80F0FD
:1028D0004009802D08BF022000E0002042F20001E4
:1028E000C4F202010A6822F0070202440A60096881
:1028F00001F00701814211D1B068F16810F00C00BD
:1029000005D00C282AD101F00301012926D1316814
:10291000090707D4D6F89410090A05E0012003B08E
:10292000BDE8F0833168090946F2941201F00F0105
:10293000C0F6000252F8211000280A4618BF0022F3
:102940000C282BD1F06800F00300022810D00328D7
:1029500004BF41F20021C0F27A010DE004283BD00F
:1029600008283FD141F200220021C0F27A02E7E7B5
:1029700042F20041C0F2F401F068F268C0F30210C4
:10298000C2F306225143F2680130B1FBF0F0C2F30A
:102990004161022202EB4101B0FBF1F2B06846F264
:1029A0007911C0F30310C0F60001085C00F01F00AD
:1029B00022FA00F140F20800C2F2000040F20002E8
:1029C0000068C2F200021160FFF79CF800283FF493
:1029D0009AAC03B0BDE8F08342F200420021C0F29D
:1029E000F402ADE700220021AAE7F06848F28C016A
:1029F000C0F29D1104F12C0700EA010C8ECF6FF09C
:102A00000F00D4E90F5400EB02100022CFF6E07261
:102A100041EA0C0102EA05520843A2F500124FF008
:102A20007E4540EA032005EA0465104305F17E4532
:102A300040EAC7602843F060306840F08070306042
:102A4000F06840F08070F060FEF71CFA04463068D1
:102A500080013FF535AFFEF715FA001B02284FF055
:102A60000300F4D9B5E70000411E0020B0EB116F60
:102A70001CBF012070474EF21002CEF200025160DE
:102A80004EF62351CEF20001F0230B700721906027
:102A900011607047002804BF01207047B0B590F85E
:102AA0003D1031B9002180F83C10044600F066F872
:102AB0002046022180F83D10016842F6004E0A6867
:102AC000C4F2010E714502D0B1F1804F03D1846888
:102AD00022F07002224343F6FF74C4F2010444F270
:102AE000004CA142C4F2010C05DCB1F1804F0AD0C8
:102AF000714508D00BE0614505D044F20004C4F2F2
:102B00000104A14203D1046922F4407222434368C4
:102B1000C56884697145CD628B6218BF614525D156
:102B200043690B630B6822F0800243F004032243E5
:102B30000B6001234B610A6080F8483080F83E301A
:102B400080F83F3080F8403080F8413080F84230E3
:102B500080F8433080F8443080F8453080F84630C3
:102B600080F8473080F83D300020B0BD44F20003CB
:102B7000C4F201039942D3D0D4E700000068B0F159
:102B8000804F18BF704781B041F25800C4F2020074
:102B9000016841F001010160006800F0010000904F
:102BA000009801B07047000090F83D10012925D130
:102BB000022180F83D100168B1F1804F0BD044F242
:102BC0000000C4F20100814205D042F60040C4F288
:102BD000010081420CD188680722C0F20102024044
:102BE000062A4FF000000AD0B2F5803F08BF7047B8
:102BF000086840F00100086000207047012070471D
:102C000070470000704700007047000070B5026810
:102C100040F62F03D169166894680B40202B06F00C
:102C2000200E07D1BEF1000F04D0816E41B3BDE884
:102C30007040084740F60F03194209D040F22013B4
:102C4000C0F2004304F0010C334013EB0C0324D119
:102C5000036ECD0615D5012B13D116F0100310D03D
:102C600010211162916849062CD4B0F85810B0F8C0
:102C70005A20B0F85A30002B18BF914240F04081E2
:102C800070BDCB0211D514F480030ED04FF4801127
:102C90001162BDE87040FFF7B5BFCB0718BF16F44F
:102CA00080736AD18B0772D47CE00A0640F10B81F5
:102CB00016F0800200F00781C16E0029E0D0BDE867
:102CC00070400847416F0A6851688BB2002B49D0A9
:102CD000B0F85860B34245D2A0F85A10116889067E
:102CE00034D400BF016851E8001F026821F48071EC
:102CF00042E80013002BF5D1016851E8021F026879
:102D000021F0010142E80213002BF5D1016851E8DE
:102D1000021F026821F0400142E80213002BF5D1A6
:102D20002021C0F880100021016600BF016851E831
:102D3000001F026821F0100142E80013002BF5D1BA
:102D4000416F04460846FDF77FFE2046022141669A
:102D5000B0F85810B0F85A20891A89B2BDE870400E
:102D6000FFF74EBFB0F8581099427FF489AF126850
:102D700092067FF585AF0222EAE001231362D0F8C4
:102D8000843043F00103C0F884308B070AD5BCF1CE
:102D9000000F07D002231362D0F8843043F00403FD
:102DA000C0F884304B070AD5BCF1000F07D00423CC
:102DB0001362D0F8843043F00203C0F884300B076C
:102DC0000AD55CEA0E0307D008231362D0F88430DA
:102DD00043F00803C0F884300B050BD516F0806370
:102DE00008D04FF400631362D0F8842042F0200230
:102DF000C0F88420D0F88420002A3FF441AF89062F
:102E000007D5BEF1000F04D0816E11B1044688478A
:102E100020460168D0F88420896802F0280201F079
:102E20004001891806D10446FFF7EEFE0020C4F8E1
:102E3000840070BD016851E8001F026821F49071A0
:102E400042E80013002BF5D1016851E8021F026827
:102E500021F0010142E80213002BF5D1016E012996
:102E60000AD100BF016851E8001F026821F010017B
:102E700042E80013002BF5D12021C0F8801000217A
:102E80000166026881669168490635D5016851E896
:102E9000021F026821F0400142E80213002BF5D125
:102EA000416F49B343F61D42C0F60002044608468E
:102EB0008A63FDF7EFFD00283FF4E2AE606F816B9F
:102EC000BDE87040084749067FF5DAAE16F04001CC
:102ED00008BF70BD016851E8001F026821F0400181
:102EE00042E80013002BF5D12021C1670021C16603
:102EF000BDE8704000F042B9BDE87040FFF784BE05
:102F0000891A00BF026852E8002F036822F4907209
:102F100043E80026002EF5D1026852E8022F03682C
:102F200022F0010243E80226002EF5D12022C0F84B
:102F30008020002202668266026852E8002F036841
:102F400022F0100243E80026002EF5D1022289B2B9
:102F50004266BDE87040FFF753BE000010B5C0B137
:102F60000446C06F28B9002084F87800204600F09D
:102F700025F82420E0672068616A026822F00102D7
:102F8000026011B1204600F077FD204600F04AFEB5
:102F900008B1012010BD2168486820F490404860C5
:102FA000886820F02A008860086840F00102204606
:102FB0000A60BDE8104000F0D3BD0000B0B59CB081
:102FC0000446002502A854211B95CDE91955CDE9E9
:102FD0001755FDF7EDFB206844F20041C4F20001F3
:102FE000884201D01CB0B0BD022402A802940B9507
:102FF000FEF77EFE002818BFFDF70EFD41F24C00E3
:10300000C4F20200C168072541F40031C160C16803
:1030100001F4003101910199016841F00101016061
:10302000006800F00100019001980420CDE9170428
:1030300000201990032017AC1A904FF090402146C1
:103040001B95FDF735FE4FF4004017904FF0904070
:1030500021461B95FDF72CFE262000210022FEF7BD
:10306000ABFD2620FEF796FD1CB0B0BD2DE9F04368
:1030700081B00446C06F202809D1894600294FF04D
:10308000010018BF002A06D101B0BDE8F08302207C
:1030900001B0BDE8F0830020C4F8840021201D4663
:1030A000E0671646FDF7EEFEA4F85060A4F8526003
:1030B000A1680646B1F5805F02D12069002855D08D
:1030C000C8464FF00009B4F8520088B36F1C00BF27
:1030D0002068C06900060DD4002FF9D0FDF7D2FE9C
:1030E00001464FF00300E5B3891BA94239D8206897
:1030F0000068EDE7B8F1000F04D018F8010B216863
:10310000886207E039F8020B21686FF35F2088625C
:103110004FF00008E06F00F02100212829D1B4F819
:1031200052000138A4F85200B4F852000028CFD160
:103130002068C069400613D46F1C03E02068C06992
:1031400040060DD4002FF9D0FDF79CFE01464FF04C
:10315000030035B1891BA94203D820680068EDE758
:1031600000202021E16701B0BDE8F0834FF00008A6
:10317000A9E7012001B0BDE8F0830000704700001E
:10318000017D012918BF704790F89020C1681E2A60
:10319000944628BF4FF01E0C21B14EF66023B3FBBE
:1031A000F1F101702DE9F043CAB100F114030021DF
:1031B000664600BF53F8045F013E2944FAD18AB144
:1031C000B1FBFCF300F114060021654656F8044FEC
:1031D000013DA4EB030404FB0411F7D103E000213B
:1031E000002AEDD10021B1FBFCF3022B01D21946DC
:1031F00009E00126194600BF8D196908B3FBF1F6F5
:10320000B6EB550FF8D3892353431E0B3601A6EBBB
:103210001333A2EB43061E2A38BF0026022A816020
:1032200037D3F3B2012151FA86F100EB830648F659
:103230008908CCF1000206F11C0406F118054FF0D4
:10324000000EC8F6880800BFA1FB0879A3FB08762A
:103250004FEA19173609A7EB0717A6EB061654F81D
:10326000377055F836600132BE1B06FB06EE04349B
:1032700001310435561C03F10103E5D1ACF1010124
:103280000A060BD0C9B2BEFBF1F2022A08D21146DF
:103290000FE04FF0000E00210A06F3D1002108E0F4
:1032A00001231146CF187908B2FBF1F3B3EB570FA6
:1032B000F8D34F294160BDE8F04302D900224270A3
:1032C00070470B294FF06402F9D35143A1F57A718D
:1032D0004AF2EB034908CEF60E23A1FB0313A2EB3F
:1032E00053124270704700000269002A53D070B533
:1032F0008A1AA2F5C02346F6E755A3F5D453C0F2C7
:103300001805AB4245D844F6D353C1F26203A2FB81
:10331000032390F890204FEA931C032A22D3964669
:103320001E2A28BF4FF01E0E00F11404002375461C
:1033300054F8046F013D3344FAD1B3FBFEF34B253F
:1033400048F21F5E03FB05F4C5F2EB1EA4FB0E451D
:10335000BCEB551F1DD37D246343A3FB0E356B09C6
:103360009C4516D8892353431E0B3601A6EB133315
:10337000A2EB4303DBB200EB83030132C3F818C0B6
:10338000D3B2C0F80CC0022B80F8902024BF0122D9
:103390000275BDE87040016170470000FEE7000063
:1033A0002DE9F04381B00446006816468369DA06C9
:1033B00002D40021002048E00D461021C1612068A0
:1033C0008169890634D4002705F101094FF000080E
:1033D00008E048F0200801272068816901F02001F9
:1033E000394328D1B9F1000FF6D0FDF74BFD15B1E7
:1033F000801BA842F0D92068426894F84210836983
:103400001B040BD512F4804208D1202906D0416854
:1034100041F480414160FDF735FD06462068806932
:103420008006D9D4FDF72EFD801B1A28F6D3D0E7ED
:103430000122042104E0B7FA87F14A0948F00401A7
:10344000002A1CBF2022C261012022689369DF0587
:1034500007D45F050DD49B0513D4D0B901B0BDE8E6
:10346000F0834FF4807041F00101D06101205F05CD
:10347000F1D54FF4806041F00801D06101209B0537
:10348000EBD54FF4007041F00201D061012000281B
:10349000E4D093699B0744BF002393629369DB07E1
:1034A00003D1936943F00103936153684EF600071B
:1034B000CFF600673B405360626C1143616420218A
:1034C00084F84110002184F8421084F8401001B0C3
:1034D000BDE8F08370B5044600688069800619D4A1
:1034E00015460E4608E000BF20688069800615D5A5
:1034F0002068806980060DD4204631462A46FFF7B1
:103500004FFF48B9FDF7BEFC002EEDD0401BB04286
:10351000EED9E9E7002070BD012070BD606C40F07D
:1035200020006064202084F84100002084F84200DC
:1035300084F84000012070BDF0B587B004464020FB
:103540008DF8120001260DF112003225CDE900069A
:103550002046AE21092201230295FEF76DF808B13D
:1035600007B0F0BD4FF49670FDF780FB1F208DF87B
:1035700013000DF11300CDE900062046AE2108220C
:1035800001230295FEF758F80028E9D103208DF8B1
:103590001400012605A83225CDE900062046AE21FB
:1035A000092201230295FEF747F80028D8D12720E9
:1035B0008DF815000DF11500CDE900062046AE216D
:1035C0000A2201230295FEF737F80028C8D1012707
:1035D0000DF1160024263225CDE900072046AE2144
:1035E0000C2201238DF816600295FEF725F80028BD
:1035F000B6D10DF11700CDE900072046AE210D220E
:1036000001238DF817600295FEF716F80028A7D160
:1036100080208DF81800012606A83225CDE9000685
:103620002046AE21022201230295FEF705F800286C
:1036300096D10DF119000027CDE900062046AE21F4
:10364000042201238DF819700295FDF7F5FF00287B
:103650007FF486AF01260DF11A003225CDE9000670
:103660002046AE21062201238DF81A700295FDF73F
:10367000E3FF00287FF474AF00208DF81B000DF1EC
:103680001B00CDE900062046AE210522012302954C
:10369000FDF7D2FF00287FF463AF322001210DF146
:1036A0001102CDE9002102902046AE210022012323
:1036B000FDF732FE002007B0F0BD00002DE9F04319
:1036C00087B0044601260DF11B0091460F463225B6
:1036D000CDE900062046AE21042201230295FDF724
:1036E0001BFE002849D10DF11A0000902046AE21A2
:1036F0000622012302950196FDF70EFEE8BB9DF818
:103700001B009DF81A10884201D1012635E00620E1
:1037100005A94FF03208CDE900102046AE2107225E
:103720000123CDF808800126FDF7F6FD28BB9DF8A2
:1037300014009DF8151000F003009DF816200004F9
:103740009DF8173040EA01201044386003F0030070
:103750009DF8181000049DF8192040EA012010443B
:10376000C9F800000DF113008DE841012046AE219B
:10377000002201230026FDF7CFFD304607B0BDE84B
:10378000F083000070B584B0044600208DF80F006F
:103790008DF80E0001260DF10F003225CDE900064F
:1037A0002046AE21042201230295FDF7B5FD0DF15F
:1037B0000E00CDE900062046AE2106220123029527
:1037C000FDF7AAFD9DF80F009DF80E10401A20305D
:1037D00000EBD06101F0E001401AC0B204B070BD4E
:1037E000FEE70000FEE70000704700002DE9F04111
:1037F00041F20004C4F20204E2680E4691078046DA
:1038000013D0E168D8F8000001F0030181420AD129
:1038100048B1E068D8F80410C0F3021001308842C3
:1038200001D100252DE001252BE0D8F8000001286A
:103830000DD0032804D0022814D14FF4806107E092
:103840002168890300F17F804FF4802100E002218C
:1038500022681140B1FA81F24FEA521518BF0121D6
:1038600019B90EE00125002159B1E168D8F804200A
:103870006FF00F0321F0730103EB021211430843B1
:10388000E0608DB9206820F080602060FDF7FAFAD2
:10389000074600BF2068000105D5FDF7F3FAC01BFD
:1038A0000328F7D3032515B12846BDE8F081216927
:1038B000D8F80800012E4FEA002009D0CEB948F20E
:1038C000FF02D8F80C30C0F2FF721140DA061DE09A
:1038D00048F2FF02CFF6FF1202F1B4621140D8F8AD
:1038E00010200023CFF6E07303EA0252A2F5001283
:1038F0000CE048F2FF02CFF6FF121140D8F8142076
:103900004FF07E4303EA026202F17E420843104315
:103910002061206840F080602060FDF7B3FA064621
:103920002068000105D4FDF7ADFA801B0328F7D30A
:103930000325002DB8D1D8F818002169084320616B
:103940002846BDE8F0810025012100297FF48DAFD4
:1039500097E7000070470000FEF7B6B870B598B062
:1039600006A84421FCF724FF00254FF400700595BC
:10397000CDE90355CDE90155FEF75AF9A8B140F25A
:10398000004443F20056C4F60004C0F20C0600BF27
:1039900020460821FDF768FA179500BF1798B04236
:1039A000F6D2179801301790F8E7FEF78DF941F23B
:1039B0009000C4F20200016821F018010160142097
:1039C0006021069001200E9102210890CDE90C059E
:1039D000CDE910101290282013900720CDE9140192
:1039E00006A81691FEF77AFCA8B140F2004443F213
:1039F0000055C4F60004C0F20C050026204608213C
:103A0000FDF732FA179600BF1798A842F6D217981A
:103A100001301790F8E70F20019003200290002555
:103A200001A80421CDE903550595FEF7ABFAA0B135
:103A300040F2004443F20056C4F60004C0F20C0603
:103A400020460821FDF710FA179500BF1798B042DD
:103A5000F6D2179801301790F8E7FEF73FF918B043
:103A600070BD00004EF68850CEF20000016841F4AF
:103A70007001016070470000416A0A070CD4CA0750
:103A800015D18A071ED44A0727D4CA0630D48A061D
:103A900039D44A0642D457E00268D0F834C053689B
:103AA00023F4004343EA0C035360CA07E9D00268D9
:103AB000D0F828C0536823F4003343EA0C03536062
:103AC0008A07E0D50268D0F82CC0536823F480330D
:103AD00043EA0C0353604A07D7D50268D0F830C0D8
:103AE000536823F4802343EA0C035360CA06CED5FF
:103AF0000268D0F838C0936823F4805343EA0C037B
:103B000093608A06C5D50268D0F83CC0936823F458
:103B1000005343EA0C0393604A0615D5D0F800C061
:103B2000036CDCF80420B3F5801F22F4801242EA13
:103B30000302CCF8042007D1DCF80420436C22F403
:103B4000C0021A43CCF80420090658BF7047016828
:103B5000806C4A6822F400221043486070470000DD
:103B6000B0B582B004460020C4F88400FDF78AF99D
:103B700021680546096809071AD56FF07E4C204672
:103B80004FF4001100222B46CDF800C000F04EF992
:103B900070B100BF206850E8000F216820F080005D
:103BA00041E80002002AF5D1032020217C222FE0E9
:103BB00020680068400723D56FF07E4C20464FF404
:103BC000800100222B46CDF800C000F02FF9B8B1DB
:103BD000206850E8000F216820F4907041E800024E
:103BE000002AF5D1206850E8020F216820F001007A
:103BF00041E80202002AF5D103202021802207E0BB
:103C00002020E067C4F880000021642200202166A3
:103C1000A150002184F8781002B0B0BD806AFEF790
:103C2000F3BF0000B0B5044604F108052ECD0068CE
:103C3000194341EA0503D4F81CC0056846F6F311A0
:103C4000CEF6FF712940194341EA0C010160416839
:103C500021F440511143416048F20002A369C4F2CB
:103C6000000290421CBF216A0B43816821F430613D
:103C7000194344F20043C4F200039842816015D016
:103C800090420CD043F60001C4F2010188421CD1DD
:103C900041F28801C4F202010B6860A510E041F214
:103CA0008801C4F2020109688B0A05E041F288012B
:103CB000C4F2020109688B0846F2C415C0F600057B
:103CC00003F0030155F8213000E01023904242F246
:103CD0000040C0F2F40012D0BCF5004F1DD1082BFB
:103CE00000F253800025DFE803F005586250605071
:103CF00050508E00FEF766FA002859D17BE0082B61
:103D00003ED80025DFE803F0053C1E3C183C3C3C57
:103D10001C00FEF757FAB8B96DE0082B39D800251A
:103D2000DFE803F0053F5B37593737377600FEF79A
:103D300049FA002852D15EE0FEF770FA20B95AE045
:103D40004FF40040002856D0626802EB42018842DE
:103D50004FF0010152D3130398424FD8010E0002D5
:103D600010EB520041F100010023FCF7A3FA4FF6DB
:103D70000052A0F54071C0F20F02914239D33CE0ED
:103D8000002001250028DFD135E00020012578B989
:103D900031E00020012508BB2DE0FEF729FA38B9F3
:103DA00029E0FEF725FAC8B925E0FEF737FA10B387
:103DB00061684A0802EB4000B0FBF1F04FF6EF7289
:103DC000A0F11001914218D84FF6F0710140C0F3F4
:103DD000420008440DE0FEF721FA60B161684FF639
:103DE000EF7200EB5100B0FBF1F0A0F11001914235
:103DF00003D82168C860294600E001210022084656
:103E0000A266E266B0BD4FF400400028D0D1F2E7D0
:103E10004FF400400028E1D1EDE700BF01000000B1
:103E20000400000002000000080000002DE9F0433B
:103E300081B004460068C0690840401AB0FA80F0BA
:103E40004009824255D1DDF8208015460E4699463C
:103E500008F1010709E000BF2068C0693040801BFD
:103E6000B0FA80F04009854243D1002FF4D0FDF72D
:103E700009F80146B8F1000F4FF003003AD0A1EB6A
:103E80000901414536D8206801684907E4D5402E2C
:103E9000E2D0802EE0D0C16909072ED4C16909059E
:103EA000DAD54FF400610162206850E8000F216804
:103EB00020F4907041E80002002AF5D1206850E813
:103EC000020F216820F0010041E80202002AF5D12A
:103ED000206E01280AD100BF206850E8000F216839
:103EE00020F0100041E80002002AF5D10320202133
:103EF0002AE0002001B0BDE8F0830821016200BF84
:103F0000206850E8000F216820F4907041E800021A
:103F1000002AF5D1206850E8020F216820F0010046
:103F200041E80202002AF5D1206E01280AD100BF23
:103F3000206850E8000F216820F0100041E80002DE
:103F4000002AF5D1012008212022C4F88020002277
:103F50002266A266C4F8841084F8782001B0BDE817
:103F6000F083000040F25420C2F20000FEF74EBE83
:103F7000FEE700002DE9F04F87B0DDF840B098462D
:103F800016460F46824600F0C1FF46F20831C0F6E1
:103F90000001504601F092F90DF1040952A2484681
:103FA00018213B460096FCF7FDF9504600210A22F5
:103FB0004B4601F02FF946F29671C0F600015046CB
:103FC00001F07CF9B8F1000F04D0B8F11D0F16D83C
:103FD00052A219E044F25850C0F24400049044F256
:103FE0005250C4F24C10039045F25330C2F23A00E2
:103FF000029045F25340C4F25250019009E0B8F1EA
:104000003B0F8CBF3DA241A201A818214346FCF7FB
:10401000C9F901AB50460021182201F0FBF85046C7
:1040200000211B22802300F07DFFDBF8000001212E
:10403000064600BF5BF821200131B242B8BF1646E8
:104040008242C8BF10468029F4D1B04233DD871BBD
:1040500000204FF03F084FF01D0900BF5BF8201013
:104060000BEB8002891B01EB0111490091FBF7F179
:104070005368C1F13F02991B01EB0111490091FB0B
:10408000F7F13F2A00F10104C1F13F05A8BF424604
:104090001D2AD8BF4A463F2DA8BF454681B2A3B2CC
:1040A00050461D2DD8BF4D46009501F019F87F2CC4
:1040B0002046D3D112E0504600212E22802300F06A
:1040C00031FF46F20831C0F60001504601F0F6F823
:1040D00016A350461821362201F09CF8504601F0F4
:1040E000E3F807B000F028B848523A25642062701F
:1040F0006D20204F323A2564252500005354524547
:1041000053533A20484947482025640053545245A8
:1041100053533A204D4544202564000053545245E2
:1041200053533A204C4F5720256400004E6F2053C4
:1041300069676E616C00000030BCBDE8C08F000094
:104140002DE9F04395B06D460B46044624A228465F
:104150005021FCF727F940F25428C2F2000882B23D
:10416000404629466423FEF781FF002601270FF20F
:104170007C0902E00137802F16D0780081B22046FA
:1041800003220523FCF7D8FE0028F3D1284650214E
:104190004A463B46FCF706F982B24046294664236C
:1041A000FEF764FF0136E5E7300602D015B0BDE842
:1041B000F08340F64550C0F20A00019044F62060BA
:1041C000C4F64F60009040F25420C2F200006946ED
:1041D00007226423FEF74AFF15B0BDE8F08300BF55
:1041E0005363616E2025733A0D0A0000202B30784E
:1041F000253032580D0A0000ADF5247D40F200460E
:1042000044F20048C4F60006C4F20008FDF76AFC58
:10421000FFF7A4FB002541F24C072695CDE9245574
:10422000CDE92255C4F202073868082140F00100A8
:1042300038603868002200F00100A390A398386825
:104240004FF0080940F002003860386800F00200C2
:10425000A390A3983046FCF70FFE4FF48070229095
:104260004FF4041022AC23904FF0010A4FF090401D
:104270002146CDF890A0FCF71BFD30462146CDE944
:10428000229AFCF715FD172000210022FDF794FC6F
:104290001720FDF77FFC57F8040C002140F00100C7
:1042A00047F8040C57F8040C002200F0010022909B
:1042B00022981120FDF780FC1120FDF76BFC40F2E5
:1042C0005420C2F200004FF4E1310C22C0E9008119
:1042D000C0E90255C0E90452FEF740FE88B143F23E
:1042E0000054C0F20C0400BF30460821FCF7BCFDAE
:1042F000229500BF2298A042F6D222980130229047
:10430000F8E70A20FCF7B2FC40F62A50C0F20A0097
:10431000CDF8930042F25400C2F62A20249044F2D1
:104320002020C4F64F70239040F60D2040F2542414
:10433000C2F62A20C2F20004229022A920460E22B0
:104340006423FEF793FE40F20000C2F2000003680F
:1043500022AD0FF6582228465021FCF723F882B2EE
:10436000204629466423FEF781FE46F21E2222AD36
:10437000C0F600020FF6402328465021FCF712F841
:1043800082B2204629466423FEF770FE062400BF51
:1043900030460821FCF768FD6420FCF767FC013C0F
:1043A000F6D146F21E2246F2592322ACC0F6000294
:1043B000C0F6000320465021FBF7F4FF82B240F222
:1043C0005420C2F2000021466423FEF74FFE40F263
:1043D000201049F6E44208F5C051C2F20000C1F2D3
:1043E000D1020125C0E90012C560FCF751FD90B172
:1043F00043F20054C0F20C04002500BF30460821EF
:10440000FCF732FD229500BF2298A042F6D22298F6
:1044100001302290F8E740F2201046F25921C2F212
:104420000000C0F60001FFF78BFE46F21E2246F2A6
:10443000542322ACC0F60002C0F6000320465021EF
:10444000FBF7B0FF82B240F25420C2F200002146D6
:104450006423FEF70BFE40F2CC0041F6202208F563
:104460008051C2F20000CCF22002C0E90012C56007
:10447000FCF70EFD88B143F20054C0F20C04002595
:1044800030460821FCF7F0FC229500BF2298A0429C
:10449000F6D2229801302290F8E740F2CC0046F2A2
:1044A0005421C2F20000C0F60001FFF749FE46F2B7
:1044B0001E2222ACC0F600020FF600132046502147
:1044C000FBF770FF82B240F25420C2F20000214696
:1044D0006423FEF7CBFD40F20820C2F200004FF04B
:1044E00080414FF0FF334F22002480E81600C36064
:1044F000FEF7D0FA88B143F20055C0F20C0500BFB8
:1045000030460821FCF7B0FC229400BF2298A84254
:10451000F6D2229801302290F8E740F20820C2F249
:104520000000FEF741FB40F64C55C0F20A0598B179
:1045300044F22060C4F64110239044F65410C3F2B4
:104540004D20229040F25420C2F2000022A90B22FA
:1045500064232495FEF78AFD46F21E2222ACC0F6A3
:1045600000020FF6600320465021FBF71BFF82B2CA
:1045700040F25420C2F20000214664232646FEF792
:1045800075FD40F2CC00C2F20000FEF7D5FF002816
:1045900040F2E42744F24D10C2F20007C2F2580084
:1045A00013D044F24611C4F64941CDF88F50CDE9FD
:1045B000220140F25420C2F2000022A90A22642300
:1045C000FEF754FD0020387060E044F64F3140F2B1
:1045D0005424C0F60D21C2F200040025CDE92201C9
:1045E00022A92046082264238DF89050FEF73EFD54
:1045F00040F63A50C0F20A00239044F25250C5F2FD
:1046000047304FF0010B229022A920460722642355
:1046100087F800B0FEF72AFD40F2CC070FF2B07821
:104620004FF014090DF5237AC2F2000703E000BF32
:1046300001350A2D26D018F805403846AE2122460D
:104640000123CDE900ABCDF80890FCF765FE00280A
:10465000EED19DF88C620DF1880B584650210FF277
:104660007C722346009622AEFBF79CFE82B240F29B
:104670005420C2F20000594664234FF0010BFEF7AC
:10468000F5FCD5E740F2E427C2F2000746F21E2807
:10469000C0F600080FF25473304650214246FBF733
:1046A00081FE40F25429C2F2000982B248463146E6
:1046B0006423FEF7DBFC40F22435C2F2000546F22B
:1046C000FC2145F6E14246F2A503C0F60001C0F622
:1046D0000002C0F60003284600F092FE284601F0D2
:1046E000A7FA28460021002401F0AEFA284600F07F
:1046F0000DFC46F20831C0F60001284600F0DEFD50
:1047000038780FF2F0610FF2F463002818BF0B46FF
:1047100028460A21232200F07DFD284600F0C4FD32
:104720004FF47A70FCF7A2FA22AD0FF2DC63284650
:1047300050214246FBF736FE82B2484629466423A2
:10474000FEF794FC40F27419C2F200094846942125
:10475000FCF72EF8FCF796FB209046F28420C0F67A
:104760000000016840F21C381E91416840F2CC07FD
:104770001D91816840F220351C91C168C2F2000889
:104780001B910169C2F200071A9141690DF5237A64
:1047900019918169007F1891179046F2A420C0F604
:1047A000000001680DF5227B16914168C2F20005F8
:1047B000159181681491C168139101691291416941
:1047C0001191018B807E10910F900FF25060416823
:1047D0000E9181680D91C1680C9101690B9141693D
:1047E0000A9181690991C1690891018C90F82200B0
:1047F0000791069006E000BF2098101AB0F5FA6FF6
:1048000080F08482FCF73EFBD8F800100246401A84
:104810000A282192C0F073813846C8F80020FEF7BC
:10482000B1FF00281F9000F022814FF008084FF0E0
:104830000009082838BF8046384651465A46CDE917
:10484000A244FEF73BFF054650B140F27C01C2F2A4
:104850000001086801300860002D00F000810DE1C2
:1048600040F28002C2F200021068A299013010608A
:1048700040F2DC22D346C2F20002116009BB48F2CA
:104880001F51C5F2EB11A0FB01125109642201FB7B
:104890001200012815D10A20ADF8900044F24750CB
:1048A000C0F65250239044F22160C4F64960229031
:1048B00040F25420C2F2000022A909226423FEF72C
:1048C000D5FBA29800F0CEFA40F6C022C2F2000258
:1048D000117840F6C003C0F1000A01F07F00C2F277
:1048E000000343F820A040F28000C2F200000068FC
:1048F000013140F2E82440F2EC2601281170C2F2A6
:104900000004C2F2000604BFC4F800A0C6F800A06C
:1049100021685145B8BFC4F800A03168514547F639
:10492000D501C2F2E96101FB00F041F26E214FEACC
:10493000B000C0F28301C8BFC6F800A088421AD8F0
:10494000206831680A1802EBD272A0EB6200C0EB5B
:104950000010C31700EB1370001100EB6200206021
:10496000A1EB6200C0EB0010C11700EB1170001149
:1049700000EB6200306040F2F420C2F200000168F7
:1049800040F2F020C2F200000068814256DA504541
:1049900054DD31682268521AC92AA8BF01284DDBAC
:1049A00002EB420246F267635200C6F2666352FBB4
:1049B00003F2931003EBD272114488423EDD40F2C1
:1049C000E020C2F20000006888B321990E1AA6F513
:1049D000C870B0F5C86F27D840F20820C2F20000B6
:1049E0000068416A40F27410C2F20000FEF77CFCDD
:1049F00040F27001C2F2000108684EF660220130F8
:104A0000B2FBF6F322AE0860304650210FF2FC32C2
:104A1000FBF7C8FC82B240F25420C2F200003146DB
:104A20006423FEF723FB02E0B6F5FA6F06D940F2E5
:104A3000E0202199C2F20000016000BF40F2F021A5
:104A4000C2F20001086840F2F422C2F20002C1F88A
:104A500000A00024DA460DF5227B106075B909F13B
:104A600001095FFA89F04045FFF4E6AE06E040F246
:104A70007801C2F200010868013008601F9840F216
:104A8000741940F21C3840F22035219A1E28C2F2D7
:104A90000009C2F2000822AEC2F200052FD340F690
:104AA0004650C0F20A00249042F24F00C5F24F6017
:104AB000239044F22160C4F24960229040F25420D5
:104AC000C2F2000031460B226423FEF7CFFA3846CB
:104AD000FEF732FD40F2F020C2F20000046040F226
:104AE000F420C2F20000046040F2E820C2F20000AC
:104AF000219A046040F2EC20C2F2000004602868B1
:104B000041F28831101A8842C0F0C68048462A60B7
:104B1000FEF736FB99F81400012840F09D8099F8C3
:104B200001000FF21C3846280CD828280FF21C3838
:104B300008D814280FF21C3846F25E20C0F6000098
:104B400088BF80461E9840F2542522901D98C2F2DC
:104B5000000523901C98314624901B981C22259018
:104B60001A986423269019982790189828901798D7
:104B70008DF8A4002846FEF779FA40F2E420C2F24C
:104B80000000007846F26E23002846F26620C0F648
:104B90000003C0F6000046F20F2218BF034630465D
:104BA0005021C0F60002FBF7FDFB82B228463146D9
:104BB0006423FEF75BFA99F8003046F2E9123046BA
:104BC0005021C0F60002FBF7EDFB82B228463146C9
:104BD0006423FEF74BFA99F8013046F2D4123046BE
:104BE0005021C0F60002FBF7DDFB82B228463146B9
:104BF0006423FEF73BFA46F2FE1230465021C0F61F
:104C000000024346FBF7CEFB82B2284631466423BE
:104C1000FEF72CFA16983146229015981A22239006
:104C20001498642324901398259012982690119834
:104C300027901098ADF8A0000F988DF8A200284694
:104C4000FEF714FA40F21C3840F22035C2F2000898
:104C5000C2F200051FE000BF7048314622900E9856
:104C6000222223900D98642324900C9825900B9871
:104C700026900A98279009982890089829900698D5
:104C80008DF8AA000798ADF8A80040F25420C2F2AF
:104C90000000FEF7EBF9219A40F21830C2F2000052
:104CA0000068101AFA28FFF4A7AD40F27400C2F2AF
:104CB000000013460246006840F2183101301060CF
:104CC00040F6C020C2F20001C2F200000B60007882
:104CD00040F6C0030021C2F2000300BF421802F0F8
:104CE0007F0253F8222046F8212001318029F5D196
:104CF00099F8001099F8013040F22430C2F2000017
:104D000062220096FFF736F9219A75E540F2E42019
:104D1000C2F2000000789346002840F2DC20C2F284
:104D20000000D0F800E040F27C0040F27802C2F2CD
:104D3000000040F28001C2F20002066840F27000FA
:104D400046F26923C2F200011268C2F20000C0F606
:104D500000030968D0F800C046F26620C0F60000E3
:104D600018BF0346CDE9022622AE46F22A22CDE93B
:104D700000E130465021C0F60002CDF810C0FBF72C
:104D800011FB82B240F25420C2F20000314664238B
:104D9000FEF76CF940F20040C4F600000821FCF771
:104DA00063F8CDF880B00DF5227B2BE5434C4B3AF0
:104DB000202575487A0D0A004C45440054494D326F
:104DC000000000004D415833303130320000000007
:104DD0000001040506090A0C0DFF000020253032F1
:104DE000583A253032580D0A000000004F4C454417
:104DF000000000004D4158204F4B00004D4158200D
:104E00004641494C0000000048525600424541547A
:104E10002025752062706D0D0A00000043414C434F
:104E2000554C4154494E472E2E2E20284E65656420
:104E3000206D6F7265206265617473290D0A000030
:104E40004849474820535452455353004D4544491F
:104E5000554D0000564552592052454C4158454445
:104E60000000000040F20D32C2F20002117840F260
:104E7000103C0029C2F2000C02BFCCF80000012354
:104E8000137080B540F2143EC2F2000EDEF800103E
:104E900040F2E333594344F6D353DCF80020C1F227
:104EA0006203CCF8000040F20C3C51FB03F1C2F26B
:104EB000000C821A8B119CF8000003EBD171CD23FA
:104EC00043439B0A03EB83031144C31A40F2F822C5
:104ED000DBB2C2F2000242F82310CEF8001000F15B
:104EE000010ED2E9000391681844D2E90332084464
:104EF000184446F267611044C6F2666150FB01F047
:104F0000411001EBD0708CF800E080BD80B50168E5
:104F100090F83820097C406B5143C900FBF726FC10
:104F200080BD0000F0B581B0DBB390F88C60C6B3F3
:104F3000B0F84C60B24234D3B0F84E60B24230D2D6
:104F4000B0F848C0B0F84AE05D18AEB271456446AA
:104F500038BF0C46AE422F4608BF0C46714538BFDD
:104F6000AEF10107AE4208BF3746BEB20025744518
:104F70004FF0000728BF0127664598BF01253D4334
:104F800008D1644588BFA446764538BFB646AEEB27
:104F90000C0361462DB9076B0026BF689BB20096D3
:104FA000B84701B0F0BD00002DE9F047002B00F03C
:104FB0008A8090F88C70002F00F08580089C022B6E
:104FC00005D3032C3FD0022C01D1C91A013114F0B2
:104FD000010A3DD1B0F84C6097B2B74273D3B0F834
:104FE0004E60B7426FD2B0F848E0B0F84A4013FACA
:104FF00081F61FFA81F97546B7B2A14538BF0D4653
:10500000B74208BF0D461FFA85F8A145354638BF9F
:10501000651EB74208BF3D46AEB2A0454FF000073F
:105020004FF0000528BF0127764598BF01252F4383
:1050300048D1F04588BFC646A64238BF3446A4EBE7
:105040000E0371463EE0D21A013214F0010AC1D0BB
:10505000B0F848608FB2B74235D3B0F84A60B74273
:1050600028BFBDE8F087B0F84CE0B0F84E4013FA26
:1050700082F61FFA82F97546B7B2A14538BF1546C8
:10508000B74208BF15461FFA85F8A145354638BF17
:10509000651EB74208BF3D46AEB2A0454FF00007BF
:1050A0004FF0000528BF0127764598BF01252F4303
:1050B00008D1F04588BFC646A64238BF3446A4EBA7
:1050C0000E0372460FB1BDE8F087076B89B2D7F8BF
:1050D00008C092B29BB2CDF820A0BDE8F04760476F
:1050E0002DE9F04F83B00C9FB1EB030C019048BF4A
:1050F000CCF1000CD01B48BF404260450BD915468F
:105100003A460290CDF800C095420DD82C460F4685
:10511000154619460AE00D4611461A463B46CDF89B
:1051200008C000909542F1D914461F464FF0FF3B4E
:10513000B9424FF6FE7688BF4FF0010BB54238BF3B
:105140002E46B44220D802991FFA8CF989B24FEA50
:1051500051081FFA80FA00BF0198BAB2CA45A5B239
:1051600086BF11462A46294600F014F800980134FB
:10517000A8EB00080FFA88F0002848BF5F440298A7
:1051800048BF8044B542E7D303B000F000B830BC5C
:10519000BDE8C08F70B582B0B0F84C309A4237D3BA
:1051A000B0F84E309A4233D2B0F8483099422FD3FB
:1051B000B0F84AC061452BD290F88C4044B301F15D
:1051C000010E1FFA8EF4744518BFACF10104A6B2AB
:1051D00061454FF000054FF0000428BF01259E42B5
:1051E00098BF012455EA040E01D0012307E099423B
:1051F00098BF1946664538BFB446ACEB0103BEF113
:10520000000F05D1066B0025B6689BB20095B0472C
:1052100002B070BD45F6914CC0F6000CC0F804C059
:1052200000F046B910B5B0F84E40DDF808C0B0F84F
:105230004CE0A2420BD262454FF000024FF0000456
:1052400088BF0122F44588BF012422430AE0624559
:105250004FF000024FF0000488BF0122F44588BFE0
:1052600001242240002A04BF002010BDB0F84A20CB
:10527000B0F8480091420BD2002299424FF0000151
:1052800088BF0121834288BF012241EA020010BD8C
:10529000002299424FF0000188BF0121834288BF5C
:1052A000012201EA020010BD10B5044600F01AFC0C
:1052B0002046BDE8104000F0C1BC0000B0B5044677
:1052C000806D88426CD0A16508780D4684F8740022
:1052D000487884F87500887884F87600C87884F86F
:1052E0007700087984F87800487984F8790088791B
:1052F00084F87A00C87984F87B00087A84F87C0006
:10530000487A84F87D00887A84F87E00C87A84F828
:105310007F00087B84F88000487B84F88100887BCC
:1053200084F88200C87B84F88300087C84F88400B9
:105330000846112100F07AFBA4F8860028461321C4
:1053400000F074FBA4F888002846152100F06EFBDD
:10535000A4F88A0025B394F88D1094F9812094F96B
:105360008200002984F88E2084F88F0008BFB0BD29
:10537000012908D194F983108A42B8BF84F88E10AD
:1053800094F9841008E094F97E3094F980100B446D
:105390009342C8BF84F88E308842C8BF84F88F100B
:1053A000B0BD000045F29151C0F60001C1657047E3
:1053B000B0B50446049884F8382040F20112A4F8ED
:1053C000922002680025C4E90B302046A56584F8C8
:1053D000395084F86D5084F8915084F88D50616391
:1053E00090470020CFF6FF70216B2065606549680B
:1053F000204688472046FFF7D5FF84F87050B0BD9F
:1054000070B582B01C4613460D4645F66D7145F6E3
:105410001562C0F60001C0F600020646009400F0D6
:1054200019FC0DF1070000F055FB9DF8072045F62B
:1054300035230146C0F6000330460095FFF7B8FF5C
:1054400002B070BD022B0AD0012B05D0002B14BF77
:105450001044084480B27047801A80B27047401AE6
:1054600080B27047022B0AD0012B05D0002B14BF4D
:10547000401A104480B27047084480B27047801AC6
:1054800080B2704780B5B0F83EC0DDF808E0A2EB0E
:105490000C02D0F82CC092B2CDF808E0BDE88040F4
:1054A00060470000DDF800C0CDF800C0FFF7EABF9C
:1054B0002DE9F04F81B01F4692460D4606464FF645
:1054C000FF7800F025FE72683978304690474045F5
:1054D00053D0A8F101017C1C4FF000091FFA81FB99
:1054E00007E08144726814F8011B3046904740453C
:1054F00045D087B25F45F5D096F870205046032A14
:1055000029461AD8DFE802F00214080FF16D304680
:1055100088475044294610E0F16D30468847AAEB91
:105520000000294609E0F16D30468847411903E043
:10553000F16D30468847291A5046A6F86410A6F83F
:1055400066003046394600F02BFA20B1014630465D
:1055500000F020F800E0002096F870100329C0D871
:10556000DFE801F0040902062D1ABAE70544B8E79E
:10557000AAEB000AB5E78244B3E74FF000091FFA2F
:1055800089F001B000F000B830BCBDE8C08F000069
:10559000002070472DE9F04F8BB083460166002054
:1055A0008BF86C009BF878000A780746082822BF21
:1055B0000131CBF86010A0F108074FF0FF3101FA7C
:1055C00000F09BF8793022EA0000DBF860508BF89D
:1055D0006C708BF86A00DA192E78D4B2082CFCB201
:1055E00026FA04F60AD36C1CCBF86040C7F1080712
:1055F0006D78FFB205FA07F73E43083A994026EA6C
:1056000001039BF8921003938BF86E10B1FA81F1AD
:1056100049098BF86B308BF86F109BF87A10DBF828
:1056200060308BF86C201E785518D7B2EAB2082A81
:1056300026FA07FC0AD35E1CCBF86060C7F10807A6
:105640005B78FFB2BB404CEA030C083D9BF87B3013
:10565000DBF860408BF86C505F192678FAB2082AA4
:10566000EAB226FA02F60AD3C5F10802651CCBF8A5
:1056700060506578D2B205FA02F21643083F4FFA3D
:1056800080F99BF87C00DBF860508BF86C7002901E
:1056900038442A78C4B2082CFCB222FA04F20BD3A4
:1056A0001446C7F108026F1CCBF860706F78D2B255
:1056B00007FA02F222430838B9F1010F01928BF880
:1056C0006C00C0F25A814FF0FF304A1E00FA01F11F
:1056D000D2B22CEA010100FA02F211445A1E4FB272
:1056E000D1B20122984002FA01F1039A26EA00039E
:1056F0001A44891A9BF87060BBF864004DB23946B1
:105700002A463346FFF79EFE8046BBF866003946C0
:105710002A463346ABF86480FFF7A4FE032EABF8AD
:10572000660026D8DFE806F0021A0812039908EB93
:10573000090340FA81F11EE0A8EB090108F1010319
:1057400001F10108039949B2421A04E00399A0EB60
:10575000090248FA81F3411C501C0CE0039908F13E
:10576000010349B2A8EB010101F1010800EB0901B5
:1057700001E0434601468FB21FFA88F182B29BB224
:1057800058460097FFF74EFD002800F0F6800020F5
:10579000ABF8680005E000BF039840B2854280F294
:1057A000E8809BF87600DBF860309BF86C70197825
:1057B0003A18D6B2082E21FA07F109D35E1CCBF8AD
:1057C0006060C7F108075B78FFB2BB401943083A35
:1057D0009BF87730DBF860508BF86C209F182E78A0
:1057E000FCB2082CD4B226FA04F60AD36C1CCBF80F
:1057F0006040C2F108026D78D2B205FA02F2164397
:10580000083F4FF0FF3202FA00F021EA0000059055
:1058100002FA03F026EA000004908BF86C7003E0B3
:10582000C0078BF86C10B7D09BF868A09BF8698014
:10583000059C00BF9BF86D009BF86A10A1EB0A0560
:1058400048BB9BF87090BBF866004FFA8AF64FFA97
:1058500088F731463A464B46CDF82880FFF702FEDE
:10586000BBF864108046084631463A464B46FFF77F
:10587000E9FD9BF86F200146E0B2EBB2984238BFD9
:1058800003468BF8922058464246CDF80090FFF729
:105890008BFBDDF82880E8B2E1B2814206D3641BBD
:1058A00008F101084FF0000AC4E700BF049B04EBB5
:1058B0000A018BF868108BF8698000BF9BF86A00BA
:1058C0009BF87060A0EB01090A935FFA83FABBF8BA
:1058D00066305FFA89F7BBF864004CB24FFA88F57E
:1058E0000997BA45079338BF5746069121462A467D
:1058F0003346FFF7A7FD0890079821462A4633460E
:10590000FFF7B0FD9BF86E1002468BF892100899D5
:1059100058463B465C460096FFF746FB0998824591
:1059200008D30A9B08F10108A3EB09030021A34651
:10593000C4E700BF06980A99236E084494F86C20C7
:1059400084F8680084F869801878511CCFB2A346A7
:10595000082F20FA02F0FFF463AF5F1CCBF86070F1
:10596000C2F108015B78C9B203FA01F10843D11F03
:1059700056E79BF86E008BF89200029A4FF0FF30CA
:1059800000FA02F1019B013AD2B223EA01019040F0
:10599000084440B20BB000F000B830BCBDE8C08F86
:1059A00070B50C46816DFF2C01F1170104D8612CF4
:1059B0002DD3B0F888002EE0B0F88A000E183546D6
:1059C0002846002100F032F806442846022100F063
:1059D0002DF8A04205F10405F2D3308840BAB0FAA0
:1059E00080F14FEA511170B1A0420AD0B078315A1B
:1059F0004ABAB2FA82F14FEA511122B1A2420644E8
:105A0000F4D1F01CFFE7002918BF002070BD412C25
:105A100002D3B0F886000144487820B10A78944255
:105A2000F9D1881C70BD002070BD0000405A00BA3A
:105A3000000C70472DE9F04102F00705012490F8B1
:105A4000926004FA05F7022EBC4628BF4FF0000C06
:105A5000B6F1010E18BFBE460768DDF818803F7C1E
:105A600022F00706426BB8F1000F07FB06F620D0C4
:105A700012FA86F2114408E04FEA4C0C4FEA4E0E3F
:105A8000013B1A0408BFBDE8F0810A78013542EAFB
:105A90000C0282EA0E0215F007050A70ECD1428F63
:105AA00090F892601144012E98BFA44618BFA646F4
:105AB000E6E7B0B208441044013800BF10F8011FF7
:105AC000013B41EA0C0181EA0E011A040170F5D193
:105AD000BDE8F081014640F2B8300822C2F2000071
